:020000040000FA
:0600000051EFB3F0120005
:0600080027EF76F0120064
:06001800CAEF75F01200B2
:06002A001600E86701006A
:10003000B407000001000000E7670100B3070000FB
:1000400001000000E3670100FA0400000400000062
:10005000E1670100AC07000002000000DE6701005C
:10006000F900000003000000CB6701003D0700001D
:1000700013000000CA670100B20700000100000081
:10008000526701008204000078000000DB66010076
:10009000B10700000100000050670100AA0700003E
:1000A0000200000002670100000600004E00000090
:1000B00055660100B007000001000000A3600100C8
:1000C000AF07000001000000FF660100FD03000013
:1000D00003000000F6660100570F00000900000051
:1000E000F4660100A807000002000000F2660100AB
:1000F000A607000002000000F0660100FE000000FC
:1001000002000000EC660100EF0E00000400000099
:10011000E26601009C0700000A000000E0660100A2
:10012000FC00000002000000DE660100FE0400008A
:0401300002000000C9
:0C013400020143510701A85D01E140D029
:10014000FE0EA85D1BE01C0EE66EE66A270EE66E4C
:10015000020EE66EA8511C0DF3CF14F0F4CF15F08B
:10016000000E1426010E152214C0E6FF15C0E6FF8E
:10017000E9ECA5F0166E060EE15E165043C2A8F734
:10018000FE0E0201435D01E11BD01C0EE66EE66A25
:1001900043511C0DF3CF14F0F4CF15F0000E1426CC
:1001A000010E152214C0E6FF15C0E6FF270EE66E0D
:1001B000020EE66EE9ECA5F0166E060EE15E165034
:1001C00012000701A851A95D01E169D0FE0EA95DE9
:1001D00032E0250E0201C66FC76B0201010EC56F2A
:1001E0000201020EC36F020EC46F0701A9511C0D5C
:1001F000F3CFE9FFF4CFEAFF000EE926010EEA2271
:100200001B0EE926000EEA22EFCFC2F2A9511C0D07
:10021000F3CFE9FFF4CFEAFF000EE926010EEA2250
:10022000EECFC0F2EFCFC1F20201250EC05F000E8B
:10023000C15BD7EC1CF0A8C7A9F7250E0201C66F59
:10024000C76B0701A9511C0DF3CFE9FFF4CFEAFFFB
:10025000000EE926010EEA221B0EE926000EEA2214
:10026000EFCFC5F2A8511C0DF3CFE9FFF4CFEAFFA1
:10027000000EE926010EEA22EECFC3F2EFCFC4F260
:100280000201250EC35F000EC45B0201010EC26FA6
:100290000201020EC06F020EC16FD7EC1CF01200FB
:1002A0000C01760E096F100E0A6F016B006B005186
:1002B000146E156A090E145C000E155801E326D160
:1002C00000CC43F237DF7DDFEC0E146E650E156E49
:1002D000010E166E00CC17F0186A196A060E0C6E25
:1002E0000D6A0E6A17C007F018C008F019C009F0AF
:1002F00002ECB2F004C017F005C018F006C019F007
:1003000014501724F36E15501820F46E165019204F
:10031000F86EF4CFF7FFF3CFF6FFF62A000EF722C0
:10032000F8220800F5CF08FCEC0E146E650E156E71
:10033000010E166E00CC17F0186A196A060E0C6EC4
:100340000D6A0E6A17C007F018C008F019C009F04E
:1003500002ECB2F004C017F005C018F006C019F0A6
:1003600014501724F36E15501820F46E16501920EF
:10037000F86EF4CFF7FFF3CFF6FF020EF626000E6D
:10038000F722F8220900F5CF02FC0A00F5CF03FCA2
:10039000EC0E146E650E156E010E166E00CC17F085
:1003A000186A196A060E0C6E0D6A0E6A17C007F0FD
:1003B00018C008F019C009F002ECB2F004C017F040
:1003C00005C018F006C019F014501724F36E15502C
:1003D0001820F46E16501920F86EF4CFF7FFF3CF03
:1003E000F6FF040EF626000EF722F8220900F5CFDC
:1003F00004FC0A00F5CF05FC0C01085101E085D092
:1004000009CC06FC0ACC07FC250E176A0225166EDD
:1004100003511722010E1626000E1722165004252E
:10042000146E17500521156E010E1426000E1522AC
:100430001450092715500A2309CC14F00ACC15F0E2
:10044000166A176AD880860E14541E0E1554000EB4
:100450001654000E175401E2EFD7EC0E146E650E21
:10046000156E010E166E00CC17F0186A196A060E8A
:100470000C6E0D6A0E6A17C007F018C008F019C09C
:1004800009F002ECB2F004C017F005C018F006C085
:1004900019F014501724F36E15501820F46E1650EE
:1004A0001920F86EF4CFF7FFF3CFF6FF0800F5CF71
:1004B00026F208CC42F2250E0C0106250201276F18
:1004C000000E0C0107210201286F27510C010225A3
:1004D0000201296F28510C01032102012A6F010E2C
:1004E0002927000E2A2329510C01042502012B6F14
:1004F0002A510C01052102012C6F0F0E3D6F3E9118
:10050000BAEC13F00C01002BD2D6FFD7120059DE43
:100510000A0EE66EE66A180EE66E020EE66E450EEE
:10052000E66E020EE66EE9ECA5F0146E060EE15ED4
:10053000145010C24FF211C250F2450E146E020E4A
:10054000156E14C0F3FF15C0F4FF00D012000C01AB
:100550002B6B2B51146E156A090E145C000E155886
:1005600001E3C7D02BCC43F2E5DD0F0E02013D5D68
:1005700001E0BCD026DE02015851265D01E0B6D074
:1005800055510CE156C212F257C213F23E81060ECB
:100590003D6F56C240F257C241F2A5D0000E005D39
:1005A000040E015906E3880ED8800055130E01553C
:1005B00003E2006B040E016F00C212F201C213F2DB
:1005C000002B000E012356C210F257C211F292EC1A
:1005D000B1F006C035F207C036F208C037F209C0E4
:1005E00038F202013E835551040A3EE0070A19E041
:1005F000020A03E0030A01E076D051C218F252C2A7
:1006000019F253C21AF254C21BF2020E555D02E0F7
:10061000000E01D0010E2495E8B02485020E3D6F36
:1006200062D053515125166E54515221176E1650F7
:100630005625146E17505721156E14501219406F1D
:1006400015501319416F51C218F252C219F253C218
:100650001AF254C21BF2256B260E026F036B046B59
:10066000056B040E3D6F3FD051C2E9FF52C2EAFF55
:10067000020EE926000EEA22EECF18F0EFCF19F0B5
:1006800051C2E9FF52C2EAFF1850EE24166E19500B
:10069000EE20176E16505625146E17505721156E02
:1006A00014501219406F15501319416F0A0EE66E5F
:1006B000E66A51C2E6FF52C2E6FF180EE66E020E6F
:1006C000E66EE9ECA5F0146E060EE15E1450020130
:1006D000070E3D6F0201010EA16F0201020EA06F15
:1006E000DBEC0EF000D00C012B5105D00C012B2BB4
:1006F00030D7FE0E00D0120059C243F21BDD0201BA
:100700003FA103D03F91010E02D0000E00D0120095
:100710005AC243F20FDD090E02013D5D04E03D5176
:1007200002E0000E01D0010E00D012005BC243F2C5
:1007300001DD31C233F232C234F202013D510A0A04
:1007400033E0010A31E0050A2FE00E0A2BE00D0A22
:100750001DE0050A0FE0010A0DE00E0A08E0040A98
:1007600001E022D00FEC8CF0BAEC13F027D0BAECF9
:1007700013F024D00201010EA16F0201110EA06F2F
:10078000DBEC0EF002010A0E3D6F18D00201010EE3
:10079000A16F0201110EA06FDBEC0EF002010E0E34
:1007A0003D6F0CD0010E3D6F0201A16B0201140ED2
:1007B000A06FDBEC0EF0BAEC13F000D012005CC2BC
:1007C00043F2B8DCFEDC02010E512D1902E10F519B
:1007D0002E1908E00201010EA16F0201180EA06F90
:1007E000DBEC0EF012005DC243F2A4DC3DC245FC1E
:1007F000090E0C01455D0AE00D0E455D07E045055B
:1008000005E0455103E0F36AF46A2FD002012F514D
:100810002D5D30512E591BE32751295D166E2A514B
:100820002855176E1606000E175A2F512D5D186E9B
:100830002E513055196E1850165C146E19501758F9
:10084000156E14C0F3FF15C0F4FF0FD00ED02D515C
:100850002F5D146E30512E55156E1406000E155A6C
:1008600014C0F3FF15C0F4FF00D012005EC243F2C3
:1008700061DC5EC25DF2B7DFF3CF05FCF4CF06FCAE
:100880000C010551061103E1000E63D008D0010EE2
:10089000051901E1065103E15EC25CF290DF02013D
:1008A0003E51200B14E12751295D146E2A51285521
:1008B000156ED890153214320C010551145C065196
:1008C000155805E35EC25CF27ADF02013E8B010E31
:1008D0000201C66FC76B0201C56F02015F0EC36FD5
:1008E000020EC46F42C2C2F22DC2C0F22EC2C1F2C9
:1008F000D7EC1CF002012D2B000E2E2329512D5D6B
:100900002A512E5904E327C22DF228C22EF20C01DF
:10091000010E051901E1065104E15EC25CF24FDFF0
:1009200016D002013EB513D03E859DECB1F006C055
:1009300014F007C015F0166A176A060E1426000E8A
:1009400015221622172214C039F215C03AF2010EF0
:1009500000D012000C01AA6BAB6B60C243F29AECA0
:1009600000F060C25DF23FDFF3CFA8FCF4CFA9FC3A
:100970000C01A851A91106E160C25CF220DFF36A04
:10098000F46AADD0A8CCA6FCA9CCA7FCA851020162
:10099000635D0C01A9510201645904E263C2A6FC23
:1009A00064C2A7FC3E51200B14E12751295D146E4F
:1009B0002A512855156ED890153214320C01A851C1
:1009C000145CA951155805E360C25CF2F8DE02011F
:1009D0003E8B02012D510C01A625146E02012E51F1
:1009E0000C01A721156E02012951145C2A511558DA
:1009F0002DE32D51295D0C01AA6F02012E512A59B8
:100A00000C01AB6FAACCC6F2ABCCC7F20201010E4F
:100A1000C56F61C2C3F262C2C4F242C2C2F22DC249
:100A2000C0F22EC2C1F2D7EC1CF00C01AA51020197
:100A300061270C01AB51020162230C01AA51A65F90
:100A4000AB51A75B27C22DF228C22EF2A6CCC6F26C
:100A5000A7CCC7F20201010EC56F61C2C3F262C228
:100A6000C4F242C2C2F22DC2C0F22EC2C1F2D7EC11
:100A70001CF00C01A65102012D270C01A751020107
:100A80002E230C01A8510201635D0C01A951020142
:100A9000645904E360C25CF292DE15D03EB513D017
:100AA0003E859DECB1F006C014F007C015F0166A43
:100AB000176A060E1426000E15221622172214C0DD
:100AC00039F215C03AF20C01A651AA25146EA751AD
:100AD000AB21156E14C0F3FF15C0F4FF00D0120057
:100AE0000C012E6B2F6B65C243F29AEC00F065C2CD
:100AF0005DF279DEF3CF2CFCF4CF2DFC0C012C51F0
:100B00002D1106E165C25CF25ADEF36AF46AB0D0D8
:100B100002013E51200B14E12751295D146E2A5128
:100B20002855156ED890153214320C012C51145CD6
:100B30002D51155805E365C25CF241DE02013E8B82
:100B40002CCC2AFC2DCC2BFC0C012C510201695D14
:100B50000C012D5102016A5904E269C22AFC6AC2E1
:100B60002BFC2D510C012A25146E02012E510C0173
:100B70002B21156E02012951145C2A51155830E3BE
:100B80002D51295D0C012E6F02012E512A590C01A5
:100B90002F6F2ECCCEF22FCCCFF266C2CBF267C233
:100BA000CCF268C2CDF242C2CAF22DC2C8F22EC245
:100BB000C9F237EC1DF02ECC14F02FCC15F0166ACC
:100BC00014500201662715506723165068230C0144
:100BD0002E512A5F2F512B5B27C22DF228C22EF2F5
:100BE0002ACCCEF22BCCCFF266C2CBF267C2CCF2CB
:100BF00068C2CDF242C2CAF22DC2C8F22EC2C9F2F8
:100C000037EC1DF00C012A5102012D270C012B514C
:100C100002012E230C012C510201695D0C012D51A2
:100C200002016A5904E365C25CF2C9DD15D03EB524
:100C300013D03E859DECB1F006C014F007C015F04E
:100C4000166A176A060E1426000E1522162217229F
:100C500014C039F215C03AF20C012A512E25146E37
:100C60002B512F21156E14C0F3FF15C0F4FF00D0D7
:100C700012006CC2E6FF6DC2E6FFDCECA6F0E552A6
:100C8000E552F3CF63F2F4CF64F26CC261F26DC24D
:100C900062F26BC260F25EDE02016C51F324146EEC
:100CA0006D51F420156E14C0F3FF15C0F4FF00D091
:100CB00012006FC2E6FF70C2E6FF71C2E6FFEAEC07
:100CC000A6F0E552E552E55207C069F208C06AF2A3
:100CD0006FC266F270C267F271C268F26EC265F2EC
:100CE000FFDEF3CF17F0F4CF18F0196A02016F514D
:100CF0001724146E70511820156E71511920166E3C
:100D000014C007F015C008F016C009F000D012009A
:100D100072C243F29AEC00F002012751295D0C01E6
:100D2000066F020128512A590C01076F010E065F58
:100D3000000E075B72C25DF256DDF3CF04FCF4CF08
:100D400005FC0C010451065D146E07510555156E26
:100D500014C0F3FF15C0F4FF00D0120073C274F288
:100D600018D8F3CF14F0F4CF15F01450151010E08C
:100D700073C243F29AEC00F031C233F232C234F261
:100D80000201010EA16F0201100EA06FDBEC0EF04C
:100D9000120074C243F29AEC00F002013D0503E137
:100DA000F36AF46A2CD03351315D345132590CE37B
:100DB0003351315D146E32513455156E14C0F3FF4A
:100DC00015C0F4FF1CD01BD033512B5D166E2C5177
:100DD0003455176E010E1626000E17222951315D6B
:100DE000186E32512A55196E16501824146E175069
:100DF0001920156E14C0F3FF15C0F4FF00D01200C7
:100E000075C274F2C6DFF3CF00FCF4CF01FC0C0115
:100E10000051011102E1000E48D075C243F29AEC74
:100E200000F002017651771112E0010E0201C66F47
:100E3000C76B42C2C5F233C2C3F234C2C4F202016C
:100E4000C26F76C2C0F277C2C1F2D7EC1CF00201C9
:100E5000332B000E342333512B5D34512C5904E2D3
:100E600029C233F22AC234F20C01010E001901E149
:100E7000015103E102013E8D16D002013EB513D0AF
:100E80003E859DECB1F006C014F007C015F0166A5F
:100E9000176A060E1426000E15221622172214C0F9
:100EA00039F215C03AF2010E00D012000C012D6B80
:100EB0002E6B78C243F29AEC00F078C274F269DFCC
:100EC000F3CF2BFCF4CF2CFC02017B510C012B5DEA
:100ED00002017C510C012C5904E22BCC7BF22CCC6E
:100EE0007CF2020133517B25146E34517C21156E46
:100EF00014502B5D15502C5938E233512B5D0C01E9
:100F00002D6F020134512C590C012E6F010E2D272B
:100F1000000E2E23020179517A111BE02DCCC6F26E
:100F20002ECCC7F242C2C5F233C2C3F234C2C4F2FD
:100F30000201010EC26F79C2C0F27AC2C1F2D7ECCF
:100F40001CF00C012D51020179270C012E510201D8
:100F50007A230C012D5102017B5F0C012E510201FD
:100F60007C5B29C233F22AC234F279517A1113E040
:100F70007BC2C6F27CC2C7F242C2C5F233C2C3F220
:100F800034C2C4F20201010EC26F79C2C0F27AC249
:100F9000C1F2D7EC1CF002017B5133277C51342382
:100FA0007B510C012B5D146E2C5102017C55156E8A
:100FB00014507B5D15507C5902E33E8D15D03EB533
:100FC00013D03E859DECB1F006C014F007C015F0BB
:100FD000166A176A060E1426000E1522162217220C
:100FE00014C039F215C03AF202017B510C012D25D3
:100FF000146E02017C510C012E21156E14C0F3FFFA
:1010000015C0F4FF00D012007DC243F29AEC00F04C
:10101000020129512B5D0C01026F02012A512C594A
:101020000C01036F7DC274F2B4DEF3CF00FCF4CF89
:1010300001FC0C010051025D146E03510155156E47
:1010400014C0F3FF15C0F4FF00D01200020181515B
:10105000821103E1F36AF46AB2D17EC243F29AECE0
:1010600000F07EC274F295DE02018351F35C0C0144
:10107000026F02018451F4580C01036F0201815187
:101080000C01025D020182510C01035903E2F36875
:10109000F46895D10201855186110DE00C010251D1
:1010A0000201855D0C0103510201865904E285C2EB
:1010B00002FC86C203FC335183250C01066F02013A
:1010C000345184210C01076F065102012B5D0C0184
:1010D000075102012C590FE229512B5D146E2C513E
:1010E0002A55156E010E1426000E152214500C01FF
:1010F000065F1550075B06CC00FC07CC01FC0C0119
:10110000065102012B5D0C01046F075102012C599D
:101110000C01056F010E0427000E052383C206FC97
:1011200084C207FC81C208FC82C209FC7FC20AFC9F
:1011300080C20BFC02017FC2E9FF80C2EAFF7F2B65
:101140008023EFCF0DFC0C010F6B0201875109E0EA
:10115000610E0C010D5D05E30D517A0802E3E00E0E
:101160000D270C01200E0E6F0E51045D000E055967
:1011700002E204CC0EFC0E51025D000E035902E2A5
:1011800002CC0EFC0E510201C66FC76B42C2C5F203
:1011900000CCC3F201CCC4F20201010EC26F020105
:1011A000100EC06F0C0EC16FD7EC1CF00C010E516D
:1011B000146E156A14500027155001230E51146E39
:1011C000156A1450045F1550055B0451051106E1C2
:1011D00029C200FC2AC201FC046905690201875189
:1011E00001E181D00C010C6B0E510C5D01E37AD052
:1011F0000C51EA6A100FE96E0C0EEA22EFCF14F0E0
:10120000610E145C13E30C51EA6A100FE96E0C0EC8
:10121000EA22EF507A080AE3E00E146E0C51EA6AF3
:10122000100FE96E0C0EEA221450EF260C51EA6AF8
:10123000100FE96E0C0EEA22EF500D5D33E1020152
:101240008107000E825B8151821117E10C01085168
:10125000065D166E07510955176E0C5100011624D4
:10126000146E000E1720156E010E1426000E1522A6
:1012700014C0F3FF15C0F4FFA2D07FC2E9FF80C203
:10128000EAFF7F2B000E8023EFCF0DFC0C01010E37
:101290000F6F610E0D5D05E30D517A0802E3E00E5C
:1012A0000D271ED008CC81F209CC82F20F5118E034
:1012B0000ACC7FF20BCC80F202017FC2E9FF80C230
:1012C000EAFF7F2B000E8023EFCF0DFC610E0C0197
:1012D0000D5D05E30D517A0802E3E00E0D270F6B5B
:1012E0000C2B82D751D00C010C6B0E510C5D4CE2D3
:1012F0000C51EA6A100FE96E0C0EEA22EF500D5DF8
:101300002BE102018107000E825B8151821117E1FE
:101310000C010851065D166E07510955176E0C51E8
:1013200000011624146E000E1720156E010E1426EF
:10133000000E152214C0F3FF15C0F4FF40D07FC289
:10134000E9FF80C2EAFF7F2B000E8023EFCF0DFC68
:101350000C01010E0F6F16D008CC81F209CC82F27D
:101360000F5110E00ACC7FF20BCC80F202017FC259
:10137000E9FF80C2EAFF7F2B000E8023EFCF0DFC38
:101380000C010F6B0C2BB1D70E51146E156A145053
:10139000025F1550035B020181510C01025D0201E5
:1013A00082510C01035903E2F368F46808D00E512E
:1013B000146E156A1450062715500723D2D6120052
:1013C00002018C518D1103E1F36AF46ACCD188C219
:1013D00043F29AEC00F088C274F2DBDC02018E5119
:1013E000F35C0C01026F02018F51F4580C01036F82
:1013F00002018C510C01025D02018D510C01035957
:1014000003E2F368F468AFD10201905191110DE04D
:101410000C0102510201905D0C010351020191592E
:1014200004E290C202FC91C203FC33518E250C01F0
:10143000066F020134518F210C01076F0651020122
:101440002B5D0C01075102012C590FE229512B5D34
:10145000146E2C512A55156E010E1426000E1522FD
:1014600014500C01065F1550075B06CC00FC07CC3E
:1014700001FC0C01065102012B5D0C01046F0751A8
:1014800002012C590C01056F010E0427000E0523E3
:101490008EC206FC8FC207FC8CC208FC8DC209FC00
:1014A00089C20AFC8AC20BFC8BC20CFC020189C2F5
:1014B000F6FF892B8AC2F7FF8A238BC2F8FF8B23A2
:1014C0000800F5CF0EFC0C01106B0201925109E0EF
:1014D000610E0C010E5D05E30E517A0802E3E00E89
:1014E0000E270C01200E0F6F0F51045D000E0559E1
:1014F00002E204CC0FFC0F51025D000E035902E220
:1015000002CC0FFC0F510201C66FC76B42C2C5F27D
:1015100000CCC3F201CCC4F20201010EC26F020181
:10152000110EC06F0C0EC16FD7EC1CF00C010F51E7
:10153000146E156A14500027155001230F51146EB4
:10154000156A1450045F1550055B0451051106E13E
:1015500029C200FC2AC201FC0469056902019251FA
:1015600001E18BD00C010D6B0F510D5D01E384D0B7
:101570000D51EA6A110FE96E0C0EEA22EFCF14F05A
:10158000610E145C13E30D51EA6A110FE96E0C0E43
:10159000EA22EF507A080AE3E00E146E0D51EA6A6F
:1015A000110FE96E0C0EEA221450EF260D51EA6A73
:1015B000110FE96E0C0EEA22EF500E5D37E10201C9
:1015C0008C07000E8D5B8C518D1117E10C010851B9
:1015D000065D166E07510955176E0D510001162450
:1015E000146E000E1720156E010E1426000E152223
:1015F00014C0F3FF15C0F4FFB6D089C2F6FF892BE3
:101600008AC2F7FF000E8A238BC2F8FF8B230800E3
:10161000F5CF0EFC0C01010E106F610E0E5D05E39F
:101620000E517A0802E3E00E0E2724D008CC8CF28B
:1016300009CC8DF210511EE00ACC89F20BCC8AF253
:101640000CCC8BF2020189C2F6FF892B8AC2F7FF0C
:10165000000E8A238BC2F8FF8B230800F5CF0EFC07
:10166000610E0C010E5D05E30E517A0802E3E00EF7
:101670000E27106B0D2B78D75BD00C010D6B0F5123
:101680000D5D56E20D51EA6A110FE96E0C0EEA2269
:10169000EF500E5D2FE102018C07000E8D5B8C5127
:1016A0008D1117E10C010851065D166E07510955A1
:1016B000176E0D5100011624146E000E1720156EC2
:1016C000010E1426000E152214C0F3FF15C0F4FFFE
:1016D0004AD089C2F6FF892B8AC2F7FF000E8A23FF
:1016E0008BC2F8FF8B230800F5CF0EFC0C01010E16
:1016F000106F1CD008CC8CF209CC8DF2105116E082
:101700000ACC89F20BCC8AF20CCC8BF2020189C292
:10171000F6FF892B8AC2F7FF000E8A238BC2F8FFDF
:101720008B230800F5CF0EFC0C01106B0D2BA7D7F7
:101730000F51146E156A1450025F1550035B0201BD
:101740008C510C01025D02018D510C01035903E221
:10175000F368F46808D00F51146E156A1450062708
:1017600015500723BED6120099C287F297C285F2A0
:1017700098C286F295C283F296C284F2010E0201EB
:10178000816F826B0201940E7F6F020E806F93C295
:101790007EF25CDC00D012000C01006B0051146E74
:1017A000156A090E145C000E155801E34ED200CCE8
:1017B00043F29AEC00F00C01036B016B026B020127
:1017C0003EAD07D04EEC61F0000903E00C01100EB5
:1017D000036F02013EA513D09DECB1F0020106504B
:1017E000395D146E07503A59156E153404E21450E1
:1017F0000008000E155403E30C01100E036F0201E4
:101800003EA713D09DECB1F0020106503B5D146E73
:1018100007503C59156E153404E214500008000EB0
:10182000155403E30C01100E036F0D0E02013D5D14
:1018300016E19DECB1F0020106503B5D146E0750BD
:101840003C59156E153404E214500008000E15546E
:1018500006E30C01110E036F02010E0E3D6F0C0129
:10186000035106E00201010EA16F03CCA0F2A3DA3E
:1018700002013EB334D0090E3D5D30E192ECB1F08F
:1018800002013551065C146E36510758156E3751FA
:101890000858166E38510958176E0001800E17143B
:1018A00001E0D0D1E1EC00F00201020EA16F0201D3
:1018B000100EA06F80DA92ECB1F006C035F207C0CE
:1018C00036F208C037F209C038F2E60E02013527B9
:1018D000F50E3623050E3723000E3823B3D192ECD4
:1018E000B1F002013551065C146E36510758156E81
:1018F00037510858166E38510958176E0001800E7E
:10190000171401E09FD1E1EC00F002013D510E0AF5
:1019100001E13BD1020A01E129D1070A01E120D10D
:10192000010A01E10ED1030A01E1FCD0040A01E140
:10193000F9D0050A01E1E1D00F0A01E1D8D0020A8D
:1019400001E180D0010A6DE0070A22E0010A01E00E
:101950002BD106EC8CF000091AE00201030E3D6F5A
:1019600024A50CD00201010EE66F18C2E3F219C2E1
:10197000E4F21AC2E5F242EC8CF009D00201010E49
:10198000E26F18C2E0F219C2E1F222EC8CF00CD145
:101990000201040EE76F0C0EE86F65EC8CF0000995
:1019A0003FE00FEC8CF0000926E00201040E3D6FD1
:1019B0000C0106510425166E07510521176E1650AD
:1019C00002011025146E17501121156E14501219B2
:1019D000406F15501319416F04CC18F205CC19F261
:1019E00006CC1AF207CC1BF2256B260E026F036B96
:1019F000046B056B15D092ECB1F006C035F207C050
:101A000036F208C037F209C038F2E60E0201352777
:101A1000F50E3623050E3723000E3823020E3D6FD8
:101A2000C3D09DECB1F006C039F207C03AF207010D
:101A3000180E356F020E366F44ECA1F00201050E50
:101A40003D6FB2D007011C0E396F020E3A6F0701CD
:101A5000180E376F020E386F88ECA1F000093FE1D5
:101A600039C218F03AC219F01A6A1B6A18C0E6FFA8
:101A700019C0E6FF1AC0E6FF1BC0E6FF9DECB1F0FF
:101A8000E552E7CF1BF0E552E7CF1AF0E552E7CF7A
:101A900019F0E552E7CF18F000011850065C146EFB
:101AA00019500758156E1A500858166E1B500958D1
:101AB000176E14500201025D155003591650045957
:101AC000175005590BE2060E255D06E2252BD8902E
:101AD0000237033704370537040E3D6F65D00C011C
:101AE000020E036F016B0201070E3D6F5DD00C010A
:101AF000020E036F010E016F57D0020E255D06E244
:101B00000C01120E036F010E016F0BD03EA106D027
:101B10000C01140E036F010E026F03D00C01020EB4
:101B2000036F42D0050E255D06E20C01180E036F0F
:101B3000010E016F05D00A0E3D6F0C01110E036FEF
:101B400033D0050E255D06E20C01110E036F010E68
:101B5000016F05D00C01140E036F010E026F24D02B
:101B60000C01140E036F010E026F1ED0050E255DD1
:101B700006E20C01100E036F010E016F05D00C017F
:101B8000140E036F010E026F0FD0050E255D06E2E5
:101B90000C01110E036F010E016F05D00C01140E24
:101BA000036F010E026F00D00C01035146E001519A
:101BB0003EE00201252BD890023703370437053762
:101BC0002F510E5D146E0F513055156E166A176A3F
:101BD00015AE02D0166817681450065F1550075BE3
:101BE0001650085B1750095B2F510E5D30510F598D
:101BF00014E22751295D146E2A512855156E166A74
:101C0000176A15AE02D0166817681450065F155093
:101C1000075B1650085B1750095B2FC20EF230C2EB
:101C20000FF20201A16B03CCA0F2C5D806D00201CD
:101C3000010EA16F03CCA0F2BED80C01025102E04C
:101C4000BAEC13F00C01002BA9D512009AC2E9FFDF
:101C50009BC2EAFFEECF14FCEECF15FCEECF16FCD4
:101C6000EFCF17FC9CC2E9FF9DC2EAFFEECF18FC44
:101C7000EECF19FCEECF1AFCEFCF1BFC0C011C6B56
:101C8000060E1D6F9EC21EFC9FC21FFC1ECC74F66A
:101C90001FCC75F603EC75F0F3CF1EFCF4CF1FFCE0
:101CA0000C0E06017C6F7D6B0601140E7A6F0C0E14
:101CB0007B6F2AEC75F0F3CF20FCF4CF21FC0C01F4
:101CC000201F211F9EC2D6F59FC2D7F5D6EC64F027
:101CD000F3CF22FCF4CF23FC0C012251201902E1A6
:101CE0002351211904E05CEC61F0010E63D007017F
:101CF0005E6B5F6BABECA9F0140E0501E06FE16B5E
:101D00000501000EDE6F0C0EDF6FE5EC66F00201E0
:101D1000000EA66F0C0EA76FDFEC12F00C010C5139
:101D2000F00BE842E842E842E842040DF350146E3A
:101D3000156A140E145E000E155A14C024FC2451AA
:101D4000146E156A145002019E5D9E6F15509F59C6
:101D50009F6F140E9E5F000E9F5B9AC2E9FF9BC2AD
:101D6000EAFF010EEE1806E1EE5004E1EE5002E14A
:101D70007F0EEE1804E15CEC61F0010E1BD09AC2FC
:101D8000A4F29BC2A5F20201000EA26F0C0EA36F7B
:101D90002EDB00090BE09EC2AAF29FC2ABF2020149
:101DA000000EA86F0C0EA96FF6EC13F05CEC61F05E
:101DB000010E00D0120002013D5102E03D0501E19B
:101DC00015D3E1EC00F00201A0A102D03E8FA0915A
:101DD0003E953E973E993E9D3E9B4EEC61F000093C
:101DE00001E1FBD7060E0201A01504E00C016B6BAC
:101DF0006C6B69D10E512D1902E10F512E190BE1B7
:101E00000C016B6B6C6B02013EAF04D014511511C9
:101E100001E0A08158D12D510E5D2E510F5901E3E3
:101E200079D00E512D5D0C016B6F02010F512E59AF
:101E30000C016C6F14C26DFC15C26EFC02012F51B7
:101E40000E5D30510F590CE32F510E5D146E0F5182
:101E50003055156E14500C016D5F15506E5B17D028
:101E60002751295D166E2A512855176E0E512F5D88
:101E7000186E30510F55196E1850165C146E1950AB
:101E80001758156E14500C016D5F15506E5B6B5139
:101E90006D5D6C516E5904E26DCC6BFC6ECC6CFCCC
:101EA000180ED8806B55020E6C5506E2180E6B6F3B
:101EB000020E6C6F02013E8D02013EAF0FD00C018D
:101EC0006D516B1902E16E516C1908E0180E6B1917
:101ED00002E1020E6C1902E00201A0816BCCC6F295
:101EE0006CCCC7F242C2C5F20EC2C3F20FC2C4F23A
:101EF0000201C26B0201BB0EC06F0A0EC16FD7ECAC
:101F00001CF00C016B5102010E270C016C510201F7
:101F10000F23D9D00E51295D0C01696F02010F51B9
:101F20002A590C016A6F695102012D25146E0C01AA
:101F30006A5102012E21156E2751145C0C016B6F42
:101F40000201285115580C016C6F14C26DFC15C2AA
:101F50006EFC02012F510E5D30510F590CE32F51D1
:101F60000E5D146E0F513055156E14500C016D5FDF
:101F700015506E5B17D02751295D166E2A512855D2
:101F8000176E0E512F5D186E30510F55196E185087
:101F9000165C146E19501758156E14500C016D5FB5
:101FA00015506E5B6B516D5D6C516E5904E26DCCDA
:101FB0006BFC6ECC6CFC180ED8806B55020E6C5509
:101FC00006E2180E6B6F020E6C6F02013E8D02016D
:101FD0003EAF0FD00C016D516B1902E16E516C19BF
:101FE00008E0180E6B1902E1020E6C1902E0020102
:101FF000A0810C0169516D5D6A516E5904E26DCC8E
:1020000069FC6ECC6AFC180ED8806955020E6A55C0
:1020100004E2180E696F020E6A6F69CCC6F26ACCD0
:10202000C7F242C2C5F20EC2C3F20FC2C4F202012D
:10203000C26B0201BB0EC06F0A0EC16FD7EC1CF061
:102040000C0169516B5D696F6A516C596A6F695116
:102050006A1122E069CCC6F26ACCC7F242C2C5F26C
:1020600027C2C3F228C2C4F20201C26B02010E51A0
:10207000295D146E2A510F55156E166A176ABB0E2C
:1020800014260A0E1522000E1622172214C0C0F2C2
:1020900015C0C1F2D7EC1CF00C016B5102010E27E8
:1020A0000C016C5102010F2329510E5D2A510F5969
:1020B0000AE32751295D146E2A512855156E1450D4
:1020C0000E5F15500F5B0C016B516C1104E1030E98
:1020D0000201A0151BE00201A1A107D0256B970EFC
:1020E000026F980E036F046B056B92ECB1F0065013
:1020F00002010225356F07500321366F0850042175
:10210000376F09500521386F3E8325D0A1A30AD02F
:102110000607000E075B085B095B010E0C016B6F85
:102120006C6B19D03EA317D0A1B106D02507D8906B
:10213000053304330333023392ECB1F0065002014D
:102140000225356F07500321366F08500421376F81
:1021500009500521386F12C247FC13C248FC10C257
:1021600049FC11C24AFC06C24BFC07C24CFC08C227
:102170004DFC09C24EFC0AC24FFC0BC250FC0CC203
:1021800051FC0DC252FC0C01549D549F539153932A
:1021900053955397A0C254FC596B5A6B6B51020173
:1021A00006270C016C5102010723000E08230923A6
:1021B000A0A30DD024A306D00C014B074C5B4D5BB4
:1021C0004E5B05D0062B0723082309232483020135
:1021D000A0A10DD024A106D00C014B074C5B4D5B98
:1021E0004E5B05D0062B0723082309232481020117
:1021F0003351315D3451325914E329512B5D146E42
:102200002C512A55156E3351315D166E32513455AD
:10221000176E0C011650145C556F17501558566FF9
:102220000DD03151335D0C01556F020132513459DB
:102230000C01566F010E555F000E565B95EC61F078
:10224000F3CF45FCF4CF46FC0C01400E455F000E79
:10225000465B800E461502E0456B466B5551455D69
:102260005651465904E245CC55FC46CC56FC020179
:10227000470EA66F0C0EA76FA2D9140E0C016B2788
:10228000000E6C235389539B538D539F0201A0A3CF
:1022900026D0040E0C016B27000E6C23020E5B6F20
:1022A000040E5C6F020E5D6F140E5E6F010E146EF5
:1022B000530EE96E0C0EEA6EEF50F00BE842E84266
:1022C000E842E84214240F0BF36EF46EF346F34633
:1022D000F346F3460F0EEF14F310EF6EF450B4C351
:1022E0005FFCB5C360FCB6C361FCB7C362FC18C237
:1022F00063FC19C264FC1AC265FC1BC266FC0C01BB
:10230000676B060E686F6BCC69FC6CCC6AFC69CCA1
:1023100074F66ACC75F603EC75F0F3CF69FCF4CF74
:102320006AFC0C0E06017C6F7D6B06015F0E7A6FF6
:102330000C0E7B6F2AEC75F0F3CF57FCF4CF58FCF2
:102340000C01571F581F0501930ECE6F0A0ECF6F59
:1023500042EC64F06BCC5CF76CCC5DF70701060EC9
:102360005B6F0701180E596F020E5A6F37ECA9F018
:10237000140E0501E56FE66B0501470EE36F0C0EC9
:10238000E46F32EC67F00201A0A30BD0040E05014C
:10239000E56FE66B05015B0EE36F0C0EE46F32EC4C
:1023A00067F00501A70ED06F0A0ED16F62EC64F0E2
:1023B0006BCCD6F56CCCD7F5D6EC64F0F3CF45FCFE
:1023C000F4CF46FC0501B70ECE6F0A0ECF6F42EC7C
:1023D00064F0020E0501E56FE66B0501450EE36F43
:1023E0000C0EE46F32EC67F013EC63F012000C019A
:1023F000FE0E266FA4C2E9FFA5C2EAFF020EE9267F
:10240000000EEA22EECF18F0EFCF19F0A4C2E9FFD8
:10241000A5C2EAFF1850EE24166E1950EE20176E72
:10242000A2C2E9FFA3C2EAFF1650EE24146E1750B1
:10243000EE20156EA2C2E9FFA3C2EAFF020EE92652
:10244000000EEA221450EE18276F1550EE18286F70
:10245000256B2551146E156A090E145C000E155873
:1024600067E225CC43F29AEC00F00F0E02013D5DCD
:1024700002E15BD024D0060E3D5D16E1A2C2E9FF69
:10248000A3C2EAFF020EE926000EEA22EECF14F004
:10249000EFCF15F01450401902E11550411902E137
:1024A00025CC26FC42D00BD00C012751020140194B
:1024B00004E10C0128510201411901E036D0E1ECA0
:1024C00000F0A2C2E9FFA3C2EAFF020EE926000E55
:1024D000EA22EECF14F0EFCF15F0020112511418DA
:1024E00002E11351151821E1A2C2E9FFA3C2EAFFDC
:1024F000EECF16F0EFCF17F01051161802E1115180
:10250000171813E1A4C2E9FFA5C2EAFFEE5018199B
:1025100009E1EE50191906E1EE501A1903E1EE50E7
:102520001B1900E102E1010E49D00C01252B91D7C6
:10253000FE0E265D02E1000E41D026CC43F29AEC5D
:1025400000F0E1EC00F027CC40F228CC41F20A0E7A
:10255000E66EE66AA4C2E6FFA5C2E6FF180EE66EC6
:10256000020EE66EE9ECA5F0146E060EE15E145064
:10257000A2C2E9FFA3C2EAFFEECF10F2EDCF11F243
:10258000A2C2E9FFA3C2EAFF020EE926000EEA2278
:10259000EECF12F2EDCF13F254ECA3F0F3CF06F22C
:1025A000F4CF07F254ECA3F0F3CF08F2F4CF09F222
:1025B00027C20EF228C20FF2010E00D01200A6C2EE
:1025C000E9FFA7C2EAFFEECF74F6EDCF75F603EC94
:1025D00075F0F3CF14F0F4CF15F0A6C2E9FFA7C24F
:1025E000EAFF14C0EEFF15C0EDFFA6C2E9FFA7C2C7
:1025F000EAFF020EE926000EEA22EECF74F6EDCFD6
:1026000075F603EC75F0F3CF14F0F4CF15F0A6C215
:10261000E9FFA7C2EAFF020E14C0EBFF030E15C0CC
:10262000EBFFA6C2E9FFA7C2EAFF040EE926000EEF
:10263000EA22EECF76F6EECF77F6EECF78F6EFCF52
:1026400079F613EC75F006C014F007C015F008C059
:1026500016F009C017F0A6C2E9FFA7C2EAFF040EF0
:10266000E926000EEA2214C0EEFF15C0EEFF16C0E8
:10267000EEFF17C0EEFFA6C2E9FFA7C2EAFF080EF1
:10268000E926000EEA22EECF76F6EECF77F6EECF11
:1026900078F6EFCF79F613EC75F006C014F007C0AA
:1026A00015F008C016F009C017F0A6C2E9FFA7C2CE
:1026B000EAFF080EE926000EEA2214C0EEFF15C05C
:1026C000EEFF16C0EEFF17C0EEFFA6C2E9FFA7C2DD
:1026D000EAFF0E0EE926000EEA22EECF74F6EDCFE9
:1026E00075F603EC75F0F3CF14F0F4CF15F0A6C235
:1026F000E9FFA7C2EAFF0E0E14C0EBFF0F0E15C0D4
:10270000EBFFA6C2E9FFA7C2EAFF100EE926000E02
:10271000EA22EECF74F6EDCF75F603EC75F0F3CF49
:1027200014F0F4CF15F0A6C2E9FFA7C2EAFF100E1D
:1027300014C0EBFF110E15C0EBFFA6C2E9FFA7C244
:10274000EAFF120EE926000EEA22EECF74F6EDCF74
:1027500075F603EC75F0F3CF14F0F4CF15F0A6C2C4
:10276000E9FFA7C2EAFF120E14C0EBFF130E15C05B
:10277000EBFF1200E1EC00F012C240F213C241F292
:1027800027C22DF228C22EF227C22FF228C230F221
:1027900029C231F22AC232F229C233F22AC234F2F9
:1027A00002013E51010B02E0060E01D00F0E3D6FFB
:1027B0003E933E953E973E993E9B3E9D3E9F3F8178
:1027C0002491249327C20EF228C20FF254ECA3F0F6
:1027D000F3CF06F2F4CF07F254ECA3F0F3CF08F2F4
:1027E000F4CF09F20201226923691200A8C2E9FFAD
:1027F000A9C2EAFF0D0EE926000EEA22EFCF33FC54
:10280000A8C2E9FFA9C2EAFF080EE926000EEA22E3
:10281000EECF34FCEECF35FCEECF36FCEFCF37FCFD
:10282000A8C2E9FFA9C2EAFF040EE926000EEA22C7
:10283000EECF38FCEECF39FCEECF3AFCEFCF3BFCCD
:1028400002013EB313D092ECB1F006C035F207C0DE
:1028500036F208C037F209C038F2E60E0201352719
:10286000F50E3623050E3723000E38233D51070A97
:1028700043E0010A08E0AAC23CFCABC23DFC0C01EB
:1028800033A1B2D0AED00C0133A503D073DFA6EFD5
:102890001AF033A912D034CC06F235CC07F236CC7C
:1028A00008F237CC09F20201A16B0201040EA06FFD
:1028B000DBEC0EF05FDFA6EF1AF033A31AD038CCB2
:1028C0000AF239CC0BF23ACC0CF23BCC0DF20201FD
:1028D0000A2B000E0B230C230D230201010EA16F06
:1028E0000201120EA06FDBEC0EF00201080E3D6F2C
:1028F00001D040DFA6EF1AF00C0133A502D0A6EFFD
:102900001AF033A934D0340EE96E0C0EEA6EEE5094
:102910000201061909E1EE50071906E1EE50081907
:1029200003E1EE50091900E122E006C238FC07C2BB
:1029300039FC08C23AFC09C23BFC34CC06F235CC67
:1029400007F236CC08F237CC09F20201010EA16F72
:102950000201040EA06FDBEC0EF038CC06F239CC8D
:1029600007F23ACC08F23BCC09F2A6EF1AF00C01C0
:1029700033A335D038CC0AF239CC0BF23ACC0CF276
:102980003BCC0DF202010A2B000E0B230C230D236E
:10299000A8C2E9FFA9C2EAFF0E0EE926000EEA224C
:1029A000EECF14F2EDCF15F20C0133A90DD00201D8
:1029B000010EA16F0201100EA06FDBEC0EF0020100
:1029C000090E3D6F3E930BD00201010EA16F020173
:1029D000120EA06FDBEC0EF00201080E3D6FA6EFA9
:1029E0001AF03C2B000E3D2333A303D03C2B000EEA
:1029F0003D2302013351315D3451325914E32951E1
:102A00002B5D146E2C512A55156E3351315D166EA7
:102A100032513455176E0C011650145C316F17503B
:102A20001558326F0DD03151335D0C01316F0201F9
:102A3000325134590C01326F010E315F000E325B9E
:102A40000A0EE96E020EEA6EEE50385D2B6FEE5004
:102A500039592C6FEE503A592D6FEE503B592E6F6D
:102A60002BCC2FFC2CCC30FC3E6B3C513D1101E1BA
:102A700081D03151321101E17CD0800E2E1518E148
:102A800031CC14F032CC15F0166A176A2E51171893
:102A9000E8AE02D0173408D014502B5D15502C59D5
:102AA00016502D5917502E5903E2010E3E6F3DD09E
:102AB0003CCC14F03DCC15F0166A176A2B0EE96E6B
:102AC0000C0EEA6EEE501426EE501522EE50162231
:102AD000EE5017221734000E171809E6D880000EA2
:102AE0001454000E1554000E1654000E17541DE217
:102AF0003C51315D186E32513D55196E1A6A1B6A90
:102B000019AE02D01A681B681B502E19E8AE02D00D
:102B10002E3508D02B51185C2C5119582D511A58AC
:102B20002E511B5802E3010E3E6F31CC14F032CC13
:102B300015F0166A176A2E511718E8AE02D017342E
:102B400008D014502B5D15502C5916502D59175084
:102B50002E590FE22F513C25186E30513D21196E30
:102B6000193404E218500008000E195402E2010E54
:102B70003E6F22D02B512C112D112E1103E1010E8D
:102B80003E6F1AD0800E2E1517E131CC14F032CCE6
:102B900015F0166A176A2E511718E8AE02D01734CE
:102BA00008D014502B5D15502C5916502D59175024
:102BB0002E5902E2010E3E6F3E510CE133B508D0B2
:102BC0000201010EA16F0201100EA06FDBEC0EF0EE
:102BD000A6EF1AF0060E331503E0CCDDA6EF1AF0CF
:102BE00033B902D0A6EF1AF002013D510E0A01E1FD
:102BF00079D1070A40E0030A3EE0010A3CE0060AF8
:102C00003AE0010A38E0040A01E080D1340EE96EAE
:102C10000C0EEA6EEE50061909E1EE50071906E1B6
:102C2000EE50081903E1EE50091900E122E006C256
:102C300038FC07C239FC08C23AFC09C23BFC34CC60
:102C400006F235CC07F236CC08F237CC09F2020195
:102C5000010EA16F0201040EA06FDBEC0EF038CC68
:102C600006F239CC07F23ACC08F23BCC09F2A6EFD7
:102C70001AF0090E3D6F340EE96E0C0EEA6EEE503E
:102C8000065D146EEE500759156EEE500859166E1B
:102C9000EE500959176E0001800E17140AE0020168
:102CA000010EA16F0201100EA06FDBEC0EF0A6EF7B
:102CB0001AF002012F510E5D146E0F513055156E32
:102CC000166A176A15AE02D016681768060EE96E06
:102CD000020EEA6E1450EE5C0C01256F1550EE5892
:102CE000266F1650EE58276F1750EE58286F0201C6
:102CF0002F510E5D30510F5911E22751295D146E8D
:102D00002A512855156E166A176A14500C01255F52
:102D10001550265B1650275B1750285B250EE96E71
:102D20000C0EEA6EEE500C01345D256FEE503559F5
:102D3000266FEE503659276FEE503759286F2835D9
:102D4000000E281909E6D880000E2555000E2655DC
:102D5000000E2755000E28552CE202012751295D4F
:102D6000146E2A512855156E166A176A0C012551E2
:102D7000145C26511558275116582851175819E335
:102D800002013E9B0C01255102012F270C01265107
:102D90000201302329512F5D2A5130590AE327516E
:102DA000295D146E2A512855156E14502F5F155049
:102DB000305B02012D512F1902E12E5130191AE119
:102DC0003EBF02D03E9316D0060EE96E020EEA6EAA
:102DD000EE500C01341909E1EE50351906E1EE50C0
:102DE000361903E1EE50371900E104E102013E9388
:102DF0003E9F24910201145115110CE1A8C2E9FF74
:102E0000A9C2EAFF0E0EE926000EEA22EE50ED10EE
:102E100001E03E8DA8C2E9FFA9C2EAFF0E0EE92635
:102E2000000EEA22EECF14F2EDCF15F20A0E3D5D50
:102E300029E1060EE96E020EEA6EEE500C0134191D
:102E400009E1EE50351906E1EE50361903E1EE5076
:102E5000371900E116E192ECB1F006C035F207C077
:102E600036F208C037F209C038F2F30E02013527F6
:102E7000FA0E3623020E3723000E38233E830B0E44
:102E80003D6F2FD00B0E3D5D15E10C0133B111D01C
:102E900034CC06F235CC07F236CC08F237CC09F246
:102EA0000201A16B0201140EA06FDBEC0EF062DCDC
:102EB0004DD317D00C0E3D5D14E1060EE96E020EE7
:102EC000EA6EEE500C01341909E1EE50351906E1B5
:102ED000EE50361903E1EE50371900E101E14ADC0A
:102EE00035D314D0060EE96E020EEA6EEE500C01D8
:102EF000341909E1EE50351906E1EE50361903E1B7
:102F0000EE50371900E101E135DC20D30C0133BB71
:102F10001DD30D0E02013D5D01E118D30C0E3D5D88
:102F200001E114D30E0E3D5D01E110D3AA51AB11A6
:102F300001E151D20C01303504E22F510008000E9E
:102F4000305501E2EBD0A8C2E9FFA9C2EAFF0C0E9E
:102F5000E926000EEA22EF50F00BE842E842E84290
:102F6000E842040DF350146E156A2F51145C0701EA
:102F70005E6F0C013051155807015F6FABECA9F083
:102F80000C012F510201AA270C0130510201AB2381
:102F9000AA510C01315D0201AB510C01325904E21E
:102FA00031CCAAF232CCABF20201AA510A27AB51C2
:102FB0000B23000E0C230D233151AA25146E325120
:102FC000AB21156E14502B5D15502C5948E2315130
:102FD0002B5D0C01296F020132512C590C012A6F13
:102FE000010E2927000E2A2329CCC6F22ACCC7F2CB
:102FF0000201C56B0201C369C46942C2C2F231C297
:10300000C0F232C2C1F2D7EC1CF00C01295102010E
:10301000AA5D0201C66F0C012A510201AB590201DF
:10302000C76F0201C56B0201C369C46942C2C2F223
:1030300029C2C0F22AC2C1F2D7EC1CF00C012951FE
:103040000201AA5D146EAB510C012A55156E0201E6
:1030500029511424316F2A511520326F16D0AAC27B
:10306000C6F2ABC2C7F20201C56B0201C369C469F3
:1030700042C2C2F231C2C0F232C2C1F2D7EC1CF07D
:103080000201AA513127AB513223221D01E1231D38
:1030900044E0AA51225FAB51235B165122250C015B
:1030A000296F0201175123210C012A6F800E2A1566
:1030B00004E002012269236930D00201233504E2D1
:1030C00022510008000E235528E30C01295102016A
:1030D0000A270C012A5102010B23000E0C230D2399
:1030E0000C012951020131270C012A51020132231E
:1030F00031512B5D32512C590EE229512B5D146E4A
:103100002C512A55156E010E1426000E152214504E
:10311000315F1550325B226923695DD1303504E29D
:103120002F510008000E305501E355D10201AA517C
:103130000C012F25146E0201AB510C013021156ECC
:103140001450315D1550325909E22F51315D0201A1
:10315000AA6F0C01305132590201AB6FA8C2E9FFCE
:10316000A9C2EAFF0C0EE926000EEA22EF50F00B8E
:10317000E842E842E842E842040DF35007015E6F7E
:103180005F6BABECA9F0020131510C012F25166EDB
:10319000020132510C013021176E16500201AA258E
:1031A000146E1750AB21156E14502B5D15502C5911
:1031B0006EE231512B5D146E2C513255156E010E9D
:1031C0001426000E15220C012F51145C296F30516A
:1031D00015582A6F800E2A1531E129CCC6F22ACC67
:1031E000C7F20201C56B0201C369C46942C2C2F2DF
:1031F000020131510C012F250201C06F0201325131
:103200000C0130210201C16FD2DB0C0129510201F6
:10321000AA5D0201C66F0C012A510201AB590201DD
:10322000C76F0201C56B0201C369C46942C2C2F221
:1032300029C2C0F22AC2C1F2BADB28D0AAC2C6F2A1
:10324000ABC2C7F20201C56B0201C369C46942C2C5
:10325000C2F2020131510C012F25146E02013251CC
:103260000C013021156E020129512B5D166E2C5177
:103270002A55176E010E1626000E1722020116504F
:10328000145CC06F17501558C16F91DB18D0AAC2DB
:10329000C6F2ABC2C7F20201C56B0201C369C469C1
:1032A00042C2C2F2020131510C012F250201C06F4E
:1032B000020132510C0130210201C16F78DB0201A1
:1032C000221D01E1231D09E12FCC22F230CC23F293
:1032D000AAC216F2ABC217F27ED022510C012F5DAA
:1032E000020123510C0130593DE22F510201AA2560
:1032F000146E0C0130510201AB21156E22511625BE
:10330000166E23511721176E1450165C155017585E
:103310000FE30C012F510201AA25186E0C01305148
:103320000201AB21196E2251185C2351195805E294
:10333000AAC216F2ABC217F210D022511625146E93
:1033400023511721156E0C012F51145C0201166FC9
:103350000C01305115580201176F2FCC22F230CCDE
:1033600023F239D02F510201AA25146E0C013051DD
:103370000201AB21156E22511625166E235117211D
:10338000176E1450165C1550175825E22251162559
:10339000146E23511721156E0C012F51145C3051FE
:1033A000155819E32F510201AA25186E0C0130514E
:1033B0000201AB21196E2251185C166E2351195867
:1033C000176E1651165C146E17511758156E14505F
:1033D0001627155017230C013C513D1124E0090E0E
:1033E00002013D5D04E031C233F232C234F23EA943
:1033F0000BD00201010EA16F0201100EA06FDBECD9
:103400000EF0E1EC00F00FD03E893EB70CD03E87C5
:103410009DECB1F006C03BF207C03CF20F0E02017A
:103420003B27000E3C2302012F512D1902E13051A0
:103430002E1901E13E930C0133A188D00AC214F089
:103440000BC215F00CC216F00DC217F0142A000EB4
:103450001522162217223CCC18F03DCC19F01A6A1E
:103460001B6A380EE96E0C0EEA6EEE501826EE500E
:103470001922EE501A22EE501B221450181809E19E
:103480001550191806E116501A1803E117501B18A9
:1034900000E15CE102010A2B000E0B230C230D233B
:1034A0003D510B0A41E0010A1EE0030A0EE0010A49
:1034B00001E044D00E0E3D6F0201010EA16F02012A
:1034C000110EA06FDBEC0EF041D00D0E3D6F9DECA8
:1034D000B1F006C03BF207C03CF21E0E02013B27D2
:1034E000000E3C232BD0060EE96E020EEA6EEE5063
:1034F0000C01341909E1EE50351906E1EE50361988
:1035000003E1EE50371900E10BE10201A16B02016A
:10351000100EA06FDBEC0EF0BAEC13F017D003D056
:1035200002010C0E3D6F0AD00201A16B0201100EC8
:10353000A06FDBEC0EF0BAEC13F008D00201010E24
:10354000A16F0201100EA06FDBEC0EF01200ACC2F6
:1035500043F29AEC00F00201AD51AE1103E1010E0D
:10356000AD6FAE6B27512B5D0C01006F020128512E
:103570002C590C01016F010E005F000E015B02016E
:10358000AD51AF25146EAE51B021156E0C01145023
:10359000005D1550015902E2000E9BD0E1EC00F0F5
:1035A000030E0201B11502E1030EB16FAFC202FCBE
:1035B000B0C203FCAD51AF25146EAE51B021156EF3
:1035C00014500C01005F1550015B0201B1A314D02F
:1035D000B1A10DD000CC14F001CC15F0D89015326B
:1035E000143214500C0102271550032305D00C018E
:1035F0000051022701510323020127510C0102252A
:10360000006F020128510C010321016F010E0027F8
:10361000000E012302013151335D3251345917E25A
:103620000C0100510201335D0C01015102013459BA
:103630000DE2B1A503D0000E4CD008D000CC33F27F
:1036400001CC34F200CC31F201CC32F224D033512F
:10365000315D3451325917E20C0100510201295DEC
:103660000C01015102012A590DE2B1A503D0000E4F
:1036700030D008D000CC33F201CC34F200CC31F29F
:1036800001CC32F208D000CC33F201CC34F200CCC1
:1036900031F201CC32F200CC29F201CC2AF227C25D
:1036A0000EF228C20FF227C22FF228C230F227C230
:1036B0002DF228C22EF2090E02013D5D08E1020141
:1036C000010EA16F0201100EA06FDBEC0EF0010ED7
:1036D00000D012000C01006B0051146E156A090E27
:1036E000145C000E155825E200CC43F29AEC00F071
:1036F000060E02013D5D1AE1B251401902E1B351DB
:10370000411914E13D6B27C22DF228C22EF227C2C7
:103710002FF228C230F229C231F22AC232F229C273
:1037200033F22AC234F20C01005105D00C01002BF7
:10373000D3D7FE0E00D01200B4C243F29AEC00F0D0
:1037400002013D5104E03D0502E0000E04D0BAEC58
:1037500013F0010E00D01200B5C243F29AEC00F053
:1037600002013D5104E03D0502E0000E02D0010ED1
:1037700000D01200B6C243F29AEC00F002013D05FF
:1037800005E1B9C2F3FFBAC2F4FF8FD0B6C27DF231
:1037900004EC08F0F3CF04FCF4CF05FC0201B951AE
:1037A0000C01045D0201BA510C01055904E204CC7C
:1037B000B9F205CCBAF202013151B925146E325179
:1037C000BA21156E14502B5D15502C5952E231510F
:1037D0002B5D0C01046F020132512C590C01056F55
:1037E000010E0427000E052304CCC6F205CCC7F257
:1037F0000201010EC56FB7C2C3F2B8C2C4F242C221
:10380000C2F231C2C0F232C2C1F2D1D80C010451AD
:103810000201B7270C0105510201B8230C01045124
:103820000201B95D0201C66F0C0105510201BA59CE
:103830000201C76F0201010EC56FB7C2C3F2B8C261
:10384000C4F242C2C2F229C2C0F22AC2C1F2AFD847
:103850000C0104510201B95D146EBA510C010555F9
:10386000156E020129511424316F2A511520326F2F
:1038700017D0B9C2C6F2BAC2C7F20201010EC56FB3
:10388000B7C2C3F2B8C2C4F242C2C2F231C2C0F27D
:1038900032C2C1F28CD80201B9513127BA51322358
:1038A000B9C2F3FFBAC2F4FF00D012000C01026BE0
:1038B000036BBBC243F29AEC00F0BBC272F288EC1D
:1038C00006F0F3CF00FCF4CF01FC0201BE510C0165
:1038D000005D0201BF510C01015904E200CCBEF2AF
:1038E00001CCBFF202012F51BE25146E3051BF2111
:1038F000156E2951145C2A51155833E32F51295D57
:103900000C01026F020130512A590C01036F02CCE5
:10391000C6F203CCC7F242C2C5F22FC2C3F230C214
:10392000C4F20201010EC26FBCC2C0F2BDC2C1F23C
:103930003ED80201BC51BD1108E00C010251020148
:10394000BC270C0103510201BD230C0102510201ED
:10395000BE5F0C0103510201BF5B27C22FF228C2D8
:1039600030F2BEC2C6F2BFC2C7F242C2C5F22FC217
:10397000C3F230C2C4F20201010EC26FBCC2C0F277
:10398000BDC2C1F214D80201BE512F27BF5130234E
:10399000BE510C010225146E0201BF510C0103211E
:1039A000156E14C0F3FF15C0F4FF00D01200020121
:1039B000C5512FE0010A01E059D0C25116E0010AB9
:1039C00001E026D0C6C2E6FFC7C2E6FFC3C2E6FFDB
:1039D000C4C2E6FFC0C2E6FFC1C2E6FFE9ECA5F043
:1039E000146E060EE15E145013D0C1BF06D0C0C2E3
:1039F000CEF5C1C2CFF542EC64F0C6C2E5F5C7C250
:103A0000E6F5C3C2E3F5C4C2E4F532EC67F000D0DA
:103A10002DD0C25116E0010A01E027D0C4BF06D064
:103A2000C3C2D0F5C4C2D1F562EC64F0C6C2E0F501
:103A3000C7C2E1F5C0C2DEF5C1C2DFF5E5EC66F054
:103A400014D0C6C2DCF5C7C2DDF5C3C2DAF5C4C204
:103A5000DBF5C0C2D8F5C1C2D9F572EC65F0C4EC93
:103A600066F0000901E1FBD700D000D0120002018E
:103A7000CA5118E0010A01E067D0CEC2E6FFCFC20A
:103A8000E6FFCBC2E6FFCCC2E6FFCDC2E6FFC8C26E
:103A9000E6FFC9C2E6FF14ECA6F0146E070EE15E65
:103AA000145052D0C9BF06D0C8C2CEF5C9C2CFF596
:103AB00042EC64F0100E0C01286F296B0201CE510C
:103AC000CF1141E00C0128510201CE5D0C012951BA
:103AD0000201CF5904E2CEC228FCCFC229FC28CC77
:103AE000E6FF29CCE6FFCBC2E6FFCCC2E6FFCDC2A3
:103AF000E6FF180EE66E0C0EE66E14ECA6F0146EE1
:103B0000070EE15E145028CCE5F529CCE6F5050159
:103B1000180EE36F0C0EE46F32EC67F028CC14F053
:103B200029CC15F0166A14500201CB271550CC236E
:103B30001650CD230C0128510201CE5F0C012951F2
:0A3B40000201CF5BBBD700D01200DA
:063B4A00270E0001E51941
:103B500005E1E65103E1E75101E1E85101E168D2F5
:103B6000260EE51905E1E65103E1E75101E1E851CF
:103B700001E15BD2250EE51905E1E65103E1E751CC
:103B800001E1E85101E14ED2240EE51905E1E651CB
:103B900003E1E75101E1E85101E141D2230EE519CA
:103BA00005E1E65103E1E75101E1E85101E134D2D9
:103BB000220EE51905E1E65103E1E75101E1E85183
:103BC00001E127D2210EE51905E1E65103E1E751B4
:103BD00001E1E85101E11AD2200EE51905E1E651B3
:103BE00003E1E75101E1E85101E10DD21F0EE519B2
:103BF00005E1E65103E1E75101E1E85101E100D2BD
:103C00001E0EE51905E1E65103E1E75101E1E85136
:103C100001E1F3D11D0EE51905E1E65103E1E7519C
:103C200001E1E85101E1E6D11C0EE51905E1E6519B
:103C300003E1E75101E1E85101E1D9D11B0EE5199A
:103C400005E1E65103E1E75101E1E85101E1C8D1A5
:103C50001A0EE51905E1E65103E1E75101E1E851EA
:103C600001E1B7D1190EE51905E1E65103E1E7518C
:103C700001E1E85101E1A6D1180EE51905E1E6518F
:103C800003E1E75101E1E85101E196D1170EE51991
:103C900005E1E65103E1E75101E1E85101E186D197
:103CA000160EE51905E1E65103E1E75101E1E8519E
:103CB00001E179D1150EE51905E1E65103E1E7517E
:103CC00001E1E85101E165D1140EE51905E1E65184
:103CD00003E1E75101E1E85101E151D1130EE5198A
:103CE00005E1E65103E1E75101E1E85101E13DD190
:103CF000120EE51905E1E65103E1E75101E1E85152
:103D000001E128D1110EE51905E1E65103E1E75182
:103D100001E1E85101E114D1100EE51905E1E65188
:103D200003E1E75101E1E85101E1FFD00F0EE51990
:103D300005E1E65103E1E75101E1E85101E1EBD092
:103D40000E0EE51905E1E65103E1E75101E1E85105
:103D500001E1D6D00D0EE51905E1E65103E1E75189
:103D600001E1E85101E1C9D00C0EE51905E1E65188
:103D700003E1E75101E1E85101E1B8D00B0EE5198B
:103D800005E1E65103E1E75101E1E85101E1A7D086
:103D90000A0EE51905E1E65103E1E75101E1E851B9
:103DA00001E196D0090EE51905E1E65103E1E7517D
:103DB00001E1E85101E185D0080EE51905E1E65180
:103DC00003E1E75101E1E85175E0070EE51905E16E
:103DD000E65103E1E75101E1E85165E0060EE5191E
:103DE00005E1E65103E1E75101E1E85155E0050E37
:103DF000E51905E1E65103E1E75101E1E85149E048
:103E0000040EE51905E1E65103E1E75101E1E8514E
:103E10003EE0030EE51905E1E65103E1E75101E15A
:103E2000E85132E0020EE51905E1E65103E1E75100
:103E300001E1E8511FE0010EE51905E1E65103E15A
:103E4000E75101E1E85113E0E55105E1E65103E1F5
:103E5000E75101E1E85101E0EED000019B0EF66F61
:103E6000DB0EF76F000EF86F4CEC34F0FFD02FEC48
:103E700045F0FCD00001900EF66FDB0EF76F000EE0
:103E8000F86F4CEC34F0F2D082EC45F0EFD0F0D883
:103E9000EDD0D8EC44F0EAD0070E0E01E56FE66BEA
:103EA0007EEC43F0E3D0060E0E01E56FE66B7EEC90
:103EB00043F0DCD0050E0E01E56FE66B7EEC43F0BF
:103EC000D5D0040E0E01E56FE66B7EEC43F0CED04C
:103ED000030E0E01E56FE66B7EEC43F0C7D0020ED9
:103EE0000E01E56FE66B7EEC43F0C0D0010E0E01D3
:103EF000E56FE66B7EEC43F0B9D0FEEC44F0B6D053
:103F0000010E0E01E96FEA6B040E0E01E76FE86B1C
:103F1000F9EC43F0ABD00E01E96BEA6B040E0E0135
:103F2000E76FE86BF9EC43F0A1D0010E0E01E96FE9
:103F3000EA6B030E0E01E76FE86BF9EC43F096D0E5
:103F40000E01E96BEA6B030E0E01E76FE86BF9EC0B
:103F500043F08CD0010E0E01E96FEA6B020E0E01E8
:103F6000E76FE86BF9EC43F081D00E01E96BEA6B87
:103F7000020E0E01E76FE86BF9EC43F077D0010E0B
:103F80000E01E96FEA6B0E01E76FE86BF9EC43F0A5
:103F90006DD00E01E96BEA6B010E0E01E76FE86B65
:103FA000F9EC43F063D0B2EC44F060D00E01E56B65
:103FB000E66B7EEC43F05AD00E01E36BE46B2FEC22
:103FC00043F054D0010E0E01E36FE46B2FEC43F08D
:103FD0004DD0020E0E01E36FE46B2FEC43F046D0A0
:103FE000030E0E01E36FE46B2FEC43F03FD07FEC48
:103FF00044F03CD0D6EC45F039D061EC47F036D0F7
:10400000E7EC46F033D00AEC47F030D02AEC47F02A
:104010002DD035EC47F02AD040EC47F027D04BECC0
:1040200047F024D056EC47F021D0DFEC47F01ED00B
:10403000E1EC47F01BD0040E0201696F6A6B0201CC
:104040008B0E666FDB0E676F000E686F0001E45128
:10405000E96EEA6AD890E936EA36DE0EE926000E05
:10406000EA22EE52EFCF65F270EC05F000D01200BC
:1040700002017E0E5F6F0001E451E96EEA6AD8909A
:10408000E936EA36DE0EE926000EEA22EE52EFCFDE
:104090005EF236EC04F000D012000001746975691C
:1040A000E46BE4C014F0156A166A176A030E145C18
:1040B000000E1558000E1658000E175857E2E4511E
:1040C000E96EEA6AD890E936EA36DE0EE926000E95
:1040D000EA22EF6A0201586B500E0201566F576BCD
:1040E0000201556B0201516B526B536B546BA7EC81
:1040F00002F0E66E0001E451E96EEA6AD890E93612
:10410000EA36DE0EE926000EEA22EE52E552E750CC
:10411000EF6EE4517E0DF3CF14F0F4CF15F0166A74
:10412000176A860E14261E0E1522000E162217225E
:1041300014C0CEF515C0CFF542EC64F0F3CF00FC0F
:10414000F4CF01FC7E0E0501E56FE66B0501600E04
:10415000E36F000EE46F32EC67F000CCCEF501CCDB
:10416000CFF542EC64F00001E42B9BD712000C0168
:10417000C26BC2CC14F0156A166A176A030E145C7F
:10418000000E1558000E1658000E175838E2C2518E
:10419000E96EEA6AD890E936EA36DE0EE926000EC4
:1041A000EA22EE52EF50FE0801E126D0C251E96E3C
:1041B000EA6AD890E936EA36DE0EE926000EEA22EF
:1041C000EF5016E1C251E96EEA6AD890E936EA3654
:1041D000DE0EE926000EEA22EE52EFCF74F2C9ECB1
:1041E00006F0F3CF14F0F4CF15F01450151004E0DE
:1041F000C2CCE9F005D863D80C01C22BBAD71200A3
:104200000001E4510001E95D01E158D00001E451F1
:104210007E0DF3CF14F0F4CF15F0166A176A860EF0
:1042200014261E0E1522000E1622172214C0CEF5DB
:1042300015C0CFF542EC64F0F3CF00FCF4CF01FCE5
:104240007E0E0501E56FE66B0501600EE36F000E63
:10425000E46F32EC67F000CCCEF501CCCFF542EC48
:1042600064F00001E9517E0DF3CF14F0F4CF15F0A6
:10427000166A176A860E14261E0E1522000E1622C6
:10428000172214C0D0F515C0D1F562EC64F0F3CF5D
:1042900000FCF4CF01FC7E0E0501E06FE16B05012F
:1042A000600EDE6F000EDF6FE5EC66F000CCD0F53F
:1042B00001CCD1F562EC64F0E9C0E4F012000C012D
:1042C000010E936F0001E451E96EEA6AD890E93675
:1042D000EA36DE0EE926000EEA22EE52EFCF59F260
:1042E0007CEC03F0000938E00001E451E96EEA6A71
:1042F000D890E936EA36DE0EE926000EEA22EF6AA9
:10430000FF0E745D06E074C05CF472EC4CF00001CA
:104310007469FF0E755D06E075C05CF472EC4CF0DC
:10432000000175690201050EB16F0201AF6BB06B40
:10433000010E0201AD6FAE6B0001E451E96EEA6A55
:10434000D890E936EA36DE0EE926000EEA22EE5271
:10435000EFCFACF2A7EC1AF00001E451E96EEA6A83
:10436000D890E936EA36DE0EE926000EEA22EF5052
:104370000B0A02E13CEF2DF0010A02E1FFEF2CF005
:10438000030A02E1CAEF2CF0010A02E147EF2BF029
:104390000F0A02E166EF29F0010A02E12FEF29F08E
:1043A000030A02E107EF28F0010A02E1F4EF27F027
:1043B000070A02E19BEF27F0010A02E105EF26F070
:1043C000030A4BE0010A02E094EF2DF0E451E96E9C
:1043D000EA6AD890E936EA36DE0EE926000EEA22CD
:1043E000EE52EFCF74F2C9EC06F0F3CF8DFCF4CFB0
:1043F0008EFC0C018D518E112EE000017A0E706F33
:10440000000E716FE451E96EEA6AD890E936EA3637
:10441000DE0EE926000EEA22010EEF6E7769766B5A
:1044200092ECB1F006C068F007C069F008C06AF00D
:1044300009C06BF08B0E00016827D20E69231A0E9B
:104440006A23000E6B236C696D696E696F69606B1E
:10445000616B626B636B94EF2DF00201996B02014B
:10446000976B986B0201956B966B02010A0E946F25
:104470000001E451E96EEA6AD890E936EA36DE0EC8
:10448000E926000EEA22EE52EFCF93F2B4EC0BF0E5
:10449000F3CF14F0F4CF15F00001141C01E1151C4A
:1044A00054E10001E451E96EEA6AD890E936EA364F
:1044B000DE0EE926000EEA22EE52EFCF7DF204EC8A
:1044C00008F0F3CF14F0F4CF15F01450151011E1EB
:1044D0000001040E786FE451E96EEA6AD890E9367B
:1044E000EA36DE0EE926000EEA22070EEF6E0C0118
:1044F000936B92ECB1F006500001685D075069596A
:1045000008506A5909506B591EE2E451E96EEA6A93
:10451000D890E936EA36DE0EE926000EEA22EE529F
:10452000EFCF5BF296EC03F00001E451E96EEA6A2A
:10453000D890E936EA36DE0EE926000EEA220B0EA6
:10454000EF6E0C01936B94EF2DF092ECB1F006C07E
:1045500068F007C069F008C06AF009C06BF08B0E04
:1045600000016827D20E69231A0E6A23000E6B23FE
:104570000201996B0201976B986B0201956B966B28
:104580000201200E946F0001E451E96EEA6AD890AE
:10459000E936EA36DE0EE926000EEA22EE52EFCFC9
:1045A00093F2B4EC0BF0F3CF8DFCF4CF8EFC0C0146
:1045B000050ED8808D55000E8E5503E2050E8D6FC9
:1045C0008E6B010E8D2502017B6F000E0C018E217A
:1045D00002017C6F02017A0E796F000E7A6F000182
:1045E000E451E96EEA6AD890E936EA36DE0EE92649
:1045F000000EEA22EE52EFCF78F256EC07F0030EEF
:10460000E66EE66ADC0EE66ED50EE66E000EE66E2F
:104610007A0EE66E000EE66ECAECA5F0146E070E7A
:10462000E15E1450000903E10001786B2CD0040E08
:10463000E66EE66AD70EE66ED50EE66E000EE66E04
:104640007A0EE66E000EE66ECAECA5F0146E070E4A
:10465000E15E1450000904E10001010E786F13D0EF
:104660000001060E786FE451E96EEA6AD890E936E7
:10467000EA36DE0EE926000EEA22070EEF6E0C0186
:10468000936B94EF2DF00201996B0201976B986B7D
:104690000201956B966B0201200E946F0001E451AC
:1046A000E96EEA6AD890E936EA36DE0EE926000EAF
:1046B000EA22EE52EFCF93F2B4EC0BF0F3CF8DFC85
:1046C000F4CF8EFC0201996B8DCC97F28ECC98F2D0
:1046D0000201956B966B02013F0E946F0001E4514D
:1046E000E96EEA6AD890E936EA36DE0EE926000E6F
:1046F000EA22EE52EFCF93F2B4EC0BF0F3CF8FFC43
:10470000F4CF90FC0C018F518D5D90518E5901E2D8
:1047100004D08FCC8DFC90CC8EFC590ED8808D555A
:10472000000E8E5513E20001040E786FE451E96E1D
:10473000EA6AD890E936EA36DE0EE926000EEA2269
:10474000070EEF6E0C01936B94EF2DF08DCC7BF286
:104750008ECC7CF202017A0E796F000E7A6F000126
:10476000E451E96EEA6AD890E936EA36DE0EE926C7
:10477000000EEA22EE52EFCF78F256EC07F0F3CFBC
:104780008FFCF4CF90FC7A0E0C018F25E96E000EA1
:104790009021EA6EEF6A00017A0EEB6F000EEC6F6B
:1047A000FBEC30F0CC0EE66ED50EE66E000EE66E3B
:1047B000EAECA6F0E552E552E55207C014F008C055
:1047C00015F014C0E6FF15C0E6FFCC0EE66ED50E60
:1047D000E66E000EE66E7B0EE66E000EE66ECAEC2E
:1047E000A5F0166E070EE15E1650000926E10E01D7
:1047F0007B0E046F000E056F0E01026B036B0E0142
:10480000006B016BFAEC34F00001776F785103E133
:10481000070E786F02D0080E786FE451E96EEA6AED
:10482000D890E936EA36DE0EE926000EEA22020EBC
:10483000EF6E0C01936B94EF2DF08FCCE9FF90CCD1
:10484000EAFFE906000EEA5A7A0EE926000EEA228D
:10485000EF502F0809E004017B0E556F000E566FD4
:104860002DEC48F00001746FFF0E0001745D01E053
:1048700086D08FCCE9FF90CCEAFFE906000EEA5A19
:104880007A0EE926000EEA22EF502F080EE00C0106
:104890008FCCE9FF90CCEAFF8F2B000E90237A0E8D
:1048A000E926000EEA222F0EEF6E0001E451E96EB8
:1048B000EA6AD890E936EA36DE0EE926000EEA22E8
:1048C000EE52EFCFB5F2ACEC1BF0000928E0C20EBF
:1048D000E66ED50EE66E000EE66E7A0E0C018F25A2
:1048E000146E000E9021156E14C0E6FF15C0E6FF91
:1048F000C3ECA6F0166E050EE15E1650C20EE66E13
:10490000D50EE66E000EE66EEAECA6F0E552E55234
:10491000E55207500C018F270850902327D0C20E74
:10492000E66ED50EE66E000EE66E7A0E0C018F2551
:10493000146E000E9021156E14C0E6FF15C0E6FF40
:10494000C3ECA6F0166E050EE15E1650C20EE66EC2
:10495000D50EE66E000EE66EEAECA6F0E552E552E4
:10496000E55207500C018F270850902304017B0E5D
:10497000556F000E566F2DEC48F00001746F7A0EE3
:104980000C018F25946F000E9021956F010E945F9E
:10499000000E955B7A0E941902E1000E95190CE059
:1049A00094CCE9FF95CCEAFFEF502E0801E104D04A
:1049B0009407000E955BEED7942B000E9523000113
:1049C000796B0B0EE76E7919E8AE02D0E73402D0AE
:1049D000E750795D24E279C0E9FFEA6AE9BEEA6856
:1049E000030EEA02F3CFEAFFE902F3CFE9FFF45046
:1049F000EA26820EE926040EEA22EECF71F6EECF09
:104A000072F6EFCF73F694CC6FF695CC70F6AFECF0
:104A100074F0000901E103D00001792BD2D70E0117
:104A20007B0E046F000E056F0E01026B036B0E010F
:104A3000006B016BFAEC34F00001776FFF0E745DD0
:104A40001DE074C076F4D2EC51F0F350020B16E086
:104A50008FCCE9FF90CCEAFFE906000EEA5A7A0E05
:104A6000E926000EEA22230EEF6E04017B0E556F3D
:104A7000000E566F2DEC48F00001756F0201996B26
:104A80000201976B986B0201956B966B0201200EE9
:104A9000946F0001E451E96EEA6AD890E936EA368B
:104AA000DE0EE926000EEA22EE52EFCF93F2B4ECCE
:104AB0000BF0F3CF8DFCF4CF8EFC0C018D518E11D9
:104AC0005BE00001010E766F0201910E766F0C0E15
:104AD000776F0001E451E96EEA6AD890E936EA3668
:104AE000DE0EE926000EEA22EE52EFCF75F200EC60
:104AF00007F00C018D07000E8E5B620E8D5D000EBF
:104B00008E5913E30001040E786FE451E96EEA6AEE
:104B1000D890E936EA36DE0EE926000EEA22070EC4
:104B2000EF6E0C01936B94EF2DF08DCC7BF28ECC5D
:104B30007CF202017A0E796F000E7A6F0001E45167
:104B4000E96EEA6AD890E936EA36DE0EE926000E0A
:104B5000EA22EE52EFCF78F256EC07F0F350000164
:104B60007027F450712370C0E9FF71C0EAFF702B09
:104B7000000E7123260EEF6E0201996B0201976BF6
:104B8000986B0201956B966B02010A0E946F0001FF
:104B9000E451E96EEA6AD890E936EA36DE0EE92693
:104BA000000EEA22EE52EFCF93F2B4EC0BF0F3CF0B
:104BB0008DFCF4CF8EFC010E0C018D2502017B6F64
:104BC000000E0C018E2102017C6F0201796B7A6B61
:104BD0000001E451E96EEA6AD890E936EA36DE0E61
:104BE000E926000EEA22EE52EFCF78F256EC07F0FB
:104BF0000001E451E96EEA6AD890E936EA36DE0E41
:104C0000E926000EEA22020EEF6E0201996B020104
:104C1000976B986B0201956B966B02010A0E946F6D
:104C20000001E451E96EEA6AD890E936EA36DE0E10
:104C3000E926000EEA22EE52EFCF93F2B4EC0BF02D
:104C4000F3CF8DFCF4CF8EFC0C018D1D01E18E1D88
:104C500053E10001E451E96EEA6AD890E936EA3698
:104C6000DE0EE926000EEA22EE52EFCF7DF204ECD2
:104C700008F0F3CF14F0F4CF15F01450151011E133
:104C80000001040E786FE451E96EEA6AD890E936C3
:104C9000EA36DE0EE926000EEA22070EEF6E0C0160
:104CA000936B92ECB1F006500001685D07506959B2
:104CB00008506A5909506B591EE2E451E96EEA6ADC
:104CC000D890E936EA36DE0EE926000EEA22EE52E8
:104CD000EFCF5BF296EC03F00001E451E96EEA6A73
:104CE000D890E936EA36DE0EE926000EEA220B0EEF
:104CF000EF6E0C01936B1DD192ECB1F006C068F021
:104D000007C069F008C06AF009C06BF08B0E0001A3
:104D10006827D20E69231A0E6A23000E6B230C013A
:104D2000010E8D1901E18E5127E1020E02017B6F08
:104D30007C6B0201796B7A6B0001E451E96EEA6ADF
:104D4000D890E936EA36DE0EE926000EEA22EE5267
:104D5000EFCF78F256EC07F00001E451E96EEA6A11
:104D6000D890E936EA36DE0EE926000EEA22030E76
:104D7000EF6E0C01936BDDD00201996B8DCC97F235
:104D80008ECC98F20201956B966B02013A0E946FED
:104D90000001E451E96EEA6AD890E936EA36DE0E9F
:104DA000E926000EEA22EE52EFCF93F2B4EC0BF0BC
:104DB000F3CF8FFCF4CF90FC020E0C018F27000E76
:104DC0009023936B100ED8808F55000E90551DE2E6
:104DD000010E8D2502017B6F000E0C018E21020158
:104DE0007C6F0201796B7A6B0001E451E96EEA6A2B
:104DF000D890E936EA36DE0EE926000EEA22EE52B7
:104E0000EFCF78F256EC07F000D78FCC7BF290CC46
:104E10007CF20201960E796F0C0E7A6F0001E4515C
:104E2000E96EEA6AD890E936EA36DE0EE926000E27
:104E3000EA22EE52EFCF78F256EC07F08FCCE9FF82
:104E400090CCEAFFE906000EEA5A960EE9260C0E0F
:104E5000EA22EF6A0C018F518D5F90518E5B926B4D
:104E6000030E925D27E29251030DF3CFE9FFF4CFD9
:104E7000EAFFF10EE926040EEA22EECFE6FFEECFBE
:104E8000E6FFEFCFE6FF960EE66E0C0EE66EADEC9B
:104E9000A6F0146E050EE15E1450000908E192CCF4
:104EA000EAF0AEEC2EF00C01010E936F03D00C0172
:104EB000922BD6D793511FE00201996B0201976B99
:104EC000986B0201956B966B02010A0E946F0001BC
:104ED000E451E96EEA6AD890E936EA36DE0EE92650
:104EE000000EEA22EE52EFCF93F2B4EC0BF0F3CFC8
:104EF0008DFCF4CF8EFC010E0C018D2502017B6F21
:104F0000000E0C018E2102017C6F0201796B7A6B1D
:104F10000001E451E96EEA6AD890E936EA36DE0E1D
:104F2000E926000EEA22EE52EFCF78F256EC07F0B7
:104F30006CD694EF2DF0800E775D12E2020E786F42
:104F4000E451E96EEA6AD890E936EA36DE0EE926DF
:104F5000000EEA22070EEF6E0C01936B94EF2DF01A
:104F600070C0E9FF71C0EAFFEF6A00017A0EEB6FD3
:104F7000000EEC6FFBEC30F0F3CF70F0F4CF71F07B
:104F8000070E0001785D10E1E451E96EEA6AD890FD
:104F9000E936EA36DE0EE926000EEA22070EEF6E4B
:104FA0000C01936B94EF2DF0E451E96EEA6AD8900E
:104FB000E936EA36DE0EE926000EEA22040EEF6E2E
:104FC00076510CE1E451E96EEA6AD890E936EA36A6
:104FD000DE0EE926000EEA22050EEF6E0C01936B41
:104FE0000001766B94EF2DF041EC35F0020802E100
:104FF00094EF2DF00001E451E96EEA6AD890E936A9
:10500000EA36DE0EE926000EEA22050EEF6EE451C6
:10501000E96EEA6AD890E936EA36DE0EE926000E35
:10502000EA22EE52EFCF74F2C9EC06F0F3CF14F09F
:10503000F4CF15F0166A176A145000016C1909E1D3
:1050400015506D1906E116506E1903E117506F19CE
:1050500000E12CE192ECB1F006500001685D0750D0
:10506000695908506A5909506B5920E2E451E96EB8
:10507000EA6AD890E936EA36DE0EE926000EEA2220
:10508000EE52EFCF5BF296EC03F00001E451E96ED3
:10509000EA6AD890E936EA36DE0EE926000EEA2200
:1050A0000B0EEF6E0C01936B94EF2DF0780517E06B
:1050B000080EE76E7819E8AE02D0E73402D0E75068
:1050C000785D01E2BFD00A0EE76E7819E8AE02D033
:1050D000783503D0E750D880785501E2B3D0080E78
:1050E000E76E7819E8AE02D0E73402D0E750785D79
:1050F00023E30A0EE76E7819E8AE02D0783503D0C4
:10510000E750D880785518E351EC32F00C01916FDC
:10511000915111E10001E451E96EEA6AD890E93653
:10512000EA36DE0EE926000EEA22070EEF6E0C01CB
:10513000936B94EF2DF004D05AEC36F00C01916F84
:10514000020E915D1EE10001E451E96EEA6AD89019
:10515000E936EA36DE0EE926000EEA22EE52EFCFFD
:1051600074F2C9EC06F0F3CF6CF0F4CF6DF00001EF
:10517000010E6C5F000E6D5B6E6B6F6B94EF2DF02C
:1051800061D091055FE10001E451E96EEA6AD890CF
:10519000E936EA36DE0EE926000EEA22EE52EFCFBD
:1051A00074F2C9EC06F0F3CF6CF0F4CF6DF00001AF
:1051B0006E6B6F6B92ECB1F006C068F007C069F0DF
:1051C00008C06AF009C06BF08B0E00016827D20E90
:1051D00069231A0E6A23000E6B23D8806055000ED7
:1051E0006155000E6255000E635519E2E451E96EF7
:1051F000EA6AD890E936EA36DE0EE926000EEA229F
:10520000EE52EFCF7DF204EC08F0F3CF14F0F4CFC0
:1052100015F01450151003E094EF2DF013D0000199
:10522000050E786FE451E96EEA6AD890E936EA36FD
:10523000DE0EE926000EEA22070EEF6E0C01936BDC
:1052400094EF2DF00001E451E96EEA6AD890E93656
:10525000EA36DE0EE926000EEA22060EEF6EFF0E9B
:10526000745D12E1030E786FE451E96EEA6AD8903A
:10527000E936EA36DE0EE926000EEA22070EEF6E68
:105280000C01936B94EF2DF0606B616B626B636B41
:10529000FF0E755D05E1646965696669676909D036
:1052A0000401640E716F000E726F75C070F4EFEC44
:1052B00050F00001E451E96EEA6AD890E936EA3626
:1052C000DE0EE926000EEA22070EEF6E0201020E44
:1052D000B16F0201AF6BB06B010E0201AD6FAE6B2F
:1052E0000001E451E96EEA6AD890E936EA36DE0E4A
:1052F000E926000EEA22EE52EFCFACF2A7EC1AF04C
:1053000078C0E9FFEA6AE9BEEA68030EEA02F3CF71
:10531000EAFFE902F3CFE9FFF450EA26CA0EE926D4
:10532000040EEA22EECF6FF2EECF70F2EFCF71F201
:105330000001E451E96EEA6AD890E936EA36DE0EF9
:10534000E926000EEA22EE52EFCF6EF259EC06F09B
:105350000B0E0001785D58E102017A0E6C6F000EB1
:105360006D6F0001E451E96EEA6AD890E936EA36D9
:10537000DE0EE926000EEA22EE52EFCF6BF239EC98
:1053800006F00201AF0E6F6FD50E706F000E716FD9
:105390000001E451E96EEA6AD890E936EA36DE0E99
:1053A000E926000EEA22EE52EFCF6EF259EC06F03B
:1053B00002017A0E6C6F000E6D6F0001E451E96E10
:1053C000EA6AD890E936EA36DE0EE926000EEA22CD
:1053D000EE52EFCF6BF239EC06F00201D80E6F6F90
:1053E000660E706F010E716F0001E451E96EEA6A9A
:1053F000D890E936EA36DE0EE926000EEA22EE52B1
:10540000EFCF6EF259EC06F0000178510FE078050D
:105410000DE0E451E96EEA6AD890E936EA36DE0E2C
:10542000E926000EEA220B0EEF6E7ED30B0E795D9D
:1054300056E00201A00E6F6FD50E706F000E716FF7
:105440000001E451E96EEA6AD890E936EA36DE0EE8
:10545000E926000EEA22EE52EFCF6EF259EC06F08A
:1054600079C0E9FFEA6AE9BEEA68030EEA02F3CF0F
:10547000EAFFE902F3CFE9FFF450EA26A60EE92697
:10548000040EEA22EECF6FF2EECF70F2EFCF71F2A0
:105490000001E451E96EEA6AD890E936EA36DE0E98
:1054A000E926000EEA22EE52EFCF6EF259EC06F03A
:1054B0000201D80E6F6F660E706F010E716F0001E2
:1054C000E451E96EEA6AD890E936EA36DE0EE9265A
:1054D000000EEA22EE52EFCF6EF259EC06F074C0E5
:1054E00076F4D2EC51F0F350010B17E00201870E75
:1054F0006F6FD50E706F000E716F0001E451E96E91
:10550000EA6AD890E936EA36DE0EE926000EEA228B
:10551000EE52EFCF6EF259EC06F00201770E6F6F8C
:10552000D50E706F000E716F0001E451E96EEA6AEA
:10553000D890E936EA36DE0EE926000EEA22EE526F
:10554000EFCF6EF259EC06F0000178050CE0E86848
:10555000641908E1E868651905E1E868661902E17F
:10556000E868671918E002016E0E6F6FD50E706F54
:10557000000E716F0001E451E96EEA6AD890E936D5
:10558000EA36DE0EE926000EEA22EE52EFCF6EF288
:1055900059EC06F02ED00201650E6F6FD50E706FBC
:1055A000000E716F0001E451E96EEA6AD890E936A5
:1055B000EA36DE0EE926000EEA22EE52EFCF6EF258
:1055C00059EC06F00201610E6F6FD50E706F000E80
:1055D000716F0001E451E96EEA6AD890E936EA3663
:1055E000DE0EE926000EEA22EE52EFCF6EF259EC03
:1055F00006F00201D80E6F6F660E706F010E716FAC
:105600000001E451E96EEA6AD890E936EA36DE0E26
:10561000E926000EEA22EE52EFCF6EF259EC06F0C8
:10562000000176510DE0E451E96EEA6AD890E9365E
:10563000EA36DE0EE926000EEA22080EEF6E24D0CE
:105640000201D80E6F6F660E706F010E716F000150
:10565000E451E96EEA6AD890E936EA36DE0EE926C8
:10566000000EEA22EE52EFCF6EF259EC06F0000186
:10567000E451E96EEA6AD890E936EA36DE0EE926A8
:10568000000EEA22090EEF6E0C01936B4DD27A0EDA
:10569000726F000E736F765101E158D10201540E02
:1056A0006F6FD50E706F000E716F0001E451E96EDF
:1056B000EA6AD890E936EA36DE0EE926000EEA22DA
:1056C000EE52EFCF6EF259EC06F0000172C0E9FF26
:1056D00073C0EAFF722B000E7323EFCF91FCEF50E3
:1056E00001E17DD0200E0C01915D14E102012B0E31
:1056F0005F6F0001E451E96EEA6AD890E936EA3654
:10570000DE0EE926000EEA22EE52EFCF5EF236EC14
:1057100004F064D0300E915D0FE39151390803E23B
:10572000410E915D09E391515A0803E2610E915DCA
:1057300003E391517A0840E20201250E5F6F0001F8
:10574000E451E96EEA6AD890E936EA36DE0EE926D7
:10575000000EEA22EE52EFCF5EF236EC04F091CC6E
:105760006DF692EC74F002015F6F0001E451E96E96
:10577000EA6AD890E936EA36DE0EE926000EEA2219
:10578000EE52EFCF5EF236EC04F091CC6EF6A1EC67
:1057900074F002015F6F0001E451E96EEA6AD8908B
:1057A000E936EA36DE0EE926000EEA22EE52EFCFA7
:1057B0005EF236EC04F012D091CC5FF20001E451BD
:1057C000E96EEA6AD890E936EA36DE0EE926000E7E
:1057D000EA22EE52EFCF5EF236EC04F076D7020109
:1057E0003D0E5F6F0001E451E96EEA6AD890E93638
:1057F000EA36DE0EE926000EEA22EE52EFCF5EF226
:1058000036EC04F0000172C0E9FF73C0EAFF722BAE
:10581000000E7323EFCF91FCEF5001E17DD0200EFD
:105820000C01915D14E102012B0E5F6F0001E45148
:10583000E96EEA6AD890E936EA36DE0EE926000E0D
:10584000EA22EE52EFCF5EF236EC04F064D0300E76
:10585000915D0FE39151390803E2410E915D09E337
:1058600091515A0803E2610E915D03E391517A0868
:1058700040E20201250E5F6F0001E451E96EEA6A21
:10588000D890E936EA36DE0EE926000EEA22EE521C
:10589000EFCF5EF236EC04F091CC6DF692EC74F042
:1058A00002015F6F0001E451E96EEA6AD890E936BF
:1058B000EA36DE0EE926000EEA22EE52EFCF5EF265
:1058C00036EC04F091CC6EF6A1EC74F002015F6F3F
:1058D0000001E451E96EEA6AD890E936EA36DE0E54
:1058E000E926000EEA22EE52EFCF5EF236EC04F02B
:1058F00012D091CC5FF20001E451E96EEA6AD890CF
:10590000E936EA36DE0EE926000EEA22EE52EFCF45
:105910005EF236EC04F076D70201D80E6F6F660E99
:10592000706F010E716F0001E451E96EEA6AD89060
:10593000E936EA36DE0EE926000EEA22EE52EFCF15
:105940006EF259EC06F000017607A5D60201D80EDA
:105950006F6F660E706F010E716F0001E451E96E9A
:10596000EA6AD890E936EA36DE0EE926000EEA2227
:10597000EE52EFCF6EF259EC06F00001E451E96E01
:10598000EA6AD890E936EA36DE0EE926000EEA2207
:10599000090EEF6E0C01936BCDD8000915E074C0B1
:1059A0005CF472EC4CF000017469E451E96EEA6A4F
:1059B000D890E936EA36DE0EE926000EEA220B0E12
:1059C000EF6E0C01010E936F0001E451E96EEA6A7B
:1059D000D890E936EA36DE0EE926000EEA22EE52CB
:1059E000EFCF5DF2F3EC03F0F3CF14F0F4CF15F04A
:1059F0001450151003E10C01010E936F95D00C01AA
:105A0000010E936F0001E451E96EEA6AD890E9361D
:105A1000EA36DE0EE926000EEA22EE52EFCF5DF204
:105A2000F3EC03F0F3CF14F0F4CF15F0100E145C88
:105A3000000E155801E278D068C0E5F069C0E6F0C4
:105A40006AC0E7F06BC0E8F0A5EC1DF000016C51F6
:105A50006D116E116F110FE10C01936B0001E45198
:105A6000E96EEA6AD890E936EA36DE0EE926000EDB
:105A7000EA22090EEF6E58D0E451E96EEA6AD89036
:105A8000E936EA36DE0EE926000EEA22EE52EFCFC4
:105A9000B5F2ACEC1BF0000918E00001E451E96E2E
:105AA000EA6AD890E936EA36DE0EE926000EEA22E6
:105AB000EE52EFCF72F288EC06F0F3CF14F0F4CF91
:105AC00015F01450151001E02FD0FF0E0001745D89
:105AD00006E074C05CF472EC4CF000017469FF0ED7
