:020000040000fa
:08000000faa504000000000055
:020000040000fa
:100400000b0037001042780091417800834f520072
:10041000040032000081eb000700390012002000c8
:10042000050037000000e8008100e8000201e90053
:100430000200e000f3ff3a0002007800000006002e
:10044000040037000204e0000a0032000000e80067
:100450008100e80010417800914f5100f9ff32000f
:100460000081eb0010407800914f500004003900eb
:10047000020037000001eb000100370012002000ed
:1004800002007800000006008000780001003700bc
:100490000000e8001004e000fdff3a0001005000f9
:1004a00000000600800178000200370081597800c2
:1004b0000201e9000200e000fcff3a000000060033
:1004c0008001780000017800314078000059780000
:1004d0000004e000fcff3a00030078000000060082
:1004e0008001780002003700b15978000201e9006c
:1004f0000200e000fcff3a0000000600ec87470025
:10050000889fbe008a9fbe008c9fbe008e1f780011
:10051000f0b79f0081bf9f0082047800000478003c
:10052000010037000804e800184778000e00fb00bf
:10053000140107000000e000faff3a00d0c2b30047
:10054000804f57000500320000c0e900804f57007f
:100550000200320000477800010037000804e8007c
:100560000900e00045003500e18f540043003200ef
:1005700040022000808f540040003c000900e00051
:100580000e003400f08f54001a003a0000c3b3008c
:10059000984f100016003a009840900080c7b300b2
:1005a00080cf50000300320080c5b30080cf5000e0
:1005b0000f003a000884e8000e003700a900200070
:1005c00000c3b300984f10000a003a009840900012
:1005d00080c7b30080cf50000400320089002000a3
:1005e00080c5b30080cf500002003a000884e800c4
:1005f0000901200008057800010037000a05e8001d
:1006000000c3b3009a4f1000fcff32008a05780047
:100610006066b8000e00370050d42000004252003f
:10062000c4ef9f006149b9000c00be00f50007004f
:100630004fea97000401fb00cf91de008b05e80034
:10064000ccb79f00ddb79f000006410081864900be
:100650001b00fb00d3000700800078000901780030
:1006600050d42000d6000700000278000000e0000f
:10067000e9ff3a008b0f540006003a000fb89700cc
:100680000000e00029003200ffb097000108780068
:10069000260037008a80550000d22000694078008b
:1006a0000000fb0000805000160033004240a9000b
:1006b0000f003c004fe997000200fb00cf80de00f6
:1006c0000000560081805e00800f5600818f5e0022
:1006d000070039006149b900d00007004fb1970009
:1006e000dfb19700820f5000838f58000500320061
:1006f00020022000307c88000086eb008086eb0022
:1007000005003700d0c2b300804f570002003a0006
:1007100060061600e0861e008fb997000300e00017
:10072000030032008b097800010037006066b800d2
:100730000c00be004f0778004f06be004f05be00fc
:100740004f04be00cf00b10000000600889fbe002d
:10075000907a80000000e0000100320000000100fb
:10076000607a80000000e00001003200000001001b
:10077000405880000000e00001003200000001004d
:10078000105880000000e00001003200000001006d
:10079000544fe20024003a0078002000d260260086
:1007a00093012000707a8000817a80009500070014
:1007b000f2352f00e3c6230000014100818149008a
:1007c000727a8800837a88000804e900f3ff3b000e
:1007d000a9b02000f8012000d2602600930120007b
:1007e000707a8000817a800086000700f2352f0041
:1007f000e3c623000000410081804900707a880030
:10080000817a8800809cbe000804e900f2ff3b006a
:10081000305c8000415c800020588800315888009e
:1008200010c0b30054efb700d2602600930120003f
:10083000707a8000817a800072000700f2352f0004
:10084000e3c623000000410081804900707a8800df
:10085000817a8800225880007f0161004211dd000a
:10086000a3b02000030141001202be0024588800fa
:10087000355888000089be0020588000315880001b
:100880000100780000f0a1004f04be000000060047
:10089000881f780000047800907a80000000e00053
:1008a0000100320000000100546fef00607a800008
:1008b0000000e00001003200000001006140b800cb
:1008c000707a8800817a88004f0478000000060062
:1008d0008001780000017800010037000201e80083
:1008e0001204e000fdff3a00020037000201e800b8
:1008f0008100e80011407800004978000004e00021
:10090000faff3a00030078000000060004003700f8
:100910000204e00001003a00000005000000e800c9
:1009200010417800814f5100f9ff3a0000000600a5
:10093000889fbe0081047800114478000804e0001c
:100940000a003a000d003700800178008900780025
:100950008100e800114178000204e0000700320045
:10096000d34f1100faff32000000e8008800fb00be
:10097000e6ff07000000e000f3ff3a004f04be006e
:10098000000006006900e100040035006d00e10090
:10099000030034000002b100010032000000050035
:1009a00010000500800078001104b100030035003c
:1009b0009101b10001003c000050a00000000600c1
:1009c0000600370090cf100002003a0000017800c6
:1009d000040037000000e8000201e9000200e00026
:1009e000f8ff3a000200780000000600207c80003a
:1009f0000000e000010032000000010060f820006b
:100a000000000600020ab900001bb9000200b8008d
:100a10008100420081004300000006006022b8000f
:100a2000060220000000d0008180d2000482d200a3
:100a30008582d2000000a0000202520083825a0088
:100a400003003b000202420083824a000000a10032
:100a50000603e900f3ff3a0000000600889fbe008d
:100a60008a9fbe008c1f78000205be000004be00f5
:100a70000006eb00e00f5000e08f5800e00f590037
:100a8000e08f590007003d006000b8006011b80019
:100a900008045000898458000a0559008b855900c4
:100aa0001c002000e00f5200e08f5a00e00f5b00b6
:100ab000e08f5b0002003d000f0007000c00a20069
:100ac0000800be000a01be001b0107000203be00b1
:100ad0000002be000c00e00001003200060007002a
:100ae0000400be000601be004f0678004f05be00a0
:100af0004f04be00000006006000b8006011b8009e
:100b0000040250008582580006035900878359006b
:100b100000000600881f7800000478005001be0025
:100b20004000be00040040008580480006014900e6
:100b300087814900009cbe000294be000400e100d1
:100b40000588e1000690e1000798e100020031000d
:100b5000680044001008e8004f0478000000060018
:100b60001000fa00889fbe008a9fbe003004be00bd
:100b70002005be00c8b79f00d9b79f00eab79f0005
:100b8000fbb79f000404540085845c0006055d00eb
:100b900087855d0088bf9f0099bf9f00aabf9f0007
:100ba000bbbf9f000898be000a98be008000eb0003
:100bb0004fb49700dfb497006fb59700ffb597006b
:100bc0000440e10005c8e10006d0e10007d8e100db
:100bd0000100310011002000108810004f05be00f8
:100be0004f04be000080fa00000006001200fa0068
:100bf000889fbe008a9fbe008c1f78000205be0041
:100c00000004be00f4b79f0085bf9f0096bf9f0001
:100c1000a7bf9f000000eb00e0b79f00d0b79f0088
:100c2000c0b79f00b0b79f00a0b79f000006780034
:100c3000dfb097006fb09700000140000000e000b7
:100c40000a003d008c00070001003d00120020005a
:100c50009200070001003d001200200097000700ed
:100c60007c805700abff07000900370082000700b7
:100c700001003d00120020008800070001003d0037
:100c8000120020008d0007007c805700b4ff070091
:100c90006fb297000400e00007003500100020004c
:100ca000010020006011b800080470008984700001
:100cb0000a0571008b8571000c06e800f003200026
:100cc000800f5600daff34000400e00006003d000b
:100cd0007fb297008fba97001fbb9700afbb9700fa
:100ce0007c8057008bff07006fa897000000e00092
:100cf00004003a002fb49700bfb497004fb5970097
:100d0000dfb59700890007004f0678004f05be0049
:100d10004f04be000080fa0000000600881f780023
:100d200018002000881f7800b0ff07008f87e900b7
:100d30004f04780000000600801feb00abff0700a7
:100d40008f87e90000000600889fbe008a9fbe00d2
:100d50008c1f78006e00070005003d002f00070083
:100d600007003d003d0007000006eb0004003700cf
:100d70003f00070002003d00300007001c0020007b
:100d80006a000700e5ff07000203be000002be0084
:100d90000c00e00001003200280007000400be0043
:100da0000601be004f0678004f05be004f04be008e
:100db00000000600889fbe008a9fbe008c1f78003e
:100dc0005300070003003d001400070006003d002b
:100dd000040037002600070003003d006000b80053
:100de0006011b8001d00070050000700d2ff070087
:100df0000203be000002be000c00e0000100320051
:100e00000e0007000400be000601be004f06780079
:100e10004f05be004f04be00000006006000b80091
:100e20006011b80008045000898458000a05590070
:100e30008b8559001c002000030037006000b800bb
:100e40006011b80005003700e00f5200e08f5a0033
:100e5000e00f5b00e08f5b00000006000402500022
:100e60008582580006035900878359000000060058
:100e70000006eb00f4ff37004f08de0000007100b1
:100e8000c0b79f0001804000b0b79f000001eb0099
:100e9000afb097000100e000000006000200700003
:100ea000b0b79f0001804000a0b79f000001eb0099
:100eb0009fb097000100e0000000060002007000f3
:100ec000a0b79f00018040000fb29700cf20de0046
:100ed0000100700090b79f00040242001300070059
:100ee0004f18de000002720084b79f00080444001f
:100ef00089844c000a054d008b854d005fb2970038
:100f0000efb297007fb397008fbb970000000600f9
:100f10000205be000004be00e00f5000e08f580044
:100f2000e00f5900e08f5900000006000800be00e5
:100f30000a01be0000000600889fbe008a9fbe0016
:100f40008c9fbe000404b8000506b8008904460062
:100f500060854e000606b8000a054600e0854e0092
:100f60000706b8008b054600040eb8008904460049
:100f70000a854e00e0854d00050eb8000a054600c2
:100f80008b854e00060eb8008b0546000416b8008f
:100f90000a0546008b854e000516b8008b054600f5
:100fa000041eb8008b0546000800be000a01be0002
:100fb0004f06be004f05be004f04be0000000600f5
:100fc000889fbe008a9fbe00f26527008000eb006c
:100fd000c0b22000468f020000000000804578006b
:100fe000e14f40002c0032000b407800b68f020029
:100ff000000000000000e000fbff3200f1002000d4
:1010000080d020000890020000000000d0c0b30093
:10101000e28f020000000000a0c0b300e28f0200d7
:10102000000000000045eb000a84fb00c802b0008d
:10103000d9ce200068c07c00fc3d0200000000000a
:10104000e28f02000000000068c07c00103e020039
:1010500000000000e28f0200000000000a45e800e6
:10106000e64f550004003200d0c2b300e28f020008
:1010700000000000ecff3700c0302900349002006f
:10108000000000004a900200000000000b407800c1
:101090001a8f0200000000004f05be004f04be0082
:1010a000000006000200fa00881f7800707b8000b4
:1010b000e10f50000e00320003003900e20f500033
:1010c00058003a0022003700f26527008000eb004c
:1010d00002007800468f0200000000006cefb700ad
:1010e000e14f40004f0032006e2fec004d00370002
:1010f0006ccfbf000a910200000000000000e00079
:10110000480032006480570068910200000000002f
:10111000189102000000000040c4b300cff897000f
:1011200080cf50003f003a006e2fec006ccfbf0024
:10113000e2c0b3000440bc0000a820000001410050
:10114000c0f220000900090030597800a200b10067
:101150006ccfbf00b68f0200000000000000e0006e
:1011600030003200f100200080d020000890020002
:1011700000000000d0c0b300e28f020000000000b9
:10118000a0c0b300e28f0200000000008040eb002e
:10119000c1ff9f00cff897000180fb00c002b000a4
:1011a000d8ce200060407c00fc3d02000000000022
:1011b000e28f020000000000cff897000180fb00e2
:1011c000c002b00060407c00103e02000000000041
:1011d000e28f020000000000cff897000140e80015
:1011e000c0ff9f00e64f500004003200d0c2b300a1
:1011f000e28f020000000000e6ff3700d0c0b3001d
:10120000e28f020000000000a0c0b300e28f0200e5
:10121000000000004a9002000000000010002000c2
:10122000707b88004f0478000080fa000000060000
:1012300000c0eb00faeeb700fbeeb700fceeb70023
:10124000fdeeb700feeeb700ffeeb7000040eb008a
:10125000f6eeb700f7eeb700f8eeb700f9eeb7001c
:1012600000000600881f78000104780062ef20006b
:10127000124178000281fb0071ef2000914078005c
:10128000c808dd000282700082ef20001241780061
:101290000281fb0091ef200091407800c808dd003a
:1012a000828270001003be00860f5200878f5a00a2
:1012b0003000320041cf2000914078008180fb0057
:1012c000f5ccbf004800dd000101700061cf2000b7
:1012d000914078008180fb00f7ccbf004800dd0022
:1012e00081017000820f5200838f5a0027003a005c
:1012f000c1ce2000914078008180fb00edccbf0082
:101300004800dd0001027000e1ce2000914078002d
:101310008180fb00efccbf004800dd00810270003f
:1013200006026a0087826a0001cf2000914078009f
:101330008180fb00f1ccbf004800dd00010170009e
:1013400021cf2000914078008180fb00f3ccbf00ca
:101350004800dd000100700004016100050060002c
:101360008000780002007800e00f5000e08f580005
:1013700006003200a0ef200005000900305c780074
:101380006800b10010002000010037000000eb00f1
:101390004f04780000000600881f780000047800e1
:1013a00010007800623e020000000000000c78008f
:1013b00018009000623e0200000000001004980037
:1013c00038009000623e02000000000030049800e7
:1013d0004f04780000000600889fbe008a1f780036
:1013e00000057800102d0200000000000000e00061
:1013f000fcff3200f0a720009e3002000000000039
:1014000019002000090d78000080200010059800c8
:1014100068c0b3004845980040c0b30050459800ec
:101420006800450091d1200005000900315878007e
:101430006000b100c1ce2000914078008180fb00a7
:10144000edccbf004800dd0001017000e1ce2000be
:10145000914078008180fb00efccbf004800dd00a8
:101460008101700072059800030d98000a00780051
:10147000c9ff070072004500c201200088407800c3
:10148000f22d020000000000c10120000a007800d7
:10149000c82d020000000000802f020000000000a4
:1014a000090078004f0578004f04be0000000600d8
:1014b0001c00fa000003780010002000d0b79f0045
:1014c00000c0eb00e0f79f00f0f79f0080ff9f0057
:1014d00090ff9f00a0ff9f00b0ff9f00c1ce2000a3
:1014e000914078008180fb00edccbf004800dd001a
:1014f00001027000e1ce2000914078008180fb0065
:10150000efccbf004800dd008102700036006a00a9
:10151000a6806a000002be0001cf20009140780042
:101520008180fb00f1ccbf004800dd0001017000ac
:1015300021cf2000914078008180fb00f3ccbf00d8
:101540004800dd000100700004016100050060003a
:101550008000780002007800e00f5000e08f580013
:101560000f00320041cf2000914078008180fb00c5
:10157000f5ccbf004800dd000101700061cf200004
:10158000914078008180fb00f7ccbf004800dd006f
:1015900081017000e2bf9f00f3bf9f00030037008e
:1015a0001600be00e0bf9f00f1bf9f007c80570087
:1015b00089ff07000080fa00000006001c00fa0006
:1015c000507780000000e00003003200e10f50007f
:1015d00052003a0040003700c10120007c805700d3
:1015e0004a2d0200000000001e2d02000000000035
:1015f0007c80570068ff07002fb09700e10f500074
:1016000046003a00cfb0970060402000808f500025
:1016100042003a005fb29700e20f520010003a0019
:1016200074805700a1ef200005000900b058780031
:101630006000b1001fb89700afb89700f6eeb70092
:101640004801de0002007800f7eeb70001007800e4
:10165000f8eeb7004808de00f9eeb7002f003700bb
:10166000e10f52001c003a00c1ce200091407800ea
:101670008180fb00edccbf004800dd00010170005f
:10168000e1ce2000914078008180fb00efccbf00cc
:101690004800dd00810170006fb89700ffb8970027
:1016a000820f5000838f58001c003a001fb897002b
:1016b000afb8970060778800717788006fb09700a7
:1016c000ffb0970080778800917788008fb89700e7
:1016d000a17788005477880020002000d0b79f00b1
:1016e0008077800091778000b0bf9f00c1bf9f00ce
:1016f000a1778000d1bf9f00607780007177800064
:10170000e0bf9f00f1bf9f007c80570032ff0700c1
:101710000000e00002003200ea2eef00100020007e
:101720000080fa0000000600881f7800010478009d
:10173000820178000200e000080032007200200000
:10174000e1322900030078000002020000000000de
:101750000000e0000c0032000d003700613329006a
:1017600020020200000000000000e00006003a0035
:10177000c1332900080078002002020000000000a8
:101780000000e000020032000000eb000100370022
:10179000000820004f047800000006001400fa0042
:1017a000881f78000ecabf0042012000f680570053
:1017b0003c6102000000000092002000613429001a
:1017c000768057000002020000000000000478004c
:1017d0000000e00046003a000135290060a1200029
:1017e000e642020000000000000178000000e00076
:1017f0000b0032008840780010c3b300924f1000f5
:1018000001003a0011c0b300e1c06000c408dd006f
:10181000c2c2bf000044a10001407000c2e2b70094
:101820005135290060a12000e642020000000000be
:10183000000178000000e0000a0032008040eb0068
:1018400010c3b300924f100001003a0011c0b30062
:10185000c308dd00c2c2bf000034a1000140700017
:10186000c2e2b700a135290060a12000e6420200d3
:1018700000000000000178000000e0000a003200d3
:101880008040eb0010c3b300924f100001003a00fb
:1018900011c0b300c208dd00c2c2bf000024a10015
:1018a00001407000c2e2b700f135290060a12000bc
:1018b000e642020000000000000178000000e000a5
:1018c000760032008040eb0010c3b300924f10004e
:1018d00001003a0011c0b30081c04000c2c2bf0085
:1018e0000014a10001407000c2e2b7006b00370095
:1018f000b200200041362900768057000002020025
:10190000000000000000e00003003a0010c0b30037
:1019100010eab7006100370082002000013729007b
:101920007680570000020200000000000000e00086
:101930005a003a009137290060a12000e6420200d7
:10194000000000009040780040c3b30080cf5000fa
:101950002c00320008003e0000c0e90080cf50009b
:10196000160032001e003e000040e90080cf50000b
:101970004a003a000800370060c3b30080cf50002f
:1019800032003200280039000040e80080cf5000cb
:1019900042003a0036003700c2c2bf000000d1004a
:1019a000610060000004a20000404000212c2000e3
:1019b000914078000114a10035003700c2c2bf0079
:1019c0004200de00610060000004a2004200dd0071
:1019d000212c2000914078000124a1002c00370028
:1019e000c2c2bf004300de00610060000004a2002c
:1019f0004300dd00212c2000914078000134a1003b
:101a000023003700c2c2bf004400de006100600056
:101a10000004a2004400dd00212c20009140780049
:101a20000144a1001a003700c2c2bf004500de0019
:101a3000610060000004a2004500dd00212c2000b0
:101a4000914078000154a10011003700c2c2bf00cc
:101a50004600de00610060000004a2004600dd00d8
:101a6000212c2000914078000164a100080037007b
:101a7000c2c2bf000080fb004700de000004a200dd
:101a80004700dd00212c2000914078000174a10066
:101a900080c0700001007800c2e2b7000000eb00d7
:101aa0004f0478000080fa0000000600889fbe0006
:101ab0008a9fbe00ecc9bf000080fb004200dd0031
:101ac0000080e800eb9e20008002eb000502780019
:101ad0008501780042002000d137290060c07d00d8
:101ae0003c8302000000000000017800ecc9bf0048
:101af000d84f8000e94f8000e10f410015003a0007
:101b00000080fb004200dd000080e80060c07d0036
:101b10006e7302000000000064015000ecc9bf00b9
:101b20000080fb004200dd000080e8008000eb0048
:101b300060c07d00d8840200000000000000540056
:101b4000e0805c00d04f8800e14f88001200200048
:101b5000620037000080fb004200dd000080e800ea
:101b60008000eb0060c07d00d8840200000000000f
:101b700000005400e0805c00d04f8800e14f8800f6
:101b8000ecc9bf000080fb004200dd000080e800df
:101b90000002eb00840178000401780061c2b30008
:101ba00060c07d00c48402000000000000057800d1
:101bb000e10f400001003a00da4f8000d84f80006a
:101bc000e94f8000ecc9bf000080fb004200dd004f
:101bd0000080e80060c07d006e730200000000001d
:101be0000100200012002000800f5400818f5c0053
:101bf0003a003e0022062000820f55000100360008
:101c000002057800ecc9bf000080fb004200dd0047
:101c10000080e8000a01780061a1200060c07d001a
:101c2000d884020000000000d24f8000e34f800003
:101c300000015100e0815900d24f8800e34f880035
:101c400068a12000080040000048eb000800780070
:101c500078420200000000002138290008007800c6
:101c6000e64202000000000000057800080078004d
:101c70004402020000000000ff0f50000a003e0076
:101c8000020220008200780040e720005202020099
:101c9000000000008a00780040e720006002020097
:101ca000000000000400370040e720001f0009008a
:101cb0003a5878000a02b100c25302000000000046
:101cc0006134290060a120006002020000000000d1
:101cd000b0002000905088000001eb000200780066
:101ce0004f05be004f04be00000006000c00fa00c5
:101cf000889fbe008a9fbe008c1f7800164aed00a8
:101d0000e14f50005001360040a42000c1ce200019
:101d1000320009003158780070caa90010c0b30021
:101d200016eab70048013700ecc9bf000080fb008d
:101d30004200dd000080e800e99e20000002eb0088
:101d4000840178000401780061c2b30060c07c00a7
:101d5000c48402000000000000047800e10f40008d
:101d600017003a00ecc9bf000080fb004200dd0014
:101d70000080e80060c07c006e730200000000007c
:101d80006101b800d04f8000e14f8000800f51000a
:101d9000818f590072013a00ecc9bf000080fb003e
:101da0004200dd000080e80060c07c006e7302002d
:101db0000000000000047800e10f400068013200dc
:101dc000c19e200091407800da4f8000eb4f8000e8
:101dd00010032000800f54001c0036000180fb001f
:101de0004200dd000080e800e202200071a1200036
:101df00060c07c00d884020000000000000555008f
:101e0000e0855d00da4f8800eb4f880022fd2f004f
:101e100002014400ecc9bf000080fb004200dd006d
:101e20000080e8008000eb0060c07c00d8840200e5
:101e30000000000000005500e0805d00d04f8800e9
:101e4000e14f8800436aef000f0037000180fb007c
:101e50004200dd000080e8000801780071a1200048
:101e600060c07c00d8840200000000000000550023
:101e7000e0805d00d04f8800e14f880070a1200015
:101e8000000044000048eb0070a1200078420200ee
:101e900000000000320020006138290070a12000fd
:101ea00000020200000000000000e0000b003a0009
:101eb00041a42000a0a12000e83a02000000000098
:101ec0000000e000360032002252800033528000d1
:101ed000c2528800d3528800b3003700320020007d
:101ee000a138290070a120000002020000000000bb
:101ef0000000e00003003a00c1a42000a0a12000df
:101f00002300370072002000e138290070a1200072
:101f100000020200000000000000e0000b003a0098
:101f200081a42000e0a12000e83a020000000000a7
:101f30000000e0001a003200405280005152800040
:101f4000e0528800f15288009700370052002000cc
:101f50006139290070a12000000202000000000089
:101f600001a520000000e00008003200520020001f
:101f7000c139290070a12000000202000000000009
:101f80000000e00009003a0041a52000c0a12000a7
:101f9000e83a0200000000000000e00082003a0081
:101fa00020c0b30016eab7007f00370042002000cf
:101fb000213a290070a12000000202000000000068
:101fc0000000e0003b003a00b3a12000004178008f
:101fd000010037008301e800934078000104e0002d
:101fe0000d00320000cdb30000c04000e84f5000ab
:101ff00011003600f0cbb30000c04000e54f5000a8
:102000000d003600f0c9b30000c04000e54f50009d
:10201000f0ff3e00080037008280fb0000c3b300e1
:10202000f680500080f07f000241e800eb4f510045
:1020300008003e00f8ff37000280fb0076005000e9
:1020400001f07f008301e8000241e800eb4f5100fe
:10205000e1ff36000044eb0019a720000880fb00d8
:102060000000400076815700820040009180fb0014
:10207000c808dd00fc0fb200010676000000e80091
:10208000020040009080fb0000f02f000006660078
:10209000010676000c007800a03d02000000000060
:1020a000805c78000844e800e54f54003e003e00a4
:1020b000eaff370052002000713a290070a1200089
:1020c0000002020000000000000478000000e000b0
:1020d00014003a00f20020000102200000a62000b7
:1020e0005202020000000000080078006feab7000a
:1020f000c8a120000800780044020200000000008f
:10210000000178008800780000a62000700202001c
:102110000000000000a62000d83e020000000000e1
:1021200021003700c2002000d13a290070a1200010
:1021300000020200000000000000e0001a003a0067
:1021400001a720009140780010c3b300234ae300a8
:1021500003003a00010078000060a0000200370090
:10216000010078000060a10070eab7000e0037009f
:10217000d84f8000e94f8000ecc9bf000080fb0011
:102180004200dd008000eb00029f200060407900eb
:102190004e8502000000000000045400e0845c0052
:1021a000d84f8800e94f8800ecc9bf000080fb00d1
:1021b0004200dd000080e800e89e20000002eb0005
:1021c000840178000401780061c2b30060407c00a3
:1021d000c4840200000000000000e000e4ff3200c0
:1021e000ecc9bf000080fb004200dd000080e80079
:1021f0000002eb008401780004017800d1c0b30034
:1022000060407c00c4840200000000000000e00088
:10221000d7ff3200ecc9bf000080fb004200dd00a8
:102220000080e8000002eb008401780004017800df
:10223000a1c0b30060407c00c48402000000000024
:102240000000e000caff3200d24f8000e34f800060
:10225000e00f5100e08f5900b3fe3a0060a120006a
:1022600014c0b300904f120036003a0070caab00a1
:102270000c00320090cab30058eab700e0cfb300b8
:1022800059eab7000002fd005aeab7005beab7005e
:102290000002fd005ceaef005deaef005e6aef001d
:1022a0005f6aef0049a420000200be00a270020095
:1022b0000000000000c6b3006c71020000000000c6
:1022c0000004eb00394078006c710200000000004f
:1022d0000804e80020032000800f5400f9ff3600b6
:1022e0006071020000000000ac70020000000000fd
:1022f0000000e000fcff3a00a13b290060a12000a3
:102300006002020000000000a0a2200001a6200040
:102310000f0009003158780062a120000100370049
:102320000201e8009240780000c2b30080cf500064
:10233000020032000104e000f9ff3a000049eb001e
:1023400003003700f13c2900600202000000000099
:10235000b0002000905088000000eb000100370022
:10236000100020004f0678004f05be004f04be004d
:102370000080fa0000000600889fbe008a1f7800d7
:1023800016cabf00e14f500003003200e24f500078
:1023900072003a0038003700ecc9bf000080fb0033
:1023a0004200dd000080e800e89e20008002eb0093
:1023b000050278008501780042002000913e290046
:1023c00060407c003c83020000000000c19e2000b1
:1023d00091407800e10f400011003200640140009c
:1023e0000180fb004200dd000080e8008000eb007f
:1023f00060407c00d884020000000000d24f8000c2
:10240000e34f800000015100e0815900d24f880065
:10241000e34f880020c0b30016eab700160037006b
:102420000180fb004200dd000080e80060407c008d
:102430006e7302000000000064015000ecc9bf0090
:102440000080fb004200dd000080e8008000eb001f
:1024500060407c00d884020000000000d24f800061
:10246000e34f800000015100e0815900d24f880005
:10247000e34f880062003700ecc9bf000080fb001a
:102480004200dd00019f200060c078006e730200f2
:102490000000000000047800d24f8000e34f80006d
:1024a00001002000820f5000838f58001c0036006e
:1024b000020478001a003700880078000204200027
:1024c000820f54000100360082007800ecc9bf0082
:1024d0000080fb004200dd000101780071a12000b6
:1024e000039f200060c07900d88402000000000033
:1024f00000017800d04f8000e14f800002005000c2
:10250000e0805800d04f8800e14f8800020454005a
:1025100071a12000e0902000d038020000000000ef
:102520000800e000e4ff3a00d04f8000e14f800057
:10253000e00f5000e08f580031003a0050c0b30067
:1025400016eab70071a12000e090200022390200b5
:1025500000000000080078002a003700e09020000a
:102560003e37020000000000ecc9bf000080fb0005
:102570004200dd000080e800ea9e20008002eb00bf
:10258000050278008501780022002000e13e290044
:1025900060407d003c830200000000008000780065
:1025a000e10f40001600320066004000d84f800066
:1025b000e94f800000045400e0845c00d84f88009c
:1025c000e94f88000181e800ecc9bf000080fb00f2
:1025d0004200dd000080e8008000eb0060407d00ec
:1025e000d88402000000000000045400e0845c0075
:1025f000d84f8800e94f880010c0b30016eab70032
:10260000100020004f0578004f04be0000000600b7
:10261000889fbe008a9fbe008c1f780016cabf002c
:102620000080fb000100200061005000e0805800a5
:10263000e90f5000e08f580039023e0000600100b1
:1026400009003700ad003700080137001a013700d4
:10265000500137005f01370098013700f001370063
:102660000b0237001d023700ecc9bf000080fb00e1
:102670004200dd000080e800ec9e20000002eb003c
:102680008401780004017800d1c3b30060407e006b
:10269000c48402000000000000057800e10f400043
:1026a00030023200ab052000ecc9bf00d84f8000db
:1026b000e94f80008b0f55001b0036000080fb00a7
:1026c0004200dd000080e8000b01780071a12000cd
:1026d00060407e00d8840200000000000004540026
:1026e000e0845c00d84f8800e94f8800716aef00f1
:1026f0000b015500ecc9bf000080fb004200dd006b
:102700000080e8008000eb0060407e00d88402007a
:102710000000000000005400e0805c00d04f880002
:10272000e14f88000f0037000080fb004200dd0011
:102730000080e8000a01780071a1200060407e005e
:10274000d88402000000000000005400e0805c001b
:10275000d04f8800e14f880070a1200000004500a4
:102760000048eb00d84f8000e94f8000ecc9bf0063
:102770000080fb004200dd008000eb00029f200093
:10278000604079004e850200000000000004540003
:10279000e0845c00d84f8800e94f880078a12000d1
:1027a000113f29000800780020020200000000000c
:1027b0000000e00003003a00504b800030708800b9
:1027c0004c003700813f29000800780020020200f9
:1027d000000000000000e00003003a00504b8000c1
:1027e000404b880043003700d13f290008007800a3
:1027f00020020200000000000000e00003003a0098
:10280000504b8000407088003a003700214029007a
:102810000800780020020200000000000000e00034
:1028200003003a00504b80005070880031003700a0
:10283000714029000800780020020200000000001a
:102840000000e00003003a00504b800060708800f8
:1028500028003700a140290008007800200202006b
:10286000000000000000e00022003a00317080000b
:102870000100e000030032001104e00001003a0012
:1028800030708800407080000000e00003003200db
:102890001004e00001003a00082eef0050708000a4
:1028a0000000e000050032001004e00002003200e9
:1028b000080ee20001003a000a2eef00404b8000b3
:1028c0000000e000070032001004e00005003200c4
:1028d000a20020008000eb007e0202000000000049
:1028e000e0708800186d02000000000030c0b300e6
:1028f0005c00370020c0b30016eab700ecc9bf0087
:102900000080fb004200dd000080e800ec9e20001b
:102910000002eb00840178000401780061c2b3007a
:1029200060407e00c4840200000000008005780042
:10293000e10f40008b013200514b8000a09e20002f
:102940000105500000082000800f550001003600ee
:102950000005eb00ecc9bf00d84f8000e94f8000b4
:102960008a8f55001f0036000080fb004200dd000a
:102970000080e8000a01780060407e00d8840200f0
:102980000000000000005400e0805c00d04f880090
:10299000e14f88008040eb00504b800001757800cb
:1029a000d84f8000e94f80000a815500ecc9bf0074
:1029b0000080fb004200dd000080e8008000eb00aa
:1029c00060407e00d8840200000000000004540033
:1029d000e0845c00d84f8800e94f8800504b8000ad
:1029e0000e0037000080fb004200dd000080e800a0
:1029f0000b01780060407e00d884020000000000d7
:102a000000005400e0805c00d04f8800e14f880057
:102a1000504b80008040eb008175780078420200c6
:102a200000000000504b8800d84f8000e94f800024
:102a3000ecc9bf000080fb004200dd008000eb001d
:102a4000029f2000604079004e85020000000000d7
:102a500000045400e0845c00d84f8800e94f8800ef
:102a600010c0b30016eab700400137001c6d020029
:102a7000000000000000e00009013200266d0200a5
:102a80000000000091052000810f50003701360042
:102a9000e0402900c46d020000000000d04329007e
:102aa000c46d020000000000e26d020000000000a2
:102ab00040c0b30016eab7001c6d02000000000021
:102ac0000000e000f6003200266d02000000000069
:102ad00000057800ecc9bf000080fb004200dd006b
:102ae0000080e800eb9e200060c07d006e73020055
:102af000000000008a0f500001003100000578003e
:102b000010062000800f55000100360000057800f7
:102b1000d84f8000e94f8000ecc9bf000080fb0067
:102b20004200dd000080e8000a01780071a1200069
:102b300060c07d00d8840200000000000004540042
:102b4000e0845c00d84f8800e94f880078a120001d
:102b5000080045000048eb000800780078420200b9
:102b60000000000008007800c46d020000000000b2
:102b7000e26d020000000000d04f8000e14f8000b5
:102b8000e00f5000e08f5800f6003a0050c0b3004c
:102b900016eab7001c6d0200000000000000e00013
:102ba000bf003200266d0200000000003106200048
:102bb000810f5000ed00360060462900c46d020010
:102bc00000000000e26d02000000000060c0b300e1
:102bd00016eab7001c6d0200000000000000e000d3
:102be000af003200266d020000000000310220001c
:102bf000810f5000dd003600704c2900c46d0200ca
:102c000000000000704d2900c46d020000000000ab
:102c1000d5c2bf004500de00610060000043b00087
:102c20003a6d020000000000c0c2b3003a6d02001d
:102c300000000000c2c2bf000080fb004700de00b1
:102c40000043b0003a6d020000000000c0c2b300b3
:102c50003a6d020000000000d4c2bf000080fb00fb
:102c60004700de000043b0003a6d020000000000a3
:102c7000c0c2b3003a6d020000000000d4c2bf0021
:102c80004600de00610060000043b0003a6d0200c3
:102c900000000000d0c0b3003a6d02000000000048
:102ca000a0c0b3003a6d020000000000e26d020017
:102cb0000000000070c0b30016eab7001c6d0200ef
:102cc000000000000000e00075003200266d0200e8
:102cd00000000000fd0f5000a4003600104e290037
:102ce000c46d020000000000c2c2bf00614060006d
:102cf0000043b0003a6d020000000000c0c2b30003
:102d00003a6d020000000000c2c2bf000000d10006
:102d1000610060000043b0003a6d02000000000056
:102d2000c0c2b3003a6d020000000000c2c2bf0082
:102d30004200de00610060000043b0003a6d020016
:102d400000000000c0c2b3003a6d020000000000a5
:102d5000c2c2bf004300de00610060000043b0005b
:102d60003a6d020000000000c0c2b3003a6d0200dc
:102d700000000000c2c2bf004400de00610060002d
:102d80000043b0003a6d020000000000c0c2b30072
:102d90003a6d020000000000c2c2bf004500de0024
:102da000610060000043b0003a6d020000000000c6
:102db000c0c2b3003a6d020000000000c2c2bf00f2
:102dc0004600de00610060000043b0003a6d020082
:102dd00000000000c0c2b3003a6d02000000000015
:102de000c2c2bf000080fb004700de000043b0000d
:102df0003a6d020000000000d0c0b3003a6d02003e
:102e000000000000a0c0b3003a6d02000000000006
:102e1000e26d02000000000080c0b30016eab700b7
:102e20001c6d0200000000000000e0001c003200e9
:102e3000266d020000000000ef0f50004b0036002e
:102e40000018800071a12000063d02000000000073
:102e5000804e2900c46d02000000000070a1200017
:102e6000c46d020000000000d0c0b3003a6d020043
:102e700000000000a0c0b3003a6d02000000000096
:102e8000e26d02000000000090c0b30016eab70037
:102e90001c6d0200000000000000e00002003a008b
:102ea000a0c0b300effe3700266d02000000000056
:102eb000ef0f50002d003600e04e2900c46d0200d7
:102ec00000000000e86d020000000000e26d02005a
:102ed00000000000a0c0b30016eab7001c6d02009d
:102ee000000000000000e00020003a004c650200f5
:102ef00000000000d14f29000000e0000100320076
:102f0000b150290060a12000600202000000000012
:102f1000b0002000905088000000eb001400370043
:102f200022650200000000000000e0000f003200f7
:102f3000b0512900a07088001aeea80000542900a2
:102f4000907088001acea800b0562900b070880092
:102f50001b0ea800c0962000504b88006829ef0087
:102f6000bffe3700100020000100370020002000c5
:102f70004f0678004f05be004f04be00000006005b
:102f80001400fa000ecabf0042012000f48057006e
:102f90003c61020000000000920020006134290022
:102fa0007480570000020200000000000000e000f2
:102fb00002003a00bdfa07001a003700a200200004
:102fc000315b2900748057000002020000000000fd
:102fd0000000e00002003a00e7fc070011003700a3
:102fe00022012000e15b29007480570000020200ea
:102ff000000000000000e00002003a003bfb070078
:1030000008003700115d290074805700200202007b
:10301000000000008000eb000000e00002003a0029
:103020007bfd070080007800010078000080fa0036
:1030300000000600e10f50000900320005003900d1
:10304000e20f500008003200e30f500010003a0079
:1030500009003700d5c2bf004500de000800370078
:10306000c2c2bf0001003700d4c2bf000080fb0015
:103070004700de0003003700d4c2bf004600de0078
:1030800061006000b13229000000e00001003a0058
:1030900081322900ecc9bf000080fb004200dd0046
:1030a000029f2000604079003c8604000000000080
:1030b000e30f50001600320004003e00e10f500004
:1030c0000c0032000f003e0008003700e50f5000f2
:1030d0001500320011003900e60f500015003200d3
:1030e000e70f50001c003a0015003700c2c2bf00b5
:1030f00002003700c2c2bf000000d10061006000c2
:1031000012003700c2c2bf004200de00fbff3700e2
:10311000c2c2bf004300de00f8ff3700c2c2bf00da
:103120004400de00f5ff3700c2c2bf004500de00ec
:10313000f2ff3700c2c2bf004600de00efff3700db
:10314000c2c2bf000080fb004700de0011c3b30015
:103150000000e00001003a0001c3b300ecc9bf0069
:103160000080fb004200dd00029f200060407900eb
:103170005686040000000000e30f500017003200e4
:1031800004003e00e10f50000d00320010003e0030
:1031900009003700e50f5000160032001200390018
:1031a000e60f5000160032000001eb00e70f500060
:1031b00019003a0015003700c2c2bf0002003700f4
:1031c000c2c2bf000000d1006101600012003700e0
:1031d000c2c2bf004200de00fbff3700c2c2bf0018
:1031e0004300de00f8ff3700c2c2bf004400de002b
:1031f000f5ff3700c2c2bf004500de00f2ff370016
:10320000c2c2bf004600de00efff3700c2c2bf00ef
:103210000080fb004701de000100e00003003200f7
:103220000200e00003003a00000006000200e00097
:1032300008003a00ecc9bf000080fb004200dd003e
:10324000115e2900029f2000604079003c86020048
:1032500000000000000006000800fa0000188000ce
:10326000e8805700063d020000000000688057001b
:10327000440202000000000000017800ecc9bf0019
:103280000080fb004200dd00e8805700039f200023
:1032900060c07900a6850200000000000080fa00ee
:1032a00000000600ecc9bf000080fb004200dd000a
:1032b00052002000a15e2900039f200060c0790019
:1032c000a685040000000000ecc9bf000080fb00e0
:1032d0004200dd0042012000015f2900039f200021
:1032e00060c07900a685040000000000881f7800f7
:1032f000ecc9bf000080fb004200dd00019f200000
:1033000060c078002a73020000000000000478000a
:103310003050800041508000e00f5000e08f580096
:1033200032003a000002200030508800082aef00e6
:103330002e003700f00f5000e08f58000a003a00ce
:10334000ecc9bf000080fb004200dd0062002000ed
:1033500051602900039f200060c07900a68502000b
:1033600000000000000454000002200031508000e2
:103370008100500042e72000e140790080cf5000fa
:10338000020032000104e0000a003a00ecc9bf006c
:103390000080fb004200dd0062002000c1602900c7
:1033a000039f200060c07900a68502000000000095
:1033b00007003700ecc9bf000080fb004200dd00c1
:1033c000029f200060407900568602000000000045
:1033d00000045400305080004150800061005000d3
:1033e000e08058003050880041508800ec0f5400b5
:1033f000050036003050800041508000e00f500042
:10340000e08f5800cbff3a004f0478000000060020
:10341000889fbe003161290060a12000e6420200c1
:1034200000000000800478000000e0001600320078
:10343000ecc9bf000080fb004200dd000080e80016
:10344000e89e2000720020008161290060407c001d
:10345000a685020000000000090078004402020076
:103460000000000000017800ecc9bf000080fb00f4
:103470004200dd000080e8008900780060407c00a8
:10348000a6850200000000004f04be0000000600f8
:10349000889fbe008a1f7800ea9e200031612900c3
:1034a00060a12000e642020000000000c99e20004a
:1034b00099447800000478000000e0000800320021
:1034c0004402020000000000000178000980fb00b7
:1034d0004200dd000080e800880078000500370029
:1034e0000980fb004200dd000080e800720020003f
:1034f0000162290060407d00a685020000000000f6
:103500004f0578004f04be0000000600889fbe00f3
:103510008a9fbe001000200030508800082aef006b
:10352000ecc9bf000080fb004200dd000080e80025
:10353000e89e200060407c002a730200000000002a
:1035400091042000810f500041003600c19e2000f0
:103550009140780060a1200052c0b300904f11004c
:10356000090032000180fb004200dd000080e8001d
:10357000420120008162290060407c00a685020093
:1035800000000000300037000180fb004200dd0039
:103590000080e80052022000d163290060407c00d6
:1035a000a6850200000000001bc0b3007aa1200025
:1035b0000b84fb001a407800fc3d02000000000074
:1035c00080407800ecc9bf000080fb004200dd00b5
:1035d0000080e800e99e200060c07c005686020062
:1035e000000000001a407800103e020000000000b9
:1035f00080407800ecc9bf000080fb004200dd0085
:103600000080e80060c07c005686020000000000d8
:103610006304640008003a00ecc9bf000080fb00ae
:103620004200dd000080e80001c2b30060c07c0001
:1036300056860200000000008b45e8000a05e800fd
:10364000f0cf5500daff3600062aef00082aef0017
:103650004f05be004f04be00000006000800fa003f
:10366000889fbe008a1f7800b0bf9f00c1bf9f0027
:103670008044eb000c0037008044eb000804e000bd
:1036800009003200ecc9bf000080fb004200dd00f1
:103690000080e800e1c2b30060407d005686020071
:1036a00000000000884478000980fb00ee8057008d
:1036b00001004000640040001080fb00063d020055
:1036c000000000006e80570044020200000000006d
:1036d00000017800ecc9bf000080fb004200dd0063
:1036e0000080e800ea9e2000ee80570060407d00e8
:1036f000a6850200000000000944e800e34f5400e2
:10370000ddff36004f0578004f04be000080fa0050
:1037100000000600881f780088d02000080078008c
:10372000440202000000000000017800ecc9bf0064
:103730000080fb004200dd0088007800039f20002d
:1037400060c07900a6850200000000004f047800e8
:103750000000060018cdab0009003200ecc9bf0024
:103760000080fb004200dd0072002000316629006d
:10377000039f200060c07900a685020000000000c1
:1037800000000600c3ce2000934178008381fb0037
:10379000d2ce2000124178004811dd0003007100f4
:1037a000e3ce2000934178008381fb00f2ce20001d
:1037b000124178004811dd0083007100a7ff370037
:1037c00043cf2000934178008381fb0052cf20003b
:1037d000124178004811dd000300710063cf200022
:1037e000934178008381fb0072cf20001241780062
:1037f0004811dd008300710098ff370003cf2000df
:10380000934178008381fb0012cf200012417800a1
:103810004811dd000300710023cf200093417800a0
:103820008381fb0032cf2000124178004811dd0077
:103830008300710089ff370083cf20009341780017
:103840008381fb0092cf2000124178004811dd00f7
:1038500003007100a3cf2000934178008381fb0017
:10386000b2cf2000124178004811dd0083007100c2
:103870007aff3700c3cf2000934178008381fb009b
:10388000d2cf2000124178004811dd000300710002
:10389000e3cf2000934178008381fb00f2cf20002a
:1038a000124178004811dd00830071006bff370082
:1038b000889fbe008a9fbe00ecc9bf000080fb004d
:1038c0004200dd00019f200060c078002a730200e2
:1038d000000000008045eb00f10f500010003e009a
:1038e0001000200030508800082aef002b0037001d
:1038f0008045eb000804e00009003200ecc9bf007d
:103900000080fb004200dd000080e800a1c3b3009e
:1039100060407d0056860200000000008845780067
:103920000b84fb00c802b000d9ce200068c07c0028
:10393000fc3d02000000000080407800ecc9bf00a0
:103940000080fb004200dd000080e800ea9e2000cd
:1039500060407d00568602000000000068c07c00c8
:10396000103e02000000000080407800ecc9bf005b
:103970000080fb004200dd000080e80060407d0028
:1039800056860200000000000b44e800e54f54009a
:10399000d7ff3600062aef00082aef004f05be00c9
:1039a0004f04be00000006000000fe0000000600fc
:1039b000881f780068a120000800780044020200f7
:1039c0000000000000017800ecc9bf000080fb008f
:1039d0004200dd0088007800039f200060c079006d
:1039e000a6850200000000004f04780000000600d9
:1039f0000400fa00820220000300200002050200f9
:103a000000000000e0bf9f00f1bf9f006fb897006b
:103a1000ffb8970061005000e0805800e0bf9f00b1
:103a2000f1bf9f006fb89700ffb89700e10f40000b
:103a3000e08f4800f5ff3a000080fa000000060021
:103a4000889fbe00800478000600370090012000a7
:103a500001002000e6ff07000844e900e14f4400b0
:103a6000faff3a008904e900e18f440002003200c5
:103a700048c0b300f8ff37004f04be000000060046
:103a8000680fe2000a003200a0f6200080c0eb00c0
:103a900090cf10000200320020002000010037000b
:103aa00010002000407b8800666fef00670fa900c0
:103ab000000006006acfbf00e14f40000300320063
:103ac0001a8f0200000000006aefef00682fef007d
:103ad00018cda90000000600680fe20005003a00ba
:103ae00018cda80010002000407b8800666fef0012
:103af000670fa900000006000800fa00889fbe00ba
:103b00000040eb00d0f79f006a80570068910200e8
:103b1000000000006ff09700e24f5000f8003a00fc
:103b2000e8c0b3006a8057006891020000000000fe
:103b30000844e900fbff3b00672fab0007003200a1
:103b400038c0b3006a80570068910200000000008e
:103b50000844e900fbff3b0005003700410020005e
:103b600080e620002691020000000000560ea8000a
:103b700078c0b3006a80570068910200000000001e
:103b80000844e900fbff3b008044eb00c802200032
:103b90006a8057006891020000000000d0ce20002b
:103ba000e84078006ff09700814f5000eb003a003a
:103bb0008944e8000804e800e5cf5400f4ff36002b
:103bc0000044eb006a80570068910200000000008a
:103bd0000844e800d0ccb300804f5400f9ff360011
:103be000ea84570009007800689102000000000094
:103bf0000000e000c20032006ff4970030c3b30051
:103c0000804f54008d00320007003e00e34f540007
:103c100031003200e64f54004f003200e14f5400b3
:103c2000ac003a001700370060c3b300804f540067
:103c30006f003200e14f4400b10032000040e90063
:103c4000804f5400a3003a000900780068910200f8
:103c5000000000006ff09700e14f5000bf003a00f5
:103c60006b8057006891020000000000672fab00d6
:103c7000dbff32005ff09700e24f5000d8ff3a00c0
:103c8000b6003700090078006891020000000000cb
:103c90006ff09700e44f5000b0003a00672fab0080
:103ca0000700320038c0b3006a80570068910200f4
:103cb000000000000844e900fbff3b00c8ff37009c
:103cc0004100200000e620002691020000000000d4
:103cd000564ea800c2ff37006c8057006891020062
:103ce000000000004ff09700e34f50009b003600ab
:103cf000672fab00060032006a805700689102000f
:103d0000000000000844e900fbff3b00050037000d
:103d10004100200040e62000269102000000000043
:103d2000562ea800cff09700e4c05000c1f79f00c6
:103d3000030037006a80570068910200000000000d
:103d40004ff297000440e900c0f79f00e14f4000a8
:103d5000f8ff3a00a2ff37006c805700689102001c
:103d6000000000004ff09700e34f50007b0036004a
:103d7000672fab0018003a0041002000c0e520008a
:103d80002691020000000000566ea800cff09700b8
:103d900064c05000c0f79f00e34f50000e00360093
:103da000672fab000c003a004100200080e52000a6
:103db0002691020000000000568ea8004ff29700e6
:103dc00064425200c4f79f00030037006a80570026
:103dd0006891020000000000cff097000140e90068
:103de000c0f79f00e14f4000f8ff3a007cff37002a
:103df0000900780068910200000000006ff0970051
:103e0000e44f500055003a00658057006891020069
:103e1000000000006680570068910200000000006a
:103e2000678057006891020000000000688057001a
:103e3000689102000000000069ff37000900780067
:103e400068910200000000006ff09700e44f5000fe
:103e500042003a00672fab000700320038c0b300c1
:103e60006a80570068910200000000000844e900e1
:103e7000fbff3b005aff3700f0e62000689102008c
:103e800000000000e0e62000689102000000000051
:103e9000d0e620006891020000000000c0e620008b
:103ea0006891020000000000607380007173800060
:103eb000c509de004b0add004501de00020172008b
:103ec000020050008380580060738800717388007e
:103ed00043ff37006c805700010037006a805700ad
:103ee0006891020000000000cff097000140e90057
:103ef000c0f79f00e14f4000f8ff3a0038ff37005d
:103f00005ff09700e24f500006003a004fb897006c
:103f1000dfb897008073880091738800672fa8002e
:103f20000900370082738000937380004fb89700b8
:103f3000dfb89700800f5100818f590002003200d6
:103f40000040eb00d0f79f00189102000000000035
:103f50005ff097000080fb0003003700189102001b
:103f6000000000000000eb004f04be000080fa00db
:103f700000000600889fbe008a1f780080447800f9
:103f80000105780010c0b300e28f020000000000bd
:103f900010c0b300e28f02000000000060c0b30058
:103fa000e28f0200000000000040eb00e28f020000
:103fb0000000000020c1b300e28f020000000000fa
:103fc00030c2b300e28f02000000000040c3b30023
:103fd000e28f02000000000060c5b300e28f020023
:103fe000000000000040eb00e28f02000000000033
:103ff0000040eb00e28f02000000000000c8b300a8
:10400000e28f0200000000000040eb00e28f02009f
:1040100000000000e3cf540007003a000a00e0006f
:10402000050032004100200080e6200008900200d8
:10403000000000000c0037000040eb00e28f02009f
:10404000000000000040eb00e28f020000000000d2
:104050000040eb00e28f0200000000000040eb0097
:10406000e28f020000000000b8c0b3000040eb0087
:10407000e28f0200000000000844e900fbff3b0063
:104080006100200090d12000089002000000000094
:104090000044eb000040eb00e28f02000000000053
:1040a0000844e80090ccb300804f5400f9ff36007c
:1040b00030c6b300e28f02000000000020c8b30049
:1040c000e28f02000000000030c5b300e28f020062
:1040d0000000000030c6b300e28f020000000000c4
:1040e00050c3b300e28f02000000000010c0b30014
:1040f000e28f02000000000009407800e28f020019
:1041000000000000e1cf540002003a00672fa90030
:1041100016003700e3cf540014003a000a00e00014
:1041200012003a0060c3b300e28f020000000000fa
:1041300040c0b300e28f02000000000073cebf0059
:10414000e28f02000000000072cebf00e28f02008a
:104150000000000071cebf00e28f020000000000ee
:1041600070cebf00e28f02000000000070c3b300f9
:10417000e28f02000000000040c0b300e28f0200a6
:104180000000000010c0b300e28f02000000000039
:1041900030c0b300e28f02000000000060c0b30036
:1041a000e28f020000000000c0c0b300e28f0200f6
:1041b00000000000e3cf540003003a000a00e000d2
:1041c0000800320011003700e1cf54000f003a0020
:1041d0004073800051738000e00f5000e08f580062
:1041e0000a00320020c3b300e28f0200000000008a
:1041f00040c0b300e28f0200000000004100200038
:1042000080e62000089002000000000000c0eb00e3
:10421000010037000040eb00e28f020000000000c8
:10422000e1538000b0122000808f5000f9ff36006b
:10423000c1ce2000914078008180fb00edccbf0012
:104240004800dd0001047000e1ce200091407800bc
:104250008180fb00efccbf004800dd0081047000ce
:104260000a00e00006003a000005fd00ececb70093
:10427000edecb700eeecb700efecb7000005fd0089
:104280004a9002000000000008007800ececb70043
:104290004840de00edecb70009007800eeecb70016
:1042a0004848de00efecb7004f0578004f04be0031
:1042b00000000600889fbe00407b800001002000b7
:1042c00061005000e0805800eb0f5000e08f580074
:1042d00000013e00006001000b00370014003700b1
:1042e000360037004100370053003700a500370083
:1042f000be003700d1003700bc003700cf003700c8
:10430000ba003700cd003700320420008000eb00f7
:1043100040042000468f0200000000006aefb70052
:10432000e14f4000eb00320020002000407b88007d
:104330006acfbf00b68f020000000000b11220005b
:10434000810f5000e30036006acfbf00e2c0b30027
:104350000440bc0000a8200000004100a200200092
:10436000f10f20005202020000000000c0032000f4
:10437000607388006e2eef00566eef00666fef00e0
:10438000670fa900672fa9008000eb0010c0b300e1
:10439000f8fe0700628c020000000000424b2c0077
:1043a0004300200000014100818149009272880091
:1043b000a372880030002000c50037006acfbf001c
:1043c0000a91020000000000910f2000810f5000b0
:1043d0001f003600674fa800c7fd0700e24f5000de
:1043e000bc003a0040002000407b88006acfbf003c
:1043f000b68f02000000000011102000810f500055
:10440000b40036008000eb0030c0b300d9fe0700d6
:10441000628c020000000000424b2c004300200090
:10442000000141008181490092728800a3728800d6
:1044300050002000a60037006acfbf000a9102009a
:1044400000000000910f2000810f500009003e0085
:1044500098728000a9728000628c02000000000047
:104460000004540081845c004240a90099003c0093
:1044700096003700a0fd0700e54f500085003a0088
:10448000628c020000000000a2252600230020000c
:10449000000141008181490092728800a372880066
:1044a00060002000407b8800670fa800666fec006a
:1044b00061e52000914078000108a3000800320067
:1044c00040738000ececb7004800de00edecb70074
:1044d00050738000eeecb7004800de00efecb70050
:1044e0000128a3000800320000738000f0ecb70040
:1044f0004800de00f1ecb70010738000f2ecb7006a
:104500004800de00f3ecb7000118a30008003200f9
:1045100020738000f4ecb7004800de00f5ecb70033
:1045200030738000f6ecb7004800de00f7ecb7000f
:104530000138a30008003200e0728000f8ecb700f8
:104540004800de00f9ecb700f0728000faecb7002a
:104550004800de00fbecb7000148a3005d0032001c
:10456000c0728000fcecb7004800de00fdecb70034
:10457000d0728000feecb7004800de00ffecb70010
:104580005400370098728000a9728000628c02008b
:10459000000000000004540081845c004d003b00da
:1045a000a02526002100200092728000a3728000c6
:1045b000020140008381480092728800a372880043
:1045c000627380007373800061005100e0805900c5
:1045d0006073880071738800e00f5000e08f58000e
:1045e0003c003a0070002000407b88006acfbf008a
:1045f000b68f02000000000011102000810f500053
:10460000340036001100200030c0b30059fe07000e
:10461000672fa900628c020000000000424b2c00b2
:10462000430020000001410081814900927288000e
:10463000a3728800682fec00260037006acfbf0005
:104640000a91020000000000910f2000810f50002d
:104650000d003e0098728000a9728000628c0200fa
:10466000000000000004540081845c004240a90066
:1046700018003c00680fec00407b8800ec0f5000f5
:1046800014003600110037001bfd0700e54f5000f5
:1046900003003200e64f50000e003a000b003700d6
:1046a000628c020000000000a225260023002000ea
:1046b000000141008181490092728800a372880044
:1046c000666fec0060002000010037002000200031
:1046d000407b88004f04be0000000600881f780061
:1046e000000478005ccfbf00b68f0200000000001d
:1046f000b1122000810f50009500360020c0b30099
:10470000e28f0200000000000800e80071002000b5
:1047100008900200000000000040eb00e28f020061
:10472000000000000040eb00e28f020000000000eb
:104730006a004400210020000890020000000000f0
:104740000040eb00e28f0200000000000040eb00a0
:10475000e28f0200000000000040eb00e28f020048
:10476000000000000040eb00e28f020000000000ab
:104770004100200080f520000890020000000000a9
:104780000040eb00e28f0200000000000040eb0060
:10479000e28f0200000000000040eb00e28f020008
:1047a000000000000040eb00e28f0200000000006b
:1047b0000040eb00e28f0200000000000040eb0030
:1047c000e28f0200000000000040eb00e28f0200d8
:1047d000000000000040eb00e28f0200000000003b
:1047e0007c004400610020000890020000000000ee
:1047f0000044eb000040eb00e28f020000000000ec
:104800000844e80090ccb300804f5400f9ff360014
:1048100030c6b300e28f02000000000020c8b300e1
:10482000e28f02000000000030c5b300e28f0200fa
:104830000000000030c6b300e28f0200000000005c
:1048400050c3b300e28f02000000000010c0b300ac
:10485000e28f02000000000020c0b300e28f0200df
:104860000000000010c0b300e28f02000000000052
:1048700040c0b300e28f02000000000041002000b1
:1048800000cf2000089002000000000030c3b300f9
:10489000e28f02000000000040c0b300e28f02007f
:1048a000000000000040eb00e28f0200000000006a
:1048b0000040eb00e28f0200000000000040eb002f
:1048c000e28f020000000000f0c0b300e28f02009f
:1048d0000000000060c3b300e28f0200000000008f
:1048e00040c0b300e28f0200000000004100200041
:1048f000c0ce2000089002000000000030c0b300cd
:10490000e28f02000000000040c0b300e28f02000e
:104910000000000041002000c0ce200008900200ee
:104920000000000000c0eb00010037000040eb0079
:10493000e28f020000000000e1538000b01220006e
:10494000808f5000f9ff36004a90020000000000fe
:104950004f047800000006000800fa00889fbe009f
:104960000004be005ccfbf00b68f02000000000054
:10497000b1122000810f5000cd0036002a00370010
:104980006c80570068910200000000000000e00009
:104990002a0032004ff09700e14f4000270032001c
:1049a0006b805700689102000000000020c3b30034
:1049b000cff0970080cf500016003a005ff09700cc
:1049c000e44f500013003a00410020006880570077
:1049d00026910200000000005ff097006440500044
:1049e000d0f79f004fb99700dfb99700c07a8000d9
:1049f000d17a8000800f5100818f59000f00320062
:104a00008004eb000d0037006a80570068910200b7
:104a1000000000005ff097000040e900d0f79f0021
:104a2000e14f4000f8ff3a005ccfbf000a9102005e
:104a3000000000000000e000d1ff3a0018eda900de
:104a4000666fec0020c0b300e28f0200000000009f
:104a50000800e8007100200008900200000000003b
:104a60000040eb00e28f0200000000000040eb007d
:104a7000e28f0200000000006a00440021002000d4
:104a800008900200000000006c004400410020007b
:104a900008900200000000004100200080f5200086
:104aa00008900200000000000040eb00e28f0200ce
:104ab000000000000040eb00e28f02000000000058
:104ac0000040eb00e28f0200000000000040eb001d
:104ad000e28f0200000000000040eb00e28f0200c5
:104ae000000000000040eb00e28f02000000000028
:104af0000040eb00e28f0200000000000040eb00ed
:104b0000e28f0200000000007c00440061002000f1
:104b100008900200000000000040eb000500370094
:104b20000040eb00e28f0200000000006ff09700f1
:104b30000040e800e0f79f00eff0970090ccb30052
:104b400080cf5000f6ff360030c6b300e28f02007f
:104b50000000000020c8b300e28f02000000000047
:104b600030c5b300e28f02000000000030c6b30081
:104b7000e28f0200000000000900e000080032009f
:104b800050c3b300e28f02000000000010c0b30069
:104b9000e28f02000000000050c0b30007003700a1
:104ba00050c3b300e28f02000000000010c0b30049
:104bb000e28f02000000000060c0b300e28f02003c
:104bc0000000000030c3b300e28f020000000000cc
:104bd00040c0b300e28f0200000000000040eb0084
:104be000e28f0200000000000040eb00e28f0200b4
:104bf000000000000040eb00e28f02000000000017
:104c0000f0c0b300e28f02000000000060c3b300f8
:104c1000e28f02000000000040c0b300e28f0200fb
:104c20000000000041002000c0ce200008900200db
:104c30000000000010c0b300e28f0200000000007e
:104c400040c0b300e28f02000000000041002000dd
:104c500000cf2000089002000000000030c0b30028
:104c6000e28f02000000000040c0b300e28f0200ab
:104c70000000000041002000c0ce2000089002008b
:104c80000000000000c0eb00010037000040eb0016
:104c9000e28f020000000000e1538000b01220000b
:104ca000808f5000f9ff36004a900200000000009b
:104cb0004f04be000080fa00000006002a00fa003f
:104cc000889fbe00674fab00c3003a00880fe20028
:104cd000c1003200b17a80000100e0000300320020
:104ce000e18f5000bc003a0034003700420420003d
:104cf00030042000468f0200000000005cefb70087
:104d0000e14f4000b4003200c1ce20009140780055
:104d10008180fb00edccbf004800dd000103700086
:104d2000eeccbf000080fb00f4ce200014427800df
:104d30004822dd000002720001cf2000914078007f
:104d40008180fb00f1ccbf004800dd000101700054
:104d500021cf2000914078008180fb00f3ccbf0080
:104d60004800dd00010070000601610000026200e1
:104d70000200780084007800020020000320200058
:104d80000001410081814900c27a8800d37a8800fd
:104d9000b0f5200080c0eb0090cf100002003a0078
:104da00020c0b3005befb7005b4fe20002003a00a7
:104db00020c0b3005befb700562fec005ccfbf0004
:104dc0000a91020000000000010f2000810f500036
:104dd0008100360021022000a2fd2f000f004100bb
:104de00026910200000000003fb19700cfb197006c
:104df000c07a8000d17a8000800f5100818f5900e5
:104e0000040032000000eb00e00f5100e08f590079
:104e100001003a001000200000047800a1fd2f00de
:104e20000f80400012c0b300904f11006a003a009a
:104e30003fd89700824f500067003a004fd8970044
:104e4000e64f500064003a000040eb0006003700d7
:104e500020fd2f000f0040006891020000000000bc
:104e60004fd097000040e800c0d79f00cfd09700f8
:104e700090ccb30080cf5000f5ff360060fd2f00ce
:104e80008f044000410020000900780026910200b4
:104e9000000000003fa99700cfa997003026280006
:104ea00031352600800f5100818f59004a003a00a9
:104eb00020fd2f000f00400068910200000000005c
:104ec0000000e00042003200afd09700e1cf400088
:104ed0003f00320032fd2f000f00410068910200b8
:104ee00000000000afd0970050c3b30080cf500047
:104ef00006003200e1cf4000350032006340500030
:104f000080cf50002c003a001300370041fd2f00e5
:104f10000f80400068910200000000004fd0970011
:104f2000e14f500003003200e34f500022003a00ee
:104f300004003700a2fd2f000f004100e7fd07002d
:104f40001d00370088007800a2fd2f000f004100ef
:104f500081fe0700180037003fd09700e44f500053
:104f600015003a0041002000090078002691020057
:104f7000000000003fd0970064405000b0d79f0071
:104f80000004eb003fa99700cfa99700c07a8000ea
:104f9000d17a8000800f5100818f590006003a00bd
:104fa000180020000400370041fd2f000f80400052
:104fb00068910200000000003fd097000040e90027
:104fc000b0d79f00e14f4000f7ff3a00b8ff37002d
:104fd00018910200000000004f04be000080fa009b
:104fe000000006000000eb00000fab0002003a00da
:104ff000000fa800100020000000060070cfbf00c6
:10500000e14f4000030032001a8f02000000000050
:1050100070efef00f0002000907b8800000fa900e7
:1050200000cfbf000000d10061006000000006005a
:10503000889fbe00000478008144780061f0200061
:10504000e83a0200000000000000e0000400320026
:10505000002fa800f0002000907b88000600370099
:10506000a878880090788800907b880009007800f4
:1050700010efb700002fa9004f04be00000006008b
:10508000889fbe008a9fbe000005780080057800da
:105090003b4478000804e0000c003200e0c2b3009a
:1050a000804f5400090032000040e800804f540057
:1050b0000600320063405000804f5400030032006d
:1050c00072404000804f5400f1ff3a000ac0550082
:1050d0008044e90009407800e28f020000000000ef
:1050e0008980fb000a0078000890020000000000a0
:1050f000000045000005e8000804e0000900320057
:10510000f0c2b300804f54000600320063405000ec
:10511000804f54000300320072404000804f540022
:10512000dbff3a000040eb00e28f020000000000cd
:105130004f05be004f04be00000006000200fa004a
:10514000881f78000004780064805700689102008e
:10515000000000000000e0000d0032004ff8970052
:105160000004e0000a0032008080fb0008007800a4
:105170002691020000000000c0ff9f000800e00030
:10518000f1ff32000080fb0000044400eeff370016
:105190004f0478000080fa00000006001c00fa00ae
:1051a000889fbe008a9fbe0080057800907b8000ab
:1051b00001002000ef0f5000e08f5800be013e00bc
:1051c000006001000f003700120037000d003700ab
:1051d000100037000b0037000e003700b201370017
:1051e00029003700320037007400370030003700e4
:1051f000720037002e00370070003700aa01370018
:105200009b01370080cf2000580a020000000000f8
:1052100064003700a1f0200080cf20003209020096
:1052200000000000000478000000e0006900320087
:1052300081cf2000914078008180fb00f9ccbf0035
:105240004800dd0001017000a1cf200091407800ee
:105250008180fb00fbccbf004800dd0081017000b5
:105260000200780006efb7004810de0007efb70035
:105270000300780008efb7004818de0009efb70018
:1052800070002000907b88005203200061f0200015
:105290000000eb00468f02000000000070efb70036
:1052a000e14f40008401320080002000907b8800a4
:1052b00070cfbf00b68f0200000000000000e000c9
:1052c0007d0132008a2fec008bcfbf00e28f0200fd
:1052d000000000008acfbf00e28f02000000000043
:1052e00010c0b300e28f0200000000000040eb009d
:1052f000e28f0200000000000040eb00e28f02009d
:105300000000000010c0b300e28f020000000000a7
:105310000040eb00e28f0200000000000040eb00c4
:10532000e28f0200000000000040eb00e28f02006c
:10533000000000000040eb00e28f020000000000cf
:105340000040eb00e28f0200000000000040eb0094
:10535000e28f020000000000a07880000000e00062
:1053600001003a009078800045ff07000040eb0004
:10537000e28f02000000000010cfbf00e28f0200a9
:10538000000000000040eb00e28f0200000000007f
:1053900010c0b300e28f0200000000004a9002003b
:1053a00000000000628c02000000000010788800fd
:1053b00021788800722fec003f01370070cfbf00ca
:1053c0000a91020000000000000478000000e000e4
:1053d0000e003a00628c020000000000127880008b
:1053e000237880000200500083805800a225260008
:1053f00023002000820f5000838f58002e013600ba
:10540000722fec00080078002c01370074845700dc
:1054100073805700689102000000000008007800c7
:105420006891020000000000507c8000980f10007e
:105430000300320018910200000000001e01370036
:1054400071805700689102000000000072805700d0
:1054500068910200000000006f8057006891020010
:1054600000000000708057006891020000000000fa
:105470006d80570068910200000000006e805700a8
:1054800068910200000000006b80570068910200e4
:10549000000000006c8057006891020000000000ce
:1054a0006980570068910200000000006a80570080
:1054b000100037000000eb0020ff0700c0fd2f00a8
:1054c0000f0040008084e80063044000080078007a
:1054d0006891020000000000090078006891020055
:1054e0000000000008007800689102000000000041
:1054f0000900780068910200000000000fb89700d2
:105500000000e90080bf9f00e10f4000e9ff3a0082
:105510003b00370000fe2f000f0440007f80570043
:105520006891020000000000080078006891020005
:10553000000000007d80570068910200000000001c
:10554000fe84570009007800689102000000000006
:105550007b80570068910200000000006405440051
:105560000a00780068910200000000007780570070
:1055700068910200000000007880570068910200e6
:1055800000000000798057006891020000000000d0
:105590007a80570068910200000000007580570073
:1055a000689102000000000076845700080078002f
:1055b000689102000000000010002000990f100008
:1055c0000a003a009a0f100008003a00400020003c
:1055d000980f100005003a0081003700c0fd2f0031
:1055e0000f00400068910200000000005fb09700cb
:1055f0000000e900d0b79f00e10f4000f7ff3a003c
:105600001fb897000000e90090bf9f00e10f400025
:10561000c0ff3a003b00370000fe2f000f0440009f
:105620007f805700689102000000000008007800a9
:1056300068910200000000007d8057006891020020
:1056400000000000fe845700090078006891020005
:10565000000000007b8057006891020000000000fd
:10566000640544000a007800689102000000000010
:105670007780570068910200000000007880570092
:1056800068910200000000007980570068910200d4
:10569000000000007a8057006891020000000000be
:1056a0007580570068910200000000007684570062
:1056b000080078006891020000000000100020003f
:1056c000990f10000a003a009a0f100008003a00e3
:1056d00040002000980f100005003a0040003700fd
:1056e000c0fd2f000f004000689102000000000084
:1056f0005fb097000000e900d0b79f00e10f4000c5
:10570000f7ff3a002fb897000000e900a0bf9f0004
:10571000e10f4000c0ff3a004800370000fe2f00b4
:105720000f0440007f8057006891020000000000d5
:105730000800780068910200000000007d8057009a
:105740006891020000000000fe8457000900780004
:1057500068910200000000007b8057006891020001
:1057600000000000640544000a007800689102000f
:1057700000000000778057006891020000000000e0
:10578000788057006891020000000000798057007f
:1057900068910200000000007a80570068910200c2
:1057a00000000000758057006891020000000000b2
:1057b000768457000800780068910200000000001d
:1057c00010002000990f100017003a009a0f1000e7
:1057d00015003a0040002000980f100012003a0017
:1057e000002fa80060f02000689102000000000077
:1057f00070f02000689102000000000080f020009e
:10580000689102000000000090f020006891020002
:10581000000000000e003700c0fd2f000f00400008
:1058200068910200000000005fb097000000e900ee
:10583000d0b79f00e10f4000f7ff3a003fb8970054
:105840000000e900b0bf9f00e10f4000b3ff3a0045
:10585000189102000000000070cfbf001a8f0200f4
:105860000000000070efef00f0002000907b880047
:1058700061f02000914078008180fb0007cfbf00dd
:105880004800dd000101700081f0200091407800a7
:105890008180fb0009cfbf004800dd00810170005e
:1058a000828dbe0002003700800deb00bb15780032
:1058b00010002000010037000000eb004f05be0083
:1058c0004f04be000080fa0000000600d5c2a90007
:1058d0008540a9000080fb004012880085c0bf0001
:1058e0000028a300fdff3200401280008540a9007f
:1058f0004822ef0085c0bf000028a300fdff320052
:10590000401280008540a900d5c2a8000000060012
:10591000d5c2a9008540a900f00f200040128800e0
:1059200085c0bf000028a300fdff320040128000a8
:105930008540a900d5c2a80000000600d5c2a90074
:105940008540a9000064a0000080fb004012880090
:1059500085c0bf000028a300fdff32004012800078
:105960008540a9000180fb004012880085c0bf006f
:105970000028a300fdff3200401280008540a900ee
:10598000d5c2a80000000600d5c2a9008540a90024
:1059900041e2a9004342a80041e2a8000080fb00c8
:1059a00001a02700010070004012880085c0bf00e0
:1059b0000028a300fdff320041e2a9004342a900f4
:1059c00041e2a800401280008540a900d5c2a8008d
:1059d00000000600d5c2a9008540a9000074a000ff
:1059e0000080fb004012880085c0bf000028a30093
:1059f000fdff3200401280008540a9000180fb00bd
:105a00004012880085c0bf000028a300fdff3200bf
:105a1000401280008540a900d5c2a8000000060001
:105a2000f0c1b300a9ff07000080fb004300de00c7
:105a30000000a2006100600000000600881f7800de
:105a4000600fe20011003a0010002000007b880087
:105a5000287b80000804e900d0a72000800f5400b4
:105a6000010036000004780001c4b300e0c1b300b7
:105a7000d8ff070088407800c0c0b300afff070020
:105a8000c840de00d0c0b300acff07004f04780070
:105a90000000060000017800d5c2a9008540a900d9
:105aa000a0032000401288000200e00002003a003b
:105ab00082017800010037008201e90085c0bf0043
:105ac0000028a300fdff3200401280008540a9009d
:105ad0000002eb00e18f50002800360041e2a900ef
:105ae0004342a80041e2a8004822ef000482e800f7
:105af00085c0bf000028a300fdff32008540a9003b
:105b0000421280000300e000040032004810de0072
:105b1000904198008381e800824978000480500019
:105b2000e10f5000f0ff3e0041e2a9004342a9000e
:105b300041e2a800110037004822ef000402e8000b
:105b40000300e000070032008301e80085c0bf00c9
:105b50000028a300fdff3200401280008049780039
:105b60000500370085c0bf000028a300fdff3200fc
:105b7000401280008001eb008540a900810f520097
:105b8000edff3900d5c2a80004007800000006002f
:105b900000017800d5c2a9008540a900a007200017
:105ba0004012880085c0bf000028a300fdff32001e
:105bb000060037003280fb00401288008100e900b7
:105bc00085c0bf000028a300fdff32004012800006
:105bd0008540a9000100e000f6ff3a00d5c2a80008
:105be000000006000200fa00889fbe000004780052
:105bf00081447800d2bf9f00f1c7b30020c0b3003a
:105c00004eff0700a1c0b30030c0b3004bff070038
:105c1000c0a82000dfb8970080804000d1bf9f005f
:105c2000aff8970060c0b30044ff0700bff89700cb
:105c300070c0b30041ff0700610020000800780039
:105c4000d3ff07006100200090d12000d0ff0700a3
:105c500080c0b3004cff070061c0b3000904e0003e
:105c600001003a00894078000140780046ff0700b3
:105c70004f04be000080fa0000000600d5c2a90053
:105c80008540a9000080fb00000ab3004012880094
:105c900085c0bf000028a300fdff32004012800035
:105ca0008540a9000180fb004012880085c0bf002c
:105cb0000028a300fdff3200401280008540a900ab
:105cc000d5c2a800000006000200fa00f0bf9f0045
:105cd00031c0b300f0c1b300e8ff0700fff8970040
:105ce000f0c1b3003bff07000080fa00000006008f
:105cf0001400fa00889fbe008a1f78000005780013
:105d00008104780090112000efff070090c1b300dc
:105d1000eefe0700004478000000eb00eaff0700f9
:105d20000000eb000804e0003a003200600fe200df
:105d300003003a0041ff07000000eb003500370088
:105d4000207b8000107b880021f6200091407800a5
:105d50000040eb00f9fe070031f62000914078008a
:105d600010c0b300f5fe0700410120007a80570003
:105d700048ff07004fb89700623e02000000000095
:105d8000c0bf9f00bfb19700d0a72000808f5100f7
:105d90000d003e00efe0970061c060000a003a008d
:105da0005fb19700000128000000610006003a0082
:105db000cfb09700e05e2000808f500002003e00d0
:105dc0000278a30001003a000000fe00237b880057
:105dd0006e80570005000900305d78006a00b10050
:105de0006000b10080cceb001ff89700e84f500036
:105df00006003a000ff897000004e00002003200ad
:105e0000e64f500001003a00804c7800602fef0010
:105e1000100020004f0578004f04be000080fa00fb
:105e200000000600889fbe008a9fbe0090112000df
:105e3000a5ff070090c1b300a4fe0700004478004e
:105e40000080fb000bf02f008b84640080847400c2
:105e5000e00020009cff0700e0c0b3009bfe0700ad
:105e60000080fb000b05650000057500f0c0b30065
:105e700096fe07004800dd00fa0fb200000575002d
:105e80009011200090ff070090c1b3008ffe070023
:105e9000884f5000e7ff3a00c00020008aff07004b
:105ea000c0c0b30089fe07000080fb008b84640043
:105eb00080847400d0c0b30084fe07004800dd0079
:105ec000f90fb20080847400890f55000400360079
