:020000040000FA
:06000000ABEFB3F01200AB
:06000800E1EF69F01200B7
:0600180084EF69F0120004
:06002A001600B26801009F
:100030004D07000001000000B16801004C070000FE
:1000400001000000AD680100570F0000040000002F
:10005000AB6801004607000002000000A86801002C
:100060007D0E000003000000956801006A0E00008C
:1000700013000000946801004B070000010000001D
:100080001C6801008204000078000000A5670100E0
:100090004A070000010000001A6801004407000040
:1000A00002000000CC670100530500004E00000074
:1000B00009670100490700000100000075620100A6
:1000C0004807000001000000C9670100FD030000AF
:1000D00003000000C0670100F700000009000000F5
:1000E000BE6701004207000002000000BC6701007B
:1000F0005D0F000002000000BA6701005B0F000006
:1001000002000000B6670100FA04000004000000CD
:10011000AC670100380700000A000000AA67010070
:10012000FE06000002000000A8670100FE040000B7
:0401300002000000C9
:0C013400020143510701425D01E140D08F
:10014000FE0E425D1BE01C0EE66EE66A270EE66EB2
:10015000020EE66E42511C0DF3CF14F0F4CF15F0F1
:10016000000E1426010E152214C0E6FF15C0E6FF8E
:1001700040ECA3F0166E060EE15E165043C242F745
:10018000FE0E0201435D01E11BD01C0EE66EE66A25
:1001900043511C0DF3CF14F0F4CF15F0000E1426CC
:1001A000010E152214C0E6FF15C0E6FF270EE66E0D
:1001B000020EE66E40ECA3F0166E060EE15E1650DF
:1001C000120007014251435D01E169D0FE0E435D1B
:1001D00032E0250E0201C66FC76B0201010EC56F2A
:1001E0000201020EC36F020EC46F070143511C0DC2
:1001F000F3CFE9FFF4CFEAFF000EE926010EEA2271
:100200001B0EE926000EEA22EFCFC2F243511C0D6D
:10021000F3CFE9FFF4CFEAFF000EE926010EEA2250
:10022000EECFC0F2EFCFC1F20201250EC05F000E8B
:10023000C15BD7EC1CF042C743F7250E0201C66F25
:10024000C76B070143511C0DF3CFE9FFF4CFEAFF61
:10025000000EE926010EEA221B0EE926000EEA2214
:10026000EFCFC5F242511C0DF3CFE9FFF4CFEAFF07
:10027000000EE926010EEA22EECFC3F2EFCFC4F260
:100280000201250EC35F000EC45B0201010EC26FA6
:100290000201020EC06F020EC16FD7EC1CF01200FB
:1002A0000B01760E096F100E0A6F016B006B005187
:1002B000146E156A090E145C000E155801E326D160
:1002C00000CB43F237DF7DDFA00E146E660E156E95
:1002D000010E166E00CB17F0186A196A060E0C6E26
:1002E0000D6A0E6A17C007F018C008F019C009F0AF
:1002F0005CECB2F004C017F005C018F006C019F0AD
:1003000014501724F36E15501820F46E165019204F
:10031000F86EF4CFF7FFF3CFF6FFF62A000EF722C0
:10032000F8220800F5CF08FBA00E146E660E156EBD
:10033000010E166E00CB17F0186A196A060E0C6EC5
:100340000D6A0E6A17C007F018C008F019C009F04E
:100350005CECB2F004C017F005C018F006C019F04C
:1003600014501724F36E15501820F46E16501920EF
:10037000F86EF4CFF7FFF3CFF6FF020EF626000E6D
:10038000F722F8220900F5CF02FB0A00F5CF03FBA4
:10039000A00E146E660E156E010E166E00CB17F0D1
:1003A000186A196A060E0C6E0D6A0E6A17C007F0FD
:1003B00018C008F019C009F05CECB2F004C017F0E6
:1003C00005C018F006C019F014501724F36E15502C
:1003D0001820F46E16501920F86EF4CFF7FFF3CF03
:1003E000F6FF040EF626000EF722F8220900F5CFDC
:1003F00004FB0A00F5CF05FB0B01085101E085D095
:1004000009CB06FB0ACB07FB250E176A0225166EE1
:1004100003511722010E1626000E1722165004252E
:10042000146E17500521156E010E1426000E1522AC
:100430001450092715500A2309CB14F00ACB15F0E4
:10044000166A176AD880860E14541E0E1554000EB4
:100450001654000E175401E2EFD7A00E146E660E6C
:10046000156E010E166E00CB17F0186A196A060E8B
:100470000C6E0D6A0E6A17C007F018C008F019C09C
:1004800009F05CECB2F004C017F005C018F006C02B
:1004900019F014501724F36E15501820F46E1650EE
:1004A0001920F86EF4CFF7FFF3CFF6FF0800F5CF71
:1004B00026F208CB42F2250E0B0106250201276F1A
:1004C000000E0B0107210201286F27510B010225A5
:1004D0000201296F28510B01032102012A6F010E2D
:1004E0002927000E2A2329510B01042502012B6F15
:1004F0002A510B01052102012C6F0F0E3D6F3E9119
:10050000BAEC13F00B01002BD2D6FFD7120059DE44
:100510000A0EE66EE66A180EE66E020EE66E450EEE
:10052000E66E020EE66E40ECA3F0146E060EE15E7F
:10053000145010C24FF211C250F2450E146E020E4A
:10054000156E14C0F3FF15C0F4FF00D012000B01AC
:100550002B6B2B51146E156A090E145C000E155886
:1005600001E3C7D02BCB43F2E5DD0F0E02013D5D69
:1005700001E0BCD026DE02015851265D01E0B6D074
:1005800055510CE156C212F257C213F23E81060ECB
:100590003D6F56C240F257C241F2A5D0000E005D39
:1005A000040E015906E3880ED8800055130E01553C
:1005B00003E2006B040E016F00C212F201C213F2DB
:1005C000002B000E012356C210F257C211F2ECECC0
:1005D000B1F006C035F207C036F208C037F209C0E4
:1005E00038F202013E835551040A3EE0070A19E041
:1005F000020A03E0030A01E076D051C218F252C2A7
:1006000019F253C21AF254C21BF2020E555D02E0F7
:10061000000E01D0010E2495E8B02485020E3D6F36
:1006200062D053515125166E54515221176E1650F7
:100630005625146E17505721156E14501219406F1D
:1006400015501319416F51C218F252C219F253C218
:100650001AF254C21BF2256B270E026F036B046B58
:10066000056B040E3D6F3FD051C2E9FF52C2EAFF55
:10067000020EE926000EEA22EECF18F0EFCF19F0B5
:1006800051C2E9FF52C2EAFF1850EE24166E19500B
:10069000EE20176E16505625146E17505721156E02
:1006A00014501219406F15501319416F0A0EE66E5F
:1006B000E66A51C2E6FF52C2E6FF180EE66E020E6F
:1006C000E66E40ECA3F0146E060EE15E14500201DB
:1006D000070E3D6F0201010EA16F0201020EA06F15
:1006E000DBEC0EF000D00B012B5105D00B012B2BB6
:1006F00030D7FE0E00D0120059C243F21BDD0201BA
:100700003FA103D03F91010E02D0000E00D0120095
:100710005AC243F20FDD090E02013D5D04E03D5176
:1007200002E0000E01D0010E00D012005BC243F2C5
:1007300001DD31C233F232C234F202013D510A0A04
:1007400033E0010A31E0050A2FE00E0A2BE00D0A22
:100750001DE0050A0FE0010A0DE00E0A08E0040A98
:1007600001E022D088EC86F0BAEC13F027D0BAEC86
:1007700013F024D00201010EA16F0201110EA06F2F
:10078000DBEC0EF002010A0E3D6F18D00201010EE3
:10079000A16F0201110EA06FDBEC0EF002010E0E34
:1007A0003D6F0CD0010E3D6F0201A16B0201140ED2
:1007B000A06FDBEC0EF0BAEC13F000D012005CC2BC
:1007C00043F2B8DCFEDC02010E512D1902E10F519B
:1007D0002E1908E00201010EA16F0201180EA06F90
:1007E000DBEC0EF012005DC243F2A4DC3DC245FB1F
:1007F000090E0B01455D0AE00D0E455D07E045055C
:1008000005E0455103E0F36AF46A2FD002012F514D
:100810002D5D30512E591BE32751295D166E2A514B
:100820002855176E1606000E175A2F512D5D186E9B
:100830002E513055196E1850165C146E19501758F9
:10084000156E14C0F3FF15C0F4FF0FD00ED02D515C
:100850002F5D146E30512E55156E1406000E155A6C
:1008600014C0F3FF15C0F4FF00D012005EC243F2C3
:1008700061DC5EC25DF2B7DFF3CF05FBF4CF06FBB0
:100880000B010551061103E1000E63D008D0010EE3
:10089000051901E1065103E15EC25CF290DF02013D
:1008A0003E51200B14E12751295D146E2A51285521
:1008B000156ED890153214320B010551145C065197
:1008C000155805E35EC25CF27ADF02013E8B010E31
:1008D0000201C66FC76B0201C56F02015F0EC36FD5
:1008E000020EC46F42C2C2F22DC2C0F22EC2C1F2C9
:1008F000D7EC1CF002012D2B000E2E2329512D5D6B
:100900002A512E5904E327C22DF228C22EF20B01E0
:10091000010E051901E1065104E15EC25CF24FDFF0
:1009200016D002013EB513D03E85F7ECB1F006C0FB
:1009300014F007C015F0166A176A060E1426000E8A
:1009400015221622172214C039F215C03AF2010EF0
:1009500000D012000B01AA6BAB6B60C243F29AECA1
:1009600000F060C25DF23FDFF3CFA8FBF4CFA9FB3C
:100970000B01A851A91106E160C25CF220DFF36A05
:10098000F46AADD0A8CBA6FBA9CBA7FBA851020166
:10099000635D0B01A9510201645904E263C2A6FB25
:1009A00064C2A7FB3E51200B14E12751295D146E50
:1009B0002A512855156ED890153214320B01A851C2
:1009C000145CA951155805E360C25CF2F8DE02011F
:1009D0003E8B02012D510B01A625146E02012E51F2
:1009E0000B01A721156E02012951145C2A511558DB
:1009F0002DE32D51295D0B01AA6F02012E512A59B9
:100A00000B01AB6FAACBC6F2ABCBC7F20201010E52
:100A1000C56F61C2C3F262C2C4F242C2C2F22DC249
:100A2000C0F22EC2C1F2D7EC1CF00B01AA51020198
:100A300061270B01AB51020162230B01AA51A65F92
:100A4000AB51A75B27C22DF228C22EF2A6CBC6F26D
:100A5000A7CBC7F20201010EC56F61C2C3F262C229
:100A6000C4F242C2C2F22DC2C0F22EC2C1F2D7EC11
:100A70001CF00B01A65102012D270B01A751020109
:100A80002E230B01A8510201635D0B01A951020144
:100A9000645904E360C25CF292DE15D03EB513D017
:100AA0003E85F7ECB1F006C014F007C015F0166AE9
:100AB000176A060E1426000E15221622172214C0DD
:100AC00039F215C03AF20B01A651AA25146EA751AE
:100AD000AB21156E14C0F3FF15C0F4FF00D0120057
:100AE0000B012E6B2F6B65C243F29AEC00F065C2CE
:100AF0005DF279DEF3CF2CFBF4CF2DFB0B012C51F3
:100B00002D1106E165C25CF25ADEF36AF46AB0D0D8
:100B100002013E51200B14E12751295D146E2A5128
:100B20002855156ED890153214320B012C51145CD7
:100B30002D51155805E365C25CF241DE02013E8B82
:100B40002CCB2AFB2DCB2BFB0B012C510201695D19
:100B50000B012D5102016A5904E269C22AFB6AC2E3
:100B60002BFB2D510B012A25146E02012E510B0176
:100B70002B21156E02012951145C2A51155830E3BE
:100B80002D51295D0B012E6F02012E512A590B01A7
:100B90002F6F2ECBCEF22FCBCFF266C2CBF267C235
:100BA000CCF268C2CDF242C2CAF22DC2C8F22EC245
:100BB000C9F237EC1DF02ECB14F02FCB15F0166ACE
:100BC00014500201662715506723165068230B0145
:100BD0002E512A5F2F512B5B27C22DF228C22EF2F5
:100BE0002ACBCEF22BCBCFF266C2CBF267C2CCF2CD
:100BF00068C2CDF242C2CAF22DC2C8F22EC2C9F2F8
:100C000037EC1DF00B012A5102012D270B012B514E
:100C100002012E230B012C510201695D0B012D51A4
:100C200002016A5904E365C25CF2C9DD15D03EB524
:100C300013D03E85F7ECB1F006C014F007C015F0F4
:100C4000166A176A060E1426000E1522162217229F
:100C500014C039F215C03AF20B012A512E25146E38
:100C60002B512F21156E14C0F3FF15C0F4FF00D0D7
:100C700012006CC2E6FF6DC2E6FF70ECA4F0E55214
:100C8000E552F3CF63F2F4CF64F26CC261F26DC24D
:100C900062F26BC260F25EDE02016C51F324146EEC
:100CA0006D51F420156E14C0F3FF15C0F4FF00D091
:100CB00012006FC2E6FF70C2E6FF71C2E6FF7EEC73
:100CC000A4F0E552E552E55207C069F208C06AF2A5
:100CD0006FC266F270C267F271C268F26EC265F2EC
:100CE000FFDEF3CF17F0F4CF18F0196A02016F514D
:100CF0001724146E70511820156E71511920166E3C
:100D000014C007F015C008F016C009F000D012009A
:100D100072C243F29AEC00F002012751295D0B01E7
:100D2000066F020128512A590B01076F010E065F59
:100D3000000E075B72C25DF256DDF3CF04FBF4CF09
:100D400005FB0B010451065D146E07510555156E28
:100D500014C0F3FF15C0F4FF00D0120073C274F288
:100D600018D8F3CF14F0F4CF15F01450151010E08C
:100D700073C243F29AEC00F031C233F232C234F261
:100D80000201010EA16F0201100EA06FDBEC0EF04C
:100D9000120074C243F29AEC00F002013D0503E137
:100DA000F36AF46A2CD03351315D345132590CE37B
:100DB0003351315D146E32513455156E14C0F3FF4A
:100DC00015C0F4FF1CD01BD033512B5D166E2C5177
:100DD0003455176E010E1626000E17222951315D6B
:100DE000186E32512A55196E16501824146E175069
:100DF0001920156E14C0F3FF15C0F4FF00D01200C7
:100E000075C274F2C6DFF3CF00FBF4CF01FB0B0118
:100E10000051011102E1000E48D075C243F29AEC74
:100E200000F002017651771112E0010E0201C66F47
:100E3000C76B42C2C5F233C2C3F234C2C4F202016C
:100E4000C26F76C2C0F277C2C1F2D7EC1CF00201C9
:100E5000332B000E342333512B5D34512C5904E2D3
:100E600029C233F22AC234F20B01010E001901E14A
:100E7000015103E102013E8D16D002013EB513D0AF
:100E80003E85F7ECB1F006C014F007C015F0166A05
:100E9000176A060E1426000E15221622172214C0F9
:100EA00039F215C03AF2010E00D012000B012D6B81
:100EB0002E6B78C243F29AEC00F078C274F269DFCC
:100EC000F3CF2BFBF4CF2CFB02017B510B012B5DED
:100ED00002017C510B012C5904E22BCB7BF22CCB71
:100EE0007CF2020133517B25146E34517C21156E46
:100EF00014502B5D15502C5938E233512B5D0B01EA
:100F00002D6F020134512C590B012E6F010E2D272C
:100F1000000E2E23020179517A111BE02DCBC6F26F
:100F20002ECBC7F242C2C5F233C2C3F234C2C4F2FE
:100F30000201010EC26F79C2C0F27AC2C1F2D7ECCF
:100F40001CF00B012D51020179270B012E510201DA
:100F50007A230B012D5102017B5F0B012E510201FF
:100F60007C5B29C233F22AC234F279517A1113E040
:100F70007BC2C6F27CC2C7F242C2C5F233C2C3F220
:100F800034C2C4F20201010EC26F79C2C0F27AC249
:100F9000C1F2D7EC1CF002017B5133277C51342382
:100FA0007B510B012B5D146E2C5102017C55156E8B
:100FB00014507B5D15507C5902E33E8D15D03EB533
:100FC00013D03E85F7ECB1F006C014F007C015F061
:100FD000166A176A060E1426000E1522162217220C
:100FE00014C039F215C03AF202017B510B012D25D4
:100FF000146E02017C510B012E21156E14C0F3FFFB
:1010000015C0F4FF00D012007DC243F29AEC00F04C
:10101000020129512B5D0B01026F02012A512C594B
:101020000B01036F7DC274F2B4DEF3CF00FBF4CF8B
:1010300001FB0B010051025D146E03510155156E49
:1010400014C0F3FF15C0F4FF00D01200020181515B
:10105000821103E1F36AF46AB2D17EC243F29AECE0
:1010600000F07EC274F295DE02018351F35C0B0145
:10107000026F02018451F4580B01036F0201815188
:101080000B01025D020182510B01035903E2F36877
:10109000F46895D10201855186110DE00B010251D2
:1010A0000201855D0B0103510201865904E285C2EC
:1010B00002FB86C203FB335183250B01066F02013D
:1010C000345184210B01076F065102012B5D0B0186
:1010D000075102012C590FE229512B5D146E2C513E
:1010E0002A55156E010E1426000E152214500B0100
:1010F000065F1550075B06CB00FB07CB01FB0B011E
:10110000065102012B5D0B01046F075102012C599E
:101110000B01056F010E0427000E052383C206FB99
:1011200084C207FB81C208FB82C209FB7FC20AFBA3
:1011300080C20BFB02017FC2E9FF80C2EAFF7F2B66
:101140008023EFCF0DFB0B010F6B0201875109E0EC
:10115000610E0B010D5D05E30D517A0802E3E00E0F
:101160000D270B01200E0E6F0E51045D000E055968
:1011700002E204CB0EFB0E51025D000E035902E2A7
:1011800002CB0EFB0E510201C66FC76B42C2C5F205
:1011900000CBC3F201CBC4F20201010EC26F020107
:1011A000100EC06F0B0EC16FD7EC1CF00B010E516F
:1011B000146E156A14500027155001230E51146E39
:1011C000156A1450045F1550055B0451051106E1C2
:1011D00029C200FB2AC201FB04690569020187518B
:1011E00001E181D00B010C6B0E510C5D01E37AD053
:1011F0000C51EA6A100FE96E0B0EEA22EFCF14F0E1
:10120000610E145C13E30C51EA6A100FE96E0B0EC9
:10121000EA22EF507A080AE3E00E146E0C51EA6AF3
:10122000100FE96E0B0EEA221450EF260C51EA6AF9
:10123000100FE96E0B0EEA22EF500D5D33E1020153
:101240008107000E825B8151821117E10B01085169
:10125000065D166E07510955176E0C5100011624D4
:10126000146E000E1720156E010E1426000E1522A6
:1012700014C0F3FF15C0F4FFA2D07FC2E9FF80C203
:10128000EAFF7F2B000E8023EFCF0DFB0B01010E39
:101290000F6F610E0D5D05E30D517A0802E3E00E5C
:1012A0000D271ED008CB81F209CB82F20F5118E036
:1012B0000ACB7FF20BCB80F202017FC2E9FF80C232
:1012C000EAFF7F2B000E8023EFCF0DFB610E0B0199
:1012D0000D5D05E30D517A0802E3E00E0D270F6B5B
:1012E0000C2B82D751D00B010C6B0E510C5D4CE2D4
:1012F0000C51EA6A100FE96E0B0EEA22EF500D5DF9
:101300002BE102018107000E825B8151821117E1FE
:101310000B010851065D166E07510955176E0C51E9
:1013200000011624146E000E1720156E010E1426EF
:10133000000E152214C0F3FF15C0F4FF40D07FC289
:10134000E9FF80C2EAFF7F2B000E8023EFCF0DFB69
:101350000B01010E0F6F16D008CB81F209CB82F280
:101360000F5110E00ACB7FF20BCB80F202017FC25B
:10137000E9FF80C2EAFF7F2B000E8023EFCF0DFB39
:101380000B010F6B0C2BB1D70E51146E156A145054
:10139000025F1550035B020181510B01025D0201E6
:1013A00082510B01035903E2F368F46808D00E512F
:1013B000146E156A1450062715500723D2D6120052
:1013C00002018C518D1103E1F36AF46ACCD188C219
:1013D00043F29AEC00F088C274F2DBDC02018E5119
:1013E000F35C0B01026F02018F51F4580B01036F84
:1013F00002018C510B01025D02018D510B01035959
:1014000003E2F368F468AFD10201905191110DE04D
:101410000B0102510201905D0B0103510201915930
:1014200004E290C202FB91C203FB33518E250B01F3
:10143000066F020134518F210B01076F0651020123
:101440002B5D0B01075102012C590FE229512B5D35
:10145000146E2C512A55156E010E1426000E1522FD
:1014600014500B01065F1550075B06CB00FB07CB42
:1014700001FB0B01065102012B5D0B01046F0751AB
:1014800002012C590B01056F010E0427000E0523E4
:101490008EC206FB8FC207FB8CC208FB8DC209FB04
:1014A00089C20AFB8AC20BFB8BC20CFB020189C2F8
:1014B000F6FF892B8AC2F7FF8A238BC2F8FF8B23A2
:1014C0000800F5CF0EFB0B01106B0201925109E0F1
:1014D000610E0B010E5D05E30E517A0802E3E00E8A
:1014E0000E270B01200E0F6F0F51045D000E0559E2
:1014F00002E204CB0FFB0F51025D000E035902E222
:1015000002CB0FFB0F510201C66FC76B42C2C5F27F
:1015100000CBC3F201CBC4F20201010EC26F020183
:10152000110EC06F0B0EC16FD7EC1CF00B010F51E9
:10153000146E156A14500027155001230F51146EB4
:10154000156A1450045F1550055B0451051106E13E
:1015500029C200FB2AC201FB0469056902019251FC
:1015600001E18BD00B010D6B0F510D5D01E384D0B8
:101570000D51EA6A110FE96E0B0EEA22EFCF14F05B
:10158000610E145C13E30D51EA6A110FE96E0B0E44
:10159000EA22EF507A080AE3E00E146E0D51EA6A6F
:1015A000110FE96E0B0EEA221450EF260D51EA6A74
:1015B000110FE96E0B0EEA22EF500E5D37E10201CA
:1015C0008C07000E8D5B8C518D1117E10B010851BA
:1015D000065D166E07510955176E0D510001162450
:1015E000146E000E1720156E010E1426000E152223
:1015F00014C0F3FF15C0F4FFB6D089C2F6FF892BE3
:101600008AC2F7FF000E8A238BC2F8FF8B230800E3
:10161000F5CF0EFB0B01010E106F610E0E5D05E3A1
:101620000E517A0802E3E00E0E2724D008CB8CF28C
:1016300009CB8DF210511EE00ACB89F20BCB8AF256
:101640000CCB8BF2020189C2F6FF892B8AC2F7FF0D
:10165000000E8A238BC2F8FF8B230800F5CF0EFB08
:10166000610E0B010E5D05E30E517A0802E3E00EF8
:101670000E27106B0D2B78D75BD00B010D6B0F5124
:101680000D5D56E20D51EA6A110FE96E0B0EEA226A
:10169000EF500E5D2FE102018C07000E8D5B8C5127
:1016A0008D1117E10B010851065D166E07510955A2
:1016B000176E0D5100011624146E000E1720156EC2
:1016C000010E1426000E152214C0F3FF15C0F4FFFE
:1016D0004AD089C2F6FF892B8AC2F7FF000E8A23FF
:1016E0008BC2F8FF8B230800F5CF0EFB0B01010E18
:1016F000106F1CD008CB8CF209CB8DF2105116E084
:101700000ACB89F20BCB8AF20CCB8BF2020189C295
:10171000F6FF892B8AC2F7FF000E8A238BC2F8FFDF
:101720008B230800F5CF0EFB0B01106B0D2BA7D7F9
:101730000F51146E156A1450025F1550035B0201BD
:101740008C510B01025D02018D510B01035903E223
:10175000F368F46808D00F51146E156A1450062708
:1017600015500723BED6120099C287F297C285F2A0
:1017700098C286F295C283F296C284F2010E0201EB
:10178000816F826B0201940E7F6F020E806F93C295
:101790007EF25CDC00D012000B01006B0051146E75
:1017A000156A090E145C000E155801E34ED200CBE9
:1017B00043F29AEC00F00B01036B016B026B020128
:1017C0003EAD07D00AEC8CF0000903E00B01100ECF
:1017D000036F02013EA513D0F7ECB1F002010650F1
:1017E000395D146E07503A59156E153404E21450E1
:1017F0000008000E155403E30B01100E036F0201E5
:101800003EA713D0F7ECB1F0020106503B5D146E19
:1018100007503C59156E153404E214500008000EB0
:10182000155403E30B01100E036F0D0E02013D5D15
:1018300016E1F7ECB1F0020106503B5D146E075063
:101840003C59156E153404E214500008000E15546E
:1018500006E30B01110E036F02010E0E3D6F0B012B
:10186000035106E00201010EA16F03CBA0F2A3DA3F
:1018700002013EB334D0090E3D5D30E1ECECB1F035
:1018800002013551065C146E36510758156E3751FA
:101890000858166E38510958176E0001800E17143B
:1018A00001E0D0D1E1EC00F00201020EA16F0201D3
:1018B000100EA06F80DAECECB1F006C035F207C074
:1018C00036F208C037F209C038F2740E020135272B
:1018D000350E3623060E3723000E3823B3D1ECEC39
:1018E000B1F002013551065C146E36510758156E81
:1018F00037510858166E38510958176E0001800E7E
:10190000171401E09FD1E1EC00F002013D510E0AF5
:1019100001E13BD1020A01E129D1070A01E120D10D
:10192000010A01E10ED1030A01E1FCD0040A01E140
:10193000F9D0050A01E1E1D00F0A01E1D8D0020A8D
:1019400001E180D0010A6DE0070A22E0010A01E00E
:101950002BD17FEC86F000091AE00201030E3D6FE7
:1019600024A50CD00501010EF06F18C2EDF519C2C7
:10197000EEF51AC2EFF5BBEC86F009D00501010EB9
:10198000EC6F18C2EAF519C2EBF59BEC86F00CD1AE
:101990000501040EF16F0B0EF26FDEEC86F000090C
:1019A0003FE088EC86F0000926E00201040E3D6F5E
:1019B0000B0106510425166E07510521176E1650AE
:1019C00002011025146E17501121156E14501219B2
:1019D000406F15501319416F04CB18F205CB19F263
:1019E00006CB1AF207CB1BF2256B270E026F036B97
:1019F000046B056B15D0ECECB1F006C035F207C0F6
:101A000036F208C037F209C038F2740E02013527E9
:101A1000350E3623060E3723000E3823020E3D6F97
:101A2000C3D0F7ECB1F006C039F207C03AF20601B4
:101A3000180EE26F020EE36F3DECA0F00201050EFE
:101A40003D6FB2D006011C0EE66F020EE76F060175
:101A5000180EE46F020EE56F81ECA0F000093FE183
:101A600039C218F03AC219F01A6A1B6A18C0E6FFA8
:101A700019C0E6FF1AC0E6FF1BC0E6FFF7ECB1F0A5
:101A8000E552E7CF1BF0E552E7CF1AF0E552E7CF7A
:101A900019F0E552E7CF18F000011850065C146EFB
:101AA00019500758156E1A500858166E1B500958D1
:101AB000176E14500201025D155003591650045957
:101AC000175005590BE2060E255D06E2252BD8902E
:101AD0000237033704370537040E3D6F65D00B011D
:101AE000020E036F016B0201070E3D6F5DD00B010B
:101AF000020E036F010E016F57D0020E255D06E244
:101B00000B01120E036F010E016F0BD03EA106D028
:101B10000B01140E036F010E026F03D00B01020EB6
:101B2000036F42D0050E255D06E20B01180E036F10
:101B3000010E016F05D00A0E3D6F0B01110E036FF0
:101B400033D0050E255D06E20B01110E036F010E69
:101B5000016F05D00B01140E036F010E026F24D02C
:101B60000B01140E036F010E026F1ED0050E255DD2
:101B700006E20B01100E036F010E016F05D00B0181
:101B8000140E036F010E026F0FD0050E255D06E2E5
:101B90000B01110E036F010E016F05D00B01140E26
:101BA000036F010E026F00D00B01035146E001519B
:101BB0003EE00201252BD890023703370437053762
:101BC0002F510E5D146E0F513055156E166A176A3F
:101BD00015AE02D0166817681450065F1550075BE3
:101BE0001650085B1750095B2F510E5D30510F598D
:101BF00014E22751295D146E2A512855156E166A74
:101C0000176A15AE02D0166817681450065F155093
:101C1000075B1650085B1750095B2FC20EF230C2EB
:101C20000FF20201A16B03CBA0F2C5D806D00201CE
:101C3000010EA16F03CBA0F2BED80B01025102E04E
:101C4000BAEC13F00B01002BA9D512009AC2E9FFE0
:101C50009BC2EAFFEECF14FBEECF15FBEECF16FBD7
:101C6000EFCF17FB9CC2E9FF9DC2EAFFEECF18FB46
:101C7000EECF19FBEECF1AFBEFCF1BFB0B011C6B5A
:101C8000060E1D6F9EC21EFB9FC21FFB1ECBC7F51B
:101C90001FCBC8F567EC75F0F3CF1EFBF4CF1FFB2D
:101CA0000C0E0501CF6FD06B0501140ECD6F0B0E1E
:101CB000CE6F8EEC75F0F3CF20FBF4CF21FB0B0140
:101CC000201F211F9EC250F69FC251F6F2EC8DF0EC
:101CD000F3CF22FBF4CF23FB0B012251201902E1A9
:101CE0002351211904E027EC8CF0010E63D0000190
:101CF000F36BF46BE1ECA8F0140E06015A6F5B6B0A
:101D00000601000E586F0B0E596F58EC8FF0020150
:101D1000000EA66F0B0EA76FDFEC12F00B010C513B
:101D2000F00BE842E842E842E842040DF350146E3A
:101D3000156A140E145E000E155A14C024FB2451AB
:101D4000146E156A145002019E5D9E6F15509F59C6
:101D50009F6F140E9E5F000E9F5B9AC2E9FF9BC2AD
:101D6000EAFF010EEE1806E1EE5004E1EE5002E14A
:101D70007F0EEE1804E127EC8CF0010E1BD09AC206
:101D8000A4F29BC2A5F20201000EA26F0B0EA36F7C
:101D90002EDB00090BE09EC2AAF29FC2ABF2020149
:101DA000000EA86F0B0EA96FF6EC13F027EC8CF069
:101DB000010E00D0120002013D5102E03D0501E19B
:101DC00015D3E1EC00F00201A0A102D03E8FA0915A
:101DD0003E953E973E993E9D3E9B0AEC8CF0000955
:101DE00001E1FBD7060E0201A01504E00B016B6BAD
:101DF0006C6B69D10E512D1902E10F512E190BE1B7
:101E00000B016B6B6C6B02013EAF04D014511511CA
:101E100001E0A08158D12D510E5D2E510F5901E3E3
:101E200079D00E512D5D0B016B6F02010F512E59B0
:101E30000B016C6F14C26DFB15C26EFB02012F51BA
:101E40000E5D30510F590CE32F510E5D146E0F5182
:101E50003055156E14500B016D5F15506E5B17D029
:101E60002751295D166E2A512855176E0E512F5D88
:101E7000186E30510F55196E1850165C146E1950AB
:101E80001758156E14500B016D5F15506E5B6B513A
:101E90006D5D6C516E5904E26DCB6BFB6ECB6CFBD0
:101EA000180ED8806B55020E6C5506E2180E6B6F3B
:101EB000020E6C6F02013E8D02013EAF0FD00B018E
:101EC0006D516B1902E16E516C1908E0180E6B1917
:101ED00002E1020E6C1902E00201A0816BCBC6F296
:101EE0006CCBC7F242C2C5F20EC2C3F20FC2C4F23B
:101EF0000201C26B0201BB0EC06F0A0EC16FD7ECAC
:101F00001CF00B016B5102010E270B016C510201F9
:101F10000F23D9D00E51295D0B01696F02010F51BA
:101F20002A590B016A6F695102012D25146E0B01AC
:101F30006A5102012E21156E2751145C0B016B6F43
:101F40000201285115580B016C6F14C26DFB15C2AC
:101F50006EFB02012F510E5D30510F590CE32F51D2
:101F60000E5D146E0F513055156E14500B016D5FE0
:101F700015506E5B17D02751295D166E2A512855D2
:101F8000176E0E512F5D186E30510F55196E185087
:101F9000165C146E19501758156E14500B016D5FB6
:101FA00015506E5B6B516D5D6C516E5904E26DCBDB
:101FB0006BFB6ECB6CFB180ED8806B55020E6C550C
:101FC00006E2180E6B6F020E6C6F02013E8D02016D
:101FD0003EAF0FD00B016D516B1902E16E516C19C0
:101FE00008E0180E6B1902E1020E6C1902E0020102
:101FF000A0810B0169516D5D6A516E5904E26DCB90
:1020000069FB6ECB6AFB180ED8806955020E6A55C3
:1020100004E2180E696F020E6A6F69CBC6F26ACBD2
:10202000C7F242C2C5F20EC2C3F20FC2C4F202012D
:10203000C26B0201BB0EC06F0A0EC16FD7EC1CF061
:102040000B0169516B5D696F6A516C596A6F695117
:102050006A1122E069CBC6F26ACBC7F242C2C5F26E
:1020600027C2C3F228C2C4F20201C26B02010E51A0
:10207000295D146E2A510F55156E166A176ABB0E2C
:1020800014260A0E1522000E1622172214C0C0F2C2
:1020900015C0C1F2D7EC1CF00B016B5102010E27E9
:1020A0000B016C5102010F2329510E5D2A510F596A
:1020B0000AE32751295D146E2A512855156E1450D4
:1020C0000E5F15500F5B0B016B516C1104E1030E99
:1020D0000201A0151BE00201A1A107D0256BF20EA1
:1020E000026F9E0E036F046B056BECECB1F00650B3
:1020F00002010225356F07500321366F0850042175
:10210000376F09500521386F3E8325D0A1A30AD02F
:102110000607000E075B085B095B010E0B016B6F86
:102120006C6B19D03EA317D0A1B106D02507D8906B
:102130000533043303330233ECECB1F006500201F3
:102140000225356F07500321366F08500421376F81
:1021500009500521386F12C247FB13C248FB10C259
:1021600049FB11C24AFB06C24BFB07C24CFB08C22B
:102170004DFB09C24EFB0AC24FFB0BC250FB0CC207
:1021800051FB0DC252FB0B01549D549F539153932D
:1021900053955397A0C254FB596B5A6B6B51020174
:1021A00006270B016C5102010723000E08230923A7
:1021B000A0A30DD024A306D00B014B074C5B4D5BB5
:1021C0004E5B05D0062B0723082309232483020135
:1021D000A0A10DD024A106D00B014B074C5B4D5B99
:1021E0004E5B05D0062B0723082309232481020117
:1021F0003351315D3451325914E329512B5D146E42
:102200002C512A55156E3351315D166E32513455AD
:10221000176E0B011650145C556F17501558566FFA
:102220000DD03151335D0B01556F020132513459DC
:102230000B01566F010E555F000E565B51EC8CF092
:10224000F3CF45FBF4CF46FB0B01400E455F000E7C
:10225000465B800E461502E0456B466B5551455D69
:102260005651465904E245CB55FB46CB56FB02017D
:10227000470EA66F0B0EA76FA2D9140E0B016B278A
:10228000000E6C235389539B538D539F0201A0A3CF
:1022900026D0040E0B016B27000E6C23020E5B6F21
:1022A000040E5C6F020E5D6F140E5E6F010E146EF5
:1022B000530EE96E0B0EEA6EEF50F00BE842E84267
:1022C000E842E84214240F0BF36EF46EF346F34633
:1022D000F346F3460F0EEF14F310EF6EF450B4C351
:1022E0005FFBB5C360FBB6C361FBB7C362FB18C23B
:1022F00063FB19C264FB1AC265FB1BC266FB0B01C0
:10230000676B060E686F6BCB69FB6CCB6AFB69CBA6
:10231000C7F56ACBC8F567EC75F0F3CF69FBF4CF6E
:102320006AFB0C0E0501CF6FD06B05015F0ECD6F00
:102330000B0ECE6F8EEC75F0F3CF57FBF4CF58FB3E
:102340000B01571F581F0601930E486F0A0E496F65
:1023500097EC8DF06BCBF1F06CCBF2F00001060E38
:10236000F06F0001180EEE6F020EEF6F6DECA8F02B
:10237000140E06015F6F606B0601470E5D6F0B0E5A
:102380005E6F90EC8FF00201A0A30BD0040E06014B
:102390005F6F606B06015B0E5D6F0B0E5E6F90EC06
:1023A0008FF00601A70E4A6F0A0E4B6FA5EC8DF059
:1023B0006BCB50F66CCB51F6F2EC8DF0F3CF45FBC6
:1023C000F4CF46FB0601B70E486F0A0E496F97EC33
:1023D0008DF0020E06015F6F606B0601450E5D6FAA
:1023E0000B0E5E6F90EC8FF05BEC8DF012000B012A
:1023F000FE0E266FA4C2E9FFA5C2EAFF020EE9267F
:10240000000EEA22EECF18F0EFCF19F0A4C2E9FFD8
:10241000A5C2EAFF1850EE24166E1950EE20176E72
:10242000A2C2E9FFA3C2EAFF1650EE24146E1750B1
:10243000EE20156EA2C2E9FFA3C2EAFF020EE92652
:10244000000EEA221450EE18276F1550EE18286F70
:10245000256B2551146E156A090E145C000E155873
:1024600067E225CB43F29AEC00F00F0E02013D5DCE
:1024700002E15BD024D0060E3D5D16E1A2C2E9FF69
:10248000A3C2EAFF020EE926000EEA22EECF14F004
:10249000EFCF15F01450401902E11550411902E137
:1024A00025CB26FB42D00BD00B012751020140194E
:1024B00004E10B0128510201411901E036D0E1ECA1
:1024C00000F0A2C2E9FFA3C2EAFF020EE926000E55
:1024D000EA22EECF14F0EFCF15F0020112511418DA
:1024E00002E11351151821E1A2C2E9FFA3C2EAFFDC
:1024F000EECF16F0EFCF17F01051161802E1115180
:10250000171813E1A4C2E9FFA5C2EAFFEE5018199B
:1025100009E1EE50191906E1EE501A1903E1EE50E7
:102520001B1900E102E1010E49D00B01252B91D7C7
:10253000FE0E265D02E1000E41D026CB43F29AEC5E
:1025400000F0E1EC00F027CB40F228CB41F20A0E7C
:10255000E66EE66AA4C2E6FFA5C2E6FF180EE66EC6
:10256000020EE66E40ECA3F0146E060EE15E14500F
:10257000A2C2E9FFA3C2EAFFEECF10F2EDCF11F243
:10258000A2C2E9FFA3C2EAFF020EE926000EEA2278
:10259000EECF12F2EDCF13F24DECA2F0F3CF06F234
:1025A000F4CF07F24DECA2F0F3CF08F2F4CF09F22A
:1025B00027C20EF228C20FF2010E00D01200A6C2EE
:1025C000E9FFA7C2EAFFEECFC7F5EDCFC8F567EC8C
:1025D00075F0F3CF14F0F4CF15F0A6C2E9FFA7C24F
:1025E000EAFF14C0EEFF15C0EDFFA6C2E9FFA7C2C7
:1025F000EAFF020EE926000EEA22EECFC7F5EDCF84
:10260000C8F567EC75F0F3CF14F0F4CF15F0A6C25F
:10261000E9FFA7C2EAFF020E14C0EBFF030E15C0CC
:10262000EBFFA6C2E9FFA7C2EAFF040EE926000EEF
:10263000EA22EECFC9F5EECFCAF5EECFCBF5EFCF5C
:10264000CCF577EC75F006C014F007C015F008C0A3
:1026500016F009C017F0A6C2E9FFA7C2EAFF040EF0
:10266000E926000EEA2214C0EEFF15C0EEFF16C0E8
:10267000EEFF17C0EEFFA6C2E9FFA7C2EAFF080EF1
:10268000E926000EEA22EECFC9F5EECFCAF5EECF6D
:10269000CBF5EFCFCCF577EC75F006C014F007C0A2
:1026A00015F008C016F009C017F0A6C2E9FFA7C2CE
:1026B000EAFF080EE926000EEA2214C0EEFF15C05C
:1026C000EEFF16C0EEFF17C0EEFFA6C2E9FFA7C2DD
:1026D000EAFF0E0EE926000EEA22EECFC7F5EDCF97
:1026E000C8F567EC75F0F3CF14F0F4CF15F0A6C27F
:1026F000E9FFA7C2EAFF0E0E14C0EBFF0F0E15C0D4
:10270000EBFFA6C2E9FFA7C2EAFF100EE926000E02
:10271000EA22EECFC7F5EDCFC8F567EC75F0F3CF41
:1027200014F0F4CF15F0A6C2E9FFA7C2EAFF100E1D
:1027300014C0EBFF110E15C0EBFFA6C2E9FFA7C244
:10274000EAFF120EE926000EEA22EECFC7F5EDCF22
:10275000C8F567EC75F0F3CF14F0F4CF15F0A6C20E
:10276000E9FFA7C2EAFF120E14C0EBFF130E15C05B
:10277000EBFF1200E1EC00F012C240F213C241F292
:1027800027C22DF228C22EF227C22FF228C230F221
:1027900029C231F22AC232F229C233F22AC234F2F9
:1027A00002013E51010B02E0060E01D00F0E3D6FFB
:1027B0003E933E953E973E993E9B3E9D3E9F3F8178
:1027C0002491249327C20EF228C20FF24DECA2F0FE
:1027D000F3CF06F2F4CF07F24DECA2F0F3CF08F2FC
:1027E000F4CF09F20201226923691200A8C2E9FFAD
:1027F000A9C2EAFF0D0EE926000EEA22EFCF33FB55
:10280000A8C2E9FFA9C2EAFF080EE926000EEA22E3
:10281000EECF34FBEECF35FBEECF36FBEFCF37FB01
:10282000A8C2E9FFA9C2EAFF040EE926000EEA22C7
:10283000EECF38FBEECF39FBEECF3AFBEFCF3BFBD1
:1028400002013EB313D0ECECB1F006C035F207C084
:1028500036F208C037F209C038F2740E020135278B
:10286000350E3623060E3723000E38233D51070A56
:1028700043E0010A08E0AAC23CFBABC23DFB0B01EE
:1028800033A1B2D0AED00B0133A503D073DFA6EFD6
:102890001AF033A912D034CB06F235CB07F236CB7F
:1028A00008F237CB09F20201A16B0201040EA06FFE
:1028B000DBEC0EF05FDFA6EF1AF033A31AD038CBB3
:1028C0000AF239CB0BF23ACB0CF23BCB0DF2020100
:1028D0000A2B000E0B230C230D230201010EA16F06
:1028E0000201120EA06FDBEC0EF00201080E3D6F2C
:1028F00001D040DFA6EF1AF00B0133A502D0A6EFFE
:102900001AF033A934D0340EE96E0B0EEA6EEE5095
:102910000201061909E1EE50071906E1EE50081907
:1029200003E1EE50091900E122E006C238FB07C2BC
:1029300039FB08C23AFB09C23BFB34CB06F235CB6C
:1029400007F236CB08F237CB09F20201010EA16F74
:102950000201040EA06FDBEC0EF038CB06F239CB8F
:1029600007F23ACB08F23BCB09F2A6EF1AF00B01C3
:1029700033A335D038CB0AF239CB0BF23ACB0CF279
:102980003BCB0DF202010A2B000E0B230C230D236F
:10299000A8C2E9FFA9C2EAFF0E0EE926000EEA224C
:1029A000EECF14F2EDCF15F20B0133A90DD00201D9
:1029B000010EA16F0201100EA06FDBEC0EF0020100
:1029C000090E3D6F3E930BD00201010EA16F020173
:1029D000120EA06FDBEC0EF00201080E3D6FA6EFA9
:1029E0001AF03C2B000E3D2333A303D03C2B000EEA
:1029F0003D2302013351315D3451325914E32951E1
:102A00002B5D146E2C512A55156E3351315D166EA7
:102A100032513455176E0B011650145C316F17503C
:102A20001558326F0DD03151335D0B01316F0201FA
:102A3000325134590B01326F010E315F000E325B9F
:102A40000A0EE96E020EEA6EEE50385D2B6FEE5004
:102A500039592C6FEE503A592D6FEE503B592E6F6D
:102A60002BCB2FFB2CCB30FB3E6B3C513D1101E1BE
:102A700081D03151321101E17CD0800E2E1518E148
:102A800031CB14F032CB15F0166A176A2E51171895
:102A9000E8AE02D0173408D014502B5D15502C59D5
:102AA00016502D5917502E5903E2010E3E6F3DD09E
:102AB0003CCB14F03DCB15F0166A176A2B0EE96E6D
:102AC0000B0EEA6EEE501426EE501522EE50162232
:102AD000EE5017221734000E171809E6D880000EA2
:102AE0001454000E1554000E1654000E17541DE217
:102AF0003C51315D186E32513D55196E1A6A1B6A90
:102B000019AE02D01A681B681B502E19E8AE02D00D
:102B10002E3508D02B51185C2C5119582D511A58AC
:102B20002E511B5802E3010E3E6F31CB14F032CB15
:102B300015F0166A176A2E511718E8AE02D017342E
:102B400008D014502B5D15502C5916502D59175084
:102B50002E590FE22F513C25186E30513D21196E30
:102B6000193404E218500008000E195402E2010E54
:102B70003E6F22D02B512C112D112E1103E1010E8D
:102B80003E6F1AD0800E2E1517E131CB14F032CBE8
:102B900015F0166A176A2E511718E8AE02D01734CE
:102BA00008D014502B5D15502C5916502D59175024
:102BB0002E5902E2010E3E6F3E510CE133B508D0B2
:102BC0000201010EA16F0201100EA06FDBEC0EF0EE
:102BD000A6EF1AF0060E331503E0CCDDA6EF1AF0CF
:102BE00033B902D0A6EF1AF002013D510E0A01E1FD
:102BF00079D1070A40E0030A3EE0010A3CE0060AF8
:102C00003AE0010A38E0040A01E080D1340EE96EAE
:102C10000B0EEA6EEE50061909E1EE50071906E1B7
:102C2000EE50081903E1EE50091900E122E006C256
:102C300038FB07C239FB08C23AFB09C23BFB34CB65
:102C400006F235CB07F236CB08F237CB09F2020198
:102C5000010EA16F0201040EA06FDBEC0EF038CB69
:102C600006F239CB07F23ACB08F23BCB09F2A6EFDA
:102C70001AF0090E3D6F340EE96E0B0EEA6EEE503F
:102C8000065D146EEE500759156EEE500859166E1B
:102C9000EE500959176E0001800E17140AE0020168
:102CA000010EA16F0201100EA06FDBEC0EF0A6EF7B
:102CB0001AF002012F510E5D146E0F513055156E32
:102CC000166A176A15AE02D016681768060EE96E06
:102CD000020EEA6E1450EE5C0B01256F1550EE5893
:102CE000266F1650EE58276F1750EE58286F0201C6
:102CF0002F510E5D30510F5911E22751295D146E8D
:102D00002A512855156E166A176A14500B01255F53
:102D10001550265B1650275B1750285B250EE96E71
:102D20000B0EEA6EEE500B01345D256FEE503559F7
:102D3000266FEE503659276FEE503759286F2835D9
:102D4000000E281909E6D880000E2555000E2655DC
:102D5000000E2755000E28552CE202012751295D4F
:102D6000146E2A512855156E166A176A0B012551E3
:102D7000145C26511558275116582851175819E335
:102D800002013E9B0B01255102012F270B01265109
:102D90000201302329512F5D2A5130590AE327516E
:102DA000295D146E2A512855156E14502F5F155049
:102DB000305B02012D512F1902E12E5130191AE119
:102DC0003EBF02D03E9316D0060EE96E020EEA6EAA
:102DD000EE500B01341909E1EE50351906E1EE50C1
:102DE000361903E1EE50371900E104E102013E9388
:102DF0003E9F24910201145115110CE1A8C2E9FF74
:102E0000A9C2EAFF0E0EE926000EEA22EE50ED10EE
:102E100001E03E8DA8C2E9FFA9C2EAFF0E0EE92635
:102E2000000EEA22EECF14F2EDCF15F20A0E3D5D50
:102E300029E1060EE96E020EEA6EEE500B0134191E
:102E400009E1EE50351906E1EE50361903E1EE5076
:102E5000371900E116E1ECECB1F006C035F207C01D
:102E600036F208C037F209C038F2BA0E020135272F
:102E70001A0E3623030E3723000E38233E830B0E23
:102E80003D6F2FD00B0E3D5D15E10B0133B111D01D
:102E900034CB06F235CB07F236CB08F237CB09F24A
:102EA0000201A16B0201140EA06FDBEC0EF062DCDC
:102EB0004DD317D00C0E3D5D14E1060EE96E020EE7
:102EC000EA6EEE500B01341909E1EE50351906E1B6
:102ED000EE50361903E1EE50371900E101E14ADC0A
:102EE00035D314D0060EE96E020EEA6EEE500B01D9
:102EF000341909E1EE50351906E1EE50361903E1B7
:102F0000EE50371900E101E135DC20D30B0133BB72
:102F10001DD30D0E02013D5D01E118D30C0E3D5D88
:102F200001E114D30E0E3D5D01E110D3AA51AB11A6
:102F300001E151D20B01303504E22F510008000E9F
:102F4000305501E2EBD0A8C2E9FFA9C2EAFF0C0E9E
:102F5000E926000EEA22EF50F00BE842E842E84290
:102F6000E842040DF350146E156A2F51145C0001F1
:102F7000F36F0B01305115580001F46FE1ECA8F02C
:102F80000B012F510201AA270B0130510201AB2383
:102F9000AA510B01315D0201AB510B01325904E220
:102FA00031CBAAF232CBABF20201AA510A27AB51C4
:102FB0000B23000E0C230D233151AA25146E325120
:102FC000AB21156E14502B5D15502C5948E2315130
:102FD0002B5D0B01296F020132512C590B012A6F15
:102FE000010E2927000E2A2329CBC6F22ACBC7F2CD
:102FF0000201C56B0201C369C46942C2C2F231C297
:10300000C0F232C2C1F2D7EC1CF00B01295102010F
:10301000AA5D0201C66F0B012A510201AB590201E0
:10302000C76F0201C56B0201C369C46942C2C2F223
:1030300029C2C0F22AC2C1F2D7EC1CF00B012951FF
:103040000201AA5D146EAB510B012A55156E0201E7
:1030500029511424316F2A511520326F16D0AAC27B
:10306000C6F2ABC2C7F20201C56B0201C369C469F3
:1030700042C2C2F231C2C0F232C2C1F2D7EC1CF07D
:103080000201AA513127AB513223221D01E1231D38
:1030900044E0AA51225FAB51235B165122250B015C
:1030A000296F0201175123210B012A6F800E2A1567
:1030B00004E002012269236930D00201233504E2D1
:1030C00022510008000E235528E30B01295102016B
:1030D0000A270B012A5102010B23000E0C230D239A
:1030E0000B012951020131270B012A510201322320
:1030F00031512B5D32512C590EE229512B5D146E4A
:103100002C512A55156E010E1426000E152214504E
:10311000315F1550325B226923695DD1303504E29D
:103120002F510008000E305501E355D10201AA517C
:103130000B012F25146E0201AB510B013021156ECE
:103140001450315D1550325909E22F51315D0201A1
:10315000AA6F0B01305132590201AB6FA8C2E9FFCF
:10316000A9C2EAFF0C0EE926000EEA22EF50F00B8E
:10317000E842E842E842E842040DF3500001F36FF0
:10318000F46BE1ECA8F0020131510B012F25166E12
:10319000020132510B013021176E16500201AA258F
:1031A000146E1750AB21156E14502B5D15502C5911
:1031B0006EE231512B5D146E2C513255156E010E9D
:1031C0001426000E15220B012F51145C296F30516B
:1031D00015582A6F800E2A1531E129CBC6F22ACB69
:1031E000C7F20201C56B0201C369C46942C2C2F2DF
:1031F000020131510B012F250201C06F0201325132
:103200000B0130210201C16FD2DB0B0129510201F8
:10321000AA5D0201C66F0B012A510201AB590201DE
:10322000C76F0201C56B0201C369C46942C2C2F221
:1032300029C2C0F22AC2C1F2BADB28D0AAC2C6F2A1
:10324000ABC2C7F20201C56B0201C369C46942C2C5
:10325000C2F2020131510B012F25146E02013251CD
:103260000B013021156E020129512B5D166E2C5178
:103270002A55176E010E1626000E1722020116504F
:10328000145CC06F17501558C16F91DB18D0AAC2DB
:10329000C6F2ABC2C7F20201C56B0201C369C469C1
:1032A00042C2C2F2020131510B012F250201C06F4F
:1032B000020132510B0130210201C16F78DB0201A2
:1032C000221D01E1231D09E12FCB22F230CB23F295
:1032D000AAC216F2ABC217F27ED022510B012F5DAB
:1032E000020123510B0130593DE22F510201AA2561
:1032F000146E0B0130510201AB21156E22511625BF
:10330000166E23511721176E1450165C155017585E
:103310000FE30B012F510201AA25186E0B0130514A
:103320000201AB21196E2251185C2351195805E294
:10333000AAC216F2ABC217F210D022511625146E93
:1033400023511721156E0B012F51145C0201166FCA
:103350000B01305115580201176F2FCB22F230CBE1
:1033600023F239D02F510201AA25146E0B013051DE
:103370000201AB21156E22511625166E235117211D
:10338000176E1450165C1550175825E22251162559
:10339000146E23511721156E0B012F51145C3051FF
:1033A000155819E32F510201AA25186E0B0130514F
:1033B0000201AB21196E2251185C166E2351195867
:1033C000176E1651165C146E17511758156E14505F
:1033D0001627155017230B013C513D1124E0090E0F
:1033E00002013D5D04E031C233F232C234F23EA943
:1033F0000BD00201010EA16F0201100EA06FDBECD9
:103400000EF0E1EC00F00FD03E893EB70CD03E87C5
:10341000F7ECB1F006C03BF207C03CF20F0E020120
:103420003B27000E3C2302012F512D1902E13051A0
:103430002E1901E13E930B0133A188D00AC214F08A
:103440000BC215F00CC216F00DC217F0142A000EB4
:103450001522162217223CCB18F03DCB19F01A6A20
:103460001B6A380EE96E0B0EEA6EEE501826EE500F
:103470001922EE501A22EE501B221450181809E19E
:103480001550191806E116501A1803E117501B18A9
:1034900000E15CE102010A2B000E0B230C230D233B
:1034A0003D510B0A41E0010A1EE0030A0EE0010A49
:1034B00001E044D00E0E3D6F0201010EA16F02012A
:1034C000110EA06FDBEC0EF041D00D0E3D6FF7EC4E
:1034D000B1F006C03BF207C03CF21F0E02013B27D1
:1034E000000E3C232BD0060EE96E020EEA6EEE5063
:1034F0000B01341909E1EE50351906E1EE50361989
:1035000003E1EE50371900E10BE10201A16B02016A
:10351000100EA06FDBEC0EF0BAEC13F017D003D056
:1035200002010C0E3D6F0AD00201A16B0201100EC8
:10353000A06FDBEC0EF0BAEC13F008D00201010E24
:10354000A16F0201100EA06FDBEC0EF01200ACC2F6
:1035500043F29AEC00F00201AD51AE1103E1010E0D
:10356000AD6FAE6B27512B5D0B01006F020128512F
:103570002C590B01016F010E005F000E015B02016F
:10358000AD51AF25146EAE51B021156E0B01145024
:10359000005D1550015902E2000E9BD0E1EC00F0F5
:1035A000030E0201B11502E1030EB16FAFC202FBBF
:1035B000B0C203FBAD51AF25146EAE51B021156EF4
:1035C00014500B01005F1550015B0201B1A314D030
:1035D000B1A10DD000CB14F001CB15F0D89015326D
:1035E000143214500B0102271550032305D00B0190
:1035F0000051022701510323020127510B0102252B
:10360000006F020128510B010321016F010E0027F9
:10361000000E012302013151335D3251345917E25A
:103620000B0100510201335D0B01015102013459BC
:103630000DE2B1A503D0000E4CD008D000CB33F280
:1036400001CB34F200CB31F201CB32F224D0335132
:10365000315D3451325917E20B0100510201295DED
:103660000B01015102012A590DE2B1A503D0000E50
:1036700030D008D000CB33F201CB34F200CB31F2A2
:1036800001CB32F208D000CB33F201CB34F200CBC5
:1036900031F201CB32F200CB29F201CB2AF227C260
:1036A0000EF228C20FF227C22FF228C230F227C230
:1036B0002DF228C22EF2090E02013D5D08E1020141
:1036C000010EA16F0201100EA06FDBEC0EF0010ED7
:1036D00000D012000B01006B0051146E156A090E28
:1036E000145C000E155825E200CB43F29AEC00F072
:1036F000060E02013D5D1AE1B251401902E1B351DB
:10370000411914E13D6B27C22DF228C22EF227C2C7
:103710002FF228C230F229C231F22AC232F229C273
:1037200033F22AC234F20B01005105D00B01002BF9
:10373000D3D7FE0E00D01200B4C243F29AEC00F0D0
:1037400002013D5104E03D0502E0000E04D0BAEC58
:1037500013F0010E00D01200B5C243F29AEC00F053
:1037600002013D5104E03D0502E0000E02D0010ED1
:1037700000D01200B6C243F29AEC00F002013D05FF
:1037800005E1B9C2F3FFBAC2F4FF8FD0B6C27DF231
:1037900004EC08F0F3CF04FBF4CF05FB0201B951B0
:1037A0000B01045D0201BA510B01055904E204CB7F
:1037B000B9F205CBBAF202013151B925146E32517A
:1037C000BA21156E14502B5D15502C5952E231510F
:1037D0002B5D0B01046F020132512C590B01056F57
:1037E000010E0427000E052304CBC6F205CBC7F259
:1037F0000201010EC56FB7C2C3F2B8C2C4F242C221
:10380000C2F231C2C0F232C2C1F2D1D80B010451AE
:103810000201B7270B0105510201B8230B01045126
:103820000201B95D0201C66F0B0105510201BA59CF
:103830000201C76F0201010EC56FB7C2C3F2B8C261
:10384000C4F242C2C2F229C2C0F22AC2C1F2AFD847
:103850000B0104510201B95D146EBA510B010555FB
:10386000156E020129511424316F2A511520326F2F
:1038700017D0B9C2C6F2BAC2C7F20201010EC56FB3
:10388000B7C2C3F2B8C2C4F242C2C2F231C2C0F27D
:1038900032C2C1F28CD80201B9513127BA51322358
:1038A000B9C2F3FFBAC2F4FF00D012000B01026BE1
:1038B000036BBBC243F29AEC00F0BBC272F288EC1D
:1038C00006F0F3CF00FBF4CF01FB0201BE510B0168
:1038D000005D0201BF510B01015904E200CBBEF2B1
:1038E00001CBBFF202012F51BE25146E3051BF2112
:1038F000156E2951145C2A51155833E32F51295D57
:103900000B01026F020130512A590B01036F02CBE8
:10391000C6F203CBC7F242C2C5F22FC2C3F230C215
:10392000C4F20201010EC26FBCC2C0F2BDC2C1F23C
:103930003ED80201BC51BD1108E00B010251020149
:10394000BC270B0103510201BD230B0102510201EF
:10395000BE5F0B0103510201BF5B27C22FF228C2D9
:1039600030F2BEC2C6F2BFC2C7F242C2C5F22FC217
:10397000C3F230C2C4F20201010EC26FBCC2C0F277
:10398000BDC2C1F214D80201BE512F27BF5130234E
:10399000BE510B010225146E0201BF510B01032120
:1039A000156E14C0F3FF15C0F4FF00D01200020121
:1039B000C5512FE0010A01E059D0C25116E0010AB9
:1039C00001E026D0C6C2E6FFC7C2E6FFC3C2E6FFDB
:1039D000C4C2E6FFC0C2E6FFC1C2E6FF40ECA3F0EE
:1039E000146E060EE15E145013D0C1BF06D0C0C2E3
:1039F00048F6C1C249F697EC8DF0C6C25FF6C7C261
:103A000060F6C3C25DF6C4C25EF690EC8FF000D0E3
:103A10002DD0C25116E0010A01E027D0C4BF06D064
:103A2000C3C24AF6C4C24BF6A5EC8DF0C6C25AF624
:103A3000C7C25BF6C0C258F6C1C259F658EC8FF047
:103A400014D0C6C256F6C7C257F6C3C254F6C4C293
:103A500055F6C0C252F6C1C253F67EEC8EF04EEC63
:103A60008FF0000901E1FBD700D000D01200020165
:103A7000CA5118E0010A01E067D0CEC2E6FFCFC20A
:103A8000E6FFCBC2E6FFCCC2E6FFCDC2E6FFC8C26E
:103A9000E6FFC9C2E6FF6BECA3F0146E070EE15E11
:103AA000145052D0C9BF06D0C8C248F6C9C249F6A0
:103AB00097EC8DF0100E0B01286F296B0201CE518F
:103AC000CF1141E00B0128510201CE5D0B012951BC
:103AD0000201CF5904E2CEC228FBCFC229FB28CB7A
:103AE000E6FF29CBE6FFCBC2E6FFCCC2E6FFCDC2A4
:103AF000E6FF180EE66E0B0EE66E6BECA3F0146E8E
:103B0000070EE15E145028CB5FF629CB60F6060164
:103B1000180E5D6F0B0E5E6F90EC8FF028CB14F0DB
:103B200029CB15F0166A14500201CB271550CC236F
:103B30001650CD230B0128510201CE5F0B012951F4
:0A3B40000201CF5BBBD700D01200DA
:063B4A00270E0601EA1936
:103B500005E1EB5103E1EC5101E1ED5101E168D2E6
:103B6000260EEA1905E1EB5103E1EC5101E1ED51BB
:103B700001E15BD2250EEA1905E1EB5103E1EC51BD
:103B800001E1ED5101E14ED2240EEA1905E1EB51BC
:103B900003E1EC5101E1ED5101E141D2230EEA19BB
:103BA00005E1EB5103E1EC5101E1ED5101E134D2CA
:103BB000220EEA1905E1EB5103E1EC5101E1ED516F
:103BC00001E127D2210EEA1905E1EB5103E1EC51A5
:103BD00001E1ED5101E11AD2200EEA1905E1EB51A4
:103BE00003E1EC5101E1ED5101E10DD21F0EEA19A3
:103BF00005E1EB5103E1EC5101E1ED5101E100D2AE
:103C00001E0EEA1905E1EB5103E1EC5101E1ED5122
:103C100001E1F3D11D0EEA1905E1EB5103E1EC518D
:103C200001E1ED5101E1E6D11C0EEA1905E1EB518C
:103C300003E1EC5101E1ED5101E1D9D11B0EEA198B
:103C400005E1EB5103E1EC5101E1ED5101E1C8D196
:103C50001A0EEA1905E1EB5103E1EC5101E1ED51D6
:103C600001E1B7D1190EEA1905E1EB5103E1EC517D
:103C700001E1ED5101E1A6D1180EEA1905E1EB5180
:103C800003E1EC5101E1ED5101E196D1170EEA1982
:103C900005E1EB5103E1EC5101E1ED5101E186D188
:103CA000160EEA1905E1EB5103E1EC5101E1ED518A
:103CB00001E179D1150EEA1905E1EB5103E1EC516F
:103CC00001E1ED5101E165D1140EEA1905E1EB5175
:103CD00003E1EC5101E1ED5101E151D1130EEA197B
:103CE00005E1EB5103E1EC5101E1ED5101E13DD181
:103CF000120EEA1905E1EB5103E1EC5101E1ED513E
:103D000001E128D1110EEA1905E1EB5103E1EC5173
:103D100001E1ED5101E114D1100EEA1905E1EB5179
:103D200003E1EC5101E1ED5101E1FFD00F0EEA1981
:103D300005E1EB5103E1EC5101E1ED5101E1EBD083
:103D40000E0EEA1905E1EB5103E1EC5101E1ED51F1
:103D500001E1D6D00D0EEA1905E1EB5103E1EC517A
:103D600001E1ED5101E1C9D00C0EEA1905E1EB5179
:103D700003E1EC5101E1ED5101E1B8D00B0EEA197C
:103D800005E1EB5103E1EC5101E1ED5101E1A7D077
:103D90000A0EEA1905E1EB5103E1EC5101E1ED51A5
:103DA00001E196D0090EEA1905E1EB5103E1EC516E
:103DB00001E1ED5101E185D0080EEA1905E1EB5171
:103DC00003E1EC5101E1ED5175E0070EEA1905E15F
:103DD000EB5103E1EC5101E1ED5165E0060EEA190A
:103DE00005E1EB5103E1EC5101E1ED5155E0050E28
:103DF000EA1905E1EB5103E1EC5101E1ED5149E034
:103E0000040EEA1905E1EB5103E1EC5101E1ED513A
:103E10003EE0030EEA1905E1EB5103E1EC5101E14B
:103E2000ED5132E0020EEA1905E1EB5103E1EC51EC
:103E300001E1ED511FE0010EEA1905E1EB5103E14B
:103E4000EC5101E1ED5113E0EA5105E1EB5103E1E1
:103E5000EC5101E1ED5101E0EED00601CF0EFB6F18
:103E6000CE0EFC6F000EFD6F4CEC34F0FFD093ECE7
:103E700047F0FCD00601C40EFB6FCE0EFC6F000EA7
:103E8000FD6F4CEC34F0F2D0E6EC47F0EFD0F0D818
:103E9000EDD086EC46F0EAD0070E0D01E56FE66B3B
:103EA0002CEC45F0E3D0060E0D01E56FE66B2CEC33
:103EB00045F0DCD0050E0D01E56FE66B2CEC45F00E
:103EC000D5D0040E0D01E56FE66B2CEC45F0CED09D
:103ED000030E0D01E56FE66B2CEC45F0C7D0020E2A
:103EE0000D01E56FE66B2CEC45F0C0D0010E0D0125
:103EF000E56FE66B2CEC45F0B9D0ACEC46F0B6D0F3
:103F0000010E0D01E96FEA6B040E0D01E76FE86B1E
:103F1000A7EC45F0ABD00D01E96BEA6B040E0D0187
:103F2000E76FE86BA7EC45F0A1D0010E0D01E96F3A
:103F3000EA6B030E0D01E76FE86BA7EC45F096D036
:103F40000D01E96BEA6B030E0D01E76FE86BA7EC5F
:103F500045F08CD0010E0D01E96FEA6B020E0D01E8
:103F6000E76FE86BA7EC45F081D00D01E96BEA6BD8
:103F7000020E0D01E76FE86BA7EC45F077D0010E5C
:103F80000D01E96FEA6B0D01E76FE86BA7EC45F0F7
:103F90006DD00D01E96BEA6B010E0D01E76FE86B67
:103FA000A7EC45F063D060EC46F060D00D01E56B06
:103FB000E66B2CEC45F05AD00D01E36BE46BD7ECCB
:103FC00044F054D0010E0D01E36FE46BD7EC44F0E4
:103FD0004DD0020E0D01E36FE46BD7EC44F046D0F8
:103FE000030E0D01E36FE46BD7EC44F03FD02DECF2
:103FF00046F03CD03AEC48F039D0C5EC49F036D028
:104000004BEC49F033D06EEC49F030D08EEC49F0F7
:104010002DD099EC49F02AD0A4EC49F027D0AFEC90
:1040200049F024D0BAEC49F021D043EC4AF01ED03C
:1040300045EC4AF01BD0040E0201696F6A6B020165
:10404000BF0E666FCE0E676F000E686F0001E45101
:10405000E96EEA6AD890E936EA36DE0EE926000E05
:10406000EA22EE52EFCF65F270EC05F000D01200BC
:1040700002017E0E5F6F0001E451E96EEA6AD8909A
:10408000E936EA36DE0EE926000EEA22EE52EFCFDE
:104090005EF236EC04F000D012000001746975691C
:1040A000E46BE4C014F0156A166A176A030E145C18
:1040B000000E1558000E1658000E175857E2E4511E
:1040C000E96EEA6AD890E936EA36DE0EE926000E95
:1040D000EA22EF6A0201586B500E0201566F576BCD
:1040E0000201556B0201516B526B536B546BA7EC81
:1040F00002F0E66E0001E451E96EEA6AD890E93612
:10410000EA36DE0EE926000EEA22EE52E552E750CC
:10411000EF6EE4517E0DF3CF14F0F4CF15F0166A74
:10412000176A860E14261E0E1522000E162217225E
:1041300014C048F615C049F697EC8DF0F3CF00FB9C
:10414000F4CF01FB7E0E06015F6F606B0601600E0F
:104150005D6F000E5E6F90EC8FF000CB48F601CBE8
:1041600049F697EC8DF00001E42B9BD712000B0170
:10417000C26BC2CB14F0156A166A176A030E145C80
:10418000000E1558000E1658000E175838E2C2518E
:10419000E96EEA6AD890E936EA36DE0EE926000EC4
:1041A000EA22EE52EF50FE0801E126D0C251E96E3C
:1041B000EA6AD890E936EA36DE0EE926000EEA22EF
:1041C000EF5016E1C251E96EEA6AD890E936EA3654
:1041D000DE0EE926000EEA22EE52EFCF74F2C9ECB1
:1041E00006F0F3CF14F0F4CF15F01450151004E0DE
:1041F000C2CBEEF605D863D80B01C22BBAD712009A
:104200000001E4510601EE5D01E158D00001E451E6
:104210007E0DF3CF14F0F4CF15F0166A176A860EF0
:1042200014261E0E1522000E1622172214C048F660
:1042300015C049F697EC8DF0F3CF00FBF4CF01FBEE
:104240007E0E06015F6F606B0601600E5D6F000EF3
:104250005E6F90EC8FF000CB48F601CB49F697ECFF
:104260008DF00601EE517E0DF3CF14F0F4CF15F072
:10427000166A176A860E14261E0E1522000E1622C6
:10428000172214C04AF615C04BF6A5EC8DF0F3CFFB
:1042900000FBF4CF01FB7E0E06015A6F5B6B06013B
:1042A000600E586F000E596F58EC8FF000CB4AF635
:1042B00001CB4BF6A5EC8DF0EEC6E4F012000B013D
:1042C000010E936F0001E451E96EEA6AD890E93675
:1042D000EA36DE0EE926000EEA22EE52EFCF59F260
:1042E0007CEC03F0000938E00001E451E96EEA6A71
:1042F000D890E936EA36DE0EE926000EEA22EF6AA9
:10430000FF0E745D06E074C05CF4D6EC4EF0000164
:104310007469FF0E755D06E075C05CF4D6EC4EF076
:10432000000175690201050EB16F0201AF6BB06B40
:10433000010E0201AD6FAE6B0001E451E96EEA6A55
:10434000D890E936EA36DE0EE926000EEA22EE5271
:10435000EFCFACF2A7EC1AF00001E451E96EEA6A83
:10436000D890E936EA36DE0EE926000EEA22EF5052
:104370000B0A02E13CEF2DF0010A02E1FFEF2CF005
:10438000030A02E1CAEF2CF0010A02E147EF2BF029
:104390000F0A02E166EF29F0010A02E12FEF29F08E
:1043A000030A02E107EF28F0010A02E1F4EF27F027
:1043B000070A02E19BEF27F0010A02E105EF26F070
:1043C000030A4BE0010A02E094EF2DF0E451E96E9C
:1043D000EA6AD890E936EA36DE0EE926000EEA22CD
:1043E000EE52EFCF74F2C9EC06F0F3CF8DFBF4CFB1
:1043F0008EFB0B018D518E112EE000017A0E706F35
:10440000000E716FE451E96EEA6AD890E936EA3637
:10441000DE0EE926000EEA22010EEF6E7769766B5A
:10442000ECECB1F006C068F007C069F008C06AF0B3
:1044300009C06BF08A0E00016827F00E69231B0E7D
:104440006A23000E6B236C696D696E696F69606B1E
:10445000616B626B636B94EF2DF00201996B02014B
:10446000976B986B0201956B966B02010A0E946F25
:104470000001E451E96EEA6AD890E936EA36DE0EC8
:10448000E926000EEA22EE52EFCF93F2B4EC0BF0E5
:10449000F3CF14F0F4CF15F00001141C01E1151C4A
:1044A00054E10001E451E96EEA6AD890E936EA364F
:1044B000DE0EE926000EEA22EE52EFCF7DF204EC8A
:1044C00008F0F3CF14F0F4CF15F01450151011E1EB
:1044D0000001040E786FE451E96EEA6AD890E9367B
:1044E000EA36DE0EE926000EEA22070EEF6E0B0119
:1044F000936BECECB1F006500001685D0750695910
:1045000008506A5909506B591EE2E451E96EEA6A93
:10451000D890E936EA36DE0EE926000EEA22EE529F
:10452000EFCF5BF296EC03F00001E451E96EEA6A2A
:10453000D890E936EA36DE0EE926000EEA220B0EA6
:10454000EF6E0B01936B94EF2DF0ECECB1F006C025
:1045500068F007C069F008C06AF009C06BF08A0E05
:1045600000016827F00E69231B0E6A23000E6B23DF
:104570000201996B0201976B986B0201956B966B28
:104580000201200E946F0001E451E96EEA6AD890AE
:10459000E936EA36DE0EE926000EEA22EE52EFCFC9
:1045A00093F2B4EC0BF0F3CF8DFBF4CF8EFB0B0149
:1045B000050ED8808D55000E8E5503E2050E8D6FC9
:1045C0008E6B010E8D2502017B6F000E0B018E217B
:1045D00002017C6F02017A0E796F000E7A6F000182
:1045E000E451E96EEA6AD890E936EA36DE0EE92649
:1045F000000EEA22EE52EFCF78F256EC07F0030EEF
:10460000E66EE66A100EE66EC90EE66E000EE66E07
:104610007A0EE66E000EE66E21ECA3F0146E070E25
:10462000E15E1450000903E10001786B2CD0040E08
:10463000E66EE66A0B0EE66EC90EE66E000EE66EDC
:104640007A0EE66E000EE66E21ECA3F0146E070EF5
:10465000E15E1450000904E10001010E786F13D0EF
:104660000001060E786FE451E96EEA6AD890E936E7
:10467000EA36DE0EE926000EEA22070EEF6E0B0187
:10468000936B94EF2DF00201996B0201976B986B7D
:104690000201956B966B0201200E946F0001E451AC
:1046A000E96EEA6AD890E936EA36DE0EE926000EAF
:1046B000EA22EE52EFCF93F2B4EC0BF0F3CF8DFB86
:1046C000F4CF8EFB0201996B8DCB97F28ECB98F2D3
:1046D0000201956B966B02013F0E946F0001E4514D
:1046E000E96EEA6AD890E936EA36DE0EE926000E6F
:1046F000EA22EE52EFCF93F2B4EC0BF0F3CF8FFB44
:10470000F4CF90FB0B018F518D5D90518E5901E2DA
:1047100004D08FCB8DFB90CB8EFB590ED8808D555E
:10472000000E8E5513E20001040E786FE451E96E1D
:10473000EA6AD890E936EA36DE0EE926000EEA2269
:10474000070EEF6E0B01936B94EF2DF08DCB7BF288
:104750008ECB7CF202017A0E796F000E7A6F000127
:10476000E451E96EEA6AD890E936EA36DE0EE926C7
:10477000000EEA22EE52EFCF78F256EC07F0F3CFBC
:104780008FFBF4CF90FB7A0E0B018F25E96E000EA4
:104790009021EA6EEF6A06017A0EF06F000EF16F5B
:1047A000FBEC30F0000EE66EC90EE66E000EE66E13
:1047B0007EECA4F0E552E552E55207C014F008C0C3
:1047C00015F014C0E6FF15C0E6FF000EE66EC90E38
:1047D000E66E000EE66E7B0EE66E000EE66E21ECD7
:1047E000A3F0166E070EE15E1650000926E10D01DA
:1047F0007B0E046F000E056F0D01026B036B0D0144
:10480000006B016BFAEC34F00001776F785103E133
:10481000070E786F02D0080E786FE451E96EEA6AED
:10482000D890E936EA36DE0EE926000EEA22020EBC
:10483000EF6E0B01936B94EF2DF08FCBE9FF90CBD4
:10484000EAFFE906000EEA5A7A0EE926000EEA228D
:10485000EF502F0809E004017B0E556F000E566FD4
:1048600091EC4AF00001746FFF0E0001745D01E0ED
:1048700086D08FCBE9FF90CBEAFFE906000EEA5A1B
:104880007A0EE926000EEA22EF502F080EE00B0107
:104890008FCBE9FF90CBEAFF8F2B000E90237A0E8F
:1048A000E926000EEA222F0EEF6E0001E451E96EB8
:1048B000EA6AD890E936EA36DE0EE926000EEA22E8
:1048C000EE52EFCFB5F2ACEC1BF0000928E0F60E8B
:1048D000E66EC80EE66E000EE66E7A0E0B018F25B0
:1048E000146E000E9021156E14C0E6FF15C0E6FF91
:1048F00057ECA4F0166E050EE15E1650F60EE66E4D
:10490000C80EE66E000EE66E7EECA4F0E552E552AF
:10491000E55207500B018F270850902327D0F60E41
:10492000E66EC80EE66E000EE66E7A0E0B018F255F
:10493000146E000E9021156E14C0E6FF15C0E6FF40
:1049400057ECA4F0166E050EE15E1650F60EE66EFC
:10495000C80EE66E000EE66E7EECA4F0E552E5525F
:10496000E55207500B018F270850902304017B0E5E
:10497000556F000E566F91EC4AF00001746F7A0E7D
:104980000B018F25946F000E9021956F010E945F9F
:10499000000E955B7A0E941902E1000E95190CE059
:1049A00094CBE9FF95CBEAFFEF502E0801E104D04C
:1049B0009407000E955BEED7942B000E9523000113
:1049C000796B0B0EE76E7919E8AE02D0E73402D0AE
:1049D000E750795D24E279C0E9FFEA6AE9BEEA6856
:1049E000030EEA02F3CFEAFFE902F3CFE9FFF45046
:1049F000EA26820EE926040EEA22EECFC4F5EECFB7
:104A0000C5F5EFCFC6F594CBC2F595CBC3F513EC46
:104A100075F0000901E103D00001792BD2D70D0117
:104A20007B0E046F000E056F0D01026B036B0D0111
:104A3000006B016BFAEC34F00001776FFF0E745DD0
:104A40001DE074C076F436EC54F0F350020B16E01F
:104A50008FCBE9FF90CBEAFFE906000EEA5A7A0E07
:104A6000E926000EEA22230EEF6E04017B0E556F3D
:104A7000000E566F91EC4AF00001756F0201996BC0
:104A80000201976B986B0201956B966B0201200EE9
:104A9000946F0001E451E96EEA6AD890E936EA368B
:104AA000DE0EE926000EEA22EE52EFCF93F2B4ECCE
:104AB0000BF0F3CF8DFBF4CF8EFB0B018D518E11DC
:104AC0005BE00001010E766F0201910E766F0B0E16
:104AD000776F0001E451E96EEA6AD890E936EA3668
:104AE000DE0EE926000EEA22EE52EFCF75F200EC60
:104AF00007F00B018D07000E8E5B620E8D5D000EC0
:104B00008E5913E30001040E786FE451E96EEA6AEE
:104B1000D890E936EA36DE0EE926000EEA22070EC4
:104B2000EF6E0B01936B94EF2DF08DCB7BF28ECB60
:104B30007CF202017A0E796F000E7A6F0001E45167
:104B4000E96EEA6AD890E936EA36DE0EE926000E0A
:104B5000EA22EE52EFCF78F256EC07F0F350000164
:104B60007027F450712370C0E9FF71C0EAFF702B09
:104B7000000E7123260EEF6E0201996B0201976BF6
:104B8000986B0201956B966B02010A0E946F0001FF
:104B9000E451E96EEA6AD890E936EA36DE0EE92693
:104BA000000EEA22EE52EFCF93F2B4EC0BF0F3CF0B
:104BB0008DFBF4CF8EFB010E0B018D2502017B6F67
:104BC000000E0B018E2102017C6F0201796B7A6B62
:104BD0000001E451E96EEA6AD890E936EA36DE0E61
:104BE000E926000EEA22EE52EFCF78F256EC07F0FB
:104BF0000001E451E96EEA6AD890E936EA36DE0E41
:104C0000E926000EEA22020EEF6E0201996B020104
:104C1000976B986B0201956B966B02010A0E946F6D
:104C20000001E451E96EEA6AD890E936EA36DE0E10
:104C3000E926000EEA22EE52EFCF93F2B4EC0BF02D
:104C4000F3CF8DFBF4CF8EFB0B018D1D01E18E1D8B
:104C500053E10001E451E96EEA6AD890E936EA3698
:104C6000DE0EE926000EEA22EE52EFCF7DF204ECD2
:104C700008F0F3CF14F0F4CF15F01450151011E133
:104C80000001040E786FE451E96EEA6AD890E936C3
:104C9000EA36DE0EE926000EEA22070EEF6E0B0161
:104CA000936BECECB1F006500001685D0750695958
:104CB00008506A5909506B591EE2E451E96EEA6ADC
:104CC000D890E936EA36DE0EE926000EEA22EE52E8
:104CD000EFCF5BF296EC03F00001E451E96EEA6A73
:104CE000D890E936EA36DE0EE926000EEA220B0EEF
:104CF000EF6E0B01936B1DD1ECECB1F006C068F0C8
:104D000007C069F008C06AF009C06BF08A0E0001A4
:104D10006827F00E69231B0E6A23000E6B230B011C
:104D2000010E8D1901E18E5127E1020E02017B6F08
:104D30007C6B0201796B7A6B0001E451E96EEA6ADF
:104D4000D890E936EA36DE0EE926000EEA22EE5267
:104D5000EFCF78F256EC07F00001E451E96EEA6A11
:104D6000D890E936EA36DE0EE926000EEA22030E76
:104D7000EF6E0B01936BDDD00201996B8DCB97F237
:104D80008ECB98F20201956B966B02013A0E946FEE
:104D90000001E451E96EEA6AD890E936EA36DE0E9F
:104DA000E926000EEA22EE52EFCF93F2B4EC0BF0BC
:104DB000F3CF8FFBF4CF90FB020E0B018F27000E79
:104DC0009023936B100ED8808F55000E90551DE2E6
:104DD000010E8D2502017B6F000E0B018E21020159
:104DE0007C6F0201796B7A6B0001E451E96EEA6A2B
:104DF000D890E936EA36DE0EE926000EEA22EE52B7
:104E0000EFCF78F256EC07F000D78FCB7BF290CB48
:104E10007CF20201960E796F0B0E7A6F0001E4515D
:104E2000E96EEA6AD890E936EA36DE0EE926000E27
:104E3000EA22EE52EFCF78F256EC07F08FCBE9FF83
:104E400090CBEAFFE906000EEA5A960EE9260B0E11
:104E5000EA22EF6A0B018F518D5F90518E5B926B4E
:104E6000030E925D27E29251030DF3CFE9FFF4CFD9
:104E7000EAFFF10EE926040EEA22EECFE6FFEECFBE
:104E8000E6FFEFCFE6FF960EE66E0B0EE66E20EC29
:104E9000A4F0146E050EE15E1450000908E192CBF7
:104EA000EFF6AEEC2EF00B01010E936F03D00B0169
:104EB000922BD6D793511FE00201996B0201976B99
:104EC000986B0201956B966B02010A0E946F0001BC
:104ED000E451E96EEA6AD890E936EA36DE0EE92650
:104EE000000EEA22EE52EFCF93F2B4EC0BF0F3CFC8
:104EF0008DFBF4CF8EFB010E0B018D2502017B6F24
:104F0000000E0B018E2102017C6F0201796B7A6B1E
:104F10000001E451E96EEA6AD890E936EA36DE0E1D
:104F2000E926000EEA22EE52EFCF78F256EC07F0B7
:104F30006CD694EF2DF0800E775D12E2020E786F42
:104F4000E451E96EEA6AD890E936EA36DE0EE926DF
:104F5000000EEA22070EEF6E0B01936B94EF2DF01B
:104F600070C0E9FF71C0EAFFEF6A06017A0EF06FC8
:104F7000000EF16FFBEC30F0F3CF70F0F4CF71F076
:104F8000070E0001785D10E1E451E96EEA6AD890FD
:104F9000E936EA36DE0EE926000EEA22070EEF6E4B
:104FA0000B01936B94EF2DF0E451E96EEA6AD8900F
:104FB000E936EA36DE0EE926000EEA22040EEF6E2E
:104FC00076510CE1E451E96EEA6AD890E936EA36A6
:104FD000DE0EE926000EEA22050EEF6E0B01936B42
:104FE0000001766B94EF2DF041EC35F0020802E100
:104FF00094EF2DF00001E451E96EEA6AD890E936A9
:10500000EA36DE0EE926000EEA22050EEF6EE451C6
:10501000E96EEA6AD890E936EA36DE0EE926000E35
:10502000EA22EE52EFCF74F2C9EC06F0F3CF14F09F
:10503000F4CF15F0166A176A145000016C1909E1D3
:1050400015506D1906E116506E1903E117506F19CE
:1050500000E12CE1ECECB1F006500001685D075076
:10506000695908506A5909506B5920E2E451E96EB8
:10507000EA6AD890E936EA36DE0EE926000EEA2220
:10508000EE52EFCF5BF296EC03F00001E451E96ED3
:10509000EA6AD890E936EA36DE0EE926000EEA2200
:1050A0000B0EEF6E0B01936B94EF2DF0780517E06C
:1050B000080EE76E7819E8AE02D0E73402D0E75068
:1050C000785D01E2BFD00A0EE76E7819E8AE02D033
:1050D000783503D0E750D880785501E2B3D0080E78
:1050E000E76E7819E8AE02D0E73402D0E750785D79
:1050F00023E30A0EE76E7819E8AE02D0783503D0C4
:10510000E750D880785518E351EC32F00B01916FDD
:10511000915111E10001E451E96EEA6AD890E93653
:10512000EA36DE0EE926000EEA22070EEF6E0B01CC
:10513000936B94EF2DF004D05AEC36F00B01916F85
:10514000020E915D1EE10001E451E96EEA6AD89019
:10515000E936EA36DE0EE926000EEA22EE52EFCFFD
:1051600074F2C9EC06F0F3CF6CF0F4CF6DF00001EF
:10517000010E6C5F000E6D5B6E6B6F6B94EF2DF02C
:1051800061D091055FE10001E451E96EEA6AD890CF
:10519000E936EA36DE0EE926000EEA22EE52EFCFBD
:1051A00074F2C9EC06F0F3CF6CF0F4CF6DF00001AF
:1051B0006E6B6F6BECECB1F006C068F007C069F085
:1051C00008C06AF009C06BF08A0E00016827F00E73
:1051D00069231B0E6A23000E6B23D8806055000ED6
:1051E0006155000E6255000E635519E2E451E96EF7
:1051F000EA6AD890E936EA36DE0EE926000EEA229F
:10520000EE52EFCF7DF204EC08F0F3CF14F0F4CFC0
:1052100015F01450151003E094EF2DF013D0000199
:10522000050E786FE451E96EEA6AD890E936EA36FD
:10523000DE0EE926000EEA22070EEF6E0B01936BDD
:1052400094EF2DF00001E451E96EEA6AD890E93656
:10525000EA36DE0EE926000EEA22060EEF6EFF0E9B
:10526000745D12E1030E786FE451E96EEA6AD8903A
:10527000E936EA36DE0EE926000EEA22070EEF6E68
:105280000B01936B94EF2DF0606B616B626B636B42
:10529000FF0E755D05E1646965696669676909D036
:1052A0000401640E716F000E726F75C070F453ECE0
:1052B00053F00001E451E96EEA6AD890E936EA3623
:1052C000DE0EE926000EEA22070EEF6E0201020E44
:1052D000B16F0201AF6BB06B010E0201AD6FAE6B2F
:1052E0000001E451E96EEA6AD890E936EA36DE0E4A
:1052F000E926000EEA22EE52EFCFACF2A7EC1AF04C
:1053000078C0E9FFEA6AE9BEEA68030EEA02F3CF71
:10531000EAFFE902F3CFE9FFF450EA26CA0EE926D4
:10532000040EEA22EECF6FF2EECF70F2EFCF71F201
:105330000001E451E96EEA6AD890E936EA36DE0EF9
:10534000E926000EEA22EE52EFCF6EF259EC06F09B
:105350000B0E0001785D58E102017A0E6C6F000EB1
:105360006D6F0001E451E96EEA6AD890E936EA36D9
:10537000DE0EE926000EEA22EE52EFCF6BF239EC98
:1053800006F00201E30E6F6FC80E706F000E716FB2
:105390000001E451E96EEA6AD890E936EA36DE0E99
:1053A000E926000EEA22EE52EFCF6EF259EC06F03B
:1053B00002017A0E6C6F000E6D6F0001E451E96E10
:1053C000EA6AD890E936EA36DE0EE926000EEA22CD
:1053D000EE52EFCF6BF239EC06F00201A20E6F6FC6
:1053E000670E706F010E716F0001E451E96EEA6A99
:1053F000D890E936EA36DE0EE926000EEA22EE52B1
:10540000EFCF6EF259EC06F0000178510FE078050D
:105410000DE0E451E96EEA6AD890E936EA36DE0E2C
:10542000E926000EEA220B0EEF6E7ED30B0E795D9D
:1054300056E00201D40E6F6FC80E706F000E716FD0
:105440000001E451E96EEA6AD890E936EA36DE0EE8
:10545000E926000EEA22EE52EFCF6EF259EC06F08A
:1054600079C0E9FFEA6AE9BEEA68030EEA02F3CF0F
:10547000EAFFE902F3CFE9FFF450EA26A60EE92697
:10548000040EEA22EECF6FF2EECF70F2EFCF71F2A0
:105490000001E451E96EEA6AD890E936EA36DE0E98
:1054A000E926000EEA22EE52EFCF6EF259EC06F03A
:1054B0000201A20E6F6F670E706F010E716F000117
:1054C000E451E96EEA6AD890E936EA36DE0EE9265A
:1054D000000EEA22EE52EFCF6EF259EC06F074C0E5
:1054E00076F436EC54F0F350010B17E00201BB0EDA
:1054F0006F6FC80E706F000E716F0001E451E96E9E
:10550000EA6AD890E936EA36DE0EE926000EEA228B
:10551000EE52EFCF6EF259EC06F00201AB0E6F6F58
:10552000C80E706F000E716F0001E451E96EEA6AF7
:10553000D890E936EA36DE0EE926000EEA22EE526F
:10554000EFCF6EF259EC06F0000178050CE0E86848
:10555000641908E1E868651905E1E868661902E17F
:10556000E868671918E00201A20E6F6FC80E706F2D
:10557000000E716F0001E451E96EEA6AD890E936D5
:10558000EA36DE0EE926000EEA22EE52EFCF6EF288
:1055900059EC06F02ED00201990E6F6FC80E706F95
:1055A000000E716F0001E451E96EEA6AD890E936A5
:1055B000EA36DE0EE926000EEA22EE52EFCF6EF258
:1055C00059EC06F00201950E6F6FC80E706F000E59
:1055D000716F0001E451E96EEA6AD890E936EA3663
:1055E000DE0EE926000EEA22EE52EFCF6EF259EC03
:1055F00006F00201A20E6F6F670E706F010E716FE1
:105600000001E451E96EEA6AD890E936EA36DE0E26
:10561000E926000EEA22EE52EFCF6EF259EC06F0C8
:10562000000176510DE0E451E96EEA6AD890E9365E
:10563000EA36DE0EE926000EEA22080EEF6E24D0CE
:105640000201A20E6F6F670E706F010E716F000185
:10565000E451E96EEA6AD890E936EA36DE0EE926C8
:10566000000EEA22EE52EFCF6EF259EC06F0000186
:10567000E451E96EEA6AD890E936EA36DE0EE926A8
:10568000000EEA22090EEF6E0B01936B4DD27A0EDB
:10569000726F000E736F765101E158D10201880ECE
:1056A0006F6FC80E706F000E716F0001E451E96EEC
:1056B000EA6AD890E936EA36DE0EE926000EEA22DA
:1056C000EE52EFCF6EF259EC06F0000172C0E9FF26
:1056D00073C0EAFF722B000E7323EFCF91FBEF50E4
:1056E00001E17DD0200E0B01915D14E102012B0E32
:1056F0005F6F0001E451E96EEA6AD890E936EA3654
:10570000DE0EE926000EEA22EE52EFCF5EF236EC14
:1057100004F064D0300E915D0FE39151390803E23B
:10572000410E915D09E391515A0803E2610E915DCA
:1057300003E391517A0840E20201250E5F6F0001F8
:10574000E451E96EEA6AD890E936EA36DE0EE926D7
:10575000000EEA22EE52EFCF5EF236EC04F091CB6F
:10576000C0F5F6EC74F002015F6F0001E451E96EE0
:10577000EA6AD890E936EA36DE0EE926000EEA2219
:10578000EE52EFCF5EF236EC04F091CBC1F505ECB2
:1057900075F002015F6F0001E451E96EEA6AD8908A
:1057A000E936EA36DE0EE926000EEA22EE52EFCFA7
:1057B0005EF236EC04F012D091CB5FF20001E451BE
:1057C000E96EEA6AD890E936EA36DE0EE926000E7E
:1057D000EA22EE52EFCF5EF236EC04F076D7020109
:1057E0003D0E5F6F0001E451E96EEA6AD890E93638
:1057F000EA36DE0EE926000EEA22EE52EFCF5EF226
:1058000036EC04F0000172C0E9FF73C0EAFF722BAE
:10581000000E7323EFCF91FBEF5001E17DD0200EFE
:105820000B01915D14E102012B0E5F6F0001E45149
:10583000E96EEA6AD890E936EA36DE0EE926000E0D
:10584000EA22EE52EFCF5EF236EC04F064D0300E76
:10585000915D0FE39151390803E2410E915D09E337
:1058600091515A0803E2610E915D03E391517A0868
:1058700040E20201250E5F6F0001E451E96EEA6A21
:10588000D890E936EA36DE0EE926000EEA22EE521C
:10589000EFCF5EF236EC04F091CBC0F5F6EC74F08D
:1058A00002015F6F0001E451E96EEA6AD890E936BF
:1058B000EA36DE0EE926000EEA22EE52EFCF5EF265
:1058C00036EC04F091CBC1F505EC75F002015F6F89
:1058D0000001E451E96EEA6AD890E936EA36DE0E54
:1058E000E926000EEA22EE52EFCF5EF236EC04F02B
:1058F00012D091CB5FF20001E451E96EEA6AD890D0
:10590000E936EA36DE0EE926000EEA22EE52EFCF45
:105910005EF236EC04F076D70201A20E6F6F670ECE
:10592000706F010E716F0001E451E96EEA6AD89060
:10593000E936EA36DE0EE926000EEA22EE52EFCF15
:105940006EF259EC06F000017607A5D60201A20E10
:105950006F6F670E706F010E716F0001E451E96E99
:10596000EA6AD890E936EA36DE0EE926000EEA2227
:10597000EE52EFCF6EF259EC06F00001E451E96E01
:10598000EA6AD890E936EA36DE0EE926000EEA2207
:10599000090EEF6E0B01936BCDD8000915E074C0B2
:1059A0005CF4D6EC4EF000017469E451E96EEA6AE9
:1059B000D890E936EA36DE0EE926000EEA220B0E12
:1059C000EF6E0B01010E936F0001E451E96EEA6A7C
:1059D000D890E936EA36DE0EE926000EEA22EE52CB
:1059E000EFCF5DF2F3EC03F0F3CF14F0F4CF15F04A
:1059F0001450151003E10B01010E936F95D00B01AC
:105A0000010E936F0001E451E96EEA6AD890E9361D
:105A1000EA36DE0EE926000EEA22EE52EFCF5DF204
:105A2000F3EC03F0F3CF14F0F4CF15F0100E145C88
:105A3000000E155801E278D068C0EAF669C0EBF6AE
:105A40006AC0ECF66BC0EDF6A5EC1DF000016C51E0
:105A50006D116E116F110FE10B01936B0001E45199
:105A6000E96EEA6AD890E936EA36DE0EE926000EDB
:105A7000EA22090EEF6E58D0E451E96EEA6AD89036
:105A8000E936EA36DE0EE926000EEA22EE52EFCFC4
:105A9000B5F2ACEC1BF0000918E00001E451E96E2E
:105AA000EA6AD890E936EA36DE0EE926000EEA22E6
:105AB000EE52EFCF72F288EC06F0F3CF14F0F4CF91
:105AC00015F01450151001E02FD0FF0E0001745D89
:105AD00006E074C05CF4D6EC4EF000017469FF0E71
