:0400000016EF00F007
:0C000800FACFF3FEFBCFF2FE32ED63F006
:10001800D8CFD6FEE0CF10F0FACFD5FEFBCFD4FE76
:10002800F9EF62F000EE0FF014EEEBF039EC00F0AF
:100038000DEE50F011EE68F039EC00F00CEE82F0A5
:10004800900EF66E010EF76EF86A10EECEF040ECE8
:1000580000F001EE00F0920EF66E000EF76E10EE54
:10006800FEF040EC00F0A6EF63F0EE6AE550E150D8
:10007800FCE1E250FAE112000900F5CFEEFFE5508D
:10008800E150FAE1E250F8E11200500000000000EF
:100098000000000000000000000000000000000058
:1000A8000000000000000000000000000000000048
:1000B8000000000000000000000000000000000038
:1000C8000000000000000000000000000000000028
:1000D8000000000000000000000000000000000018
:1000E8000000000000000000000000000000000008
:1000F80000000000000000000000000000000000F8
:1001080000000000000000000000000000000000E7
:1001180000000000000000000000000000000000D7
:1001280000000000000000000000000000000000C7
:1001380000000000000000000000000000000000B7
:1001480000000000000000000000000000000000A7
:100158000000000000000000000000000000000097
:100168000000000000000000000000000000000087
:100178000000000000000000000000000000000077
:10018800000000000000000000000100FF0100FF67
:100198000F7777772E676F6F676C652E636F6D00CB
:1001A800FE04003D126F128112861278124612A9BF
:1001B8001294128A12E41239127D184A127C127CA7
:1001C800127C1273124112A3128E1298125512AD9C
:1001D800128018521652162417D617CA16DC15772D
:1001E80016F612801803149D149115921772155360
:1001F800156215000000FFFE0000FEFEFEFEFE0078
:10020800EC0DEC0DDB0DDB0D00FEFFFFFF006A6F50
:10021800654070696373617265676F6F642E636FA1
:100228006D004D6573736167652067656E65726102
:1002380074656420627920737461636B2076342E50
:100248003138200D0A0D0A427574746F6E733A20A6
:100258003332313000008A8693969496949A948823
:10026800200EC66E9E960F01C78DC79F1D0EEEEC21
:1002780006F00001436F43B7F9D743C000F0016AA5
:10028800001C026E011C036E02B0F0D7E4EC06F00D
:10029800010E0001446F456BFBEC9EF0010EE8CFA8
:1002A80057FD04EEF0F0EE6AEE6A0001FC6B080EF2
:1002B8004DEC07F00001FC6B090E4DEC07F0830EC6
:1002C8000001FC6F0C0E4DEC07F00A0E0001FC6FEC
:1002D8000D0E4DEC07F0830E0001FC6F0A0E4DEC7D
:1002E80007F00A0E0001FC6F0B0E4DEC07F0840EB0
:1002F8000001FC6F040E4DEC07F00A0E0001FC6FC4
:10030800050E4DEC07F0840E0001FC6F020E4DEC5B
:1003180007F00A0E0001FC6F030E4DEC07F0000E0B
:1003280072EC06F00001E26B020EE36FAFEC07F02F
:100338000D0E0001FC6F000E4DEC07F0320E0001AF
:10034800FC6F020E4DEC07F0120E0001FC6F040E5C
:100358004DEC07F0400E0001FC6F030E4DEC07F06A
:100368003F0E0001FC6F090E4DEC07F0120E000164
:10037800FC6F060E4DEC07F00C0E0001FC6F070E2B
:100388004DEC07F0EE0E0001FC6F0A0E4DEC07F085
:10039800050E0001FC6F0B0E4DEC07F00001040E7A
:1003A800E26F030EE36FAFEC07F088C4FCF0040EB5
:1003B8004DEC07F089C4FCF0050E4DEC07F08AC43B
:1003C800FCF0020E4DEC07F08BC4FCF0030E4DEC74
:1003D80007F08CC4FCF0000E4DEC07F08DC4FCF067
:1003E800010E4DEC07F00001FC6B150E4DEC07F00B
:1003F800120EEEEC06F0E8CF56FD0001446B010E3C
:10040800456F100E8CEC07F00001720E446F340E2D
:10041800456F140E8CEC07F00001446B456B000E21
:100428008CEC07F00001E26BE36BAFEC07F0D5EF63
:1004380007F0010E16EC07F00030026E0230010BD7
:1004480012001F0EEEEC06F0006E000E00A6010E64
:1004580012000D015753D8A41200010EE8CF57FD22
:10046800F0C400F0F1C401F0FF0E00240001996F00
:10047800FF0E01209A6F0A0E9A5D840ED8B4995D1A
:1004880004E3830E996F0A0E9A6F400E0001F26F13
:100498001E0E77EC07F000019951FC6F0C0E4DEC25
:1004A80007F000019A51FC6F0D0E4DEF07F00001A7
:1004B800190EE26F010EE36FAFEC07F0190EEEECC8
:1004C80006F00001E06F0E0EE26FE36BAFEC07F091
:1004D8000E0EEEEC06F00001DE6F0F0EEEEC06F0ED
:1004E8000001DF6F190EE26F010EE36FAFEC07F04A
:1004F800190EEEEC06F00001E019E0E10C0EE26FD7
:10050800E36BAFEC07F00C0EEEEC06F00001E06FC9
:100518000D0EEEEC06F00001E16FDF51E15D02E146
:10052800DE51E05D11E2DEC002F0DFC003F0E05111
:10053800025EE151035A830E006E0A0E016E0250EC
:10054800005E0350015A12000001E151DF1902E177
:10055800E051DE1905E1830E006E0A0E016E1200ED
:10056800E0C000F0E1C001F00001DE51005EDF51A3
:10057800015AFF0E00060120016E12004B00000117
:10058800190EE26F010EE36FAFEC07F0190EEEECF7
:1005980006F000014F6FE26BE36BAFEC07F0000170
:1005A8004F5101E1000C0D01575302E152DF000CDD
:1005B800F0C4EEF4F1C4EFF4EEC4FCF0000E4DEC20
:1005C80007F0EFC4FCF0010E4DEC07F00001500EEF
:1005D800FC6F000EFD6F140EFE6FFF6B4CDB62C0EC
:1005E800F9F063C0FAF035EC6DF000C062F001C0BC
:1005F80063F000EE50F0EE520A0EED5C840ED8B4B3
:10060800EF5C14E2000150B111D0000155BF0ED0CB
:10061800000154B90BD000EE52F0EE52050EED5C1D
:10062800EF0ED8B4EF5C02E2000154AFFF0050C0F7
:10063800F0F451C0F1F44BC0E6F04CC0E7F0000113
:100648005C0EE86F000EE96F060EEA6FEB6B4FEC7D
:100658009EF04DC0E1FF4EC0E2FFFF0EE76E0001C5
:100668006351080A07E1625103E06251060AD8B4EF
:1006780062C0E7FF0D01576B010CF700850E000102
:10068800FC6F020E4DEC07F00A0E0001FC6F030E22
:100698004DEC07F00001920EFA270A0EFB23FA51DF
:1006A800FC6F060EF6DB0001FB51FC6F070EF1DB59
:1006B800F7C0FCF0F8C0FDF0060E0001FE6FFF6BFE
:1006C80021DB0001880EFC6F040EFD6F060EFE6F25
:1006D800FF6B18DB080E02DB0001F95102E0060E81
:1006E800FDD2000EFBD2800E0001F26F1F0EFBDB65
:1006F800800E0001F26F1F0EE1DB0A0E0001F26F9F
:100708001C0EDCDB080E0001F26F1F0EECDB56CD71
:10071800E8FF050A05E056CDE8FF070AD8A412004D
:100728000001DE6BDF6B1C0E55DB0A0B0EE1DE0EE3
:10073800E96E000EEA6EEE2A000EED22EE52030E6E
:10074800ED5CE80ED8B4EF5CEEE31C0E43DB006E04
:1007580000B208D00001030EDF5DE80ED8B4DE5DFC
:10076800D8A01200080E0001F26F1F0EA7DB000EC2
:1007780031DB0001E16F010E2DDB0001E26F060E97
:1007880029DB0001E36F070E25DB0001E46FE34B73
:10079800E42BE351FC6F000E7CDB0001E451FC6F9D
:1007A800010E77DB0001E50EFC6F000EFD6F070EF2
:1007B800FE6FFF6B60DA0001E06B1C0E0BDB006E56
:1007C80000A238D00001E8AB35D0800E0001F26FEE
:1007D8001F0E89DB800E0001F26F1F0E6FDB0A0E01
:1007E8000001F26F1C0E6ADB080E0001F26F1F0E8B
:1007F8007ADB1C0EEFDA0A0BFCE0080E0001F26F40
:100808001F0E5CDB0001E351FC6F000E42DB0001B0
:10081800E451FC6F010E3DDB0001E50EFC6F000E9C
:10082800FD6F070EFE6FFF6B26DA0001E02B0F0E3F
:10083800E065C3D70001E151FC6F000E2ADB00011F
:10084800E251FCD19B00EEC400F0EFC401F00001BE
:100858009B5100269C510122140E00249D6F000E0E
:1008680001209E6F0A0E9E5D840ED8B49D5D04E340
:100878007C0E9D27F50E9E2300019D51FC6F000EF6
:1008880008DB00019E51DAD1E600020EA3DA00016E
:10089800E86F030E9FDA0001E96FE651FC6F020E64
:1008A800F8DA0001E751FC6F030EF3DAE8C000F054
:1008B800E9C001F01200E600000E8CDA0001E86FD2
:1008C800010E88DA0001E96FE651FC6F000EE1DAEB
:1008D8000001E751FC6F010EDCDAE8C000F0E9C066
:1008E80001F012006900EEC400F0EFC401F000014D
:1008F800695100266A510122140E00246F6F000E00
:100908000120706F0A0E705D840ED8B46F5D04E329
:100918007C0E6F27F50E7023000E5CDA00016D6FF8
:10092800010E58DA00016E6F6F51FC6F000EB1DADC
:1009380000017051FC6F010EACDA6BC0DEF06CC0C8
:10094800DFF014D800C06FF001C070F000016D51E5
:10095800FC6F000E9EDA00016E51FC6F010E99DAF1
:100968006FC000F070C001F01200DE000001E46BFF
:10097800E56BE66BE76B000E2DDA0001E06F010E08
:1009880029DA0001E16F0001DF51DE114EE0000EAF
:10099800DF5D150ED8B4DE5D05E2DEC000F0DFC015
:1009A80001F003D0140E006E016A00C0E2F001C02D
:1009B800E3F0E80EFC6F000EFD6FE2C0FEF0E3C04E
:1009C800FFF059D90001E251DE5FE351DF5BE2A19C
:1009D80009D000EEE8F0E251E926E351EA22EF6A95
:1009E800E24BE32BE80EE16E000EE26E0001E351EC
:1009F800E211C9E0E1CFE9FFE2CFEAFF020EE1260A
:100A0800000EE222EECF00F0EDCF01F0026A036A99
:100A18000050E4270150E5230250E6230350E72362
:100A2800FE0EE227FF0EE323E1D7E051FC6F000E34
:100A380030DA0001E151FC6F010E2BDA0001E451BC
:100A4800E625E46FE551E721E56FE66BD8B0E62BC4
:100A5800E76BE651E427E751E523E41D006EE51D49
:100A6800016E1200E6000001ED6BEC6BE7AF0AD0F7
:100A7800010EED6F020EAED90001E66F030EAAD982
:100A88000001E76F0001E9AF0AD0010EEC6F000E1C
:100A9800A1D90001E86F010E9DD90001E96F00019D
:100AA800000EEB5D020ED8B4EA5D50E2EC5108E1AD
:100AB800000E90D90001EE6F010E8CD90001EF6F86
:100AC8000001ED5108E1020E85D90001F06F030E17
:100AD80081D90001F16F0001E851FC6F000ED9D9EE
:100AE8000001E951FC6F010ED4D90001E651FC6FF9
:100AF800020ECFD90001E751FC6F030ECAD90001DD
:100B0800EA51006EEB51016EEA07000EEB5B0150F3
:100B1800001003E09DD8E2D8F2D70001EC5109E1BA
:100B2800EE51FC6F000EB5D90001EF51FC6F010EBC
:100B3800B0D90001ED51D8A41200F051FC6F020E9B
:100B4800A8D90001F151FC6F030EA3D10001ED51AA
:100B58000FE0EA51E625F06FEB51E721F16FF05114
:100B6800FC6F020E96D90001F151FC6F030E91D96A
:100B78000001FF0EE825006EFF0EE921016E00500E
:100B8800EA270150EB231F0E25D9006E00BAFBD7C8
:100B98000001E851FC6F100E7CD90001E951FC6F8F
:100BA800110E77D90001E651FC6F140E72D90001BD
:100BB800E751FC6F150E6DD900010A0EE95D840E30
:100BC800D8B4E85D0AE20A0EEB5D840ED8B4EA5D9B
:100BD80005E37C0EEA27F50EEB230001EA51FC6FD2
:100BE800120E57D90001EB51FC6F130E52D9100E9B
:100BF8000001F26F1F0E62D9200E0001F26F1F0E66
:100C080072D90001EC51D8B41200EA4BEB2B0A0E52
:100C1800E95D840ED8B4E85D0AE20A0EEB5D840E45
:100C2800D8B4EA5D05E37C0EEA27F50EEB23000154
:100C3800EA51FC6F000E2DD90001EB51FC6F010E3B
:100C480028D11F0EC7D8006E000E00AA010E120090
:100C58008A969E963A0EC96E9EA6FED7C950D96E40
:100C68009E96C96A9EA6FED79E96C950D96E8A8658
:100C7800D9501200FC00FCC0E1FFFDC0E2FFFEC03D
:100C8800F3FFFFC0F4FFD968F350006EF450016E13
:100C9800F306000EF45A0150001019E0D9A009D04B
:100CA8008A86D9908A969E963A0EC96E9EB602D0CA
:100CB800FDD7D9689E96C96AE250E11005E09EA664
:100CC800FED7C9CFE6FFE0D79EB6DED7FDD78A8626
:100CD8009E96FEC000F0FFC001F01200D96E8A9601
:100CE8009E967A0EC96E9EA6FED7C950E16E9E9654
:100CF800D9CFC9FF9EA6FED7C950D96E9E968A86BF
:100D08001200FC00FCC0E1FFFDC0E2FFFEC0F3FFE3
:100D1800FFC0F4FFD968F350006EF450016EF3067B
:100D2800000EF45A0150001012E0D9A009D08A86AA
:100D3800D9908A969E967A0EC96E9EB602D0FDD735
:100D4800D9689E96E6CFC9FF9EB6E5D7FDD79E9691
:100D58008A8612009C009EC0F3FF9FC0F4FFD968EA
:100D6800F350F66EF450F76EF306000EF45AF7508F
:100D7800F61023E0D9A009D08A86D9908A969E9643
:100D88007A0EC96E9EB602D0FDD7D9689E969CC0D1
:100D9800F6FF9DC0F7FF0F0EF76403D00800F5506B
:100DA80005D0F6CFE9FFF7CFEAFFEF50C96E000193
:100DB8009C4B9D2B9EB6D4D7FDD79E968A86120053
:100DC8008A969E96C9689EA6FED7C950D96E9E96E9
:100DD8008A8612008A969E96C96E9EA6FED7C9502C
:100DE800D96E9E96C96A9EA6FED7C950D96E9E96A0
:100DF8008A86D95012008A969E96C96E9EA6FED7FC
:100E0800C950D96E9E96C96A9EA6FED7C950D96E9A
:100E18009E96C96A9EA6FED7C950D96E9E968A86A6
:100E2800D950120000014B6F140EE26F020EE36FEF
:100E380092D800014B51FC6F140E2BD8010E000103
:100E4800FC6F120E26D800010A0EE26F030EE36F44
:100E580082D80A0ED0DF006E00B0FBD70001140E56
:100E6800E26F020EE36F77D80001FC6B120E11D807
:100E7800180EC1DF00014C6F190EBDDF00014D6F68
:100E8800E26BE36B68D84CC000F04DC001F0120073
:100E9800FC00D96E8A969E96D9504009C96E9EA6C6
:100EA800FED7C950D96E9E96FCC0C9FF9EA6FED734
:100EB800C950D96E9E968A861200F200D96E8A961B
:100EC8009E96D950A009C96E9EA6FED7C950D96E64
:100ED8009E96F2C0C9FF9EA6FED7C950D96E9E96AF
:100EE8008A861200F200D96E8A969E96D950800999
:100EF800C96E9EA6FED7C950D96E9E96F2C0C9FF8C
:100F08009EA6FED7C950D96E9E968A8612004400C6
:100F18000001466F140EE26F020EE36F1CD8000149
:100F28004651FC6F140EB5DF00014451FC6F160EDC
:100F3800B0DF00014551FC6F170EABDF00010A0E50
:100F4800E26F030EE36F07D80A0E55DF006E00B09C
:100F5800FBD738D0E200030E0001F26F1F0EAEDFA0
:100F68000001E35120D0040E0001F26F1F0EA6DF2E
:100F78001D0E30DF006E00B4FBD71F0E2BDF006E96
:100F880000B6FBD7200E0001F26F1E0EACD7200E64
:100F98000001F26F1E0E92DF1D0E1CDF006E00A016
:100FA800FBD7040E0001F26F1F0E9DD7E16E000102
:100FB800150EE26F030EE36FCEDFE1500001FC6F08
:100FC800150E67DF0001E26BE36BC5D70001150E54
:100FD800E26F030EE36FBFDF150EFCDEE16E00016A
:100FE800E26BE36BB8DFE1501200EECFE6FFE82ECC
:040FF800FCD7000C16
:101000000D0A444843502F506F776572206576650E
:101010006E74206F63637572726564002F7365610F
:101020007263683F61735F713D4D6963726F63689E
:1010300069702661735F7369746573656172636853
:101040003D6D6963726F636869702E636F6D0047F1
:101050004554200020485454502F312E300D0A485A
:101060006F73743A20000D0A436F6E6E6563746986
:101070006F6E3A20636C6F73650D0A0D0A00070CE2
:101080001116070C1116070C1116070C111605097D
:101090000E1405090E1405090E1405090E14040B8F
:1010A0001017040B1017040B1017040B1017060A67
:1010B0000F15060A0F15060A0F15060A0F1578A454
:1010C0006AD756B7C7E8DB702024EECEBDC1AF0F9C
:1010D0007CF52AC68747134630A8019546FDD89867
:1010E0008069AFF7448BB15BFFFFBED75C892211EB
:1010F000906B937198FD8E4379A62108B4496225BF
:101100001EF640B340C0515A5E26AAC7B6E95D102C
:101110002FD65314440281E6A1D8C8FBD3E7E6CD0D
:10112000E121D60737C3870DD5F4ED145A4505E9FB
:10113000E3A9F8A3EFFCD9026F678A4C2A8D4239E4
:10114000FAFF81F6718722619D6D0C38E5FD44EA56
:10115000BEA4A9CFDE4B604BBBF670BCBFBEC67E43
:101160009B28FA27A1EA8530EFD4051D880439D0E1
:10117000D4D9E599DBE6F87CA21F6556ACC44422BD
:1011800029F497FF2A43A72394AB39A093FCC359B2
:101190005B6592CC0C8F7DF4EFFFD15D84854F7E33
:1011A000A86FE0E62CFE144301A3A111084E827E35
:1011B00053F735F23ABDBBD2D72A91D386EBFA5A10
:1011C00000045B00085B00165B001A5B001C5B0000
:1011D000205B00245B00285B002C5B00305B00344C
:1011E0005B00385B00405B00445B00485B004C5B8D
:1011F000005A5B005E5B00625B00665B006A5B003E
:101200007A5B007E5B00885B008E5B009A5B009ED1
:101210005B00A25B00A65B00AA5B00AE5B00B25B5A
:1012200000B65B00BA5B00BE5B00C25B00C65B0041
:10123000CA5B00CE5B000D0A00776176007478749B
:1012400000746578742F63737300746578742F70FD
:101250006C61696E006170706C69636174696F6E56
:101260002F6A6176612D766D00696E6465782E68EF
:10127000746D00746578742F786D6C007465787483
:101280002F68746D6C00636769006A706700696D30
:101290006167652F706E6700696D6167652F6A70A1
:1012A000656700696D6167652F67696600617564D0
:1012B000696F2F782D77617665006E6F2D6361639E
:1012C0006865006D70667375706C6F616400666F41
:1012D0006F7465722E696E63006865616465722E55
:1012E000696E6300636C6100504F5354004745546E
:1012F000002144454600485454502F312E312032AD
:101300003030204F4B0D0A436F6E74656E742D5450
:101310007970653A20746578742F68746D6C0D0A65
:101320000D0A3C68746D6C3E3C626F647920737486
:10133000796C653D226D617267696E3A313030704B
:1013400078223E3C666F726D206D6574686F643DF7
:10135000706F737420616374696F6E3D222F6D70BE
:10136000667375706C6F61642220656E637479704A
:10137000653D226D756C7469706172742F666F7251
:101380006D2D64617461223E3C623E4D5046532097
:10139000496D6167652055706C6F61643C2F623EDA
:1013A0003C703E3C696E70757420747970653D6662
:1013B000696C65206E616D653D692073697A653D74
:1013C00034303E20266E6273703B203C696E70752F
:1013D0007420747970653D7375626D6974207661EF
:1013E0006C75653D2255706C6F6164223E3C2F66C2
:1013F0006F726D3E3C2F626F64793E3C2F68746D56
:101400006C3E00485454502F312E31203230302061
:101410004F4B0D0A436F6E74656E742D5479706571
:101420003A20746578742F68746D6C0D0A0D0A3C4F
:1014300068746D6C3E3C626F6479207374796C657E
:101440003D226D617267696E3A3130307078223EAC
:101450003C623E4D50465320557064617465205384
:1014600075636365737366756C3C2F623E3C703EBA
:101470003C6120687265663D222F223E5369746587
:10148000206D61696E20706167653C2F613E3C2F65
:10149000626F64793E3C2F68746D6C3E0048545412
:1014A000502F312E3120323030204F4B0D0A436FF8
:1014B0006E74656E742D547970653A207465787415
:1014C0002F68746D6C0D0A0D0A3C68746D6C3E3C9F
:1014D000626F6479207374796C653D226D61726707
:1014E000696E3A3130307078223E3C623E4D504653
:1014F0005320496D61676520436F72727570742067
:101500006F722057726F6E672056657273696F6EC7
:101510003C2F623E3C703E3C6120687265663D2215
:101520002F6D70667375706C6F6164223E547279B2
:1015300020616761696E3F3C2F613E3C2F626F64A2
:10154000793E3C2F68746D6C3E006D61782D61674B
:10155000653D00417574686F72697A6174696F6E78
:101560003A00436F6E74656E742D4C656E677468D7
:101570003A00436F6F6B69653A00363030000D0AF0
:101580000D0A3330342052656469726563743A2001
:1015900000485454502F312E312033303220466FC2
:1015A000756E640D0A4C6F636174696F6E3A20004A
:1015B00043616368652D436F6E74726F6C3A2000EF
:1015C000436F6E74656E742D547970653A200053C4
:1015D00065742D436F6F6B69653A20004854545011
:1015E0002F312E312035303020496E7465726E6196
:1015F0006C20536572766572204572726F720D0AA7
:101600000D0A35303020496E7465726E616C20535E
:101610006572766572204572726F723A20457870F5
:1016200065637465642064617461206E6F742070FA
:10163000726573656E740D0A00436F6E74656E7427
:101640002D456E636F64696E673A20677A69700D25
:101650000A00485454502F312E3120323030204F60
:101660004B0D0A436F6E6E656374696F6E3A20634B
:101670006C6F73650D0A00485454502F312E312081
:10168000353031204E6F7420496D706C656D656E1C
:101690007465640D0A0D0A353031204E6F7420498F
:1016A0006D706C656D656E7465643A204F6E6C7913
:1016B0002047455420616E6420504F535420737569
:1016C00070706F727465640D0A00485454502F3165
:1016D0002E312034313420526571756573742D5567
:1016E000524920546F6F204C6F6E670D0A0D0A34FB
:1016F000313420526571756573742D5552492054EB
:101700006F6F204C6F6E673A204275666665722077
:101710006F766572666C6F77206465746563746557
:10172000640D0A00485454502F312E31203430318A
:1017300020556E617574686F72697A65640D0A5719
:1017400057572D41757468656E7469636174653AA5
:10175000204261736963207265616C6D3D22507235
:101760006F746563746564220D0A0D0A343031208C
:10177000556E617574686F72697A65643A2050615C
:101780007373776F72642072657175697265640D29
:101790000A00485454502F312E3120343033204623
:1017A0006F7262696464656E0D0A0D0A343033200D
:1017B000466F7262696464656E3A2053534C2052DE
:1017C00065717569726564202D20757365204854B4
:1017D0005450530D0A00485454502F312E312034A8
:1017E0003034204E6F7420666F756E640D0A436F3F
:1017F0006E74656E742D547970653A2074657874D2
:101800002F68746D6C0D0A0D0A3430343A20466925
:101810006C65206E6F7420666F756E643C62723EFC
:10182000557365203C6120687265663D222F6D709E
:10183000667375706C6F6164223E4D50465320553F
:10184000706C6F61643C2F613E20746F2070726F0A
:101850006772616D207765622070616765732069CA
:101860006E746F20454550524F4D0D0A000D0A0D04
:101870000A000D0A0D0A4D504653020000000000F8
:10188000005243505420544F3A3C004D41494C20A3
:1018900046524F4D3A3C000D0A2E000D0A53756218
:1018A0006A6563743A20000D0A546F3A200046724C
:1018B0006F6D3A20000D0A43433A200051554954B8
:1018C0000D0A0041555448204C4F47494E0D0A001F
:1018D00048454C4F204D434850424F4152440D0A19
:1018E00000444154410D0A003E0D0A000D0A2E0D20
:1018F0000A00706F6F6C2E6E74702E6F726700012D
:10190000007D00C8000200140014000300960014BB
:10191000000600000101000800000100010000C8ED
:1019200000C8000000C800C8000000C800C80000CF
:1019300000C800C8003A20576520617265206375B1
:101940007272656E746C7920616368696576696E20
:10195000672000202020202020200020627974654C
:10196000732F7365636F6E640D0A003030206279E7
:101970007465732F7365636F6E64205458207468A8
:10198000726F7567687075742E0D0A001B5B324AA2
:101990001B5B33316D1B5B316D4D6963726F636827
:1019A00069702054656C6E6574205365727665723B
:1019B00020312E311B5B306D0D0A28666F7220744A
:1019C0006869732064656D6F2C20747970652027B9
:1019D00061646D696E2720666F7220746865206C83
:1019E0006F67696E20616E6420276D6963726F6333
:1019F0006869702720666F72207468652070617353
:101A000073776F72642E290D0A4C6F67696E3A20E6
:101A10000050617373776F72643A20FFFD2D000DE3
:101A20000A4163636573732064656E6965640D0ABA
:101A30000D0A000D0A4C6F6767656420696E20739C
:101A400075636365737366756C6C790D0A0D0A0DA9
:101A50000A50726573732027712720746F20717587
:101A600069740D0A000D0A416E616C6F673A20209F
:101A70002020202020202020202020313032330D33
:101A80000A427574746F6E733A2020202020202043
:101A90002020332032203120300D0A4C4544733A47
:101AA00020202020372036203520342033203220BB
:101AB000312030000D0A0D0A476F6F64627965218D
:101AC0000D0A006D6963726F636869700061646D0F
:101AD000696E001B5B316D001B5B31313B31386639
:101AE000001B5B31333B3166001B5B31303B3231D5
:101AF00066001B5B31323B31306600202020200025
:101B00000D0A546F6F206D75636820646174612ED7
:101B10000D0A00757000646E00706F7274004E6F75
:101B2000204C43442050726573656E74006E6F7470
:101B3000207365740070726F7465637400706173F4
:101B400073007365727665720075736572006D69F6
:101B500063726F6368697000746F0061646D696EB1
:101B600000656D61696C2F696E6465782E68746DAF
:101B700000666F726D732E68746D00636F6F6B69B2
:101B800065732E68746D002F70726F746563742FA7
:101B9000636F6E6669675F6572726F722E68746DCF
:101BA000002F656D61696C2F6661696C2E68746DBC
:101BB000002F656D61696C2F6F6B2E68746D0070FE
:101BC000726F746563742F636F6E6669672E6874D5
:101BD0006D0075706C6F61642E68746D006C656467
:101BE000732E636769006D7367004D6963726F637D
:101BF000686970205443502F495020537461636BBF
:101C00002053746174757320557064617465006E3F
:101C1000616D65006C656400636865636B65640095
:101C200053454C4543544544002F70726F746563AF
:101C3000742F7265626F6F742E68746D3F0022534B
:101C40004D5450205365727669636522203C6D6364
:101C50006870626F61726440706963736172656716
:101C60006F6F642E636F6D3E003C623E55706C6F0B
:101C7000616420612046696C653C2F623E003C62D5
:101C80003E55706C6F616465642046696C652773AE
:101C9000204D4435207761733A3C2F623E3C62729E
:101CA000202F3E0076342E3138006C656434006C91
:101CB000656433004465632030372032303037208C
:101CC00031343A33353A3033006C656432006C6538
:101CD000643100506F743A2C00427574746F6E73E7
:101CE0003A2C004C4544733A2C0048656C6C6F2CC0
:101CF000200053595354454D205354415455530DCE
:101D00000A00546869732069732061206D756C74D2
:101D1000692D70617274206D6573736167652069E8
:101D20006E204D494D4520666F726D61742E0D0A0F
:101D3000002D2D66726F6E746965722D2D0D0A006F
:101D40004D494D452D76657273696F6E3A20312E7F
:101D5000300D0A436F6E74656E742D747970653A38
:101D6000206D756C7469706172742F6D697865642B
:101D70003B20626F756E646172793D2266726F6E90
:101D800074696572220D0A002D2D66726F6E74697A
:101D900065720D0A436F6E74656E742D747970658B
:101DA0003A20746578742F706C61696E0D0A0D0AA3
:101DB000000D0A2D2D66726F6E746965720D0A43EF
:101DC0006F6E74656E742D747970653A20746578E1
:101DD000742F6373760D0A436F6E74656E742D44B1
:101DE0006973706F736974696F6E3A20617474619E
:101DF00063686D656E743B2066696C656E616D65C8
:101E00003D227374617475732E637376220D0A0D0F
:101E10000A0067770000686F737400007375626E64
:101E2000657400006970000064686370656E6162CB
:101E30006C656400006D61630000646E73320000C5
:101E4000646E733100000004A30000004469730055
:101E5000456E006D61696C0064697361626C6564F4
:101E600000656E61626C6564004D434850424F41AD
:101E700052440022534D5450205365727669636575
:101E800022203C6D636870626F61726440706963A8
:101E900073617265676F6F642E636F6D3E00486596
:101EA0006C6C6F20776F726C64212020534D5450FE
:101EB00020546573742E000D0A09303A2053617660
:101EC00065202620517569742E000D0A09393A20C3
:101ED000446F776E6C6F6164204D50465320696D7E
:101EE0006167652E0061626C65204448435020267E
:101EF00020495020476C65616E696E673A09094454
:101F00004843502069732063757272656E746C79F2
:101F100020004E65772049502041646472657373D8
:101F20003A20004E65772073657474696E673A20B5
:101F3000000D0A456E7465722061206D656E752016
:101F400063686F6963653A20000D0A09383A20001A
:101F5000496E76616C696420696E7075742E0D0A25
:101F60000053657474696E67732073617665642EBF
:101F70000D0A000D0A0D0A425554544F4E30206888
:101F8000656C6420666F72206D6F72652074686185
:101F90006E2034207365636F6E64732E2020454578
:101FA00050524F4D20636F6E74656E74732065726E
:101FB000617365642E0D0A0D0A000D0A0D0A0D4DA0
:101FC0006963726F63686970205443502F495020D1
:101FD000436F6E666967204170706C6963617469F4
:101FE0006F6E202876342E31382C204465632030E3
:101FF000372032303037290D0A0D0A000D0A093416
:102000003A204368616E6765207374617469632068
:102010006761746577617920616464726573733A8E
:1020200009000D0A09363A204368616E676520731E
:102030007461746963207072696D61727920444EB5
:1020400053207365727665723A09000D0A09373AB2
:10205000204368616E6765207374617469632073DF
:1020600065636F6E6461727920444E5320736572AC
:102070007665723A09000D0A09333A204368616EA9
:1020800067652073746174696320495020616464DA
:10209000726573733A09090009313A204368616E29
:1020A00067652073657269616C206E756D6265721B
:1020B0003A0909000D0A09353A204368616E6765DF
:1020C00020737461746963207375626E6574206D2A
:1020D00061736B3A0909000D0A09323A20436861BD
:1020E0006E676520686F7374206E616D653A0909CB
:1020F00009000001C76FC7510C01F46301D0120041
:10210000F4CCE8FFFE0A13E0F4CCE8FF1C0D020E4D
:10211000F3240001E66F010EF420E76F0E0EE86F66
:10212000040EE96F1C0EEA6FEB6B4FEC9EF0C7C01C
:10213000F4FC0001C751FE0AD8B412000E0EE66F7F
:10214000040EE76FC7511C0D020EF324E86F010E59
:10215000F420E96F1C0EEA6FEB6B4FEF9EF0F4CCAE
:10216000E8FF0C01F56301D01200F5CCE8FFFE0A90
:102170002AE0F5CCE8FF1C0D020EF324E96E010EF7
:10218000F420EA6EEECF00F0EDCF01F0DB0E00247C
:102190000001DE6FFF0E0120DF6FF5CCE8FF1C0DA4
:1021A0001D0EF324E96E010EF420EA6EEF50E06F8D
:1021B0002A0EE16F040EE26F010EE36F250EE46F4D
:1021C000E56BC8EC2CF0F4CCF5FC00012A0EDE6FB8
:1021D000040EDF6F010EE06FF4CCE8FF1C0D020E61
:1021E000F324E96E010EF420EA6EEECF00F0EDCF9D
:1021F00001F0DB0E0024E16FFF0E0120E26FF5CC51
:10220000E8FF1C0D1D0EF324E96E010EF420EA6EAA
:10221000EF50E36F250EE46FE56BC8EF2CF0000183
:10222000760E486F100E496FD96A436B0001435117
:1022300060DF95DF00014351060DF350FF0FF66E8E
:10224000F450F76E180EF722F62A000EF722080057
:10225000F550D96E4351060DF350FF0FF66EF45052
:10226000F76E180EF722020EF626000EF72209006E
:10227000F5CF02F00900F5CF03F04351060DF350FE
:10228000FF0FF66EF450F76E180EF722040EF626C6
:10229000000EF7220900F5CF46F00900F5CF47F010
:1022A0001ED048C044F049C045F046C000F047C0C9
:1022B00001F00250002603500122270E0026000ED6
:1022C00001220001005048270150492300011E0E41
:1022D000495D870ED8B4485D05E3F8D7FFD7D950DC
:1022E000E0E0FCD700014351060DF350FF0FF66EFE
:1022F000F450F76E180EF7220800F5CF4EF4D9CF40
:1023000029F4250E4425E8CF0EF4000E4521E8CF30
:102310000FF40EC400F00FC401F002500026035069
:1023200001220028E8CF10F4000E0120E8CF11F4BC
:1023300004EE10F0EECF00F0EDCF01F04651002496
:10234000E8CF12F447510120E8CF13F40F0EE8CF85
:1023500024F40401259138EC23F00001432B080EEE
:10236000436564D71200FBDE0001020EE66F040E27
:10237000E76F400EE86F040EE96F0A0EEA6FEB6B31
:102380004FEC9EF038C40CF439C40DF4020E006E0C
:10239000040E016E12006B000001736B000173519B
:1023A000A8DE24C4E8FF0F0A01E0D4D0D8DE4EC472
:1023B000E8FF0001721901E0CDD06F510EE170C04D
:1023C0003AF471C03BF404012581060EE8CF24F4F1
:1023D00070C027F471C028F4BAD00401040E015D66
:1023E000000ED8B4005D06E3130E015D890ED8B46B
:1023F000005D04E30401006B040E016F00C43AF4B5
:1024000001C43BF40401002B000E012370C038F41A
:1024100071C039F44AEC9BF000C01CF401C01DF4FB
:1024200002C01EF403C01FF40401258384D06BC0D6
:1024300040F46CC041F46DC042F46EC043F400013E
:102440006F51020A000ED8B4010E006E04EE4CF07B
:1024500000360036EF500018FB0B0018EF6E020E2E
:1024600029D000EE6BF0EECF00F0EDCF01F00001CF
:102470006D5100266E5101227051002671510122CA
:102480003AC4E8FF0018E8CF27F43BC4E8FF01187E
:10249000E8CF28F46BC040F46CC041F46DC042F446
:1024A0006EC043F404014D6B2D6B2C6B2B6B260E11
:1024B0002A6F040EE8CF24F44AD0000100EE02F0A7
:1024C0006B51E9266C51EA22EECF02F0EDCF03F01A
:1024D0006BC0E9FF6CC0EAFFEECF00F0EDCF01F07A
:1024E00002500024F66E03500120F76E7051F6265C
:1024F0007151F7223AC4E8FFF618E8CF27F43BC43D
:10250000E8FFF718E8CF28F4400EE66F040EE76FF7
:102510006BC0E8F06CC0E9F00A0EEA6FEB6B4FECB1
:102520009EF0070EE8CF24F4010E0001B46F020EF6
:10253000E3EC1DF00CD000016F51010A01E177D7E7
:10254000030A01E174D7010A8CE0070AB6E0000132
:10255000735112000001732B080E73651FD7FE0C18
:1025600000015D6F5D51C5DD040126A1000C2691BF
:10257000010C00016B6F6B51BCDD24C4E8FF090A3C
:1025800004E004EE24F0EF5001E1010C000C000126
:10259000756F7551AEDD18C41AF419C41BF422D03E
:1025A00056EC73F038EF23F0010E0001B46F110EFA
:1025B000E3EC1DF00A0EE8CF24F41200010E000136
:1025C000B46F110EE3EC1DF00E0EE8CF24F41200F0
:1025D000010EE8CF24F40001B46B140EE3EC1DF0FF
:1025E00038EF23F024C4E8FF000AF2E0030AD8E041
:1025F000040AD8E00F0AD8E0010AD6E0030AEBE0AB
:10260000010AE9E0060ADAE0030AE5E0E4D700019E
:10261000B36FB3516EDDA3DD04EE14F00401EE528E
:102620003751ED1836C4E8FFD8B4EF18D8B412000B
:10263000010E0001B46F180EE3EF1DF00001B36F3F
:10264000B35157DD24C4D9FFD950090A0AE0D95043
:102650000D0A07E0D90405E0D95003E0006A016AD9
:10266000120014EE16F004EE14F0EE52E652E550AD
:10267000ED5C02E1E750EF5C27E304EE14F0EECFEF
:1026800000F0EDCF01F016C4E8FF005C026E17C445
:10269000E8FF0158036E04EE10F0EECF00F0EDCF2E
:1026A00001F00EC4E8FF005CF66E0FC4E8FF0158AD
:1026B000F76EFF0EF624006EFF0EF720016E02503B
:1026C000005E0350015A120004EE16F0EECF00F047
:1026D000EDCF01F014C4E8FF005C026E15C4E8FF02
:1026E0000158036EFF0E0224006EFF0E0320016EE0
:1026F00012007A0000017B6F7B51FBDC00017B51F3
:102700009DDF00C07CF001C07DF000017D517C1197
:1027100001E1000C00017C057D1102E17B5177DFB6
:10272000040125BB1FD004EE10F0EECF00F0EDCF7A
:1027300001F00EC4E8FF005C026E0FC4E8FF015810
:10274000036ED8900330016E0230006E00017D519F
:10275000015C02E17C51005C05E300017B5157DF25
:102760000401258B14C4DEF015C4DFF029C4E0F0A9
:1027700000017A0EE16F000EE26F010EE36FE46F6D
:10278000E56BC8EC2CF004EE10F014EE14F0E62A21
:10279000000EE522E652EE52ED50E55C02E1EF500C
:1027A000E75C04E30EC414F40FC415F400017C05C7
:1027B0007D1103E17B512BDF010C040125B5010CD8
:1027C000258554EC9BF0060E0024E8CF20F4000E83
:1027D0000120E8CF21F4010CA8000001AC6FAF6B21
:1027E000B06BAC5186DC0001AC5128DF00C0ADF00D
:1027F00001C0AEF00001AE51AD1105E1AC5107DFF3
:10280000006A016A1200ADC0B1F0AEC0B2F00001C2
:10281000AE51AB5D02E1AD51AA5D04E2AAC0B1F0D8
:10282000ABC0B2F0040104EE10F025BB1FD0EECF18
:1028300000F0EDCF01F00EC4E8FF005C026E0FC4A3
:10284000E8FF0158036ED8900330016E0230006E2D
:102850000001AE51015C02E1AD51005C05E30001F5
:10286000AC51D5DE0401258B04EE10F0EECF00F064
:10287000EDCF01F004EE14F0EECF02F0EDCF03F057
:102880000001B1510226B25103220150035C02E162
:102890000050025C2DE304EE10F0EECF00F0EDCF1F
:1028A00001F014C4E8FF005CAF6F15C4E8FF0158E5
:1028B000B06F14C4DEF015C4DFF029C4E0F0A8C086
:1028C000E1F0A9C0E2F0010EE36FAFC0E4F0B0C0E8
:1028D000E5F0C8EC2CF00001AF51A827B051A923B6
:1028E000AF51B15FB051B25B0EC414F40FC415F414
:1028F00014C4DEF015C4DFF029C4E0F0A8C0E1F094
:10290000A9C0E2F0010E0001E36FB1C0E4F0B2C073
:10291000E5F0C8EC2CF0B1C000F0B2C001F0040149
:1029200000C0E8FF142701C0E8FF15230001AE51E5
:10293000AB5D02E1AD51AA5D03E3AC5168DE0ED0A0
:10294000040125B50BD0258554EC9BF0060E002420
:10295000E8CF20F4000E0120E8CF21F4B1C000F050
:10296000B2C001F00001AF510026B05101221200A7
:10297000680000016C6F6F6B706B6C5179EC10F03C
:1029800000016C515BDE00C06DF001C06EF0000113
:102990006E516D1105E16C513ADE006A016A120058
:1029A000040125BB1FD004EE10F0EECF00F0EDCFF8
:1029B00001F00EC4E8FF005C026E0FC4E8FF01588E
:1029C000036ED8900330016E0230006E00016E512C
:1029D000015C02E16D51005C05E300016C5117DE02
:1029E0000401258B6DC071F06EC072F000016E5154
:1029F0006B5D02E16D516A5D04E26AC071F06BC00B
:102A000072F004EE10F0EECF00F0EDCF01F004EE26
:102A100014F0EECF02F0EDCF03F000017151022669
:102A2000725103220150035C02E10050025C2BE36F
:102A300004EE10F0EECF00F0EDCF01F014C4E8FF8B
:102A4000005C6F6F15C4E8FF0158706F14C473F019
:102A500015C474F029C475F068C076F069C077F0C9
:102A60006FC078F070C079F026EC2DF000016F5146
:102A70006827705169236F51715F7051725B0EC48A
:102A800014F40FC415F414C473F015C474F029C4FD
:102A900075F068C076F069C077F071C078F072C0E8
:102AA00079F026EC2DF071C000F072C001F0040145
:102AB00000C0E8FF142701C0E8FF152300016E5194
:102AC0006B5D02E16D516A5D03E36C51A0DD0ED0D8
:102AD000040125B50BD0258554EC9BF0060E00248F
:102AE000E8CF20F4000E0120E8CF21F471C000F0FF
:102AF00072C001F000016F510026705101221200D6
:102B00005D0000015F6F5DC0A8F05EC0A9F05DC010
:102B1000ECF05EC0EDF0B0EC9EF000C0AAF001C099
:102B2000ABF000015F5159DE00015D5100265E519E
:102B30000122120065000001676F65C068F066C081
:102B400069F065C0ECF066C0EDF0B0EC9EF000C03E
:102B50006AF001C06BF0000167510BDF00016551A5
:102B6000002666510122120000015D6F5D5179EC73
:102B700010F004EE10F0EECF00F0EDCF01F00EC437
:102B8000E8FF005C026E0FC4E8FF0158036EFF0E01
:102B900002240001606FFF0E0320616F5D514EDD66
:102BA00000C05EF001C05FF060C000F061C001F0E5
:102BB00000015E51005E5F51015A12000001716F09
:102BC00071510ED801500010D8B41200000171519B
:102BD00079EC10F018C41AF419C41BF47BEF2AF036
:102BE0000001C66FC65179EC10F024C400F0000457
:102BF00003E1006A016A120014EE1AF004EE18F004
:102C0000EE52E652E550ED5C02E1E750EF5C11E375
:102C100004EE1AF0EECF02F0EDCF03F004EE18F060
:102C2000EECF00F0EDCF01F00250005E0350015AEC
:102C3000120004EE18F0EECF00F0EDCF01F010C45A
:102C4000E8FF005CF66E11C4E8FF0158F76E04EE71
:102C500012F0EECF00F0EDCF01F01AC4E8FF005CF7
:102C6000026E1BC4E8FF0158036EF6500224006E8A
:102C7000F7500320016E002A000E01221200860088
:102C80000001886F8851ACDF00C089F001C08AF074
:102C900000018A51891101E1000C0001885179EC91
:102CA00010F000018751861112E086C0DEF087C067
:102CB000DFF0010EE06F00EEE1F01AC4EEFF1BC47E
:102CC000EDFF29C4E3F0E46FE56BC8EC2CF014EEE3
:102CD0001AF0E62A000EE52204EE12F0EE52E65259
:102CE000E550ED5C02E1E750EF5C04E210C41AF439
:102CF00011C41BF4000189058A11040102E1258D2C
:102D0000010C25B5010C258554EC9BF0060E002422
:102D1000E8CF20F4000E0120E8CF21F4010C890057
:102D200000018D6F906B916B8D5179EC10F000016B
:102D30008D5156DF00C08EF001C08FF000018C5124
:102D40008F5D02E18B518E5D04E28EC08BF08FC0EF
:102D50008CF004EE1AF0EECF02F0EDCF03F000019C
:102D60008B5102268C51032204EE12F0EECF00F0BC
:102D7000EDCF01F00350015C02E10250005C38E24B
:102D800004EE12F0EECF00F0EDCF01F01AC4E8FF30
:102D9000005C026E1BC4E8FF0158036E0228906FAE
:102DA000000E0320916F8A51891119E089C0DEF06D
:102DB0008AC0DFF0010EE06F00EEE1F01AC4EEFF12
:102DC0001BC4EDFF29C4E3F090C0E4F091C0E5F02E
:102DD000C8EC2CF000019051892791518A23000101
:102DE00090518B5F91518C5B10C41AF411C41BF489
:102DF00000018A51891114E089C0DEF08AC0DFF039
:102E0000010EE06F00EEE1F01AC4EEFF1BC4EDFF0F
:102E100029C4E3F08BC0E4F08CC0E5F0C8EC2CF0E2
:102E20008BC000F08CC001F0040100C0E8FF1A273D
:102E300001C0E8FF1B238EC000F08FC001F000012D
:102E40008B51005E8C51015A01508C5D02E10050A3
:102E50008B5D040102E3258D0DD025B50BD02585B2
:102E600054EC9BF0060E0024E8CF20F4000E012065
:102E7000E8CF21F48BC000F08CC001F0000190512C
:102E8000002691510122120000015D6F5D5179EC25
:102E900010F004EE12F0EECF00F0EDCF01F010C410
:102EA000E8FF005C0001606F11C4E8FF0158616F2A
:102EB0005D5196DE00C05EF001C05FF060C000F0C2
:102EC00061C001F000015E51005E5F51015A1200C5
:102ED0008D000001966F90518F1103E1006A016A25
:102EE00012000001965179EC10F00001965178DE45
:102EF00000019151005CA26F92510158A36F905153
:102F0000A35D02E18F51A25D04E2FF0E006801683B
:102F100012008DC0E1FF8EC0E2FF000194519311B9
:102F20000AE0A351945D02E1A251935D04E293C0D3
:102F3000A2F094C0A3F004EE1AF0EECF00F0EDCFB3
:102F400001F0000191510024F36E92510120F46EC2
:102F500004EE12F0EECF00F0EDCF01F0F450015C82
:102F600002E1F350005C15E204EE12F0EECF00F047
:102F7000EDCF01F010C4E8FF005C026E11C4E8FF61
:102F80000158036E022A000E03220250F35E035022
:102F9000F45AF3CF9CF0F4CF9DF004EE12F0EECF94
:102FA00000F0EDCF01F0F350005EF450015A00281C
:102FB0000001A06F000E0120A16F91C0A4F092C08B
:102FC000A5F08FC09EF090C09FF0E1CF9AF0E2CFC5
:102FD0009BF0E6CF99F0976B955108E0600E9965EC
:102FE00005D07B0E996102D0E00E9927200E0001DA
:102FF000986F000EA15D200ED8B4A05D02E2A05132
:10300000986F98C000F0016A00010150A35D02E1D1
:103010000050A25D02E2A251986FE1CF8DF0E2CFA5
:103020008EF00001A60EDE6F000EDF6F010EE06F66
:103030009CC0E1F09DC0E2F029C4E3F09851E46F38
:10304000E56BC8EC2CF08DC0E1FF8EC0E2FF000103
:1030500098519C27000E9D239851A05F000EA15B04
:10306000A151A01106E110C49CF011C49DF0A0690B
:10307000A169000195516EE0F36A00019851F35C7B
:1030800001E3A5D0F35000EEA6F0E926000EEA22F7
:10309000EF50006E610E005C13E3F35000EEA6F0FB
:1030A000E926000EEA22EF50006E7B0E005C08E27B
:1030B000F35000EEA6F0E926000EEA22E00EEF261D
:1030C000F35000EEA6F0E926000EEA22EF500001D0
:1030D000991927E18F0EE96E000EEA6EEE06000EDA
:1030E000ED5AEE50ED100FE1A4C000F0A5C001F0C4
:1030F0009E51005E9F51015AF3500026000E01229E
:10310000002A01221200E6CF99F0010E0001976F0C
:10311000600E99651DD07B0E99611AD0E00E99273B
:1031200017D09EC08FF09FC090F00001975110E023
:103130009AC0E1FF9BC0E2FFE6CF99F0600E99656F
:1031400005D07B0E996102D0E00E99270001976BA4
:10315000F32A93D7F36A00019851F35C38E2F350F5
:1031600000EEA6F0E926000EEA22EF5099191FE1C1
:103170008F0EE96E000EEA6EEE06000EED5AEE506E
:10318000ED100FE1A4C000F0A5C001F09E51005E5B
:103190009F51015AF3500026000E0122002A0122FD
:1031A0001200E6CF99F0010E0001976F0ED09EC07D
:1031B0008FF09FC090F00001975107E09AC0E1FFA7
:1031C0009BC0E2FFE6CF99F0976BF32AC4D70001CA
:1031D0009851A25F000EA35B9051A35D02E18F5155
:1031E000A25D04E2FF0E0068016812000001985120
:1031F000A427000EA523FAD689000001926F8C51F6
:103200008B1103E1006A016A12000001925179EC0E
:1032100010F000019251E4DC00018D51005C9E6FC2
:103220008E5101589F6F8C519F5D02E18B519E5DC5
:1032300004E2FF0E006801681200000190518F1136
:103240000AE09F51905D02E19E518F5D04E28FC0C4
:103250009EF090C09FF004EE1AF0EECF00F0EDCF9C
:1032600001F000018D510024F36E8E510120F46EA7
:1032700004EE12F0EECF00F0EDCF01F0F450015C5F
:1032800002E1F350005C15E204EE12F0EECF00F024
:10329000EDCF01F010C4E8FF005C026E11C4E8FF3E
:1032A0000158036E022A000E03220250F35E0350FF
:1032B000F45AF3CF98F0F4CF99F004EE12F0EECF79
:1032C00000F0EDCF01F0F350005EF450015A0028F9
:1032D00000019C6F000E01209D6F8DC0A0F08EC07C
:1032E000A1F08BC09AF08CC09BF089C096F08AC088
:1032F00097F089C0F6FF8AC0F7FF0F0EF76403D07E
:103300000800F55005D0F6CFE9FFF7CFEAFFEF5000
:10331000956F894B8A2B936B915109E0600E9565EF
:1033200006D07B0E956103D0E00E00019527200E9C
:103330000001946F000E9D5D200ED8B49C5D02E2EA
:103340009C51946F94C000F0016A000101509F5D90
:1033500002E100509E5D02E29E51946F0001A20EB8
:10336000DE6F000EDF6F010EE06F98C0E1F099C0D4
:10337000E2F029C4E3F09451E46FE56BC8EC2CF063
:10338000000194519827000E992394519C5F000EE0
:103390009D5B9D519C1106E110C498F011C499F0F9
:1033A0009C699D690001915101E18FD0F36A000190
:1033B0009451F35C01E3E6D0F35000EEA2F0E9266D
:1033C000000EEA22EF50006E610E005C13E3F35032
:1033D00000EEA2F0E926000EEA22EF50006E7B0E0E
:1033E000005C08E2F35000EEA2F0E926000EEA22AB
:1033F000E00EEF26F35000EEA2F0E926000EEA22DE
:10340000EF500001951937E18B0EE96E000EEA6E60
:10341000EE06000EED5AEE50ED100FE1A0C000F0E8
:10342000A1C001F09A51005E9B51015AF350002651
:10343000000E0122002A0122120089C0F6FF8AC074
:10344000F7FF0F0EF76403D00800F55005D0F6CF54
:10345000E9FFF7CFEAFFEF500001956F894B8A2B08
:10346000010E936F600E95652ED07B0E95612BD06B
:10347000E00E952728D09AC08BF09BC08CF00001FD
:10348000935121E096C089F097C08AF089C0F6FF79
:103490008AC0F7FF0F0EF76403D00800F55005D07F
:1034A000F6CFE9FFF7CFEAFFEF50956F894B8A2BF4
:1034B000600E956506D07B0E956103D0E00E00018D
:1034C00095270001936BF32A72D7F36A0001945198
:1034D000F35C58E2F35000EEA2F0E926000EEA2277
:1034E000EF5095192FE18B0EE96E000EEA6EEE0695
:1034F000000EED5AEE50ED100FE1A0C000F0A1C09B
:1035000001F09A51005E9B51015AF3500026000EC3
:103510000122002A0122120089C0F6FF8AC0F7FFAB
:103520000F0EF76403D00800F55005D0F6CFE9FF81
:10353000F7CFEAFFEF500001956F894B8A2B010E00
:10354000936F1ED09AC08BF09BC08CF000019351FA
:1035500017E096C089F097C08AF089C0F6FF8AC04C
:10356000F7FF0F0EF76403D00800F55005D0F6CF33
:10357000E9FFF7CFEAFFEF50956F894B8A2B936BEA
:10358000F32AA4D7000194519E5F000E9F5B8C51DB
:103590009F5D02E18B519E5D04E2FF0E00680168B1
:1035A000120000019451A027000EA123C0D686006E
:1035B00000018C6F860E8D6F000E8E6F010E8F6F67
:1035C000906B87C091F088C092F089C093F08AC058
:1035D00094F08B51956F8C517CD400014B6B0001A2
:1035E0004B5179EC10F000014E6B4D6B4C6B0401AC
:1035F00025AD07D025EC02F0000903E0100E000114
:103600004E6F040125A516D054EC9BF004EE20F07B
:10361000EECFF6FFEDCFF7FF0050F65E0150F75A00
:10362000F750800A800F010ED8B4F65C03E2100E4A
:1036300000014E6F040125A716D054EC9BF004EE58
:1036400022F0EECFF6FFEDCFF7FF0050F65E01500F
:10365000F75AF750800A800F010ED8B4F65C03E2E7
:10366000100E00014E6F24C4E8FF0D0A19E154EC5E
:103670009BF004EE22F0EECFF6FFEDCFF7FF005007
:10368000F65E0150F75AF750800A800F010ED8B449
:10369000F65C06E2110E00014E6F0E0EE8CF24F428
:1036A00000014E5104E0010EB46F4E518CDA04015A
:1036B00025B333D024C4E8FF090A01E0CFD14AEC96
:1036C0009BF01CC4E8FF005C046E1DC4E8FF0158B9
:1036D000056E1EC4E8FF0258066E1FC4E8FF0358BB
:1036E000076E07BEBBD1AFEC10F0020E0001B46F45
:1036F000100E69DA4AEC9BF0E60E0024E8CF1CF4C9
:10370000F50E0120E8CF1DF4050E0220E8CF1EF4CF
:10371000000E0320E8CF1FF4A1D14AEC9BF01CC49B
:10372000E8FF005C046E1DC4E8FF0158056E1EC46E
:10373000E8FF0258066E1FC4E8FF0358076E07BE75
:103740008DD1AFEC10F00BD151EC73F0000901E119
:1037500024D1030EE8CF24F404014CA50AD040C4C0
:1037600075F041C476F0010E0001776F94EC73F0B0
:1037700014D140C457F041C458F0010E0001596FF4
:103780006CEC73F00AD100014F0E756F000E766F6E
:10379000BCEC73F0006E00C002F0036A035002102C
:1037A00001E1FBD056EC73F0000931E0040EE8CFE4
:1037B00024F400EE51F0EECF00F0EDCF01F0000167
:1037C0004F5100265051012238C4E8FF0024026EF8
:1037D00039C4E8FF0120036E3AC4E8FF0218E8CFBD
:1037E00027F43BC4E8FF0318E8CF28F44FC040F4A7
:1037F00050C041F451C042F452C043F404014D6B37
:10380000000E2D6F2C6F2B6F260E2A6FC6D04AEC40
:103810009BF0E60E0024E8CF1CF4F50E0120E8CF63
:103820001DF4050E0220E8CF1EF4000E0320E8CFA1
:103830001FF4020E5FD054EC9BF000C020F401C0D6
:1038400021F40001400E926F040E936F5AEC8DF03C
:10385000050E50D00001400E926F040E936F440E7F
:10386000946F040E956FAAEC8DF0006E00C002F00C
:10387000036A0350021039E154EC9BF000C053F08E
:1038800001C054F002C055F003C056F004EE20F021
:10389000EECF00F0EDCF01F0026A036A00010050A4
:1038A000535D046E01505459056E02505559066E11
:1038B00003505659076E04EE2DF00750ED5C08E1F9
:1038C0000650ED5C05E10550ED5C02E10450EF5C53
:1038D00064E2060E04014D6106D04D2BD8902A37C4
:1038E0002B372C372D37040E05D0020E00014E6FFA
:1038F0004D6B070EE8CF24F450D0020E2BD0020EF1
:1039000004014D6102D0120E25D0040125A106D07C
:10391000140E00014E6F010E4C6F3FD0020E0AD004
:10392000050E04014D6102D0180E14D00A0EE8CF26
:1039300024F4110E00014E6F30D007D0E9D7050EE8
:1039400004014D61E5D7100E05D0050E04014D614F
:10395000DFD7110E00014E6F010E4D6F1ED024C433
:10396000E8FF020A01E1F0D6010A01E10CD7070ADB
:1039700001E161D7010A01E16DD7020ABEE00F0A39
:10398000BEE0010ACDE0030AD8E0010AD7E0070A49
:10399000D6E0010AC5E0030AD8E000014E5159E023
:1039A0004D5152E004014D2BD8902A372B372C373C
:1039B0002D3704EE36F0EECF00F0EDCF01F016C457
:1039C000E8FF005C026E17C4E8FF0158036E04EEC6
:1039D0002EF00250EE5E0350EE5A000E03BEFF0EB4
:1039E000EE5AED5AED52ED5214EE16F004EE36F0AA
:1039F000EE52E652E550ED5C02E1E750EF5C1BE26F
:103A000004EE10F0EECF00F0EDCF01F00EC4E8FFB1
:103A1000005C026E0FC4E8FF0158036E04EE2EF046
:103A20000250EE5E0350EE5A000E03BEFF0EEE5A39
:103A3000ED5AED52ED5216C436F417C437F40001B6
:103A4000B46B4E51C0D805D0010E0001B46F4E5179
:103A5000BAD800014C51D8A438EC23F000014B2B0C
:103A6000080E4B65BCD512004B004BC0E9FF4CC0A3
:103A7000EAFFEECF55F0EECF56F0EECF57F0EECF97
:103A800058F04DC0E9FF4EC0EAFFEECF59F0EECF3F
:103A90005AF0EECF5BF0EECF5CF000015D6B060EEE
:103AA0005E6F4FC05FF050C060F05FC0F9F060C063
:103AB000FAF035EC6DF000C05FF001C060F000017D
:103AC000550EF76F000EF86F0C0EF96FFA6B5DEC88
:103AD0006DF0001C0001516F011C526F4FC0DEF0F1
:103AE00050C0DFF0BAEC04F000C053F001C054F055
:103AF00000015451521902E15351511903E02DECC8
:103B000002F0010C0001996B9A6B8BEC94F00001B0
:103B1000610EFC6F000EFD6F140EFE6FFF6B3FEC2D
:103B200006F00001610EDE6F000EDF6F8AEC22F0FE
:103B300000016D390F0B006ED8900036D89000341C
:103B4000EC0FD96ED9504FC000F050C001F0005EAC
:103B5000000E015AEC0E00244F6FFF0E0120506F33
:103B60004BC0E9FF4CC0EAFF010EEE18000ED8B4BE
:103B7000EE18000ED8B4EE187F0ED8B4EE1803E19C
:103B80002DEC02F0010C0001610E756F000E766FD6
:103B90004BC077F04CC078F0DADB006E00C002F06A
:103BA000036A035002100BE00001610E756F000EF6
:103BB000766F4FC077F050C078F077EC23F02DECA3
:103BC00002F0010CB4000001B56F04EE24F0EF50D8
:103BD000D8B4120024C400F00004D8B41200AFEC32
:103BE00010F00001B5A104D00401258F0001B591AA
:103BF0000401259525972599259D259B25EC02F007
:103C00000009FCE00001B551060B03E0B86BB96B8D
:103C1000DDD104EE14F00401EE523751ED1836C434
:103C2000E8FFD8B4EF180DE10001B86BB96B0401DF
:103C300025AFCCD13C513D11000101E1C8D1B58186
:103C4000C5D114EE14F004EE36F0EE52E652E55013
:103C5000ED5C02E1E750EF5C01E3A1D004EE14F06B
:103C6000EECF00F0EDCF01F036C4E8FF005C0001BC
:103C7000B86F37C4E8FF0158B96F3CC4F3FF3DC4C7
:103C8000F4FF14EE16F004EE36F0EE52E652E55074
:103C9000ED5C02E1E750EF5C12E304EE36F0EECFAC
:103CA00000F0EDCF01F016C4E8FF005C026E17C40F
:103CB000E8FF0158036E0250F35E035025D004EE76
:103CC00016F0EECF00F0EDCF01F036C4E8FF005C57
:103CD000F66E37C4E8FF0158F76E04EE10F0EECF31
:103CE00000F0EDCF01F00EC4E8FF005C026E0FC4DF
:103CF000E8FF0158036EF650025C006EF75003585F
:103D0000016E0050F35E0150F45A0001B951F45CA9
:103D100002E1B851F35C04E2F3CFB8F0F4CFB9F0AC
:103D20000001020EB95D190ED8B4B85D06E3180E95
:103D3000B86F020EB96F0401258D040125AF0FD0B5
:103D40000001F450B91902E1F350B81908E0B95173
:103D5000020A180ED8B4B819000102E0B5810001BA
:103D6000BB0EDE6F0A0EDF6FE06B00EEE1F036C4D3
:103D7000EEFF37C4EDFF29C4E3F0B8C0E4F0B9C0EA
:103D8000E5F0C8EC2CF0B8C000F0B9C001F00401B7
:103D900000C0E8FF362701C0E8FF372317D104EE43
:103DA00010F0EECF00F0EDCF01F036C4E8FF005C7C
:103DB0000001C86F37C4E8FF0158C96F14C4E8FF99
:103DC000C825006E15C4E8FFC921016E0EC4E8FFC6
:103DD000005CB86F0FC4E8FF0158B96F3CC4F3FF33
:103DE0003DC4F4FF14EE16F004EE36F0EE52E65247
:103DF000E550ED5C02E1E750EF5C12E304EE36F0D3
:103E0000EECF00F0EDCF01F016C4E8FF005C026ECB
:103E100017C4E8FF0158036E0250F35E035025D02B
:103E200004EE16F0EECF00F0EDCF01F036C4E8FF5F
:103E3000005CF66E37C4E8FF0158F76E04EE10F030
:103E4000EECF00F0EDCF01F00EC4E8FF005C026E93
:103E50000FC4E8FF0158036EF650025C006EF75085
:103E60000358016E0050F35E0150F45A0001B9513D
:103E7000F45C02E1B851F35C04E2F3CFB8F0F4CFA4
:103E8000B9F00001020EB95D190ED8B4B85D06E3B1
:103E9000180EB86F020EB96F0401258D040125AF0D
:103EA0000FD00001F450B91902E1F350B81908E03D
:103EB000B951020A180ED8B4B819000102E0B58150
:103EC0000001C951F45C02E1C851F35C04E2F3CF94
:103ED000C8F0F4CFC9F000EEC8F0EE52020EED5C6F
:103EE000190ED8B4EF5C000104E3180EC86F020E7F
:103EF000C96FBB0EDE6F0A0EDF6FE06B00EEE1F004
:103F000036C4EEFF37C4EDFF29C4E3F0C8C0E4F0C7
:103F1000C9C0E5F0C8EC2CF00001C851B85DC86F0D
:103F2000C951B959C96F00EEC8F0EE50ED1023E049
:103F300004EE10F0EECF00F0EDCF01F036C4E8FF54
:103F4000005C026E37C4E8FF0158036EBB0E02240A
:103F5000DE6F0A0E0320DF6FE06B00EEE1F00EC4AF
:103F6000EEFF0FC4EDFF29C4E3F0C8C0E4F0C9C000
:103F7000E5F0C8EC2CF0B8C000F0B9C001F00401C5
:103F800000C0E8FF362701C0E8FF372314EE10F029
:103F900004EE36F0EE52E652E550ED5C02E1E750F9
:103FA000EF5C14E304EE10F0EECF00F0EDCF01F083
:103FB0000EC4E8FF005C026E0FC4E8FF0158036EF8
:103FC00002C0E8FF365F03C0E8FF375B0001B9516C
:103FD000B81103E1B551030B26E00001B4A108D0EC
:103FE00004014D6B2D6B2C6B980E2B6F970E2A6F67
:103FF0004AEC9BF0000EE96E000EEA6E04012A51B5
:10400000EE24E8CF1CF42B51EE20E8CF1DF42C5108
:10401000EE20E8CF1EF42D51EE20E8CF1FF4ED5234
:10402000ED52258334D00001B4A30BD00401FF0E60
:104030002E072F2330233123010E0001B86FB96BF7
:1040400026D0040125A323D00001B4B107D0040178
:104050004D07D8902D332C332B332A334AEC9BF069
:10406000000EE96E000EEA6E04012A51EE24E8CF3C
:104070001CF42B51EE20E8CF1DF42C51EE20E8CF9C
:104080001EF42D51EE20E8CF1FF4ED52ED5200EE5C
:10409000CAF03AC4EEFF3BC4EDFF00EECCF038C4EA
:1040A000EEFF39C4EDFF00EECEF02EC4EEFF2FC4BC
:1040B000EEFF30C4EEFF31C4EEFF00EED2F032C4AA
:1040C000EEFF33C4EEFF34C4EEFF35C4EEFF000153
:1040D0003F0ED717F00ED617B551D76FDC6BDD6BDF
:1040E00004EE2EF0B851EE26B951EE22000EEE226B
:1040F000ED22ED52ED52B5A310D004014CA306D031
:104100000001CE07CF5BD05BD15B07D004012E2B23
:10411000000E2F23302331234C830001B5A111D091
:1041200004014CA107D00001CE07000ECF5BD05B8D
:10413000D15B07D004012E2B000E2F233023312317
:104140004C8114EE1AF004EE18F0EE52E652E550EF
:10415000ED5C02E1E750EF5C23E304EE18F0EECFF4
:1041600000F0EDCF01F01AC4E8FF005CF66E1BC44E
:10417000E8FF0158F76E04EE12F0EECF00F0EDCF3D
:1041800001F010C4E8FF005C026E11C4E8FF0158A2
:10419000036EF650025C0001D86FF750035814D03C
:1041A00004EE1AF0EECF00F0EDCF01F018C4E8FFF6
:1041B000005C026E19C4E8FF0158036EFF0E022472
:1041C0000001D86FFF0E0320D96F5BEC02F0C00E28
:1041D00000240001B66FFF0E0120B76FB7AF02D009
:1041E000B66BB76B0001D951B75D02E1D851B65D2E
:1041F00004E2B6C0D8F0B7C0D9F00001CA0EDE6F35
:10420000000EDF6F87D9140E0001B827000EB92306
:10421000D6510F0B5009D66FB5A316D0040EB82790
:10422000000EB923020EBA6F040EBB6F020EBC6FF4
:10423000140EBD6FD6390F0B006E002A003AD6510E
:1042400000180F0B0018D66F00EEBEF05BC4EEFF37
:104250005CC4EEFF5DC4EEFF5EC4EEFF00EEC2F094
:1042600040C4EEFF41C4EEFF42C4EEFF43C4EEFF84
:104270000001C66B060EC76FB8C0C8F0B9C0C9F060
:10428000C8C0F9F0C9C0FAF035EC6DF000C0C8F054
:1042900001C0C9F00001BE0EF76F000EF86F0C0EE2
:1042A000F96FFA6B5DEC6DF0001C0001DA6F011C18
:1042B000DB6F930EE66F0A0EE76F49EC04F0000126
:1042C000400EDE6F040EDF6F060EE06FB8C0E1F047
:1042D000B9C0E2F024EC94F00001CA0EFC6F000EAD
:1042E000FD6F140EFE6FFF6B86EC06F00001B5A3A8
:1042F00009D0BA0EFC6F000EFD6F040EFE6FFF6B4F
:1043000086EC06F00001A70EE66F0A0EE76F60EC80
:1043100004F0B8C0DEF0B9C0DFF0BAEC04F000C0C1
:10432000B6F001C0B7F00001B70EE66F0A0EE76FF6
:1043300049EC04F00001B60EFC6F000EFD6F020E9A
:10434000FE6FFF6B86EC06F077EF03F07500FE0E54
:104350000001796F77C0E9FF78C0EAFF75C0D9FF27
:1043600076C0DAFF10EE02F0D950E126DA50E222F0
:10437000E6CF00F0E5CF01F0DECF02F0DDCF03F0B5
:10438000EECFF6FFEDCFF7FF10EE02F0E950E12699
:10439000EA50E222E6CF7DF0E5CF7EF0F6507D25B3
:1043A0007F6FF7507E21806F02507F25F66E03509D
:1043B0008021F76E0050F6187B6F0150F7187C6F64
:1043C0007A6B00017A5179EC10F024C4E8FF0F0AEF
:1043D00054E024C4E8FF060A15E1000110EE02F0E3
:1043E0007551E1267651E22204EE27F0EE52E652B4
:1043F000E550ED18E7CFE8FFD8B4EF183EE17A5169
:10440000796F3BD004EE27F00001EE527C51ED189D
:104410007BC0E8FFD8B4EF1830E1AFEC10F075C006
:10442000D9FF76C0DAFF00EE02F0D950E926DA5063
:10443000EA220401EE523B51ED183AC4E8FFD8B429
:10444000EF181BE1DE523951DD1838C4E8FFD8B44B
:10445000DF1813E114EE40F077C0E9FF78C0EAFFFF
:10446000EE50E61808E1EE50E61805E1EE50E618C9
:1044700002E1EE50E61801E1010C00017A2B080E72
:104480007A659FD77951FE0A01E1000C000179514C
:1044900079EC10F0AFEC10F07BC027F47CC028F46E
:1044A0000001400EE66F040EE76F77C0E8F078C0B9
:1044B000E9F00A0EEA6FEB6B4FEC9EF075C0E1FF7E
:1044C00076C0E2FFE6CF00F0E5CF01F000C038F49F
:1044D00001C039F400EE02F0E150E926E250EA2290
:1044E000EECF00F0EDCF01F000C03AF401C03BF494
:1044F00023EC9DF000C02EF401C02FF423EC9DF0BE
:1045000000C030F401C031F40EC436F40FC437F4E7
:10451000010CDE00DEC0E9FFDFC0EAFFEECFF9F0FC
:10452000EDCFFAF035EC6DF0DEC0E9FFDFC0EAFF59
:1045300000C0EEFF01C0EDFF000100EE02F0DE5111
:10454000E926DF51EA22EECFF9F0EDCFFAF035ECB3
:104550006DF0000100EE02F0DE51E926DF51EA22A3
:1045600000C0EEFF01C0EDFF00EE04F0DE51E926D1
:10457000DF51EA22EECFE0F0EECFE1F0EECFE2F055
:10458000EECFE3F046EC6DF0000100EE04F0DE51FA
:10459000E926DF51EA2200C0EEFF01C0EEFF02C0B3
:1045A000EEFF03C0EEFF00EE08F0DE51E926DF511A
:1045B000EA22EECFE0F0EECFE1F0EECFE2F0EECF88
:1045C000E3F046EC6DF0000100EE08F0DE51E92664
:1045D000DF51EA2200C0EEFF01C0EEFF02C0EEFF95
:1045E00003C0EEFF00EE0EF0DE51E926DF51EA22B5
:1045F000EECFF9F0EDCFFAF035EC6DF0000100EE02
:104600000EF0DE51E926DF51EA2200C0EEFF01C0C4
:10461000EDFF00EE10F0DE51E926DF51EA22EECF89
:10462000F9F0EDCFFAF035EC6DF0000100EE10F08E
:10463000DE51E926DF51EA2200C0EEFF01C0EDFFA6
:1046400000EE12F0DE51E926DF51EA22EECFF9F05A
:10465000EDCFFAF035EC6DF0000100EE12F0DE5116
:10466000E926DF51EA2200C0EEFF01C0EDFF120093
:10467000AFEC10F03AC427F43BC428F40EC414F491
:104680000FC415F40EC416F40FC417F410C418F4B4
:1046900011C419F410C41AF411C41BF4040125B197
:1046A00002D00F0E01D0060EE8CF24F425932595F5
:1046B00025972599259B259D259F26814C914C93D7
:1046C0000EC436F40FC437F423EC9DF000C02EF472
:1046D00001C02FF423EC9DF000C030F401C031F490
:1046E000FF0EE8CF4AF4E8CF4BF41200750000014A
:1046F00000EE0DF07551E9267651EA22EF50796F00
:1047000000EE08F07551E9267651EA22EECF8EF0E0
:10471000EECF8FF0EECF90F0EECF91F000EE04F000
:104720007551E9267651EA22EECF86F0EECF87F07A
:10473000EECF88F0EECF89F0040125B3A8D04AEC83
:104740009BF0E60E0024E8CF1CF4F50E0120E8CF24
:104750001DF4050E0220E8CF1EF4000E0320E8CF62
:104760001FF495D0000179B583D7000179A90DD048
:104770008EC02EF48FC02FF490C030F491C031F46D
:10478000B46B040EE3EC1DF073D7000179A370D76E
:104790008629E8CF32F4000E8721E8CF33F4000EEB
:1047A0008821E8CF34F4000E8921E8CF35F4010EDA
:1047B000B46F120EE3EC1DF0080EE8CF24F41200E3
:1047C000000179B5120079A92CD004EE2EF0EE503C
:1047D0008E1908E1EE508F1905E1EE50901902E1B3
:1047E000EE5091191EE02EC486F02FC487F030C41D
:1047F00088F031C489F08EC02EF48FC02FF490C0A1
:1048000030F491C031F4010EB46F040EE3EC1DF0EE
:1048100086C02EF487C02FF488C030F489C031F4EC
:104820001200000179A312008629E8CF32F4000EAD
:104830008721E8CF33F4000E8821E8CF34F4000E4E
:104840008921E8CF35F400EE0EF07551E926765156
:10485000EA22EECF00F0EDCF01F000C03CF401C041
:104860003DF4010E79A90AD0B46F100EE3EC1DF0EF
:10487000090EE8CF24F40401259312000001B46F5F
:10488000120EE3EC1DF0080EE8CF24F4120024C44D
:10489000E8FF060A01E166D7010A92E077C07CF0E2
:1048A00078C07DF0000179A102D07C4B7D2B000106
:1048B00079A302D07C4B7D2B14EE1AF004EE18F095
:1048C000EE52E652E550ED5C02E1E750EF5C23E387
:1048D00004EE18F0EECF00F0EDCF01F01AC4E8FFBF
:1048E000005CF66E1BC4E8FF0158F76E04EE12F090
:1048F000EECF00F0EDCF01F010C4E8FF005C026ED7
:1049000011C4E8FF0158036EF650025C00017A6F93
:10491000F750035814D004EE1AF0EECF00F0EDCFAC
:1049200001F018C4E8FF005C026E19C4E8FF0158EA
:10493000036EFF0E022400017A6FFF0E03207B6FCF
:10494000000132C4E8FF865D8A6F33C4E8FF8759EF
:104950008B6F34C4E8FF88598C6F35C4E8FF8959E0
:104960008D6F8AC080F08BC081F0F36A7D517C111D
:104970007AE07B517A1101E196D08DBF16D07AC0D2
:1049800000F07BC001F0026A036A8D51800A046E58
:104990000350800A045C08E102508C5D05E101507F
:1049A0008B5D02E100508A5D35E300017C518A2570
:1049B000006E7D518B21016E000E8C21026E000E67
:1049C0008D21036E0350800A800F08E1000E025C07
:1049D00005E1000E015C02E1010E005C1DE37C516B
:1049E0007A5D006E7D517B59016E026A01BE02063E
:1049F0000250036E0350800A046E8D51800A045CDD
:104A000008E18C51025C05E18B51015C02E18A51A5
:104A1000005C02E3010EF36E7AC000F07BC001F08F
:104A2000026A036A00018D51800A046E0350800AF5
:104A3000045C08E102508C5D05E101508B5D02E1F0
:104A400000508A5D30E280C000F081C001F07C51EE
:104A500000267D5101220150800A800F010ED8B43A
:104A6000005C21E31ED000018D518A118B118C1145
:104A700018E08DBF18D07AC000F07BC001F0026A48
:104A8000036A8D51800A046E0350800A045C08E1B9
:104A900002508C5D05E101508B5D02E100508A5DA2
:104AA00002E2010EF36EF35008E1000179B5120045
:104AB000010EB46F100EE3EF1DF000017951060BEB
:104AC00001E0D6D5000179A912009ED104EE2EF0A6
:104AD0000001EE508E1908E1EE508F1905E1EE50FD
:104AE000901902E1EE5091191EE02EC486F02FC4F9
:104AF00087F030C488F031C489F08EC02EF48FC0A6
:104B00002FF490C030F491C031F4010EB46F040E54
:104B1000E3EC1DF086C02EF487C02FF488C030F47B
:104B200089C031F41200090EE8CF24F404EE2EF00F
:104B300000018E51EE5C006E8F51EE58016E905167
:104B4000EE58026E9151ED58036EED52ED5203BED8
:104B5000AFD704EE36F0EECF00F0EDCF01F016C483
:104B6000E8FF005C046E17C4E8FF0158056E066A92
:104B700005BE06060650076E04EE2EF00450EE5CED
:104B8000006E0550EE58016E0650EE58026E07504A
:104B9000ED58036EED52ED5200C082F001C083F07B
:104BA00002C084F003C085F014EE16F004EE36F077
:104BB000EE52E652E550ED5C02E1E750EF5C19E29F
:104BC0000EC402F00FC403F004EE10F0EECF00F0BC
:104BD000EDCF01F00250005E0350015A026A036AF1
:104BE00000010050825F0150835B0250845B0350E0
:104BF000855B000182518E5D826F83518F59836F77
:104C000084519059846F85519159856F8551800ADF
:104C1000800F08E1000E845D05E1000E835D02E176
:104C2000010E825D4CE30EC402F00FC403F004EEEB
:104C300010F0EECF00F0EDCF01F00250005E035017
:104C4000015A026A036A8551035C08E18451025CDF
:104C500005E18351015C02E18251005C30E3040113
:104C6000259B82C000F083C001F084C002F085C0A3
:104C700003F000C0E8FF162701C0E8FF172314EE79
:104C800010F004EE16F0EE52E652E550ED5C02E153
:104C9000E750EF5C14E304EE10F0EECF00F0EDCF40
:104CA00001F00EC4E8FF005C026E0FC4E8FF01587B
:104CB000036E02C0E8FF165F03C0E8FF175B04EE57
:104CC00016F00401EE521551ED1814C4E8FFD8B4E3
:104CD000EF1817E125BF02D0259313D004EE2EF074
:104CE0000001EE508E1908E1EE508F1905E1EE50EB
:104CF000901902E1EE50911904E104012593259FDA
:104D00004C9104013C513D110CE1000100EE0EF00C
:104D10007551E9267651EA22EE50ED1002E00401C9
:104D2000258D000100EE0EF07551E9267651EA223C
:104D3000EECF00F0EDCF01F000C03CF401C03DF437
:104D400024C4E8FF0A0A26E104EE2EF0EE508E1984
:104D500008E1EE508F1905E1EE50901902E1EE5096
:104D6000911968E14AEC9BF0F30E0024E8CF1CF4A3
:104D7000FA0E0120E8CF1DF4020E0220E8CF1EF447
:104D8000000E0320E8CF1FF4040125830B0EE8CFAB
:104D900024F450D024C4E8FF0B0A10E1000179B1DB
:104DA00049D08EC02EF48FC02FF490C030F491C043
:104DB00031F4B46B140EE3EC1DF05AD424C4E8FFB4
:104DC0000C0A38E104EE2EF00001EE508E1908E1D5
:104DD000EE508F1905E1EE50901902E1EE50911955
:104DE000D8B446DC120004EE2EF00001EE508E190D
:104DF00008E1EE508F1905E1EE50901902E1EE50F6
:104E00009119D8B435DC120024C4E8FF080A01E186
:104E10005DD6010A01E18AD6030A01E187D6010ABB
:104E200001E184D6070A01E181D6010A01E17ED6BB
:104E3000030AD9E0000179BB120024C4E8FF0D0A7F
:104E4000D8B4120024C4E8FF0C0AD8B4120024C459
:104E5000E8FF0E0AD8B412007851771101E1A2D20E
:104E60008151800A800F010ED8B4805D01E30ED11C
:104E700000EE0CF07551E9267651EA22EF380F0B5F
:104E8000040D8051F35C996F8151F4589A6F8BEC4B
:104E900094F00001805177278151782378517B5D10
:104EA00002E177517A5D04E27AC077F07BC078F056
:104EB00004EE32F000017751EE267851EE22000E1A
:104EC000EE22ED22ED52ED5204EE18F0EECF02F09C
:104ED000EDCF03F0775102267851032204EE12F051
:104EE000EECF00F0EDCF01F00350015C02E1025083
:104EF000005C48E204EE12F0EECF00F0EDCF01F0DE
:104F000018C4E8FF005C026E19C4E8FF0158036E84
:104F100002287E6F000E03207F6F18C4DEF019C4D4
:104F2000DFF029C4E0F0E169E269E36B7EC0E4F000
:104F30007FC0E5F0C8EC2CF010C4DEF011C4DFF047
:104F400029C4E0F00001E169E269E36B7E51775D1D
:104F5000E46F7F517859E56FC8EC2CF077C000F012
:104F600078C001F000017E51005E7F51015A10C4EB
:104F7000E8FF0024E8CF18F411C4E8FF0120E8CFCF
:104F800019F41BD018C4DEF019C4DFF029C4E0F016
:104F90000001E169E269E36B77C0E4F078C0E5F015
:104FA000C8EC2CF077C000F078C001F0040100C01C
:104FB000E8FF182701C0E8FF192304014B1DFF0E6D
:104FC000D8B44A1901E1EED177C000F078C001F001
:104FD00000C0E8FF4A5F01C0E8FF4B5B04EE3EF013
:104FE000EECF00F0EDCF01F04AC4E8FF0024F36EED
:104FF0004BC4E8FF0120F46EF4AE06D0FF0EE8CFFC
:105000004AF4E8CF4BF4CED104014B51800A800F13
:10501000010ED8B44A5D01E3C5D104EE32F0F3507D
:10502000EE26F450EE22000EEE22ED22ED52ED526D
:10503000F3CF00F0F4CF01F000C0E8FF182701C063
:10504000E8FF192314EE18F004EE12F0EE52E652C7
:10505000E550ED5C02E1E750EF5CD0E204EE12F0C7
:10506000EECF00F0EDCF01F010C4E8FF005C026E5F
:1050700011C4E8FF0158036E022A000E032202C089
:10508000E8FF185F03C0E8FF195BB8D70001815142
:10509000800A800F010ED8B4805D01E283D177C011
:1050A00000F078C001F080510026815101220150AA
:1050B0007B5D02E100507A5D06E280517A5D776F98
:1050C00081517B59786F000100EE0CF07551E92693
:1050D0007651EA22EF380F0B040DF3CF99F0F4CF9D
:1050E0009AF08BEC94F004EE18F0EECF02F0EDCFD6
:1050F00003F00001805102268151032277510226DC
:105100007851032204EE12F0EECF00F0EDCF01F063
:105110000350015C02E10250005C72E204EE12F006
:10512000EECF00F0EDCF01F018C4E8FF005C026E96
:1051300019C4E8FF0158036E022A000E03228051B1
:10514000025C7E6F815103587F6F7FBF29D004EED0
:1051500018F0EECF00F0EDCF01F080510024DE6FAB
:1051600081510120DF6F29C4E0F0E169E269E36B5E
:105170007EC0E4F07FC0E5F0C8EC2CF010C4DEF097
:1051800011C4DFF029C4E0F00001E169E269E36BDA
:105190007E51775DE46F7F517859E56FF9DB47D039
:1051A00004EE12F0EECF00F0EDCF01F010C4E8FFF6
:1051B000005C026E11C4E8FF0158036E04EE18F0A3
:1051C000EECF00F0EDCF01F00001805100268151BB
:1051D00001220250005CF66E03500158F76EFF0E7C
:1051E000F624DE6FFF0EF720DF6F29C4E0F0E169DF
:1051F000E269E36B77C0E4F078C0E5F0C9DB17D073
:1052000004EE18F0EECF00F0EDCF01F00001805178
:105210000024DE6F81510120DF6F29C4E0F0E169D5
:10522000E269E36B77C0E4F078C0E5F0B1DB04013C
:105230004B1DFF0ED8B44A1909E180C04AF481C061
:105240004BF477C03EF478C03FF4ACD004EE4AF0A3
:10525000EECF00F0EDCF01F000010150815D02E1E1
:105260000050805D80C000F04FE281C001F07751B6
:1052700000267851012204EE4AF0EECF02F0EDCF85
:1052800003F03EC4E8FF0224F66E3FC4E8FF0320AB
:10529000F76E0150F75C02E10050F65C14E304EE97
:1052A0004AF0EECF02F0EDCF03F080C000F081C0F5
:1052B00001F077510026785101220350015C02E190
:1052C0000250005C05E277C03EF478C03FF417D08E
:1052D00004EE4AF0EECF00F0EDCF01F03EC4E8FF5F
:1052E0000024026E3FC4E8FF0120036E00018051DC
:1052F000025CE8CF3EF481510358E8CF3FF480C010
:105300004AF481C04BF44ED081C001F000017751C6
:1053100000267851012204EE4AF0EECF02F0EDCFE4
:1053200003F03EC4E8FF0224F66E3FC4E8FF03200A
:10533000F76E0150F75C02E10050F65C33E204EED8
:105340004AF0EECF00F0EDCF01F03EC4E8FF0024BC
:10535000026E3FC4E8FF0120036E8151035C02E14D
:105360008051025C1FE380C000F081C001F07751E2
:105370000026785101224AC4E8FF005C026E4BC44B
:10538000E8FF0158036E3EC4E8FF025C006E3FC4B4
:10539000E8FF0358016E040100C0E8FF3E2701C08A
:1053A000E8FF3F2300017D517C1123E024C4E8FF86
:1053B000090A04E018C41AF419C41BF4040125A94D
:1053C00009D0010E0001B46F100EE3EC1DF0AFEC3C
:1053D00010F00FD00401258925B70BD0258754EC98
:1053E0009BF00F0E0024E8CF22F4000E0120E8CF3E
:1053F00023F404EE14F00401EE521751ED1816C414
:10540000E8FFD8B4EF18D8B42593000179A11200B1
:105410007C518625006E7D518721016E000E88210A
:10542000026E000E8921036E32C404F033C405F00D
:1054300034C406F035C407F00428086E000E0520B9
:10544000096E000E06200A6E000E07200B6E031870
:1054500008E102500A1805E10150091802E1005064
:105460000818D8A412000401322B000E3323342371
:10547000352337D00E0EE8CF24F4010E0001B46FAF
:10548000110EE3EF1DF00D0EE8CF24F454EC9BF069
:105490001E0E0024E8CF22F4000E0120E8CF23F4F2
:1054A0002AD004EE2EF00001EE508E1908E1EE50E5
:1054B0008F1905E1EE50901902E1EE50911906E1C5
:1054C000B46B100EE3EC1DF038EF23F00C0EE8CFB8
:1054D00024F411D00001B46B100EE3EC1DF038EF92
:1054E00023F024C4E8FF080AC5E0010ACCE0030A5F
:1054F000D8E0010AEFE0010E000159EF25F05D0050
:105500000001626F625179EC10F000015E515D1193
:1055100003E1010E5D6F5E6B04EE12F0EECF00F062
:10552000EDCF01F00EC4E8FF005C026E0FC4E8FF8F
:105530000158036EFF0E02240001636FFF0E03206B
:10554000646F5DC000F05EC001F05F5100266051E5
:1055500001220150645D02E10050635D01E2000C34
:10556000AFEC10F000016151030B02E1030E616F1B
:105570005FC0F6FF60C0F7FF5DC000F05EC001F0E5
:1055800000015F510026605101220050635F01500D
:10559000645B61A310D061A109D0D8906431016E21
:1055A0006331006E0050F626015004D000016351B3
:1055B000F6266451F7220EC400F00FC401F0F65035
:1055C0000026F75001220028F36E000E0120F46E31
:1055D00014EE18F004EE1AF0EE52E652E550ED5CCF
:1055E00002E1E750EF5C0CE204EE1AF0EECF00F0BF
:1055F000EDCF01F0F450015C02E1F350005C17D0F4
:1056000014EE1AF004EE18F0EE52E652E550ED5C9E
:1056100002E1E750EF5C0FE204EE10F0EECF00F095
:10562000EDCF01F0F450015C02E1F350005C0BE2BD
:10563000000161B5000CF3CF1AF4F4CF1BF4F3CFE3
:1056400018F4F4CF19F4F3CF10F4F4CF11F40EC41E
:1056500036F40FC437F40EC416F40FC417F40EC496
:1056600014F40FC415F424C4E8FF090A06E1010E7E
:105670000001B46F100EE3EC1DF0010C3F000001BF
:105680003F6B00013F5179EC10F024C4E8FF060A9B
:1056900020E104EE27F00001EE524051ED183FC02A
:1056A000E8FFD8B4EF1815E10401246B0EC414F41C
:1056B0000FC415F40EC416F40FC417F410C418F474
:1056C00011C419F410C41AF411C41BF400013F51A1
:1056D000120000013F2B080E3F65D3D7FE0C0001DE
:1056E0003F6F3F5179EC10F004EE24F0EF5005E0ED
:1056F00024C400F0000401E0000C38EC23F0010C9D
:1057000000015D6F5D5179EC10F004EE24F0EF5074
:1057100005E024C400F0000401E0000C010C3F008F
:1057200000013F6F3F5179EC10F024C400F00004F9
:1057300005E141C000F042C001F0120000013F51FC
:1057400044EC17F000C040F001C041F000014251AC
:10575000415D02E14151405D04E240C041F041C081
:1057600042F004EE18F0EECF02F0EDCF03F00001AE
:10577000415102264251032204EE12F0EECF00F016
:10578000EDCF01F00350015C02E10250005C50E2F9
:1057900004EE12F0EECF00F0EDCF01F018C4E8FFF8
:1057A000005C026E19C4E8FF0158036E0228406FC6
:1057B000000E0320416F18C4DEF019C4DFF029C4C5
:1057C000E0F03FC0E1F040C0E2F0010EE36F40C006
:1057D000E4F041C0E5F0DCD8000140513F274151E1
:1057E000402310C4DEF011C4DFF029C4E0F03FC054
:1057F000E1F040C0E2F0010EE36F4051415DE46F23
:1058000041514259E56FC4D841C000F042C001F097
:1058100000014051005E4151015A10C4E8FF0024CC
:10582000E8CF18F411C4E8FF0120E8CF19F41DD027
:1058300018C4DEF019C4DFF029C4E0F03FC0E1F085
:1058400040C0E2F0010E0001E36F41C0E4F042C04D
:10585000E5F09ED841C000F042C001F0040100C054
:10586000E8FF182701C0E8FF192341C000F042C03B
:1058700001F012003F0000013F6F426B436B3F514C
:1058800079EC10F000013F51B4EC15F000C040F08D
:1058900001C041F000014251415D02E14151405DD2
:1058A00004E240C041F041C042F004EE10F0EECFFF
:1058B00000F0EDCF01F004EE16F0EECF02F0EDCFE8
:1058C00003F0000141510226425103220150035CC2
:1058D00002E10050025C32E304EE10F0EECF00F083
:1058E000EDCF01F016C4E8FF005C426F17C4E8FF7B
:1058F0000158436F3FC0DEF040C0DFF0010EE06FA3
:1059000000EEE1F016C4EEFF17C4EDFF29C4E3F08A
:1059100042C0E4F043C0E5F03BD8000140513F11E4
:1059200004E042513F274351402300014251415F6F
:105930004351425B0EC416F40FC417F43FC0DEF0AF
:1059400040C0DFF0010E0001E06F00EEE1F016C490
:10595000EEFF17C4EDFF29C4E3F041C0E4F042C0FC
:10596000E5F016D841C000F042C001F0040100C0CB
:10597000E8FF162701C0E8FF172341C000F042C02E
:1059800001F0000142510026435101221200DE00C5
:1059900056D021D0DEC0E6F0DFC0E7F0E1C0E8F08D
:1059A000E2C0E9F0E4C0EAF0E5C0EBF04FEF9EF0B2
:1059B0000001DFBF06D0DEC0E6F0DFC0E7F049EC53
:1059C00004F0E1C0FCF0E2C0FDF0E4C0FEF0E5C090
:1059D000FFF086EF06F00001E051EAE0010ADAE0AC
:1059E000120027D00001E2BF06D0E1C0E6F0E2C01D
:1059F000E7F060EC04F0DEC0FCF0DFC0FDF0E4C0D6
:105A0000FEF0E5C0FFF03FEF06F0DEC0E6F0DFC0DD
:105A1000E7F0E1C0E8F0E2C0E9F0E4C0EAF0E5C098
:105A2000EBF037EC05F025EC06F00009D8A41200E5
:105A3000FAD70001E051E9E0010AD4E012000001C8
:105A4000E351CFE0010AA5E0120073004ED073C00D
:105A5000E6F074C0E7F076C0E8F077C0E9F078C00F
:105A6000EAF079C0EBF04FEF9EF0000174BF06D072
:105A700073C0E6F074C0E7F049EC04F0100E0001CA
:105A80007A6F7B6B000179517811D8B412007B5189
:105A9000795D02E17A51785D04E278C07AF079C0EC
:105AA0007BF000017C0EE66F000EE76F76C0E8F039
:105AB00077C0E9F07AC0EAF07BC0EBF04FEC9EF0E3
:105AC00000017C0EFC6F000EFD6F7AC0FEF07BC003
:105AD000FFF086EC06F000017A5176277B517723A0
