:0400000016EF00F007
:0C000800FACFF3F7FBCFF2F7D7EF64F06C
:10001800D8CFD6F7E0CF10F0FACFD5F7FBCFD4F78B
:100028009EEF64F000EE0FF014EEEFF039EC00F004
:1000380006EE30F011EE88F039EC00F005EE62F0D3
:10004800900EF66E010EF76EF86A10EECEF040ECE8
:1000580000F001EE00F0920EF66E000EF76E10EE54
:10006800FEF040EC00F04AEF65F0EE6AE550E15032
:10007800FCE1E250FAE112000900F5CFEEFFE5508D
:10008800E150FAE1E250F8E11200500000000000EF
:100098000000000000000000000000000000000058
:1000A8000000000000000000000000000000000048
:1000B8000000000000000000000000000000000038
:1000C8000000000000000000000000000000000028
:1000D8000000000000000000000000000000000018
:1000E8000000000000000000000000000000000008
:1000F80000000000000000000000000000000000F8
:1001080000000000000000000000000000000000E7
:1001180000000000000000000000000000000000D7
:1001280000000000000000000000000000000000C7
:1001380000000000000000000000000000000000B7
:1001480000000000000000000000000000000000A7
:100158000000000000000000000000000000000097
:100168000000000000000000000000000000000087
:100178000000000000000000000000000000000077
:10018800000000000000000000000100FF0100FF67
:100198000F7777772E676F6F676C652E636F6D00CB
:1001A800FE04003D116F118111861178114611A9C5
:1001B8001194118A11E41139117D174A117C117CAF
:1001C800117C1173114111A3118E1198115511ADA4
:1001D800118017521552152416D616CA15DC147735
:1001E80015F611801703139D139114921672145368
:1001F800146214000000FFFE0000FEFEFEFEFE007A
:10020800EC06EC06DB06DB0600FEFFFFFF006A6F6C
:10021800654070696373617265676F6F642E636FA1
:100228006D004D6573736167652067656E65726102
:1002380074656420627920737461636B2076342E50
:100248003138200D0A0D0A427574746F6E733A20A6
:10025800333231300000C2500001516FC050526F2C
:10026800D550536FD650556FD750546F010EC26E8C
:100278003F0EC06E880ED56E426B496B4A6B4B6B56
:100288004C6BD76AD66A0F01C28304000F01C2B350
:10029800FDD7D6500001476FD750486F56EC9EF0F7
:1002A80000C043F001C044F047C000F048C001F06E
:1002B800026A036A00010050492701504A2302508C
:1002C8004B2303504C23000E4C5D08E19E0E4B5D02
:1002D80005E1F20E4A5D02E11A0E495D46E356EC6D
:1002E8009EF0000E01BEFF0E026E036E0F0E9FEC15
:1002F800A0F000C056F001C057F002C058F003C08B
:1003080059F056EC9EF0000E01BEFF0E026E036E11
:100318000001565100105A6F575101105B6F585128
:1003280002105C6F595103105D6F56EC9EF0000E81
:1003380001BEFF0E026E036E1E0E9FECA0F00001C0
:1003480000505A11046E01505B11056E02505C1189
:10035800066E03505D11076E04504D1B05504E1B71
:1003680006504F1B0750501B2FD00001485146190B
:1003780002E14751451985E045C000F046C001F04B
:1003880000014751005E4851015A43510024916FC2
:1003980044510120926F4BEC9EF047C045F048C095
:1003A80046F00001D8904D374E374F37503756EC4E
:1003B8009EF00150800A400F000ED8B4005C000186
:1003C80001E34D81423F5DD751C0C2FF0001525148
:1003D800C06E54C0D7FF55C0D6FF5351D56E4DC01F
:1003E80000F04EC001F04FC002F050C003F0120000
:1003F8008500F36A006A0001896B8A6B8B6B8C6BD2
:1004080087C0E1FF88C0E2FF53D0D00ED926F35051
:1004180004E1090ED96441D0000CF350030A12E13B
:10042800D950FE0A01E0000C0001000E8C5D08E1C5
:10043800020E8B5D05E1050E8A5D02E1060E895DFF
:1004480012E3000CD950FE0A24E10001000E8C5D75
:1004580008E1020E8B5D05E1050E8A5D02E1060EDC
:10046800895D01E3000C002A0004E124E96E000E16
:10047800E220EA6E00018B510A0D8A51F3240A0D1D
:100488008951F324EF6EF36A896B8A6B8B6B8C6BE3
:100498000FD0090ED96401D0000CF32A8BC08CF060
:1004A8008AC08BF089C08AF00001896BD950896FA6
:1004B80085C0E9FF86C0EAFF0001854B862BEF5017
:1004C800D96ED95003E0030E00649FD7D95010E0CD
:1004D800D9502F0A0DE0D9500D0A0AE0D9500A0A5E
:1004E80007E0D950200A04E0D950090A01E0000CBD
:1004F8000001000E8C5D08E1020E8B5D05E1050E22
:100508008A5D02E1060E895D01E3000C00EE03F04E
:10051800E150E926E250EA2200018B510A0D8A5186
:10052800F3240A0D8951F324EF6E010C7700F36A66
:10053800006A00017B6B7C6B7D6B7E6B79C0E1FF91
:100548007AC0E2FF53D0D00ED926F35004E1090E49
:10055800D96441D0000CF350030A12E1D950FE0AC5
:1005680001E0000C0001000E7E5D08E1020E7D5DD9
:1005780005E1050E7C5D02E1060E7B5D12E3000CD1
:10058800D950FE0A24E10001000E7E5D08E1020E4A
:100598007D5D05E1050E7C5D02E1060E7B5D01E3F4
:1005A800000C002A0004E124E96E000EE220EA6E45
:1005B80000017D510A0D7C51F3240A0D7B51F3246F
:1005C800EF6EF36A7B6B7C6B7D6B7E6B0FD0090ED5
:1005D800D96401D0000CF32A7DC07EF07CC07DF088
:1005E8007BC07CF000017B6BD9507B6F000177C02A
:1005F800F6FF78C0F7FF774B782B0E0EF76403D021
:100608000800F55005D0F6CFE9FFF7CFEAFFEF5025
:10061800D96ED95003E0030E006495D7D95010E085
:10062800D9502F0A0DE0D9500D0A0AE0D9500A0A0C
:1006380007E0D950200A04E0D950090A01E0000C6B
:100648000001000E7E5D08E1020E7D5D05E1050EEC
:100658007C5D02E1060E7B5D01E3000C00EE03F019
:10066800E150E926E250EA2200017D510A0D7C5151
:10067800F3240A0D7B51F324EF6E010C8800026A03
:10068800F36AF46A8CC0E1FF8DC0E2FF00018A5171
:10069800006E8B51016E8A07000E8B5B01500010B3
:1006A80001E19AD088C0E9FF89C0EAFFEF50D96E0E
:1006B800884B892BD9503D0A000ED8B4010E036E21
:1006C800400ED96405D05B0ED96002D0BF0E0FD0A2
:1006D800600ED96405D07B0ED96002D0B90E07D060
:1006E8002F0ED96406D03A0ED96003D0040ED9264D
:1006F80010D0D9502B0A03E0D9502D0A02E13E0E42
:1007080007D0D9502F0A03E0D9505F0ABFE13F0E46
:10071800D96E025010E10350B9E1022A00018F514D
:10072800F45C02E18E51F35C57E2F34AF42AD944AF
:10073800E846FC0B41D002041CE1022AD9CF00F0A4
:10074800003A0F0E0016E1CFE9FFE2CFEAFFE14AD7
:10075800E22A0050EF1200018F51F45C02E18E5141
:10076800F35C3AE2035092E1F34AF42AD938F00BE9
:1007780023D00250020A22E1022AD9CF00F0020E49
:10078800016ED8900032012EFCD7E1CFE9FFE2CF0D
:10079800EAFFE14AE22A0050EF1200018F51F45CAF
:1007A80002E18E51F35C18E2035001E06FD7F34A7F
:1007B800F42AD940E842C00BE76E68D70250030A12
:1007C80001E064D7026AE1CFE9FFE2CFEAFFE14A3C
:1007D800E22AD950EF125AD7F3CF00F0F4CF01F044
:1007E80012004900F36AF46A49C0E1FF4AC0E2FF17
:1007F8000001000E505D040ED8B44F5D01E287D0B1
:1008080051695269536954694C514B1101E17FD0C8
:10081800E6CFD9FF4B07D8A04C07D9CF00F0FC0E84
:100828000016D8900032D8900030516FD9CF00F020
:10083800030E00160038F00B526F4C514B112CE090
:10084800E6CFD9FF4B07D8A04C07D9CF00F0F00E60
:10085800001600380F0B5213D9CF00F00F0E0016F8
:10086800D8900036D8900034536F4C514B1114E097
:10087800E6CFD9FF4B07D8A04C07D9CF00F0C00E60
:100888000016060E016ED8900032012EFCD70050DB
:100898005313D9503F0B546F006A005000EE51F0CB
:1008A800E926000EEA22EF50D96E1A0ED96002D05E
:1008B800410E09D0340ED96002D0470E04D03E0E46
:1008C800D96003D0FC0ED9260CD0D9503E0A02E1DB
:1008D8002B0E06D0D9503F0A02E12F0E01D03D0E53
:1008E800D96E4DC0E9FF4EC0EAFFD9CFEFFF000136
:1008F8004D4B4E2B002A030E0064CFD7FC0E4F271A
:10090800FF0E5023040EF326000EF42271D7F3CF06
:1009180000F0F4CF01F012007400E96A76C0E1FF3C
:1009280077C0E2FF00017551741144E0D96A100ED6
:10093800F66E270EF76EF6CF02F0F7CF03F074C00D
:1009480000F075C001F04EEC9FF004C078F005C0CF
:1009580079F0000179517811D8B4E95019E0E1CF64
:10096800E9FFE2CFEAFFE14AE22A7851300FEF6E61
:10097800F6CF02F0F7CF03F078C000F079C001F0AD
:1009880078ECA0F00450745F0550755B010EE96EB9
:100998000A0E026E036AF6CF00F0F7CF01F04EECB4
:1009A8009FF004C0F6FF05C0F7FFD92A040ED964EA
:1009B800C2D708D0E1CFE9FFE2CFEAFFE14AE22A55
:1009C800300EEF6E000EE76A12005A00F36A5EC03E
:1009D800E1FF5FC0E2FF00015D515A115B115C113C
:1009E8005FE0D96A646BCA0E656F9A0E666F3B0E3C
:1009F800676F64C004F065C005F066C006F067C0A4
:100A080007F05AC000F05BC001F05CC002F05DC0A6
:100A180003F09CEC9DF000C060F001C061F002C0E2
:100A280062F003C063F0000163516011611162114B
:100A3800D8B4F35025E0E1CFE9FFE2CFEAFFE14A7D
:100A4800E22A6051300FEF6E64C004F065C005F013
:100A580066C006F067C007F060C000F061C001F032
:100A680062C002F063C003F08EEC9EF000505A5F43
:100A780001505B5B02505C5B03505D5B010EF36EE3
:100A88000A0E046E056A066A076A640EE96E000EAD
:100A9800EA6EBEECA0F0D92A090ED964AAD708D00C
:100AA800E1CFE9FFE2CFEAFFE14AE22A300EEF6E3A
:100AB800000EE76A12008F00460E0001906502D012
:100AC800E00E9027460E00018F6502D0E00E8F27BA
:100AD800390E0001906502D0C90E02D0D00E000177
:100AE8009027390E00018F6502D0C90E02D0D00EB2
:100AF80000018F2790C000F0003AF00E00160001A8
:100B08008F5100101200D96ED93A0F0ED9160A0E5D
:100B1800D96002D0300E01D0370ED9CF00F0016A6B
:100B28000026000E012200501200D96E0F0ED916B1
:100B38000A0ED96002D0300E01D0370ED9CF00F09E
:100B4800016A0026000E0122005012005C005CC001
:100B5800E1FF5DC0E2FFE750F36E5EC0F6FF5FC0E5
:100B6800F7FF0E0EF76403D00800F55005D0F6CF56
:100B7800E9FFF7CFEAFFEF502DD0600EF36405D000
:100B88007B0EF36002D0E00EF326600ED96405D028
:100B98007B0ED96002D0E00ED926F350D96001D07F
:100BA800010CD950F36001D0FF0CE65200015E4BF6
:100BB8005F2BE750F36E5EC0F6FF5FC0F7FF0E0EC7
:100BC800F76403D00800F55005D0F6CFE9FFF7CF5A
:100BD800EAFFEF50D96EF350D8A4D950CEE1F350C4
:100BE800D96001D0010CD950F360000CFF0CF8005B
:100BF800F8C0FAF0F9C0FBF00001FB51D96EFA51C8
:100C0800FB6FD950FA6FFAC000F0FBC001F0120078
:100C1800DF000001E251DF1BDF51E21BE251DF1B65
:100C2800E151E01BE051E11BE151E01BDFC000F0A6
:100C3800E0C001F0E1C002F0E2C003F01200F600EB
:100C48000001FA6BFB6BFC6BFD6BD890F931F46E0D
:100C5800F831F36EF6C0E1FFF7C0E2FFF350006E23
:100C6800F450016EF306000EF45A0150001018E01B
:100C7800E1CFE9FFE2CFEAFF020EE126000EE22211
:100C8800EECF00F0EDCF01F0026A036A00010050D8
:100C9800FA270150FB230250FC230350FD23DED723
:100CA8000001F8A109D0E750FA27010ED8B0FB27B8
:100CB800D8B0FC27D8B0FD270001FA51FC25FA6FFF
:100CC800FB51FD21FB6FFC6BD8B0FC2BFD6BFC517D
:100CD800FA27FD51FB23FA1D006EFB1D016E120061
:100CE800850085C0E1FF86C0E2FFE750D96ED95084
:100CF8000AE0600ED96405D07B0ED96002D0E00E00
:100D0800E726E652F2D785C000F086C001F012004F
:100D1800AC00ACC0EAF4ADC0EBF4AEC0ECF4AFC0CC
:100D2800EDF40001B051D96E0CD0EDC4E1FFECC474
:100D3800EDF4EBC4ECF4EAC4EBF4E1CFEAF4F80E1A
:100D4800D926080ED960F1D7D9500AE00401D89005
:100D5800EDBFD880EA37EB37EC37ED37D906F4D753
:100D6800EAC400F0EBC401F0ECC402F0EDC403F0F7
:100D78001200A2D000016A6B6B6B6C6B6D6B6E6BB3
:100D8800200E6F6F260E706F020E716F73EC11F0EC
:100D9800E8CF37F637C6E8FFFE0AD8B41200010ECE
:100DA800E8CF7CF5120037C6E8FF60EC12F00009C6
:100DB800D8B4120037C6E8FF97EC15F000C048F029
:100DC80001C049F037C6E8FFC5EC12F000C042F098
:100DD80001C043F000014951435D02E14851425DC1
:100DE80004E242C048F043C049F0200E0001446FBD
:100DF800456B466B476B00014951475D02E148511D
:100E0800465DD8B01200200E46C000F047C001F081
:100E18000026000E012200010150495D02E1005048
:100E2800485D06E24651485D446F47514959456F50
:100E380000014A0E886F000E896F44C08AF045C0D1
:100E48008BF037C6E8FF37EC16F0F36AF46A000156
:100E58004551F45C02E14451F35C1BE200EE4AF0B8
:100E6800F350E926F450EA22EF50D96E600ED964A7
:100E78000DD07B0ED9600AD0E00ED92600EE4AF0DC
:100E8800F350E926F450EA22D9CFEFFFF34AF42AC7
:100E9800DED700014A0EA76F000EA86F44C0A9F064
:100EA80045C0AAF037C6E8FF94EC13F0200E000105
:100EB8004627000E47239FD77CC5E8FF000A01E1BB
:100EC80059D7010A01E16FD71200036A026A016A61
:100ED800006AE950EA1008E003C0EDFF02C0EDFF28
:100EE80001C0EDFF00C0EFFF000CEECFE6FFE82EDB
:040EF800FCD7000C17
:100F00000D0A444843502F506F776572206576650F
:100F10006E74206F63637572726564002F73656110
:100F20007263683F61735F713D4D6963726F63689F
:100F300069702661735F7369746573656172636854
:100F40003D6D6963726F636869702E636F6D0047F2
:100F50004554200020485454502F312E300D0A485B
:100F60006F73743A20000D0A436F6E6E6563746987
:100F70006F6E3A20636C6F73650D0A0D0A00070CE3
:100F80001116070C1116070C1116070C111605097E
:100F90000E1405090E1405090E1405090E14040B90
:100FA0001017040B1017040B1017040B1017060A68
:100FB0000F15060A0F15060A0F15060A0F1578A455
:100FC0006AD756B7C7E8DB702024EECEBDC1AF0F9D
:100FD0007CF52AC68747134630A8019546FDD89868
:100FE0008069AFF7448BB15BFFFFBED75C892211EC
:100FF000906B937198FD8E4379A62108B4496225C0
:101000001EF640B340C0515A5E26AAC7B6E95D102D
:101010002FD65314440281E6A1D8C8FBD3E7E6CD0E
:10102000E121D60737C3870DD5F4ED145A4505E9FC
:10103000E3A9F8A3EFFCD9026F678A4C2A8D4239E5
:10104000FAFF81F6718722619D6D0C38E5FD44EA57
:10105000BEA4A9CFDE4B604BBBF670BCBFBEC67E44
:101060009B28FA27A1EA8530EFD4051D880439D0E2
:10107000D4D9E599DBE6F87CA21F6556ACC44422BE
:1010800029F497FF2A43A72394AB39A093FCC359B3
:101090005B6592CC0C8F7DF4EFFFD15D84854F7E34
:1010A000A86FE0E62CFE144301A3A111084E827E36
:1010B00053F735F23ABDBBD2D72A91D386EB485AC3
:1010C00000525A00565A00645A00685A006A5A0080
:1010D0006E5A00725A00765A007A5A007E5A00827E
:1010E0005A00865A008E5A00925A00965A009A5A0E
:1010F00000A85A00AC5A00B05A00B45A00B85A00BE
:10110000C85A00CC5A00D65A00DC5A00E85A00EC03
:101110005A00F05A00F45A00F85A00FC5A00005BDA
:1011200000045B00085B000C5B00105B00145B00BC
:10113000185B001C5B000D0A007761760074787400
:1011400000746578742F63737300746578742F70FE
:101150006C61696E006170706C69636174696F6E57
:101160002F6A6176612D766D00696E6465782E68F0
:10117000746D00746578742F786D6C007465787484
:101180002F68746D6C00636769006A706700696D31
:101190006167652F706E6700696D6167652F6A70A2
:1011A000656700696D6167652F67696600617564D1
:1011B000696F2F782D77617665006E6F2D6361639F
:1011C0006865006D70667375706C6F616400666F42
:1011D0006F7465722E696E63006865616465722E56
:1011E000696E6300636C6100504F5354004745546F
:1011F000002144454600485454502F312E312032AE
:101200003030204F4B0D0A436F6E74656E742D5451
:101210007970653A20746578742F68746D6C0D0A66
:101220000D0A3C68746D6C3E3C626F647920737487
:10123000796C653D226D617267696E3A313030704C
:1012400078223E3C666F726D206D6574686F643DF8
:10125000706F737420616374696F6E3D222F6D70BF
:10126000667375706C6F61642220656E637479704B
:10127000653D226D756C7469706172742F666F7252
:101280006D2D64617461223E3C623E4D5046532098
:10129000496D6167652055706C6F61643C2F623EDB
:1012A0003C703E3C696E70757420747970653D6663
:1012B000696C65206E616D653D692073697A653D75
:1012C00034303E20266E6273703B203C696E707530
:1012D0007420747970653D7375626D6974207661F0
:1012E0006C75653D2255706C6F6164223E3C2F66C3
:1012F0006F726D3E3C2F626F64793E3C2F68746D57
:101300006C3E00485454502F312E31203230302062
:101310004F4B0D0A436F6E74656E742D5479706572
:101320003A20746578742F68746D6C0D0A0D0A3C50
:1013300068746D6C3E3C626F6479207374796C657F
:101340003D226D617267696E3A3130307078223EAD
:101350003C623E4D50465320557064617465205385
:1013600075636365737366756C3C2F623E3C703EBB
:101370003C6120687265663D222F223E5369746588
:10138000206D61696E20706167653C2F613E3C2F66
:10139000626F64793E3C2F68746D6C3E0048545413
:1013A000502F312E3120323030204F4B0D0A436FF9
:1013B0006E74656E742D547970653A207465787416
:1013C0002F68746D6C0D0A0D0A3C68746D6C3E3CA0
:1013D000626F6479207374796C653D226D61726708
:1013E000696E3A3130307078223E3C623E4D504654
:1013F0005320496D61676520436F72727570742068
:101400006F722057726F6E672056657273696F6EC8
:101410003C2F623E3C703E3C6120687265663D2216
:101420002F6D70667375706C6F6164223E547279B3
:1014300020616761696E3F3C2F613E3C2F626F64A3
:10144000793E3C2F68746D6C3E006D61782D61674C
:10145000653D00417574686F72697A6174696F6E79
:101460003A00436F6E74656E742D4C656E677468D8
:101470003A00436F6F6B69653A00363030000D0AF1
:101480000D0A3330342052656469726563743A2002
:1014900000485454502F312E312033303220466FC3
:1014A000756E640D0A4C6F636174696F6E3A20004B
:1014B00043616368652D436F6E74726F6C3A2000F0
:1014C000436F6E74656E742D547970653A200053C5
:1014D00065742D436F6F6B69653A20004854545012
:1014E0002F312E312035303020496E7465726E6197
:1014F0006C20536572766572204572726F720D0AA8
:101500000D0A35303020496E7465726E616C20535F
:101510006572766572204572726F723A20457870F6
:1015200065637465642064617461206E6F742070FB
:10153000726573656E740D0A00436F6E74656E7428
:101540002D456E636F64696E673A20677A69700D26
:101550000A00485454502F312E3120323030204F61
:101560004B0D0A436F6E6E656374696F6E3A20634C
:101570006C6F73650D0A00485454502F312E312082
:10158000353031204E6F7420496D706C656D656E1D
:101590007465640D0A0D0A353031204E6F74204990
:1015A0006D706C656D656E7465643A204F6E6C7914
:1015B0002047455420616E6420504F53542073756A
:1015C00070706F727465640D0A00485454502F3166
:1015D0002E312034313420526571756573742D5568
:1015E000524920546F6F204C6F6E670D0A0D0A34FC
:1015F000313420526571756573742D5552492054EC
:101600006F6F204C6F6E673A204275666665722078
:101610006F766572666C6F77206465746563746558
:10162000640D0A00485454502F312E31203430318B
:1016300020556E617574686F72697A65640D0A571A
:1016400057572D41757468656E7469636174653AA6
:10165000204261736963207265616C6D3D22507236
:101660006F746563746564220D0A0D0A343031208D
:10167000556E617574686F72697A65643A2050615D
:101680007373776F72642072657175697265640D2A
:101690000A00485454502F312E3120343033204624
:1016A0006F7262696464656E0D0A0D0A343033200E
:1016B000466F7262696464656E3A2053534C2052DF
:1016C00065717569726564202D20757365204854B5
:1016D0005450530D0A00485454502F312E312034A9
:1016E0003034204E6F7420666F756E640D0A436F40
:1016F0006E74656E742D547970653A2074657874D3
:101700002F68746D6C0D0A0D0A3430343A20466926
:101710006C65206E6F7420666F756E643C62723EFD
:10172000557365203C6120687265663D222F6D709F
:10173000667375706C6F6164223E4D504653205540
:10174000706C6F61643C2F613E20746F2070726F0B
:101750006772616D207765622070616765732069CB
:101760006E746F20454550524F4D0D0A000D0A0D05
:101770000A000D0A0D0A4D504653020000000000F9
:1017800000426F6F746C6F6164657220526573659F
:1017900074005243505420544F3A3C004D41494C40
:1017A0002046524F4D3A3C000D0A2E000D0A53754B
:1017B000626A6563743A20000D0A546F3A2000464D
:1017C000726F6D3A20000D0A43433A20005155498B
:1017D000540D0A0041555448204C4F47494E0D0ABC
:1017E0000048454C4F204D434850424F4152440D14
:1017F0000A00444154410D0A003E0D0A000D0A2E14
:101800000D0A00706F6F6C2E6E74702E6F72670011
:1018100001007D00C80002001400140003009600BF
:101820001400060000010100080000010001000092
:10183000C800C8000000C800C8000000C800C800F8
:101840000000C800C8003A20576520617265206317
:10185000757272656E746C7920616368696576690A
:101860006E67200020202020202020002062797434
:1018700065732F7365636F6E640D0A0030302062EC
:10188000797465732F7365636F6E64205458207488
:1018900068726F7567687075742E0D0A001B5B3275
:1018A0004A1B5B33316D1B5B316D4D6963726F6336
:1018B0006869702054656C6E657420536572766536
:1018C0007220312E311B5B306D0D0A28666F72203D
:1018D000746869732064656D6F2C2074797065205D
:1018E0002761646D696E2720666F722074686520B9
:1018F0006C6F67696E20616E6420276D6963726F1B
:10190000636869702720666F722074686520706153
:101910007373776F72642E290D0A4C6F67696E3A84
:10192000200050617373776F72643A20FFFD2D00C1
:101930000D0A4163636573732064656E6965640DA8
:101940000A0D0A000D0A4C6F6767656420696E20F6
:101950007375636365737366756C6C790D0A0D0A34
:101960000D0A50726573732027712720746F2071E0
:101970007569740D0A000D0A416E616C6F673A203B
:101980002020202020202020202020203130323311
:101990000D0A427574746F6E733A20202020202047
:1019A000202020332032203120300D0A4C45447352
:1019B0003A20202020372036203520342033203292
:1019C00020312030000D0A0D0A476F6F646279657F
:1019D000210D0A006D6963726F636869700061644C
:1019E0006D696E001B5B316D001B5B31313B313823
:1019F00066001B5B31333B3166001B5B31303B3291
:101A00003166001B5B31323B3130660020202020E4
:101A1000000D0A546F6F206D7563682064617461F6
:101A20002E0D0A00757000646E00706F7274006E87
:101A30006F74207365740070726F746563740070E6
:101A400061737300736572766572007573657200F9
:101A50006D6963726F6368697000746F0061646DB3
:101A6000696E00656D61696C2F696E6465782E68BA
:101A7000746D00666F726D732E68746D00636F6FA6
:101A80006B6965732E68746D002F70726F74656377
:101A9000742F636F6E6669675F6572726F722E680E
:101AA000746D002F656D61696C2F6661696C2E68BD
:101AB000746D002F656D61696C2F6F6B2E68746D8E
:101AC0000070726F746563742F636F6E6669672E42
:101AD00068746D0075706C6F61642E68746D006C55
:101AE0006564732E636769006D7367004D69637287
:101AF0006F63686970205443502F495020537461BC
:101B0000636B2053746174757320557064617465E0
:101B1000006E616D65006C656400636865636B658C
:101B200064006C63640053454C4543544544002FA6
:101B300070726F746563742F7265626F6F742E6854
:101B4000746D3F0022534D54502053657276696383
:101B50006522203C6D636870626F617264407069D9
:101B60006373617265676F6F642E636F6D3E003CD7
:101B7000623E55706C6F616420612046696C653C03
:101B80002F623E003C623E55706C6F61646564205C
:101B900046696C652773204D4435207761733A3C64
:101BA0002F623E3C6272202F3E006C63643D002633
:101BB0006E6273703B0076342E3138006C6564348D
:101BC0000044656320303720323030372031343ADA
:101BD00033343A3434006C656433006C656432002D
:101BE0006C65643100506F743A2C00427574746FE8
:101BF0006E733A2C004C4544733A2C0048656C6C6B
:101C00006F2C200053595354454D20535441545583
:101C1000530D0A00546869732069732061206D7543
:101C20006C74692D70617274206D65737361676582
:101C300020696E204D494D4520666F726D61742E8E
:101C40000D0A002D2D66726F6E746965722D2D0D53
:101C50000A004D494D452D76657273696F6E3A20C5
:101C6000312E300D0A436F6E74656E742D74797069
:101C7000653A206D756C7469706172742F6D697846
:101C800065643B20626F756E646172793D22667295
:101C90006F6E74696572220D0A002D2D66726F6E6B
:101CA000746965720D0A436F6E74656E742D747974
:101CB00070653A20746578742F706C61696E0D0AD6
:101CC0000D0A000D0A2D2D66726F6E746965720D16
:101CD0000A436F6E74656E742D747970653A207462
:101CE0006578742F6373760D0A436F6E74656E7436
:101CF0002D446973706F736974696F6E3A206174F3
:101D0000746163686D656E743B2066696C656E61B5
:101D10006D653D227374617475732E637376220D45
:101D20000A0D0A0067770000686F7374000073750E
:101D3000626E657400006970000064686370656EAF
:101D400061626C656400006D61630000646E7332F3
:101D50000000646E733100000004A30000005069AD
:101D60006E672074696D6564206F7574006D730013
:101D700044697300456E006D61696C00646973614C
:101D8000626C656400656E61626C6564004D434819
:101D900050424F4152440022534D545020536572DB
:101DA0007669636522203C6D636870626F6172645E
:101DB0004070696373617265676F6F642E636F6DE6
:101DC0003E0048656C6C6F20776F726C6421202038
:101DD000534D545020546573742E000D0A09303A47
:101DE0002053617665202620517569742E000D0AF6
:101DF00009393A20446F776E6C6F6164204D50460C
:101E00005320696D6167652E0061626C65204448EE
:101E10004350202620495020476C65616E696E67EB
:101E20003A0909444843502069732063757272650A
:101E30006E746C7920005265706C793A20004E65A2
:101E40007720495020416464726573733A20004ED4
:101E500065772073657474696E673A20000D0A45D2
:101E60006E7465722061206D656E752063686F69A0
:101E700063653A20000D0A09383A20005443505354
:101E80007461636B2076342E31382020202020208E
:101E900020202020202020202020202000496E7695
:101EA000616C696420696E7075742E0D0A0053654B
:101EB0007474696E67732073617665642E0D0A0011
:101EC0000D0A0D0A425554544F4E302068656C641B
:101ED00020666F72206D6F7265207468616E2034A9
:101EE000207365636F6E64732E2020454550524FFA
:101EF0004D20636F6E74656E7473206572617365D7
:101F0000642E0D0A0D0A000D0A0D0A0D4D6963724B
:101F10006F63686970205443502F495020436F6E9F
:101F2000666967204170706C69636174696F6E20C7
:101F30002876342E31382C20446563203037203207
:101F4000303037290D0A0D0A000D0A09343A2043B2
:101F500068616E676520737461746963206761747A
:101F60006577617920616464726573733A09000D65
:101F70000A09363A204368616E676520737461749C
:101F80006963207072696D61727920444E532073C9
:101F900065727665723A09000D0A09373A2043687E
:101FA000616E676520737461746963207365636F24
:101FB0006E6461727920444E532073657276657247
:101FC0003A09000D0A09333A204368616E676520BB
:101FD000737461746963204950206164647265732D
:101FE000733A09090009313A204368616E67652038
:101FF00073657269616C206E756D6265723A09096C
:10200000000D0A09353A204368616E6765207374D4
:1020100061746963207375626E6574206D61736BA2
:102020003A0909000D0A09323A204368616E676572
:1020300020686F7374206E616D653A0909090000AC
:102040000001C66FC6510501D46301D01200D4C58A
:10205000E8FFFE0A13E0D4C5E8FF1C0D020EF324CE
:102060000001E56F010EF420E66F0E0EE76F040E1F
:10207000E86F1C0EE96FEA6B82EC9FF0C6C0D4F5E6
:102080000001C651FE0AD8B412000E0EE56F040E10
:10209000E66FC6511C0D020EF324E76F010EF4200B
:1020A000E86F1C0EE96FEA6B82EF9FF0D4C5E8FF82
:1020B0000501D56301D01200D5C5E8FFFE0A2AE06C
:1020C000D5C5E8FF1C0D020EF324E96E010EF420C5
:1020D000EA6EEECF00F0EDCF01F0DB0E0024000140
:1020E000DD6FFF0E0120DE6FD5C5E8FF1C0D1D0E54
:1020F000F324E96E010EF420EA6EEF50DF6F2A0E32
:10210000E06F040EE16F010EE26F250EE36FE46BEA
:102110006FEC2CF0D4C5D5F500012A0EDD6F040E4E
:10212000DE6F010EDF6FD4C5E8FF1C0D020EF32435
:10213000E96E010EF420EA6EEECF00F0EDCF01F073
:10214000DB0E0024E06FFF0E0120E16FD5C5E8FF34
:102150001C0D1D0EF324E96E010EF420EA6EEF5003
:10216000E26F250EE36FE46B6FEF2CF00001760E4B
:10217000476F100E486FD96A426B0001425160DF11
:1021800095DF00014251060DF350100FF66EF4502A
:10219000F76E180EF722F62A000EF7220800F55007
:1021A000D96E4251060DF350100FF66EF450F76ED3
:1021B000180EF722020EF626000EF7220900F5CFC0
:1021C00002F00900F5CF03F04251060DF350100F55
:1021D000F66EF450F76E180EF722040EF626000E77
:1021E000F7220900F5CF45F00900F5CF46F01ED0E3
:1021F00047C043F048C044F045C000F046C001F07D
:102200000250002603500122270E0026000E012254
:102210000001005047270150482300011E0E485D71
:10222000870ED8B4475D05E3F8D7FFD7D950E0E073
:10223000FCD700014251060DF350100FF66EF4501A
:10224000F76E180EF7220800F5CF4EF4D9CF29F417
:10225000250E4325E8CF0EF4000E4421E8CF0FF4FD
:102260000EC400F00FC401F00250002603500122FA
:102270000028E8CF10F4000E0120E8CF11F404EE9E
:1022800010F0EECF00F0EDCF01F045510024E8CF83
:1022900012F446510120E8CF13F40F0EE8CF24F4D6
:1022A00004012591DFEC22F00001422B080E42656B
:1022B00064D71200FBDE0001020EE56F040EE66F2C
:1022C000400EE76F040EE86F0A0EE96FEA6B82ECCE
:1022D0009FF038C40CF439C40DF4020E006E040EE5
:1022E000016E12006A000001726B00017251A8DEDB
:1022F00024C4E8FF0F0A01E0D4D0D8DE4EC4E8FFC2
:102300000001711901E0CDD06E510EE16FC03AF4B9
:1023100070C03BF404012581060EE8CF24F46FC0A1
:1023200027F470C028F4BAD00401040E015D000E39
:10233000D8B4005D06E3130E015D890ED8B4005DCC
:1023400004E30401006B040E016F00C43AF401C4FD
:102350003BF40401002B000E01236FC038F470C061
:1023600039F47DEC9CF000C01CF401C01DF402C0E7
:102370001EF403C01FF40401258384D06AC040F416
:102380006BC041F46CC042F46DC043F400016E5167
:10239000020A000ED8B4010E006E04EE4CF00036B6
:1023A0000036EF500018FB0B0018EF6E020E29D01C
:1023B00000EE6AF0EECF00F0EDCF01F000016C51BD
:1023C00000266D5101226F510026705101223AC43E
:1023D000E8FF0018E8CF27F43BC4E8FF0118E8CF76
:1023E00028F46AC040F46BC041F46CC042F46DC084
:1023F00043F404014D6B2D6B2C6B2B6B270E2A6F56
:10240000040EE8CF24F44AD0000100EE02F06A5135
:10241000E9266B51EA22EECF02F0EDCF03F06AC05D
:10242000E9FF6BC0EAFFEECF00F0EDCF01F0025004
:102430000024F66E03500120F76E6F51F62670519E
:10244000F7223AC4E8FFF618E8CF27F43BC4E8FFC8
:10245000F718E8CF28F4400EE56F040EE66F6AC067
:10246000E7F06BC0E8F00A0EE96FEA6B82EC9FF0D0
:10247000070EE8CF24F4010E0001B36F020E8AECC0
:102480001DF00CD000016E51010A01E177D7030A5B
:1024900001E174D7010A8CE0070AB6E0000172512D
:1024A00012000001722B080E72651FD7FE0C00018E
:1024B0005C6F5C51C5DD040126A1000C2691010C66
:1024C00000016A6F6A51BCDD24C4E8FF090A04E018
:1024D00004EE24F0EF5001E1010C000C0001746FD8
:1024E0007451AEDD18C41AF419C41BF422D011ECD7
:1024F00070F0DFEF22F0010E0001B36F110E8AECD5
:102500001DF00A0EE8CF24F41200010E0001B36F93
:10251000110E8AEC1DF00E0EE8CF24F41200010E0D
:10252000E8CF24F40001B36B140E8AEC1DF0DFEF4A
:1025300022F024C4E8FF000AF2E0030AD8E0040A0B
:10254000D8E00F0AD8E0010AD6E0030AEBE0010A5E
:10255000E9E0060ADAE0030AE5E0E4D70001B26F39
:10256000B2516EDDA3DD04EE14F00401EE523751DA
:10257000ED1836C4E8FFD8B4EF18D8B41200010E35
:102580000001B36F180E8AEF1DF00001B26FB25157
:1025900057DD24C4D9FFD950090A0AE0D9500D0AE1
:1025A00007E0D90405E0D95003E0006A016A12008F
:1025B00014EE16F004EE14F0EE52E652E550ED5C27
:1025C00002E1E750EF5C27E304EE14F0EECF00F0F9
:1025D000EDCF01F016C4E8FF005C026E17C4E8FFFF
:1025E0000158036E04EE10F0EECF00F0EDCF01F0D5
:1025F0000EC4E8FF005CF66E0FC4E8FF0158F76EEA
:10260000FF0EF624006EFF0EF720016E0250005EF2
:102610000350015A120004EE16F0EECF00F0EDCF99
:1026200001F014C4E8FF005C026E15C4E8FF015815
:10263000036EFF0E0224006EFF0E0320016E1200D7
:10264000790000017A6F7A51FBDC00017A519DDF3D
:1026500000C07BF001C07CF000017C517B1101E1E6
:10266000000C00017B057C1102E17A5177DF040147
:1026700025BB1FD004EE10F0EECF00F0EDCF01F03F
:102680000EC4E8FF005C026E0FC4E8FF0158036E41
:10269000D8900330016E0230006E00017C51015C65
:1026A00002E17B51005C05E300017A5157DF040130
:1026B000258B14C4DDF015C4DEF029C4DFF0000161
:1026C000790EE06F000EE16F010EE26FE36FE46BD5
:1026D0006FEC2CF004EE10F014EE14F0E62A000E6D
:1026E000E522E652EE52ED50E55C02E1EF50E75C88
:1026F00004E30EC414F40FC415F400017B057C112F
:1027000003E17A512BDF010C040125B5010C25856D
:1027100087EC9CF0060E0024E8CF20F4000E012088
:10272000E8CF21F4010CA7000001AB6FAE6BAF6BDB
:10273000AB5186DC0001AB5128DF00C0ACF001C01A
:10274000ADF00001AD51AC1105E1AB5107DF006AFE
:10275000016A1200ACC0B0F0ADC0B1F00001AD51E3
:10276000AA5D02E1AC51A95D04E2A9C0B0F0AAC023
:10277000B1F0040104EE10F025BB1FD0EECF00F045
:10278000EDCF01F00EC4E8FF005C026E0FC4E8FF5D
:102790000158036ED8900330016E0230006E0001C4
:1027A000AD51015C02E1AC51005C05E30001AB51AD
:1027B000D5DE0401258B04EE10F0EECF00F0EDCF56
:1027C00001F004EE14F0EECF02F0EDCF03F00001C3
:1027D000B0510226B15103220150035C02E10050C6
:1027E000025C2DE304EE10F0EECF00F0EDCF01F02F
:1027F00014C4E8FF005CAE6F15C4E8FF0158AF6F6A
:1028000014C4DDF015C4DEF029C4DFF0A7C0E0F089
:10281000A8C0E1F0010EE26FAEC0E3F0AFC0E4F09B
:102820006FEC2CF00001AE51A727AF51A823AE5199
:10283000B05FAF51B15B0EC414F40FC415F414C4EF
:10284000DDF015C4DEF029C4DFF0A7C0E0F0A8C0B9
:10285000E1F0010E0001E26FB0C0E3F0B1C0E4F0BE
:102860006FEC2CF0B0C000F0B1C001F0040100C06A
:10287000E8FF142701C0E8FF15230001AD51AA5D50
:1028800002E1AC51A95D03E3AB5168DE0ED0040157
:1028900025B50BD0258587EC9CF0060E0024E8CFEB
:1028A00020F4000E0120E8CF21F4B0C000F0B1C048
:1028B00001F00001AE510026AF5101221200670065
:1028C00000016B6F6E6B6F6B6B5120EC10F00001B1
:1028D0006B515BDE00C06CF001C06DF000016D510A
:1028E0006C1105E16B513ADE006A016A12000401C5
:1028F00025BB1FD004EE10F0EECF00F0EDCF01F0BD
:102900000EC4E8FF005C026E0FC4E8FF0158036EBE
:10291000D8900330016E0230006E00016D51015CF1
:1029200002E16C51005C05E300016B5117DE04010C
:10293000258B6CC070F06DC071F000016D516A5D47
:1029400002E16C51695D04E269C070F06AC071F027
:1029500004EE10F0EECF00F0EDCF01F004EE14F035
:10296000EECF02F0EDCF03F000017051022671515D
:1029700003220150035C02E10050025C2BE304EEF1
:1029800010F0EECF00F0EDCF01F014C4E8FF005CD2
:102990006E6F15C4E8FF01586F6F14C472F015C450
:1029A00073F029C474F067C075F068C076F06EC02B
:1029B00077F06FC078F0CDEC2CF000016E516727F6
:1029C0006F5168236E51705F6F51715B0EC414F4C8
:1029D0000FC415F414C472F015C473F029C474F054
:1029E00067C075F068C076F070C077F071C078F09D
:1029F000CDEC2CF070C000F071C001F0040100C0FB
:102A0000E8FF142701C0E8FF152300016D516A5D3E
:102A100002E16C51695D03E36B51A0DD0ED004014E
:102A200025B50BD0258587EC9CF0060E0024E8CF59
:102A300020F4000E0120E8CF21F470C000F071C036
:102A400001F000016E5100266F51012212005C005E
:102A500000015E6F5CC0A7F05DC0A8F05CC0EBF049
:102A60005DC0ECF00CECA0F000C0A9F001C0AAF031
:102A700000015E5159DE00015C5100265D510122CA
:102A8000120064000001666F64C067F065C068F002
:102A900064C0EBF065C0ECF00CECA0F000C069F095
:102AA00001C06AF0000166510BDF0001645100268D
:102AB00065510122120000015C6F5C5120EC10F0A6
:102AC00004EE10F0EECF00F0EDCF01F00EC4E8FF01
:102AD000005C026E0FC4E8FF0158036EFF0E022473
:102AE00000015F6FFF0E0320606F5C514EDD00C080
:102AF0005DF001C05EF05FC000F060C001F0000159
:102B00005D51005E5E51015A12000001706F7051FC
:102B10000ED801500010D8B412000001705120EC02
:102B200010F018C41AF419C41BF422EF2AF00001A3
:102B3000C56FC55120EC10F024C400F0000403E17F
:102B4000006A016A120014EE1AF004EE18F0EE5258
:102B5000E652E550ED5C02E1E750EF5C11E304EE74
:102B60001AF0EECF02F0EDCF03F004EE18F0EECF46
:102B700000F0EDCF01F00250005E0350015A120048
:102B800004EE18F0EECF00F0EDCF01F010C4E8FF36
:102B9000005CF66E11C4E8FF0158F76E04EE12F007
:102BA000EECF00F0EDCF01F01AC4E8FF005C026E3A
:102BB0001BC4E8FF0158036EF6500224006EF75064
:102BC0000320016E002A000E012212008500000180
:102BD000876F8751ACDF00C088F001C089F0000129
:102BE0008951881101E1000C0001875120EC10F09F
:102BF00000018651851112E085C0DDF086C0DEF04F
:102C0000010EDF6F00EEE0F01AC4EEFF1BC4EDFF13
:102C100029C4E2F0E36FE46B6FEC2CF014EE1AF0D1
:102C2000E62A000EE52204EE12F0EE52E652E550DE
:102C3000ED5C02E1E750EF5C04E210C41AF411C449
:102C40001BF4000188058911040102E1258D010CA6
:102C500025B5010C258587EC9CF0060E0024E8CFF5
:102C600020F4000E0120E8CF21F4010C88000001BF
:102C70008C6F8F6B906B8C5120EC10F000018C519D
:102C800056DF00C08DF001C08EF000018B518E5DCB
:102C900002E18A518D5D04E28DC08AF08EC08BF016
:102CA00004EE1AF0EECF02F0EDCF03F000018A51EE
:102CB00002268B51032204EE12F0EECF00F0EDCF8E
:102CC00001F00350015C02E10250005C38E204EEC6
:102CD00012F0EECF00F0EDCF01F01AC4E8FF005C77
:102CE000026E1BC4E8FF0158036E02288F6F000EAE
:102CF0000320906F8951881119E088C0DDF089C0E8
:102D0000DEF0010EDF6F00EEE0F01AC4EEFF1BC430
:102D1000EDFF29C4E2F08FC0E3F090C0E4F06FEC67
:102D20002CF000018F5188279051892300018F5189
:102D30008A5F90518B5B10C41AF411C41BF400011C
:102D40008951881114E088C0DDF089C0DEF0010EE1
:102D5000DF6F00EEE0F01AC4EEFF1BC4EDFF29C4E4
:102D6000E2F08AC0E3F08BC0E4F06FEC2CF08AC094
:102D700000F08BC001F0040100C0E8FF1A2701C079
:102D8000E8FF1B238DC000F08EC001F000018A51C6
:102D9000005E8B51015A01508B5D02E100508A5D4B
:102DA000040102E3258D0DD025B50BD0258587ECD8
:102DB0009CF0060E0024E8CF20F4000E0120E8CF9E
:102DC00021F48AC000F08BC001F000018F51002671
:102DD00090510122120000015C6F5C5120EC10F058
:102DE00004EE12F0EECF00F0EDCF01F010C4E8FFDA
:102DF000005C00015F6F11C4E8FF0158606F5C5117
:102E000096DE00C05DF001C05EF05FC000F060C003
:102E100001F000015D51005E5E51015A12008C000C
:102E20000001956F8F518E1103E1006A016A120053
:102E30000001955120EC10F00001955178DE000161
:102E40009051005CA16F91510158A26F8F51A25D0A
:102E500002E18E51A15D04E2FF0E006801681200DC
:102E60008CC0E1FF8DC0E2FF0001935192110AE096
:102E7000A251935D02E1A151925D04E292C0A1F0E2
:102E800093C0A2F004EE1AF0EECF00F0EDCF01F007
:102E9000000190510024F36E91510120F46E04EE74
:102EA00012F0EECF00F0EDCF01F0F450015C02E142
:102EB000F350005C15E204EE12F0EECF00F0EDCF1F
:102EC00001F010C4E8FF005C026E11C4E8FF015875
:102ED000036E022A000E03220250F35E0350F45ADE
:102EE000F3CF9BF0F4CF9CF004EE12F0EECF00F0A5
:102EF000EDCF01F0F350005EF450015A00280001BC
:102F00009F6F000E0120A06F90C0A3F091C0A4F0AD
:102F10008EC09DF08FC09EF0E1CF99F0E2CF9AF085
:102F2000E6CF98F0966B945108E0600E986505D056
:102F30007B0E986102D0E00E9827200E0001976F5B
:102F4000000EA05D200ED8B49F5D02E29F51976FE6
:102F500097C000F0016A00010150A25D02E100503B
:102F6000A15D02E2A151976FE1CF8CF0E2CF8DF02D
:102F70000001A50EDD6F000EDE6F010EDF6F9BC03E
:102F8000E0F09CC0E1F029C4E2F09751E36FE46BFC
:102F90006FEC2CF08CC0E1FF8DC0E2FF0001975177
:102FA0009B27000E9C2397519F5F000EA05BA051B2
:102FB0009F1106E110C49BF011C49CF09F69A069A9
:102FC000000194516EE0F36A00019751F35C01E354
:102FD000A5D0F35000EEA5F0E926000EEA22EF504E
:102FE000006E610E005C13E3F35000EEA5F0E926DD
:102FF000000EEA22EF50006E7B0E005C08E2F350F8
:1030000000EEA5F0E926000EEA22E00EEF26F350CE
:1030100000EEA5F0E926000EEA22EF500001981913
:1030200027E18E0EE96E000EEA6EEE06000EED5AF6
:10303000EE50ED100FE1A3C000F0A4C001F09D51CF
:10304000005E9E51015AF3500026000E0122002A14
:1030500001221200E6CF98F0010E0001966F600E7B
:1030600098651DD07B0E98611AD0E00E982717D076
:103070009DC08EF09EC08FF00001965110E099C067
:10308000E1FF9AC0E2FFE6CF98F0600E986505D0A8
:103090007B0E986102D0E00E98270001966BF32A10
:1030A00093D7F36A00019751F35C38E2F35000EED6
:1030B000A5F0E926000EEA22EF5098191FE18E0EC6
:1030C000E96E000EEA6EEE06000EED5AEE50ED10BF
:1030D0000FE1A3C000F0A4C001F09D51005E9E511D
:1030E000015AF3500026000E0122002A012212008C
:1030F000E6CF98F0010E0001966F0ED09DC08EF0C5
:103100009EC08FF00001965107E099C0E1FF9AC080
:10311000E2FFE6CF98F0966BF32AC4D700019751EF
:10312000A15F000EA25B8F51A25D02E18E51A15DF5
:1031300004E2FF0E00680168120000019751A32706
:10314000000EA423FAD688000001916F8B518A11DA
:1031500003E1006A016A12000001915120EC10F0B5
:1031600000019151E4DC00018C51005C9D6F8D5198
:1031700001589E6F8B519E5D02E18A519D5D04E274
:10318000FF0E00680168120000018F518E110AE0E5
:103190009E518F5D02E19D518E5D04E28EC09DF0D7
:1031A0008FC09EF004EE1AF0EECF00F0EDCF01F0EC
:1031B00000018C510024F36E8D510120F46E04EE59
:1031C00012F0EECF00F0EDCF01F0F450015C02E11F
:1031D000F350005C15E204EE12F0EECF00F0EDCFFC
:1031E00001F010C4E8FF005C026E11C4E8FF015852
:1031F000036E022A000E03220250F35E0350F45ABB
:10320000F3CF97F0F4CF98F004EE12F0EECF00F089
:10321000EDCF01F0F350005EF450015A0028000198
:103220009B6F000E01209C6F8CC09FF08DC0A0F0A2
:103230008AC099F08BC09AF088C095F089C096F04A
:1032400088C0F6FF89C0F7FF0E0EF76403D00800B0
:10325000F55005D0F6CFE9FFF7CFEAFFEF50946FB6
:10326000884B892B926B905109E0600E946506D0D3
:103270007B0E946103D0E00E00019427200E000124
:10328000936F000E9C5D200ED8B49B5D02E29B51B3
:10329000936F93C000F0016A000101509E5D02E14E
:1032A00000509D5D02E29D51936F0001A10EDD6F04
:1032B000000EDE6F010EDF6F97C0E0F098C0E1F006
:1032C00029C4E2F09351E36FE46B6FEC2CF0000142
:1032D00093519727000E982393519B5F000E9C5BA0
:1032E0009C519B1106E110C497F011C498F09B69A2
:1032F0009C690001905101E18FD0F36A0001935164
:10330000F35C01E3E6D0F35000EEA1F0E926000EF5
:10331000EA22EF50006E610E005C13E3F35000EE02
:10332000A1F0E926000EEA22EF50006E7B0E005C51
:1033300008E2F35000EEA1F0E926000EEA22E00ECA
:10334000EF26F35000EEA1F0E926000EEA22EF503E
:103350000001941937E18A0EE96E000EEA6EEE065E
:10336000000EED5AEE50ED100FE19FC000F0A0C02E
:1033700001F09951005E9A51015AF3500026000E57
:103380000122002A0122120088C0F6FF89C0F7FF3F
:103390000E0EF76403D00800F55005D0F6CFE9FF14
:1033A000F7CFEAFFEF500001946F884B892B010E95
:1033B000926F600E94652ED07B0E94612BD0E00E40
:1033C000942728D099C08AF09AC08BF000019251BE
:1033D00021E095C088F096C089F088C0F6FF89C0CA
:1033E000F7FF0E0EF76403D00800F55005D0F6CFB6
:1033F000E9FFF7CFEAFFEF50946F884B892B600EFF
:10340000946506D07B0E946103D0E00E00019427F2
:103410000001926BF32A72D7F36A00019351F35CB7
:1034200058E2F35000EEA1F0E926000EEA22EF5038
:1034300094192FE18A0EE96E000EEA6EEE06000E78
:10344000ED5AEE50ED100FE19FC000F0A0C001F06A
:103450009951005E9A51015AF3500026000E012244
:10346000002A0122120088C0F6FF89C0F7FF0E0E65
:10347000F76403D00800F55005D0F6CFE9FFF7CF89
:10348000EAFFEF500001946F884B892B010E926F79
:103490001ED099C08AF09AC08BF00001925117E0BB
:1034A00095C088F096C089F088C0F6FF89C0F7FF04
:1034B0000E0EF76403D00800F55005D0F6CFE9FFF3
:1034C000F7CFEAFFEF50946F884B892B926BF32A6A
:1034D000A4D7000193519D5F000E9E5B8B519E5DB2
:1034E00002E18A519D5D04E2FF0E0068016812004E
:1034F000000193519F27000EA023C0D68500000134
:103500008B6F850E8C6F000E8D6F010E8E6F8F6B23
:1035100086C090F087C091F088C092F089C093F087
:103520008A51946F8B517CD400014A6B00014A513F
:1035300020EC10F000014D6B4C6B4B6B040125AD82
:1035400007D077EC80F0000903E0100E00014D6F0A
:10355000040125A516D087EC9CF004EE20F0EECFF8
:10356000F6FFEDCFF7FF0050F65E0150F75AF75027
:10357000800A800F010ED8B4F65C03E2100E000141
:103580004D6F040125A716D087EC9CF004EE22F0C5
:10359000EECFF6FFEDCFF7FF0050F65E0150F75A81
:1035A000F750800A800F010ED8B4F65C03E2100ECB
:1035B00000014D6F24C4E8FF0D0A19E187EC9CF06F
:1035C00004EE22F0EECFF6FFEDCFF7FF0050F65EEF
:1035D0000150F75AF750800A800F010ED8B4F65CFC
:1035E00006E2110E00014D6F0E0EE8CF24F400012B
:1035F0004D5104E0010EB36F4D518CDA040125B337
:1036000033D024C4E8FF090A01E0CFD17DEC9CF05F
:103610001CC4E8FF005C046E1DC4E8FF0158056E81
:103620001EC4E8FF0258066E1FC4E8FF0358076E69
:1036300007BEBBD156EC10F0020E0001B36F100EA6
:1036400069DA7DEC9CF0740E0024E8CF1CF4350E92
:103650000120E8CF1DF4060E0220E8CF1EF4000E74
:103660000320E8CF1FF4A1D17DEC9CF01CC4E8FF3F
:10367000005C046E1DC4E8FF0158056E1EC4E8FF1F
:103680000258066E1FC4E8FF0358076E07BE8DD1AF
:1036900056EC10F00BD10CEC70F0000901E124D1D4
:1036A000030EE8CF24F404014CA50AD040C474F002
:1036B00041C475F0010E0001766F4FEC70F014D12B
:1036C00040C456F041C457F0010E0001586F27EC7A
:1036D00070F00AD100014E0E746F000E756F77EC1A
:1036E00070F0006E00C002F0036A0350021001E1A6
:1036F000FBD011EC70F0000931E0040EE8CF24F4A7
:1037000000EE50F0EECF00F0EDCF01F000014E5191
:1037100000264F51012238C4E8FF0024026E39C44C
:10372000E8FF0120036E3AC4E8FF0218E8CF27F44F
:103730003BC4E8FF0318E8CF28F44EC040F44FC064
:1037400041F450C042F451C043F404014D6B000EEB
:103750002D6F2C6F2B6F270E2A6FC6D07DEC9CF03F
:10376000740E0024E8CF1CF4350E0120E8CF1DF4C0
:10377000060E0220E8CF1EF4000E0320E8CF1FF44F
:10378000020E5FD087EC9CF000C020F401C021F451
:103790000001400E916F040E926FFDEC7EF0050E5D
:1037A00050D00001400E916F040E926F440E936F43
:1037B000040E946F4DEC7FF0006E00C002F0036ABF
:1037C0000350021039E187EC9CF000C052F001C0B8
:1037D00053F002C054F003C055F004EE20F0EECFD9
:1037E00000F0EDCF01F0026A036A00010050525D63
:1037F000046E01505359056E02505459066E035021
:103800005559076E04EE2DF00750ED5C08E10650A7
:10381000ED5C05E10550ED5C02E10450EF5C64E213
:10382000060E04014D6106D04D2BD8902A372B3758
:103830002C372D37040E05D0020E00014D6F4C6B56
:10384000070EE8CF24F450D0020E2BD0020E040154
:103850004D6102D0120E25D0040125A106D0140E10
:1038600000014D6F010E4B6F3FD0020E0AD0050EC6
:1038700004014D6102D0180E14D00A0EE8CF24F4D2
:10388000110E00014D6F30D007D0E9D7050E0401AD
:103890004D61E5D7100E05D0050E04014D61DFD74F
:1038A000110E00014D6F010E4C6F1ED024C4E8FFB5
:1038B000020A01E1F0D6010A01E10CD7070A01E191
:1038C00061D7010A01E16DD7020ABEE00F0ABEE02E
:1038D000010ACDE0030AD8E0010AD7E0070AD6E0E2
:1038E000010AC5E0030AD8E000014D5159E04C51EE
:1038F00052E004014D2BD8902A372B372C372D3727
:1039000004EE36F0EECF00F0EDCF01F016C4E8FF84
:10391000005C026E17C4E8FF0158036E04EE2EF03F
:103920000250EE5E0350EE5A000E03BEFF0EEE5A3A
:10393000ED5AED52ED5214EE16F004EE36F0EE5262
:10394000E652E550ED5C02E1E750EF5C1BE204EE6D
:1039500010F0EECF00F0EDCF01F00EC4E8FF005CF8
:10396000026E0FC4E8FF0158036E04EE2EF0025001
:10397000EE5E0350EE5A000E03BEFF0EEE5AED5AF5
:10398000ED52ED5216C436F417C437F40001B36B90
:103990004D51C0D805D0010E0001B36F4D51BAD8BA
:1039A00000014B51D8A4DFEC22F000014A2B080E95
:1039B0004A65BCD512004A004AC0E9FF4BC0EAFF85
:1039C000EECF54F0EECF55F0EECF56F0EECF57F0ED
:1039D0004CC0E9FF4DC0EAFFEECF58F0EECF59F0F2
:1039E000EECF5AF0EECF5BF000015C6B060E5D6F20
:1039F0004EC05EF04FC05FF05EC0F8F05FC0F9F0FF
:103A0000FCEC05F000C05EF001C05FF00001540E58
:103A1000F66F000EF76F0C0EF86FF96B24EC06F0E2
:103A2000001C0001506F011C516F4EC0DDF04FC0F3
:103A3000DEF007EC82F000C052F001C053F000014C
:103A40005351511902E15251501903E08EEC80F0AC
:103A5000010C0001986B996B5DEC96F00001600E13
:103A6000FB6F000EFC6F140EFD6FFE6B26EC83F0F7
:103A70000001600EDD6F000EDE6F31EC22F0000100
:103A80006C390F0B006ED8900036D8900034EC0FD4
:103A9000D96ED9504EC000F04FC001F0005E000E4C
:103AA000015AEC0E00244E6FFF0E01204F6F4AC0EA
:103AB000E9FF4BC0EAFF010EEE18000ED8B4EE1875
:103AC000000ED8B4EE187F0ED8B4EE1803E18EECD9
:103AD00080F0010C0001600E746F000E756F4AC01B
:103AE00076F04BC077F0DADB006E00C002F0036ABC
:103AF000035002100BE00001600E746F000E756F32
:103B00004EC076F04FC077F01EEC23F08EEC80F0C4
:103B1000010CB3000001B46F04EE24F0EF50D8B4F0
:103B2000120024C400F00004D8B4120056EC10F0C7
:103B30000001B4A104D00401258F0001B491040157
:103B4000259525972599259D259B77EC80F00009E3
:103B5000FCE00001B451060B03E0B76BB86BDDD19C
:103B600004EE14F00401EE523751ED1836C4E8FFAC
:103B7000D8B4EF180DE10001B76BB86B040125AFA5
:103B8000CCD13C513D11000101E1C8D1B481C5D176
:103B900014EE14F004EE36F0EE52E652E550ED5C11
:103BA00002E1E750EF5C01E3A1D004EE14F0EECFA8
:103BB00000F0EDCF01F036C4E8FF005C0001B76F04
:103BC00037C4E8FF0158B86F3CC4F3FF3DC4F4FFAD
:103BD00014EE16F004EE36F0EE52E652E550ED5CCF
:103BE00002E1E750EF5C12E304EE36F0EECF00F0B6
:103BF000EDCF01F016C4E8FF005C026E17C4E8FFC9
:103C00000158036E0250F35E035025D004EE16F007
:103C1000EECF00F0EDCF01F036C4E8FF005CF66EA9
:103C200037C4E8FF0158F76E04EE10F0EECF00F055
:103C3000EDCF01F00EC4E8FF005C026E0FC4E8FF98
:103C40000158036EF650025C006EF7500358016E87
:103C50000050F35E0150F45A0001B851F45C02E1E7
:103C6000B751F35C04E2F3CFB7F0F4CFB8F0000142
:103C7000020EB85D190ED8B4B75D06E3180EB76F23
:103C8000020EB86F0401258D040125AF0FD000018D
:103C9000F450B81902E1F350B71908E0B851020A1C
:103CA000180ED8B4B719000102E0B4810001BB0EB0
:103CB000DD6F0A0EDE6FDF6B00EEE0F036C4EEFF64
:103CC00037C4EDFF29C4E2F0B7C0E3F0B8C0E4F0B8
:103CD0006FEC2CF0B7C000F0B8C001F0040100C0D8
:103CE000E8FF362701C0E8FF372317D104EE10F0B4
:103CF000EECF00F0EDCF01F036C4E8FF005C00012C
:103D0000C76F37C4E8FF0158C86F14C4E8FFC72560
:103D1000006E15C4E8FFC821016E0EC4E8FF005C08
:103D2000B76F0FC4E8FF0158B86F3CC4F3FF3DC440
:103D3000F4FF14EE16F004EE36F0EE52E652E550C3
:103D4000ED5C02E1E750EF5C12E304EE36F0EECFFB
:103D500000F0EDCF01F016C4E8FF005C026E17C45E
:103D6000E8FF0158036E0250F35E035025D004EEC5
:103D700016F0EECF00F0EDCF01F036C4E8FF005CA6
:103D8000F66E37C4E8FF0158F76E04EE10F0EECF80
:103D900000F0EDCF01F00EC4E8FF005C026E0FC42E
:103DA000E8FF0158036EF650025C006EF7500358AE
:103DB000016E0050F35E0150F45A0001B851F45CFA
:103DC00002E1B751F35C04E2F3CFB7F0F4CFB8F0FF
:103DD0000001020EB85D190ED8B4B75D06E3180EE7
:103DE000B76F020EB86F0401258D040125AF0FD007
:103DF0000001F450B81902E1F350B71908E0B851C6
:103E0000020A180ED8B4B719000102E0B48100010B
:103E1000C851F45C02E1C751F35C04E2F3CFC7F090
:103E2000F4CFC8F000EEC7F0EE52020EED5C190EB2
:103E3000D8B4EF5C000104E3180EC76F020EC86F20
:103E4000BB0EDD6F0A0EDE6FDF6B00EEE0F036C4F6
:103E5000EEFF37C4EDFF29C4E2F0C7C0E3F0C8C0ED
:103E6000E4F06FEC2CF00001C751B75DC76FC8518B
:103E7000B859C86F00EEC7F0EE50ED1023E004EE25
:103E800010F0EECF00F0EDCF01F036C4E8FF005C9B
:103E9000026E37C4E8FF0158036EBB0E0224DD6FCB
:103EA0000A0E0320DE6FDF6B00EEE0F00EC4EEFFC3
:103EB0000FC4EDFF29C4E2F0C7C0E3F0C8C0E4F0CE
:103EC0006FEC2CF0B7C000F0B8C001F0040100C0E6
:103ED000E8FF362701C0E8FF372314EE10F004EEA8
:103EE00036F0EE52E652E550ED5C02E1E750EF5C51
:103EF00014E304EE10F0EECF00F0EDCF01F00EC4AD
:103F0000E8FF005C026E0FC4E8FF0158036E02C0B8
:103F1000E8FF365F03C0E8FF375B0001B851B71117
:103F200003E1B451030B26E00001B3A108D0040162
:103F30004D6B2D6B2C6B9E0E2B6FF20E2A6F7DEC52
:103F40009CF0000EE96E000EEA6E04012A51EE2488
:103F5000E8CF1CF42B51EE20E8CF1DF42C51EE20BD
:103F6000E8CF1EF42D51EE20E8CF1FF4ED52ED52B4
:103F7000258334D00001B3A30BD00401FF0E2E071C
:103F80002F2330233123010E0001B76FB86B26D0E9
:103F9000040125A323D00001B3B107D004014D07CC
:103FA000D8902D332C332B332A337DEC9CF0000E2C
:103FB000E96E000EEA6E04012A51EE24E8CF1CF4EB
:103FC0002B51EE20E8CF1DF42C51EE20E8CF1EF44B
:103FD0002D51EE20E8CF1FF4ED52ED5200EEC9F066
:103FE0003AC4EEFF3BC4EDFF00EECBF038C4EEFF69
:103FF00039C4EDFF00EECDF02EC4EEFF2FC4EEFF6E
:1040000030C4EEFF31C4EEFF00EED1F032C4EEFF5B
:1040100033C4EEFF34C4EEFF35C4EEFF00013F0EA3
:10402000D617F00ED517B451D66FDB6BDC6B04EEF0
:104030002EF0B751EE26B851EE22000EEE22ED2200
:10404000ED52ED52B4A310D004014CA306D00001F0
:10405000CD07CE5BCF5BD05B07D004012E2B000ECB
:104060002F23302331234C830001B4A111D004014C
:104070004CA107D00001CD07000ECE5BCF5BD05B1B
:1040800007D004012E2B000E2F23302331234C8127
:1040900014EE1AF004EE18F0EE52E652E550ED5C24
:1040A00002E1E750EF5C23E304EE18F0EECF00F0FE
:1040B000EDCF01F01AC4E8FF005CF66E1BC4E8FF08
:1040C0000158F76E04EE12F0EECF00F0EDCF01F0E4
:1040D00010C4E8FF005C026E11C4E8FF0158036ED3
:1040E000F650025C0001D76FF750035814D004EE6D
:1040F0001AF0EECF00F0EDCF01F018C4E8FF005C3D
:10410000026E19C4E8FF0158036EFF0E022400017D
:10411000D76FFF0E0320D86FB2EC80F0C00E0024E2
:104120000001B56FFF0E0120B66FB6AF02D0B56BC0
:10413000B66B0001D851B65D02E1D751B55D04E21E
:10414000B5C0D7F0B6C0D8F00001C90EDD6F000EC3
:10415000DE6F87D9140E0001B727000EB823D551A2
:104160000F0B5009D56FB4A316D0040EB727000E5D
:10417000B823020EB96F040EBA6F020EBB6F140E95
:10418000BC6FD5390F0B006E002A003AD5510018CC
:104190000F0B0018D56F00EEBDF05BC4EEFF5CC4E2
:1041A000EEFF5DC4EEFF5EC4EEFF00EEC1F040C462
:1041B000EEFF41C4EEFF42C4EEFF43C4EEFF000138
:1041C000C56B060EC66FB7C0C7F0B8C0C8F0C7C091
:1041D000F8F0C8C0F9F0FCEC05F000C0C7F001C071
:1041E000C8F00001BD0EF66F000EF76F0C0EF86FF1
:1041F000F96B24EC06F0001C0001D96F011CDA6F8A
:10420000930EE56F0A0EE66FB7EC81F00001400EE9
:10421000DD6F040EDE6F060EDF6FB7C0E0F0B8C0D2
:10422000E1F0F6EC95F00001C90EFB6F000EFC6F9B
:10423000140EFD6FFE6B55EC83F00001B4A309D0A2
:10424000B90EFB6F000EFC6F040EFD6FFE6B55EC9C
:1042500083F00001A70EE56F0A0EE66FC5EC81F052
:10426000B7C0DDF0B8C0DEF007EC82F000C0B5F0FA
:1042700001C0B6F00001B70EE56F0A0EE66FB7ECAD
:1042800081F00001B50EFB6F000EFC6F020EFD6F9A
:10429000FE6B55EC83F083EF81F07400FE0E00019D
:1042A000786F76C0D9FF77C0DAFF74C0E9FF75C0B8
:1042B000EAFF10EE02F0E950E126EA50E222E6CFF2
:1042C00000F0E5CF01F0EECF02F0EDCF03F0DECF4E
:1042D000F6FFDDCFF7FF10EE02F0D950E126DA50FD
:1042E000E222E6CF7CF0E5CF7DF0F6507C257E6FB4
:1042F000F7507D217F6F02507E25F66E03507F219F
:10430000F76E0050F6187A6F0150F7187B6F796BD3
:104310000001795120EC10F024C4E8FF0F0A54E0AA
:1043200024C4E8FF060A15E1000110EE02F0745102
:10433000E1267551E22204EE27F0EE52E652E550F6
:10434000ED18E7CFE8FFD8B4EF183EE17951786F68
:104350003BD004EE27F00001EE527B51ED187AC0FD
:10436000E8FFD8B4EF1830E156EC10F074C0D9FF74
:1043700075C0DAFF00EE02F0D950E926DA50EA22E1
:104380000401EE523B51ED183AC4E8FFD8B4EF18DF
:104390001BE1DE523951DD1838C4E8FFD8B4DF180C
:1043A00013E114EE40F076C0E9FF77C0EAFFEE506B
:1043B000E61808E1EE50E61805E1EE50E61802E1D5
:1043C000EE50E61801E1010C0001792B080E796529
:1043D0009FD77851FE0A01E1000C0001785120ECD2
:1043E00010F056EC10F07AC027F47BC028F40001DE
:1043F000400EE56F040EE66F76C0E7F077C0E8F098
:104400000A0EE96FEA6B82EC9FF074C0E1FF75C0A1
:10441000E2FFE6CF00F0E5CF01F000C038F401C0C4
:1044200039F400EE02F0E150E926E250EA22EECF44
:1044300000F0EDCF01F000C03AF401C03BF456ECBF
:104440009EF000C02EF401C02FF456EC9EF000C088
:1044500030F401C031F40EC436F40FC437F4010C4B
:10446000DD00DDC0E9FFDEC0EAFFEECFF8F0EDCF02
:10447000F9F0FCEC05F0DDC0E9FFDEC0EAFF00C0AA
:10448000EEFF01C0EDFF000100EE02F0DD51E92674
:10449000DE51EA22EECFF8F0EDCFF9F0FCEC05F0BA
:1044A000000100EE02F0DD51E926DE51EA2200C0F3
:1044B000EEFF01C0EDFF00EE04F0DD51E926DE5114
:1044C000EA22EECFDFF0EECFE0F0EECFE1F0EECF7C
:1044D000E2F00DEC06F0000100EE04F0DD51E926FB
:1044E000DE51EA2200C0EEFF01C0EEFF02C0EEFF87
:1044F00003C0EEFF00EE08F0DD51E926DE51EA22AE
:10450000EECFDFF0EECFE0F0EECFE1F0EECFE2F075
:104510000DEC06F0000100EE08F0DD51E926DE5159
:10452000EA2200C0EEFF01C0EEFF02C0EEFF03C0B2
:10453000EEFF00EE0EF0DD51E926DE51EA22EECF6D
:10454000F8F0EDCFF9F0FCEC05F0000100EE0EF014
:10455000DD51E926DE51EA2200C0EEFF01C0EDFF89
:1045600000EE10F0DD51E926DE51EA22EECFF8F040
:10457000EDCFF9F0FCEC05F0000100EE10F0DD519C
:10458000E926DE51EA2200C0EEFF01C0EDFF00EE99
:1045900012F0DD51E926DE51EA22EECFF8F0EDCF40
:1045A000F9F0FCEC05F0000100EE12F0DD51E92617
:1045B000DE51EA2200C0EEFF01C0EDFF120056EC12
:1045C00010F03AC427F43BC428F40EC414F40FC40A
:1045D00015F40EC416F40FC417F410C418F411C463
:1045E00019F410C41AF411C41BF4040125B102D04B
:1045F0000F0E01D0060EE8CF24F4259325952597BC
:104600002599259B259D259F26814C914C930EC471
:1046100036F40FC437F456EC9EF000C02EF401C0FF
:104620002FF456EC9EF000C030F401C031F4FF0EC0
:10463000E8CF4AF4E8CF4BF412007400000100EE1A
:104640000DF07451E9267551EA22EF50786F00EEB3
:1046500008F07451E9267551EA22EECF8DF0EECFC5
:104660008EF0EECF8FF0EECF90F000EE04F07451AC
:10467000E9267551EA22EECF85F0EECF86F0EECF37
:1046800087F0EECF88F0040125B3A8D07DEC9CF034
:10469000740E0024E8CF1CF4350E0120E8CF1DF481
:1046A000060E0220E8CF1EF4000E0320E8CF1FF410
:1046B00095D0000178B583D7000178A90DD08DC0C1
:1046C0002EF48EC02FF48FC030F490C031F4B36B51
:1046D000040E8AEC1DF073D7000178A370D78529EA
:1046E000E8CF32F4000E8621E8CF33F4000E8721A4
:1046F000E8CF34F4000E8821E8CF35F4010EB36F13
:10470000120E8AEC1DF0080EE8CF24F4120000010E
:1047100078B5120078A92CD004EE2EF0EE508D1949
:1047200008E1EE508E1905E1EE508F1902E1EE50CE
:1047300090191EE02EC485F02FC486F030C487F097
:1047400031C488F08DC02EF48EC02FF48FC030F4A9
:1047500090C031F4010EB36F040E8AEC1DF085C0D9
:104760002EF486C02FF487C030F488C031F41200D4
:10477000000178A312008529E8CF32F4000E8621CB
:10478000E8CF33F4000E8721E8CF34F4000E8821FF
:10479000E8CF35F400EE0EF07451E9267551EA22A7
:1047A000EECF00F0EDCF01F000C03CF401C03DF4CD
:1047B000010E78A90AD0B36F100E8AEC1DF0090E15
:1047C000E8CF24F40401259312000001B36F120E08
:1047D0008AEC1DF0080EE8CF24F4120024C4E8FF90
:1047E000060A01E166D7010A92E076C07BF077C045
:1047F0007CF0000178A102D07B4B7C2B000178A3D8
:1048000002D07B4B7C2B14EE1AF004EE18F0EE5223
:10481000E652E550ED5C02E1E750EF5C23E304EE85
:1048200018F0EECF00F0EDCF01F01AC4E8FF005C05
:10483000F66E1BC4E8FF0158F76E04EE12F0EECFDF
:1048400000F0EDCF01F010C4E8FF005C026E11C46F
:10485000E8FF0158036EF650025C0001796FF750D3
:10486000035814D004EE1AF0EECF00F0EDCF01F0B3
:1048700018C4E8FF005C026E19C4E8FF0158036E1B
:10488000FF0E02240001796FFF0E03207A6F0001F2
:1048900032C4E8FF855D896F33C4E8FF86598A6FAB
:1048A00034C4E8FF87598B6F35C4E8FF88598C6F93
:1048B00089C07FF08AC080F0F36A7C517B117AE076
:1048C0007A51791101E196D08CBF16D079C000F0F1
:1048D0007AC001F0026A036A8C51800A046E0350A8
:1048E000800A045C08E102508B5D05E101508A5D9D
:1048F00002E10050895D35E300017B518925006E9E
:104900007C518A21016E000E8B21026E000E8C21DB
:10491000036E0350800A800F08E1000E025C05E17F
:10492000000E015C02E1010E005C1DE37B51795D2C
:10493000006E7C517A59016E026A01BE0206025075
:10494000036E0350800A046E8C51800A045C08E1F7
:104950008B51025C05E18A51015C02E18951005CE6
:1049600002E3010EF36E79C000F07AC001F0026A32
:10497000036A00018C51800A046E0350800A045CB3
:1049800008E102508B5D05E101508A5D02E10050B3
:10499000895D30E27FC000F080C001F07B510026CD
:1049A0007C5101220150800A800F010ED8B4005CB6
:1049B00021E31ED000018C5189118A118B1118E05E
:1049C0008CBF18D079C000F07AC001F0026A036A87
:1049D0008C51800A046E0350800A045C08E1025086
:1049E0008B5D05E101508A5D02E10050895D02E2C4
:1049F000010EF36EF35008E1000178B51200010ECC
:104A0000B36F100E8AEF1DF000017851060B01E024
:104A1000D6D5000178A912009ED104EE2EF0000137
:104A2000EE508D1908E1EE508E1905E1EE508F1908
:104A300002E1EE5090191EE02EC485F02FC486F0DE
:104A400030C487F031C488F08DC02EF48EC02FF4AE
:104A50008FC030F490C031F4010EB36F040E8AECB5
:104A60001DF085C02EF486C02FF487C030F488C0B6
:104A700031F41200090EE8CF24F404EE2EF0000108
:104A80008D51EE5C006E8E51EE58016E8F51EE58D6
:104A9000026E9051ED58036EED52ED5203BEAFD74A
:104AA00004EE36F0EECF00F0EDCF01F016C4E8FFD3
:104AB000005C046E17C4E8FF0158056E066A05BE67
:104AC00006060650076E04EE2EF00450EE5C006EF3
:104AD0000550EE58016E0650EE58026E0750ED5824
:104AE000036EED52ED5200C081F001C082F002C0B1
:104AF00083F003C084F014EE16F004EE36F0EE52AC
:104B0000E652E550ED5C02E1E750EF5C19E20EC4BD
:104B100002F00FC403F004EE10F0EECF00F0EDCF82
:104B200001F00250005E0350015A026A036A00015C
:104B30000050815F0150825B0250835B0350845BB5
:104B4000000181518D5D816F82518E59826F835139
:104B50008F59836F84519059846F8451800A800FDC
:104B600008E1000E835D05E1000E825D02E1010EA9
:104B7000815D4CE30EC402F00FC403F004EE10F0AC
:104B8000EECF00F0EDCF01F00250005E0350015A6D
:104B9000026A036A8451035C08E18351025C05E107
:104BA0008251015C02E18151005C30E30401259BEC
:104BB00081C000F082C001F083C002F084C003F025
:104BC00000C0E8FF162701C0E8FF172314EE10F01D
:104BD00004EE16F0EE52E652E550ED5C02E1E750CD
:104BE000EF5C14E304EE10F0EECF00F0EDCF01F037
:104BF0000EC4E8FF005C026E0FC4E8FF0158036EAC
:104C000002C0E8FF165F03C0E8FF175B04EE16F072
:104C10000401EE521551ED1814C4E8FFD8B4EF1892
:104C200017E125BF02D0259313D004EE2EF000012A
:104C3000EE508D1908E1EE508E1905E1EE508F19F6
:104C400002E1EE50901904E104012593259F4C9157
:104C500004013C513D110CE1000100EE0EF07451D5
:104C6000E9267551EA22EE50ED1002E00401258D8F
:104C7000000100EE0EF07451E9267551EA22EECFE4
:104C800000F0EDCF01F000C03CF401C03DF424C4BD
:104C9000E8FF0A0A26E104EE2EF0EE508D1908E135
:104CA000EE508E1905E1EE508F1902E1EE50901989
:104CB00068E17DEC9CF0BA0E0024E8CF1CF41A0EDB
:104CC0000120E8CF1DF4030E0220E8CF1EF4000EF1
:104CD0000320E8CF1FF4040125830B0EE8CF24F452
:104CE00050D024C4E8FF0B0A10E1000178B149D08C
:104CF0008DC02EF48EC02FF48FC030F490C031F4EC
:104D0000B36B140E8AEC1DF05AD424C4E8FF0C0ACD
:104D100038E104EE2EF00001EE508D1908E1EE505E
:104D20008E1905E1EE508F1902E1EE509019D8B4BA
:104D300046DC120004EE2EF00001EE508D1908E161
:104D4000EE508E1905E1EE508F1902E1EE509019E8
:104D5000D8B435DC120024C4E8FF080A01E15DD6AE
:104D6000010A01E18AD6030A01E187D6010A01E1BD
:104D700084D6070A01E181D6010A01E17ED6030A41
:104D8000D9E0000178BB120024C4E8FF0D0AD8B4B2
:104D9000120024C4E8FF0C0AD8B4120024C4E8FFAF
:104DA0000E0AD8B412007751761101E1A2D28051D7
:104DB000800A800F010ED8B47F5D01E30ED100EEB2
:104DC0000CF07451E9267551EA22EF380F0B040DEF
:104DD0007F51F35C986F8051F458996F5DEC96F0B9
:104DE00000017F5176278051772377517A5D02E168
:104DF0007651795D04E279C076F07AC077F004EEFE
:104E000032F000017651EE267751EE22000EEE22AE
:104E1000ED22ED52ED5204EE18F0EECF02F0EDCFA0
:104E200003F0765102267751032204EE12F0EECF02
:104E300000F0EDCF01F00350015C02E10250005C94
:104E400048E204EE12F0EECF00F0EDCF01F018C40E
:104E5000E8FF005C026E19C4E8FF0158036E0228E7
:104E60007D6F000E03207E6F18C4DDF019C4DEF0E4
:104E700029C4DFF0E069E169E26B7DC0E3F07EC048
:104E8000E4F06FEC2CF010C4DDF011C4DEF029C4A6
:104E9000DFF00001E069E169E26B7D51765DE36F6F
:104EA0007E517759E46F6FEC2CF076C000F077C03C
:104EB00001F000017D51005E7E51015A10C4E8FFEF
:104EC0000024E8CF18F411C4E8FF0120E8CF19F45A
:104ED0001BD018C4DDF019C4DEF029C4DFF00001D6
:104EE000E069E169E26B76C0E3F077C0E4F06FEC73
:104EF0002CF076C000F077C001F0040100C0E8FF9C
:104F0000182701C0E8FF192304014B1DFF0ED8B478
:104F10004A1901E1EED176C000F077C001F000C07F
:104F2000E8FF4A5F01C0E8FF4B5B04EE3EF0EECFC6
:104F300000F0EDCF01F04AC4E8FF0024F36E4BC44B
:104F4000E8FF0120F46EF4AE06D0FF0EE8CF4AF47D
:104F5000E8CF4BF4CED104014B51800A800F010EF3
:104F6000D8B44A5D01E3C5D104EE32F0F350EE2629
:104F7000F450EE22000EEE22ED22ED52ED52F3CF70
:104F800000F0F4CF01F000C0E8FF182701C0E8FFEF
:104F9000192314EE18F004EE12F0EE52E652E5502A
:104FA000ED5C02E1E750EF5CD0E204EE12F0EECFF0
:104FB00000F0EDCF01F010C4E8FF005C026E11C4F8
:104FC000E8FF0158036E022A000E032202C0E8FF28
:104FD000185F03C0E8FF195BB8D700018051800A51
:104FE000800F010ED8B47F5D01E283D176C000F05E
:104FF00077C001F07F5100268051012201507A5D77
:1050000002E10050795D06E27F51795D766F805153
:105010007A59776F000100EE0CF07451E926755152
:10502000EA22EF380F0B040DF3CF98F0F4CF99F08C
:105030005DEC96F004EE18F0EECF02F0EDCF03F049
:1050400000017F51022680510322765102267751BA
:10505000032204EE12F0EECF00F0EDCF01F003508A
:10506000015C02E10250005C72E204EE12F0EECF4D
:1050700000F0EDCF01F018C4E8FF005C026E19C427
:10508000E8FF0158036E022A000E03227F51025CE2
:105090007D6F805103587E6F7EBF29D004EE18F0DB
:1050A000EECF00F0EDCF01F07F510024DD6F805195
:1050B0000120DE6F29C4DFF0E069E169E26B7DC0A9
:1050C000E3F07EC0E4F06FEC2CF010C4DDF011C40E
:1050D000DEF029C4DFF00001E069E169E26B7D5197
:1050E000765DE36F7E517759E46FF9DB47D004EECC
:1050F00012F0EECF00F0EDCF01F010C4E8FF005C3D
:10510000026E11C4E8FF0158036E04EE18F0EECFF2
:1051100000F0EDCF01F000017F5100268051012207
:105120000250005CF66E03500158F76EFF0EF62435
:10513000DD6FFF0EF720DE6F29C4DFF0E069E16963
:10514000E26B76C0E3F077C0E4F0C9DB17D004EE81
:1051500018F0EECF00F0EDCF01F000017F510024F8
:10516000DD6F80510120DE6F29C4DFF0E069E16965
:10517000E26B76C0E3F077C0E4F0B1DB04014B1DD5
:10518000FF0ED8B44A1909E17FC04AF480C04BF43D
:1051900076C03EF477C03FF4ACD004EE4AF0EECFD8
:1051A00000F0EDCF01F000010150805D02E1005000
:1051B0007F5D7FC000F04FE280C001F07651002695
:1051C0007751012204EE4AF0EECF02F0EDCF03F06A
:1051D0003EC4E8FF0224F66E3FC4E8FF0320F76EEA
:1051E0000150F75C02E10050F65C14E304EE4AF073
:1051F000EECF02F0EDCF03F07FC000F080C001F0F1
:1052000076510026775101220350015C02E10250E1
:10521000005C05E276C03EF477C03FF417D004EEA0
:105220004AF0EECF00F0EDCF01F03EC4E8FF0024DD
:10523000026E3FC4E8FF0120036E00017F51025C53
:10524000E8CF3EF480510358E8CF3FF47FC04AF4E2
:1052500080C04BF44ED080C001F000017651002692
:105260007751012204EE4AF0EECF02F0EDCF03F0C9
:105270003EC4E8FF0224F66E3FC4E8FF0320F76E49
:105280000150F75C02E10050F65C33E204EE4AF0B4
:10529000EECF00F0EDCF01F03EC4E8FF0024026E37
:1052A0003FC4E8FF0120036E8051035C02E17F519F
:1052B000025C1FE37FC000F080C001F07651002641
:1052C000775101224AC4E8FF005C026E4BC4E8FF3C
:1052D0000158036E3EC4E8FF025C006E3FC4E8FF65
:1052E0000358016E040100C0E8FF3E2701C0E8FF3B
:1052F0003F2300017C517B1123E024C4E8FF090A0D
:1053000004E018C41AF419C41BF4040125A909D037
:10531000010E0001B36F100E8AEC1DF056EC10F078
:105320000FD00401258925B70BD0258787EC9CF089
:105330000F0E0024E8CF22F4000E0120E8CF23F462
:1053400004EE14F00401EE521751ED1816C4E8FFF4
:10535000D8B4EF18D8B42593000178A112007B517E
:105360008525006E7C518621016E000E8721026E1C
:10537000000E8821036E32C404F033C405F034C437
:1053800006F035C407F00428086E000E0520096EEB
:10539000000E06200A6E000E07200B6E031808E1AF
:1053A00002500A1805E10150091802E100500818DE
:1053B000D8A412000401322B000E332334233523EA
:1053C00037D00E0EE8CF24F4010E0001B36F110E9A
:1053D0008AEF1DF00D0EE8CF24F487EC9CF01F0E31
:1053E0000024E8CF22F4000E0120E8CF23F42AD0D5
:1053F00004EE2EF00001EE508D1908E1EE508E19EA
:1054000005E1EE508F1902E1EE50901906E1B36B01
:10541000100E8AEC1DF0DFEF22F00C0EE8CF24F422
:1054200011D00001B36B100E8AEC1DF0DFEF22F0FB
:1054300024C4E8FF080AC5E0010ACCE0030AD8E06A
:10544000010AEFE0010E000100EF25F05C00000111
:10545000616F615120EC10F000015D515C1103E1BE
:10546000010E5C6F5D6B04EE12F0EECF00F0EDCF3D
:1054700001F00EC4E8FF005C026E0FC4E8FF0158A3
:10548000036EFF0E02240001626FFF0E0320636FA4
:105490005CC000F05DC001F05E5100265F5101224A
:1054A0000150635D02E10050625D01E2000C56ECC8
:1054B00010F000016051030B02E1030E606F5EC04B
:1054C000F6FF5FC0F7FF5CC000F05DC001F00001B7
:1054D0005E5100265F5101220050625F0150635B04
:1054E00060A310D060A109D0D8906331016E623101
:1054F000006E0050F626015004D000016251F626DD
:105500006351F7220EC400F00FC401F0F6500026DC
:10551000F75001220028F36E000E0120F46E14EE05
:1055200018F004EE1AF0EE52E652E550ED5C02E19E
:10553000E750EF5C0CE204EE1AF0EECF00F0EDCF96
:1055400001F0F450015C02E1F350005C17D014EE5E
:105550001AF004EE18F0EE52E652E550ED5C02E16E
:10556000E750EF5C0FE204EE10F0EECF00F0EDCF6D
:1055700001F0F450015C02E1F350005C0BE2000129
:1055800060B5000CF3CF1AF4F4CF1BF4F3CF18F48A
:10559000F4CF19F4F3CF10F4F4CF11F40EC436F4B1
:1055A0000FC437F40EC416F40FC417F40EC414F469
:1055B0000FC415F424C4E8FF090A06E1010E000136
:1055C000B36F100E8AEC1DF0010C3D0000013D6B25
:1055D00000013D5120EC10F024C4E8FF060A20E150
:1055E00004EE27F00001EE523E51ED183DC0E8FFF9
:1055F000D8B4EF1815E10401246B0EC414F40FC4E1
:1056000015F40EC416F40FC417F410C418F411C422
:1056100019F410C41AF411C41BF400013D51120016
:1056200000013D2B080E3D65D3D7FE0C00013D6FF8
:105630003D5120EC10F004EE24F0EF5005E024C4BE
:1056400000F0000401E0000CDFEC22F0010C00018E
:105650005C6F5C5120EC10F004EE24F0EF5005E09C
:1056600024C400F0000401E0000C010C3D00000126
:105670003D6F3D5120EC10F024C400F0000405E122
:105680003FC000F040C001F0120000013D51EBECC2
:1056900016F000C03EF001C03FF0000140513F5DF8
:1056A00002E13F513E5D04E23EC03FF03FC040F0AA
:1056B00004EE18F0EECF02F0EDCF03F000013F5101
:1056C00002264051032204EE12F0EECF00F0EDCF9F
:1056D00001F00350015C02E10250005C50E204EE74
:1056E00012F0EECF00F0EDCF01F018C4E8FF005C3F
:1056F000026E19C4E8FF0158036E02283E6F000EC7
:1057000003203F6F18C4DDF019C4DEF029C4DFF0B8
:105710003DC0E0F03EC0E1F0010EE26F3EC0E3F0BC
:105720003FC0E4F0DCD800013E513D273F513E230D
:1057300010C4DDF011C4DEF029C4DFF03DC0E0F09C
:105740003EC0E1F0010EE26F3E513F5DE36F3F511D
:105750004059E46FC4D83FC000F040C001F00001E0
:105760003E51005E3F51015A10C4E8FF0024E8CFCB
:1057700018F411C4E8FF0120E8CF19F41DD018C4B3
:10578000DDF019C4DEF029C4DFF03DC0E0F03EC01A
:10579000E1F0010E0001E26F3FC0E3F040C0E4F031
:1057A0009ED83FC000F040C001F0040100C0E8FFF7
:1057B000182701C0E8FF19233FC000F040C001F0E6
:1057C00012003D0000013D6F406B416B3D5120ECEC
:1057D00010F000013D515BEC15F000C03EF001C03F
:1057E0003FF0000140513F5D02E13F513E5D04E268
:1057F0003EC03FF03FC040F004EE10F0EECF00F0AE
:10580000EDCF01F004EE16F0EECF02F0EDCF03F095
:1058100000013F510226405103220150035C02E186
:105820000050025C32E304EE10F0EECF00F0EDCF5A
:1058300001F016C4E8FF005C406F17C4E8FF015890
:10584000416F3DC0DDF03EC0DEF0010EDF6F00EEC7
:10585000E0F016C4EEFF17C4EDFF29C4E2F040C02B
:10586000E3F041C0E4F03BD800013E513D1104E0BB
:1058700040513D2741513E23000140513F5F41517E
:10588000405B0EC416F40FC417F43DC0DDF03EC0FB
:10589000DEF0010E0001DF6F00EEE0F016C4EEFF57
:1058A00017C4EDFF29C4E2F03FC0E3F040C0E4F0CC
:1058B00016D83FC000F040C001F0040100C0E8FF6E
:1058C000162701C0E8FF17233FC000F040C001F0D9
:1058D000000140510026415101221200DD0056D046
:1058E00021D0DDC0E5F0DEC0E6F0E0C0E7F0E1C0C9
:1058F000E8F0E3C0E9F0E4C0EAF082EF9FF00001D5
:10590000DEBF06D0DDC0E5F0DEC0E6F0B7EC81F02A
:10591000E0C0FBF0E1C0FCF0E3C0FDF0E4C0FEF04D
:1059200055EF83F00001DF51EAE0010ADAE01200EE
:1059300027D00001E1BF06D0E0C0E5F0E1C0E6F00D
:10594000C5EC81F0DDC0FBF0DEC0FCF0E3C0FDF093
:10595000E4C0FEF026EF83F0DDC0E5F0DEC0E6F047
:10596000E0C0E7F0E1C0E8F0E3C0E9F0E4C0EAF04D
:105970007BEC82F01DEC83F00009D8A41200FAD76A
:105980000001DF51E9E0010AD4E012000001E25118
:10599000CFE0010AA5E0120072004ED072C0E5F01F
:1059A00073C0E6F075C0E7F076C0E8F077C0E9F0C4
:1059B00078C0EAF082EF9FF0000173BF06D072C09A
:1059C000E5F073C0E6F0B7EC81F0100E0001796FDE
:1059D0007A6B000178517711D8B412007A51785D52
:1059E00002E17951775D04E277C079F078C07AF00E
:1059F00000017B0EE56F000EE66F75C0E7F076C024
:105A0000E8F079C0E9F07AC0EAF082EC9FF000019A
:105A10007B0EFB6F000EFC6F79C0FDF07AC0FEF0CC
:105A200055EC83F00001795175277A51762379512D
:105A3000775F7A51785BCDD700017451BDE0010AE0
:105A4000ADE012005C006CD00001D90E606F110E49
:105A500006D057EF4DF00001CE0E606F110E616F52
:105A600052EF3EF089EF4DF0A2D093EF4CF0070ECD
:105A70000BD0060E09D0050E07D0040E05D0030E7C
:105A800003D0020E01D0010E0001606F21D0A3EF00
:105A90004CF0040E03D0040E10D0030E0001606F12
:105AA000616B010E626F0DD0030E07D0020EF6D7A8
:105AB000020E03D0010EF2D7010E0001606F616B80
:105AC000626B636BFAEF4BF087EF4CF00001606B99
:105AD000616B99EF4BF00001606B03D0010E000188
